{
  "_format": "hh-sol-artifact-1",
  "contractName": "DecentralizedInsurance",
  "sourceName": "contracts/functions.sol",
  "abi": [
    {
      "inputs": [],
      "stateMutability": "nonpayable",
      "type": "constructor"
    },
    {
      "anonymous": false,
      "inputs": [
        {
          "indexed": false,
          "internalType": "uint256",
          "name": "requestId",
          "type": "uint256"
        },
        {
          "indexed": false,
          "internalType": "uint256",
          "name": "claimAmount",
          "type": "uint256"
        }
      ],
      "name": "ClaimSettled",
      "type": "event"
    },
    {
      "anonymous": false,
      "inputs": [
        {
          "indexed": false,
          "internalType": "address",
          "name": "customer",
          "type": "address"
        },
        {
          "indexed": false,
          "internalType": "uint256",
          "name": "rate",
          "type": "uint256"
        }
      ],
      "name": "CustomerRegistered",
      "type": "event"
    },
    {
      "anonymous": false,
      "inputs": [
        {
          "indexed": false,
          "internalType": "uint256",
          "name": "planId",
          "type": "uint256"
        },
        {
          "indexed": false,
          "internalType": "uint256",
          "name": "companyId",
          "type": "uint256"
        }
      ],
      "name": "PlanCreated",
      "type": "event"
    },
    {
      "anonymous": false,
      "inputs": [
        {
          "indexed": false,
          "internalType": "uint256",
          "name": "planId",
          "type": "uint256"
        },
        {
          "indexed": false,
          "internalType": "address",
          "name": "customer",
          "type": "address"
        },
        {
          "indexed": false,
          "internalType": "uint256",
          "name": "amount",
          "type": "uint256"
        }
      ],
      "name": "PremiumPaid",
      "type": "event"
    },
    {
      "anonymous": false,
      "inputs": [
        {
          "indexed": false,
          "internalType": "uint256",
          "name": "requestId",
          "type": "uint256"
        },
        {
          "indexed": false,
          "internalType": "bool",
          "name": "isApproved",
          "type": "bool"
        }
      ],
      "name": "RequestResponded",
      "type": "event"
    },
    {
      "anonymous": false,
      "inputs": [
        {
          "indexed": false,
          "internalType": "uint256",
          "name": "requestId",
          "type": "uint256"
        },
        {
          "indexed": false,
          "internalType": "address",
          "name": "customer",
          "type": "address"
        },
        {
          "indexed": false,
          "internalType": "uint256",
          "name": "planId",
          "type": "uint256"
        }
      ],
      "name": "RequestSubmitted",
      "type": "event"
    },
    {
      "inputs": [
        {
          "internalType": "uint256",
          "name": "_requestId",
          "type": "uint256"
        },
        {
          "internalType": "bool",
          "name": "_approve",
          "type": "bool"
        },
        {
          "internalType": "uint256",
          "name": "_counterClaimAmount",
          "type": "uint256"
        }
      ],
      "name": "Request_Negotiation",
      "outputs": [],
      "stateMutability": "nonpayable",
      "type": "function"
    },
    {
      "inputs": [
        {
          "internalType": "uint256",
          "name": "_requestId",
          "type": "uint256"
        }
      ],
      "name": "acceptOffer",
      "outputs": [],
      "stateMutability": "nonpayable",
      "type": "function"
    },
    {
      "inputs": [],
      "name": "admin",
      "outputs": [
        {
          "internalType": "address",
          "name": "",
          "type": "address"
        }
      ],
      "stateMutability": "view",
      "type": "function"
    },
    {
      "inputs": [
        {
          "internalType": "uint256",
          "name": "_companyId",
          "type": "uint256"
        }
      ],
      "name": "banCompany",
      "outputs": [],
      "stateMutability": "nonpayable",
      "type": "function"
    },
    {
      "inputs": [
        {
          "internalType": "string",
          "name": "",
          "type": "string"
        }
      ],
      "name": "bannedCompanyNames",
      "outputs": [
        {
          "internalType": "bool",
          "name": "",
          "type": "bool"
        }
      ],
      "stateMutability": "view",
      "type": "function"
    },
    {
      "inputs": [
        {
          "internalType": "uint256",
          "name": "_planId",
          "type": "uint256"
        },
        {
          "internalType": "bool",
          "name": "_status",
          "type": "bool"
        }
      ],
      "name": "changePlanStatus",
      "outputs": [],
      "stateMutability": "nonpayable",
      "type": "function"
    },
    {
      "inputs": [
        {
          "internalType": "uint256",
          "name": "",
          "type": "uint256"
        }
      ],
      "name": "companies",
      "outputs": [
        {
          "internalType": "uint256",
          "name": "id",
          "type": "uint256"
        },
        {
          "internalType": "address",
          "name": "addr",
          "type": "address"
        },
        {
          "internalType": "string",
          "name": "name",
          "type": "string"
        },
        {
          "internalType": "uint256",
          "name": "customer_rating",
          "type": "uint256"
        }
      ],
      "stateMutability": "view",
      "type": "function"
    },
    {
      "inputs": [
        {
          "internalType": "address",
          "name": "",
          "type": "address"
        }
      ],
      "name": "companyIds",
      "outputs": [
        {
          "internalType": "uint256",
          "name": "",
          "type": "uint256"
        }
      ],
      "stateMutability": "view",
      "type": "function"
    },
    {
      "inputs": [
        {
          "internalType": "string",
          "name": "_name",
          "type": "string"
        },
        {
          "internalType": "string",
          "name": "_description",
          "type": "string"
        },
        {
          "internalType": "uint256",
          "name": "_premium",
          "type": "uint256"
        },
        {
          "internalType": "uint256",
          "name": "_coverageAmount",
          "type": "uint256"
        },
        {
          "internalType": "uint256",
          "name": "_duration",
          "type": "uint256"
        }
      ],
      "name": "createPlan",
      "outputs": [],
      "stateMutability": "nonpayable",
      "type": "function"
    },
    {
      "inputs": [
        {
          "internalType": "string",
          "name": "",
          "type": "string"
        }
      ],
      "name": "customers",
      "outputs": [
        {
          "internalType": "address",
          "name": "addr",
          "type": "address"
        },
        {
          "internalType": "string",
          "name": "name",
          "type": "string"
        },
        {
          "internalType": "uint256",
          "name": "rate",
          "type": "uint256"
        },
        {
          "internalType": "bool",
          "name": "isRegistered",
          "type": "bool"
        }
      ],
      "stateMutability": "view",
      "type": "function"
    },
    {
      "inputs": [
        {
          "internalType": "uint256",
          "name": "_requestId",
          "type": "uint256"
        }
      ],
      "name": "denyOffer",
      "outputs": [],
      "stateMutability": "nonpayable",
      "type": "function"
    },
    {
      "inputs": [
        {
          "internalType": "string",
          "name": "_name",
          "type": "string"
        }
      ],
      "name": "getCustomer",
      "outputs": [
        {
          "components": [
            {
              "internalType": "address",
              "name": "addr",
              "type": "address"
            },
            {
              "internalType": "string",
              "name": "name",
              "type": "string"
            },
            {
              "internalType": "uint256",
              "name": "rate",
              "type": "uint256"
            },
            {
              "internalType": "bool",
              "name": "isRegistered",
              "type": "bool"
            }
          ],
          "internalType": "struct DecentralizedInsurance.Customer",
          "name": "",
          "type": "tuple"
        }
      ],
      "stateMutability": "view",
      "type": "function"
    },
    {
      "inputs": [
        {
          "internalType": "uint256",
          "name": "",
          "type": "uint256"
        }
      ],
      "name": "insurancePlans",
      "outputs": [
        {
          "internalType": "uint256",
          "name": "id",
          "type": "uint256"
        },
        {
          "internalType": "uint256",
          "name": "companyId",
          "type": "uint256"
        },
        {
          "internalType": "string",
          "name": "name",
          "type": "string"
        },
        {
          "internalType": "string",
          "name": "description",
          "type": "string"
        },
        {
          "internalType": "uint256",
          "name": "premium",
          "type": "uint256"
        },
        {
          "internalType": "uint256",
          "name": "coverageAmount",
          "type": "uint256"
        },
        {
          "internalType": "uint256",
          "name": "duration",
          "type": "uint256"
        },
        {
          "internalType": "bool",
          "name": "isActive",
          "type": "bool"
        }
      ],
      "stateMutability": "view",
      "type": "function"
    },
    {
      "inputs": [],
      "name": "nextCompanyId",
      "outputs": [
        {
          "internalType": "uint256",
          "name": "",
          "type": "uint256"
        }
      ],
      "stateMutability": "view",
      "type": "function"
    },
    {
      "inputs": [
        {
          "internalType": "uint256",
          "name": "_planId",
          "type": "uint256"
        }
      ],
      "name": "payPremium",
      "outputs": [],
      "stateMutability": "payable",
      "type": "function"
    },
    {
      "inputs": [
        {
          "internalType": "string",
          "name": "_name",
          "type": "string"
        },
        {
          "internalType": "uint256",
          "name": "_rate",
          "type": "uint256"
        }
      ],
      "name": "registerCompany",
      "outputs": [],
      "stateMutability": "nonpayable",
      "type": "function"
    },
    {
      "inputs": [
        {
          "internalType": "string",
          "name": "_name",
          "type": "string"
        },
        {
          "internalType": "uint256",
          "name": "_rate",
          "type": "uint256"
        }
      ],
      "name": "registerCustomer",
      "outputs": [],
      "stateMutability": "nonpayable",
      "type": "function"
    },
    {
      "inputs": [
        {
          "internalType": "uint256",
          "name": "",
          "type": "uint256"
        }
      ],
      "name": "requests",
      "outputs": [
        {
          "internalType": "uint256",
          "name": "id",
          "type": "uint256"
        },
        {
          "internalType": "address",
          "name": "customer",
          "type": "address"
        },
        {
          "internalType": "uint256",
          "name": "planId",
          "type": "uint256"
        },
        {
          "internalType": "bool",
          "name": "isApproved",
          "type": "bool"
        },
        {
          "internalType": "bool",
          "name": "isClaimed",
          "type": "bool"
        },
        {
          "internalType": "uint256",
          "name": "claimAmount",
          "type": "uint256"
        }
      ],
      "stateMutability": "view",
      "type": "function"
    },
    {
      "inputs": [
        {
          "internalType": "uint256",
          "name": "_fee",
          "type": "uint256"
        }
      ],
      "name": "setPlatformFee",
      "outputs": [],
      "stateMutability": "nonpayable",
      "type": "function"
    },
    {
      "inputs": [
        {
          "internalType": "uint256",
          "name": "_requestId",
          "type": "uint256"
        }
      ],
      "name": "settleClaim",
      "outputs": [],
      "stateMutability": "nonpayable",
      "type": "function"
    },
    {
      "inputs": [
        {
          "internalType": "string",
          "name": "name_",
          "type": "string"
        },
        {
          "internalType": "uint256",
          "name": "_planId",
          "type": "uint256"
        }
      ],
      "name": "submitRequest",
      "outputs": [],
      "stateMutability": "nonpayable",
      "type": "function"
    },
    {
      "inputs": [
        {
          "internalType": "string",
          "name": "_name",
          "type": "string"
        }
      ],
      "name": "unbanCompany",
      "outputs": [],
      "stateMutability": "nonpayable",
      "type": "function"
    },
    {
      "inputs": [],
      "name": "viewPlans",
      "outputs": [
        {
          "components": [
            {
              "internalType": "uint256",
              "name": "id",
              "type": "uint256"
            },
            {
              "internalType": "uint256",
              "name": "companyId",
              "type": "uint256"
            },
            {
              "internalType": "string",
              "name": "name",
              "type": "string"
            },
            {
              "internalType": "string",
              "name": "description",
              "type": "string"
            },
            {
              "internalType": "uint256",
              "name": "premium",
              "type": "uint256"
            },
            {
              "internalType": "uint256",
              "name": "coverageAmount",
              "type": "uint256"
            },
            {
              "internalType": "uint256",
              "name": "duration",
              "type": "uint256"
            },
            {
              "internalType": "bool",
              "name": "isActive",
              "type": "bool"
            }
          ],
          "internalType": "struct DecentralizedInsurance.InsurancePlan[]",
          "name": "",
          "type": "tuple[]"
        }
      ],
      "stateMutability": "view",
      "type": "function"
    },
    {
      "inputs": [],
      "name": "viewRequests",
      "outputs": [
        {
          "components": [
            {
              "internalType": "uint256",
              "name": "id",
              "type": "uint256"
            },
            {
              "internalType": "address",
              "name": "customer",
              "type": "address"
            },
            {
              "internalType": "uint256",
              "name": "planId",
              "type": "uint256"
            },
            {
              "internalType": "bool",
              "name": "isApproved",
              "type": "bool"
            },
            {
              "internalType": "bool",
              "name": "isClaimed",
              "type": "bool"
            },
            {
              "internalType": "uint256",
              "name": "claimAmount",
              "type": "uint256"
            }
          ],
          "internalType": "struct DecentralizedInsurance.Request[]",
          "name": "",
          "type": "tuple[]"
        }
      ],
      "stateMutability": "view",
      "type": "function"
    }
  ],
  "bytecode": "0x608060405260056000556001600355600160045534801561001f57600080fd5b5033600160006101000a81548173ffffffffffffffffffffffffffffffffffffffff021916908373ffffffffffffffffffffffffffffffffffffffff16021790555060016002819055506140cd806100786000396000f3fe60806040526004361061014b5760003560e01c806381d12c58116100b6578063d8d3c8291161006f578063d8d3c829146104ac578063e406f1d8146104d7578063e5584ed714610500578063ec1b706614610529578063f851a4401461056d578063ffc8cf8f146105985761014b565b806381d12c581461035e5780639f242f22146103a0578063a82c98d0146103dd578063b5cb71a81461041d578063c815729d14610446578063d448ee4c1461046f5761014b565b80635170c1aa116101085780635170c1aa14610252578063518bddd91461027b578063521e686d146102b85780635bffa51d146102e35780635d8e63971461030c5780637746dfa9146103355761014b565b806312e8e2c3146101505780631714ae63146101795780632813d19d146101a25780633134e4c4146101e25780634364b26e1461020b57806348e9807f14610227575b600080fd5b34801561015c57600080fd5b5061017760048036038101906101729190612cf5565b6105c1565b005b34801561018557600080fd5b506101a0600480360381019061019b9190612ca1565b61065b565b005b3480156101ae57600080fd5b506101c960048036038101906101c49190612cf5565b6107f0565b6040516101d99493929190613adf565b60405180910390f35b3480156101ee57600080fd5b5061020960048036038101906102049190612d5a565b6108c8565b005b61022560048036038101906102209190612cf5565b610a02565b005b34801561023357600080fd5b5061023c610c03565b60405161024991906137c3565b60405180910390f35b34801561025e57600080fd5b5061027960048036038101906102749190612ca1565b610ecb565b005b34801561028757600080fd5b506102a2600480360381019061029d9190612bb9565b6111bb565b6040516102af9190613aa2565b60405180910390f35b3480156102c457600080fd5b506102cd61136f565b6040516102da91906137e5565b60405180910390f35b3480156102ef57600080fd5b5061030a60048036038101906103059190612cf5565b611661565b005b34801561031857600080fd5b50610333600480360381019061032e9190612d1e565b611868565b005b34801561034157600080fd5b5061035c60048036038101906103579190612cf5565b611a47565b005b34801561036a57600080fd5b5061038560048036038101906103809190612cf5565b611bb4565b60405161039796959493929190613b62565b60405180910390f35b3480156103ac57600080fd5b506103c760048036038101906103c29190612b90565b611c2a565b6040516103d49190613ac4565b60405180910390f35b3480156103e957600080fd5b5061040460048036038101906103ff9190612bb9565b611c42565b604051610414949392919061374e565b60405180910390f35b34801561042957600080fd5b50610444600480360381019061043f9190612ca1565b611d3d565b005b34801561045257600080fd5b5061046d60048036038101906104689190612cf5565b611f70565b005b34801561047b57600080fd5b5061049660048036038101906104919190612bb9565b612193565b6040516104a39190613807565b60405180910390f35b3480156104b857600080fd5b506104c16121c9565b6040516104ce9190613ac4565b60405180910390f35b3480156104e357600080fd5b506104fe60048036038101906104f99190612cf5565b6121cf565b005b34801561050c57600080fd5b5061052760048036038101906105229190612bfa565b612446565b005b34801561053557600080fd5b50610550600480360381019061054b9190612cf5565b61266e565b604051610564989796959493929190613c15565b60405180910390f35b34801561057957600080fd5b506105826127d3565b60405161058f9190613733565b60405180910390f35b3480156105a457600080fd5b506105bf60048036038101906105ba9190612bb9565b6127f9565b005b600160009054906101000a900473ffffffffffffffffffffffffffffffffffffffff1673ffffffffffffffffffffffffffffffffffffffff163373ffffffffffffffffffffffffffffffffffffffff1614610651576040517f08c379a0000000000000000000000000000000000000000000000000000000008152600401610648906138c2565b60405180910390fd5b8060008190555050565b60098260405161066b9190613705565b908152602001604051809103902060030160009054906101000a900460ff16156106ca576040517f08c379a00000000000000000000000000000000000000000000000000000000081526004016106c190613982565b60405180910390fd5b60405180608001604052803373ffffffffffffffffffffffffffffffffffffffff168152602001838152602001828152602001600115158152506009836040516107149190613705565b908152602001604051809103902060008201518160000160006101000a81548173ffffffffffffffffffffffffffffffffffffffff021916908373ffffffffffffffffffffffffffffffffffffffff160217905550602082015181600101908051906020019061078592919061292f565b506040820151816002015560608201518160030160006101000a81548160ff0219169083151502179055509050507f3e2e23ad95ac9d48f62299dd498880d0e69059ed54888b0b71031dc2615f9a6033826040516107e492919061379a565b60405180910390a15050565b60076020528060005260406000206000915090508060000154908060010160009054906101000a900473ffffffffffffffffffffffffffffffffffffffff169080600201805461083f90613f0a565b80601f016020809104026020016040519081016040528092919081815260200182805461086b90613f0a565b80156108b85780601f1061088d576101008083540402835291602001916108b8565b820191906000526020600020905b81548152906001019060200180831161089b57829003601f168201915b5050505050908060030154905084565b60006006600085815260200190815260200160002090503373ffffffffffffffffffffffffffffffffffffffff16600760008360020154815260200190815260200160002060010160009054906101000a900473ffffffffffffffffffffffffffffffffffffffff1673ffffffffffffffffffffffffffffffffffffffff1614610987576040517f08c379a000000000000000000000000000000000000000000000000000000000815260040161097e90613a82565b60405180910390fd5b82156109af5760018160030160006101000a81548160ff0219169083151502179055506109c3565b60008211156109c2578181600401819055505b5b7f5925f6070dba9d3c5caa9c961d661ea0c1772d7f95af99d278fe9e5b4e53caba84846040516109f4929190613bc3565b60405180910390a150505050565b60006005600083815260200190815260200160002090508060070160009054906101000a900460ff16610a6a576040517f08c379a0000000000000000000000000000000000000000000000000000000008152600401610a61906139c2565b60405180910390fd5b80600401543414610ab0576040517f08c379a0000000000000000000000000000000000000000000000000000000008152600401610aa7906138a2565b60405180910390fd5b6000606460005434610ac29190613df2565b610acc9190613dc1565b9050600760008360010154815260200190815260200160002060010160009054906101000a900473ffffffffffffffffffffffffffffffffffffffff1673ffffffffffffffffffffffffffffffffffffffff166108fc8234610b2e9190613e4c565b9081150290604051600060405180830381858888f19350505050158015610b59573d6000803e3d6000fd5b50600160009054906101000a900473ffffffffffffffffffffffffffffffffffffffff1673ffffffffffffffffffffffffffffffffffffffff166108fc829081150290604051600060405180830381858888f19350505050158015610bc2573d6000803e3d6000fd5b507ffbf1458fbbddabb878de144276216e8ccda619cbac2d598e6ee37ff72173afb1833334604051610bf693929190613b2b565b60405180910390a1505050565b606060006001600354610c169190613e4c565b67ffffffffffffffff811115610c55577f4e487b7100000000000000000000000000000000000000000000000000000000600052604160045260246000fd5b604051908082528060200260200182016040528015610c8e57816020015b610c7b6129b5565b815260200190600190039081610c735790505b509050600080600190505b600354811015610ec2576005600082815260200190815260200160002060070160009054906101000a900460ff1615610eaf5760056000828152602001908152602001600020604051806101000160405290816000820154815260200160018201548152602001600282018054610d0f90613f0a565b80601f0160208091040260200160405190810160405280929190818152602001828054610d3b90613f0a565b8015610d885780601f10610d5d57610100808354040283529160200191610d88565b820191906000526020600020905b815481529060010190602001808311610d6b57829003601f168201915b50505050508152602001600382018054610da190613f0a565b80601f0160208091040260200160405190810160405280929190818152602001828054610dcd90613f0a565b8015610e1a5780601f10610def57610100808354040283529160200191610e1a565b820191906000526020600020905b815481529060010190602001808311610dfd57829003601f168201915b505050505081526020016004820154815260200160058201548152602001600682015481526020016007820160009054906101000a900460ff161515151581525050838381518110610e95577f4e487b7100000000000000000000000000000000000000000000000000000000600052603260045260246000fd5b60200260200101819052508180610eab90613f3c565b9250505b8080610eba90613f3c565b915050610c99565b50819250505090565b600160009054906101000a900473ffffffffffffffffffffffffffffffffffffffff1673ffffffffffffffffffffffffffffffffffffffff163373ffffffffffffffffffffffffffffffffffffffff1614610f5b576040517f08c379a0000000000000000000000000000000000000000000000000000000008152600401610f52906138c2565b60405180910390fd5b600a82604051610f6b9190613705565b908152602001604051809103902060009054906101000a900460ff1615610fc7576040517f08c379a0000000000000000000000000000000000000000000000000000000008152600401610fbe90613a02565b60405180910390fd5b6000600190505b60025481101561108f5782604051602001610fe99190613705565b6040516020818303038152906040528051906020012060076000838152602001908152602001600020600201604051602001611025919061371c565b60405160208183030381529060405280519060200120141561107c576040517f08c379a000000000000000000000000000000000000000000000000000000000815260040161107390613a62565b60405180910390fd5b808061108790613f3c565b915050610fce565b50604051806080016040528060025481526020013373ffffffffffffffffffffffffffffffffffffffff168152602001838152602001828152506007600060025481526020019081526020016000206000820151816000015560208201518160010160006101000a81548173ffffffffffffffffffffffffffffffffffffffff021916908373ffffffffffffffffffffffffffffffffffffffff160217905550604082015181600201908051906020019061114b92919061292f565b5060608201518160030155905050600254600860003373ffffffffffffffffffffffffffffffffffffffff1673ffffffffffffffffffffffffffffffffffffffff16815260200190815260200160002081905550600260008154809291906111b290613f3c565b91905055505050565b6111c36129fc565b6009826040516111d39190613705565b908152602001604051809103902060030160009054906101000a900460ff1615611232576040517f08c379a000000000000000000000000000000000000000000000000000000000815260040161122990613982565b60405180910390fd5b6009826040516112429190613705565b90815260200160405180910390206040518060800160405290816000820160009054906101000a900473ffffffffffffffffffffffffffffffffffffffff1673ffffffffffffffffffffffffffffffffffffffff1673ffffffffffffffffffffffffffffffffffffffff1681526020016001820180546112c190613f0a565b80601f01602080910402602001604051908101604052809291908181526020018280546112ed90613f0a565b801561133a5780601f1061130f5761010080835404028352916020019161133a565b820191906000526020600020905b81548152906001019060200180831161131d57829003601f168201915b50505050508152602001600282015481526020016003820160009054906101000a900460ff1615151515815250509050919050565b6060600080600860003373ffffffffffffffffffffffffffffffffffffffff1673ffffffffffffffffffffffffffffffffffffffff1681526020019081526020016000205490506000600190505b600454811015611440576000600660008381526020019081526020016000206002015414158015611419575081600560006006600085815260200190815260200160002060020154815260200190815260200160002060010154145b1561142d57828061142990613f3c565b9350505b808061143890613f3c565b9150506113bd565b5060008267ffffffffffffffff811115611483577f4e487b7100000000000000000000000000000000000000000000000000000000600052604160045260246000fd5b6040519080825280602002602001820160405280156114bc57816020015b6114a9612a3c565b8152602001906001900390816114a15790505b509050600080600190505b600454811015611656576000600660008381526020019081526020016000206002015414158015611523575083600560006006600085815260200190815260200160002060020154815260200190815260200160002060010154145b1561164357600660008281526020019081526020016000206040518060c0016040529081600082015481526020016001820160009054906101000a900473ffffffffffffffffffffffffffffffffffffffff1673ffffffffffffffffffffffffffffffffffffffff1673ffffffffffffffffffffffffffffffffffffffff168152602001600282015481526020016003820160009054906101000a900460ff161515151581526020016003820160019054906101000a900460ff16151515158152602001600482015481525050838381518110611629577f4e487b7100000000000000000000000000000000000000000000000000000000600052603260045260246000fd5b6020026020010181905250818061163f90613f3c565b9250505b808061164e90613f3c565b9150506114c7565b508194505050505090565b600160009054906101000a900473ffffffffffffffffffffffffffffffffffffffff1673ffffffffffffffffffffffffffffffffffffffff163373ffffffffffffffffffffffffffffffffffffffff16146116f1576040517f08c379a00000000000000000000000000000000000000000000000000000000081526004016116e8906138c2565b60405180910390fd5b600060076000838152602001908152602001600020600201805461171490613f0a565b80601f016020809104026020016040519081016040528092919081815260200182805461174090613f0a565b801561178d5780601f106117625761010080835404028352916020019161178d565b820191906000526020600020905b81548152906001019060200180831161177057829003601f168201915b5050505050905060006007600084815260200190815260200160002060010160009054906101000a900473ffffffffffffffffffffffffffffffffffffffff1690506001600a836040516117e19190613705565b908152602001604051809103902060006101000a81548160ff021916908315150217905550600760008481526020019081526020016000206000808201600090556001820160006101000a81549073ffffffffffffffffffffffffffffffffffffffff02191690556002820160006118599190612a8c565b60038201600090555050505050565b6000600860003373ffffffffffffffffffffffffffffffffffffffff1673ffffffffffffffffffffffffffffffffffffffff168152602001908152602001600020549050600073ffffffffffffffffffffffffffffffffffffffff166007600083815260200190815260200160002060010160009054906101000a900473ffffffffffffffffffffffffffffffffffffffff1673ffffffffffffffffffffffffffffffffffffffff161415611952576040517f08c379a0000000000000000000000000000000000000000000000000000000008152600401611949906138e2565b60405180910390fd5b806005600085815260200190815260200160002060010154146119aa576040517f08c379a00000000000000000000000000000000000000000000000000000000081526004016119a190613922565b60405180910390fd5b8115156005600085815260200190815260200160002060070160009054906101000a900460ff1615151415611a14576040517f08c379a0000000000000000000000000000000000000000000000000000000008152600401611a0b90613842565b60405180910390fd5b816005600085815260200190815260200160002060070160006101000a81548160ff021916908315150217905550505050565b60006006600083815260200190815260200160002090503373ffffffffffffffffffffffffffffffffffffffff168160010160009054906101000a900473ffffffffffffffffffffffffffffffffffffffff1673ffffffffffffffffffffffffffffffffffffffff1614611af0576040517f08c379a0000000000000000000000000000000000000000000000000000000008152600401611ae790613922565b60405180910390fd5b8060030160009054906101000a900460ff1615611b42576040517f08c379a0000000000000000000000000000000000000000000000000000000008152600401611b3990613822565b60405180910390fd5b8060030160009054906101000a900460ff16611b93576040517f08c379a0000000000000000000000000000000000000000000000000000000008152600401611b8a90613962565b60405180910390fd5b60008160030160006101000a81548160ff0219169083151502179055505050565b60066020528060005260406000206000915090508060000154908060010160009054906101000a900473ffffffffffffffffffffffffffffffffffffffff16908060020154908060030160009054906101000a900460ff16908060030160019054906101000a900460ff16908060040154905086565b60086020528060005260406000206000915090505481565b6009818051602081018201805184825260208301602085012081835280955050505050506000915090508060000160009054906101000a900473ffffffffffffffffffffffffffffffffffffffff1690806001018054611ca190613f0a565b80601f0160208091040260200160405190810160405280929190818152602001828054611ccd90613f0a565b8015611d1a5780601f10611cef57610100808354040283529160200191611d1a565b820191906000526020600020905b815481529060010190602001808311611cfd57829003601f168201915b5050505050908060020154908060030160009054906101000a900460ff16905084565b600982604051611d4d9190613705565b908152602001604051809103902060030160009054906101000a900460ff16611dab576040517f08c379a0000000000000000000000000000000000000000000000000000000008152600401611da290613882565b60405180910390fd5b6005600082815260200190815260200160002060070160009054906101000a900460ff16611e0e576040517f08c379a0000000000000000000000000000000000000000000000000000000008152600401611e0590613862565b60405180910390fd5b6040518060c0016040528060045481526020013373ffffffffffffffffffffffffffffffffffffffff16815260200182815260200160001515815260200160001515815260200160008152506006600060045481526020019081526020016000206000820151816000015560208201518160010160006101000a81548173ffffffffffffffffffffffffffffffffffffffff021916908373ffffffffffffffffffffffffffffffffffffffff1602179055506040820151816002015560608201518160030160006101000a81548160ff02191690831515021790555060808201518160030160016101000a81548160ff02191690831515021790555060a082015181600401559050507fded47fe1c7f7878a21a47327b3f5172551c245be83ba771fe716cdbe1bf55c7a6004543383604051611f4c93929190613b2b565b60405180910390a160046000815480929190611f6790613f3c565b91905055505050565b60006006600083815260200190815260200160002090503373ffffffffffffffffffffffffffffffffffffffff168160010160009054906101000a900473ffffffffffffffffffffffffffffffffffffffff1673ffffffffffffffffffffffffffffffffffffffff1614612019576040517f08c379a000000000000000000000000000000000000000000000000000000000815260040161201090613922565b60405180910390fd5b8060030160009054906101000a900460ff1661206a576040517f08c379a000000000000000000000000000000000000000000000000000000000815260040161206190613962565b60405180910390fd5b8060030160019054906101000a900460ff16156120bc576040517f08c379a00000000000000000000000000000000000000000000000000000000081526004016120b3906139a2565b60405180910390fd5b60018160030160016101000a81548160ff0219169083151502179055506000816004015411612120576040517f08c379a000000000000000000000000000000000000000000000000000000000815260040161211790613a42565b60405180910390fd5b8060010160009054906101000a900473ffffffffffffffffffffffffffffffffffffffff1673ffffffffffffffffffffffffffffffffffffffff166108fc82600401549081150290604051600060405180830381858888f1935050505015801561218e573d6000803e3d6000fd5b505050565b600a818051602081018201805184825260208301602085012081835280955050505050506000915054906101000a900460ff1681565b60025481565b60006006600083815260200190815260200160002090503373ffffffffffffffffffffffffffffffffffffffff16600760008360020154815260200190815260200160002060010160009054906101000a900473ffffffffffffffffffffffffffffffffffffffff1673ffffffffffffffffffffffffffffffffffffffff161461228e576040517f08c379a000000000000000000000000000000000000000000000000000000000815260040161228590613a22565b60405180910390fd5b8060030160009054906101000a900460ff166122df576040517f08c379a00000000000000000000000000000000000000000000000000000000081526004016122d690613942565b60405180910390fd5b8060030160019054906101000a900460ff1615612331576040517f08c379a0000000000000000000000000000000000000000000000000000000008152600401612328906139e2565b60405180910390fd5b60008160040154600560008460020154815260200190815260200160002060050154116123785760056000836002015481526020019081526020016000206005015461237e565b81600401545b90508160010160009054906101000a900473ffffffffffffffffffffffffffffffffffffffff1673ffffffffffffffffffffffffffffffffffffffff166108fc829081150290604051600060405180830381858888f193505050501580156123ea573d6000803e3d6000fd5b5060018260030160016101000a81548160ff0219169083151502179055507fb74faa515c161a6aa3d68dd9ecf21d897dde4efbb1a2b72be2c86508f03417548382604051612439929190613bec565b60405180910390a1505050565b6000600860003373ffffffffffffffffffffffffffffffffffffffff1673ffffffffffffffffffffffffffffffffffffffff168152602001908152602001600020549050600073ffffffffffffffffffffffffffffffffffffffff166007600083815260200190815260200160002060010160009054906101000a900473ffffffffffffffffffffffffffffffffffffffff1673ffffffffffffffffffffffffffffffffffffffff161415612530576040517f08c379a0000000000000000000000000000000000000000000000000000000008152600401612527906138e2565b60405180910390fd5b604051806101000160405280600354815260200182815260200187815260200186815260200185815260200184815260200183815260200160011515815250600560006003548152602001908152602001600020600082015181600001556020820151816001015560408201518160020190805190602001906125b492919061292f565b5060608201518160030190805190602001906125d192919061292f565b506080820151816004015560a0820151816005015560c0820151816006015560e08201518160070160006101000a81548160ff0219169083151502179055509050507f5fac4c43830252b9984ca8bf915ae2a0774180c35c5472120325c1961e45b62b60035482604051612646929190613bec565b60405180910390a16003600081548092919061266190613f3c565b9190505550505050505050565b600560205280600052604060002060009150905080600001549080600101549080600201805461269d90613f0a565b80601f01602080910402602001604051908101604052809291908181526020018280546126c990613f0a565b80156127165780601f106126eb57610100808354040283529160200191612716565b820191906000526020600020905b8154815290600101906020018083116126f957829003601f168201915b50505050509080600301805461272b90613f0a565b80601f016020809104026020016040519081016040528092919081815260200182805461275790613f0a565b80156127a45780601f10612779576101008083540402835291602001916127a4565b820191906000526020600020905b81548152906001019060200180831161278757829003601f168201915b5050505050908060040154908060050154908060060154908060070160009054906101000a900460ff16905088565b600160009054906101000a900473ffffffffffffffffffffffffffffffffffffffff1681565b600160009054906101000a900473ffffffffffffffffffffffffffffffffffffffff1673ffffffffffffffffffffffffffffffffffffffff163373ffffffffffffffffffffffffffffffffffffffff1614612889576040517f08c379a0000000000000000000000000000000000000000000000000000000008152600401612880906138c2565b60405180910390fd5b600a816040516128999190613705565b908152602001604051809103902060009054906101000a900460ff16156128f5576040517f08c379a00000000000000000000000000000000000000000000000000000000081526004016128ec90613902565b60405180910390fd5b6000600a826040516129079190613705565b908152602001604051809103902060006101000a81548160ff02191690831515021790555050565b82805461293b90613f0a565b90600052602060002090601f01602090048101928261295d57600085556129a4565b82601f1061297657805160ff19168380011785556129a4565b828001600101855582156129a4579182015b828111156129a3578251825591602001919060010190612988565b5b5090506129b19190612acc565b5090565b604051806101000160405280600081526020016000815260200160608152602001606081526020016000815260200160008152602001600081526020016000151581525090565b6040518060800160405280600073ffffffffffffffffffffffffffffffffffffffff16815260200160608152602001600081526020016000151581525090565b6040518060c0016040528060008152602001600073ffffffffffffffffffffffffffffffffffffffff16815260200160008152602001600015158152602001600015158152602001600081525090565b508054612a9890613f0a565b6000825580601f10612aaa5750612ac9565b601f016020900490600052602060002090810190612ac89190612acc565b5b50565b5b80821115612ae5576000816000905550600101612acd565b5090565b6000612afc612af784613cd2565b613ca1565b905082815260208101848484011115612b1457600080fd5b612b1f848285613ec8565b509392505050565b600081359050612b3681614052565b92915050565b600081359050612b4b81614069565b92915050565b600082601f830112612b6257600080fd5b8135612b72848260208601612ae9565b91505092915050565b600081359050612b8a81614080565b92915050565b600060208284031215612ba257600080fd5b6000612bb084828501612b27565b91505092915050565b600060208284031215612bcb57600080fd5b600082013567ffffffffffffffff811115612be557600080fd5b612bf184828501612b51565b91505092915050565b600080600080600060a08688031215612c1257600080fd5b600086013567ffffffffffffffff811115612c2c57600080fd5b612c3888828901612b51565b955050602086013567ffffffffffffffff811115612c5557600080fd5b612c6188828901612b51565b9450506040612c7288828901612b7b565b9350506060612c8388828901612b7b565b9250506080612c9488828901612b7b565b9150509295509295909350565b60008060408385031215612cb457600080fd5b600083013567ffffffffffffffff811115612cce57600080fd5b612cda85828601612b51565b9250506020612ceb85828601612b7b565b9150509250929050565b600060208284031215612d0757600080fd5b6000612d1584828501612b7b565b91505092915050565b60008060408385031215612d3157600080fd5b6000612d3f85828601612b7b565b9250506020612d5085828601612b3c565b9150509250929050565b600080600060608486031215612d6f57600080fd5b6000612d7d86828701612b7b565b9350506020612d8e86828701612b3c565b9250506040612d9f86828701612b7b565b9150509250925092565b6000612db583836135b5565b905092915050565b6000612dc9838361366c565b60c08301905092915050565b612dde81613e80565b82525050565b612ded81613e80565b82525050565b6000612dfe82613d37565b612e088185613d72565b935083602082028501612e1a85613d02565b8060005b85811015612e565784840389528151612e378582612da9565b9450612e4283613d58565b925060208a01995050600181019050612e1e565b50829750879550505050505092915050565b6000612e7382613d42565b612e7d8185613d83565b9350612e8883613d12565b8060005b83811015612eb9578151612ea08882612dbd565b9750612eab83613d65565b925050600181019050612e8c565b5085935050505092915050565b612ecf81613e92565b82525050565b612ede81613e92565b82525050565b6000612eef82613d4d565b612ef98185613d94565b9350612f09818560208601613ed7565b612f1281614041565b840191505092915050565b6000612f2882613d4d565b612f328185613da5565b9350612f42818560208601613ed7565b612f4b81614041565b840191505092915050565b6000612f6182613d4d565b612f6b8185613db6565b9350612f7b818560208601613ed7565b80840191505092915050565b60008154612f9481613f0a565b612f9e8186613db6565b94506001821660008114612fb95760018114612fca57612ffd565b60ff19831686528186019350612ffd565b612fd385613d22565b60005b83811015612ff557815481890152600182019150602081019050612fd6565b838801955050505b50505092915050565b6000613013601983613da5565b91507f5265717565737420616c726561647920617070726f7665642e000000000000006000830152602082019050919050565b6000613053601483613da5565b91507f4e6f206368616e676520696e207374617475732e0000000000000000000000006000830152602082019050919050565b6000613093601783613da5565b91507f496e76616c696420696e737572616e636520706c616e2e0000000000000000006000830152602082019050919050565b60006130d3601883613da5565b91507f437573746f6d6572206e6f7420726567697374657265642e00000000000000006000830152602082019050919050565b6000613113601983613da5565b91507f496e636f7272656374207072656d69756d20616d6f756e742e000000000000006000830152602082019050919050565b6000613153600b83613da5565b91507f4f6e6c792061646d696e2e0000000000000000000000000000000000000000006000830152602082019050919050565b6000613193601983613da5565b91507f4e6f742061207265676973746572656420636f6d70616e792e000000000000006000830152602082019050919050565b60006131d3601683613da5565b91507f436f6d70616e79206973206e6f742062616e6e65642e000000000000000000006000830152602082019050919050565b6000613213600f83613da5565b91507f4e6f7420617574686f72697a65642e00000000000000000000000000000000006000830152602082019050919050565b6000613253601583613da5565b91507f52657175657374206e6f7420617070726f7665642e00000000000000000000006000830152602082019050919050565b6000613293601883613da5565b91507f52657175657374206973206e6f7420617070726f7665642e00000000000000006000830152602082019050919050565b60006132d3601c83613da5565b91507f437573746f6d657220616c726561647920726567697374657265642e000000006000830152602082019050919050565b6000613313601883613da5565b91507f5265717565737420616c726561647920636c61696d65642e00000000000000006000830152602082019050919050565b6000613353600d83613da5565b91507f496e76616c696420706c616e2e000000000000000000000000000000000000006000830152602082019050919050565b6000613393601683613da5565b91507f436c61696d20616c726561647920736574746c65642e000000000000000000006000830152602082019050919050565b60006133d3601783613da5565b91507f436f6d70616e79206e616d652069732062616e6e65642e0000000000000000006000830152602082019050919050565b6000613413602383613da5565b91507f4f6e6c792074686520636f6d70616e792063616e20736574746c6520636c616960008301527f6d732e00000000000000000000000000000000000000000000000000000000006020830152604082019050919050565b6000613479601583613da5565b91507f496e76616c696420636c61696d20616d6f756e742e00000000000000000000006000830152602082019050919050565b60006134b9602083613da5565b91507f436f6d70616e79206e616d6520616c726561647920726567697374657265642e6000830152602082019050919050565b60006134f9602783613da5565b91507f4f6e6c792074686520636f6d70616e792063616e206576616c7561746520726560008301527f7175657374732e000000000000000000000000000000000000000000000000006020830152604082019050919050565b600060808301600083015161356a6000860182612dd5565b50602083015184820360208601526135828282612ee4565b915050604083015161359760408601826136e7565b5060608301516135aa6060860182612ec6565b508091505092915050565b6000610100830160008301516135ce60008601826136e7565b5060208301516135e160208601826136e7565b50604083015184820360408601526135f98282612ee4565b915050606083015184820360608601526136138282612ee4565b915050608083015161362860808601826136e7565b5060a083015161363b60a08601826136e7565b5060c083015161364e60c08601826136e7565b5060e083015161366160e0860182612ec6565b508091505092915050565b60c08201600082015161368260008501826136e7565b5060208201516136956020850182612dd5565b5060408201516136a860408501826136e7565b5060608201516136bb6060850182612ec6565b5060808201516136ce6080850182612ec6565b5060a08201516136e160a08501826136e7565b50505050565b6136f081613ebe565b82525050565b6136ff81613ebe565b82525050565b60006137118284612f56565b915081905092915050565b60006137288284612f87565b915081905092915050565b60006020820190506137486000830184612de4565b92915050565b60006080820190506137636000830187612de4565b81810360208301526137758186612f1d565b905061378460408301856136f6565b6137916060830184612ed5565b95945050505050565b60006040820190506137af6000830185612de4565b6137bc60208301846136f6565b9392505050565b600060208201905081810360008301526137dd8184612df3565b905092915050565b600060208201905081810360008301526137ff8184612e68565b905092915050565b600060208201905061381c6000830184612ed5565b92915050565b6000602082019050818103600083015261383b81613006565b9050919050565b6000602082019050818103600083015261385b81613046565b9050919050565b6000602082019050818103600083015261387b81613086565b9050919050565b6000602082019050818103600083015261389b816130c6565b9050919050565b600060208201905081810360008301526138bb81613106565b9050919050565b600060208201905081810360008301526138db81613146565b9050919050565b600060208201905081810360008301526138fb81613186565b9050919050565b6000602082019050818103600083015261391b816131c6565b9050919050565b6000602082019050818103600083015261393b81613206565b9050919050565b6000602082019050818103600083015261395b81613246565b9050919050565b6000602082019050818103600083015261397b81613286565b9050919050565b6000602082019050818103600083015261399b816132c6565b9050919050565b600060208201905081810360008301526139bb81613306565b9050919050565b600060208201905081810360008301526139db81613346565b9050919050565b600060208201905081810360008301526139fb81613386565b9050919050565b60006020820190508181036000830152613a1b816133c6565b9050919050565b60006020820190508181036000830152613a3b81613406565b9050919050565b60006020820190508181036000830152613a5b8161346c565b9050919050565b60006020820190508181036000830152613a7b816134ac565b9050919050565b60006020820190508181036000830152613a9b816134ec565b9050919050565b60006020820190508181036000830152613abc8184613552565b905092915050565b6000602082019050613ad960008301846136f6565b92915050565b6000608082019050613af460008301876136f6565b613b016020830186612de4565b8181036040830152613b138185612f1d565b9050613b2260608301846136f6565b95945050505050565b6000606082019050613b4060008301866136f6565b613b4d6020830185612de4565b613b5a60408301846136f6565b949350505050565b600060c082019050613b7760008301896136f6565b613b846020830188612de4565b613b9160408301876136f6565b613b9e6060830186612ed5565b613bab6080830185612ed5565b613bb860a08301846136f6565b979650505050505050565b6000604082019050613bd860008301856136f6565b613be56020830184612ed5565b9392505050565b6000604082019050613c0160008301856136f6565b613c0e60208301846136f6565b9392505050565b600061010082019050613c2b600083018b6136f6565b613c38602083018a6136f6565b8181036040830152613c4a8189612f1d565b90508181036060830152613c5e8188612f1d565b9050613c6d60808301876136f6565b613c7a60a08301866136f6565b613c8760c08301856136f6565b613c9460e0830184612ed5565b9998505050505050505050565b6000604051905081810181811067ffffffffffffffff82111715613cc857613cc7614012565b5b8060405250919050565b600067ffffffffffffffff821115613ced57613cec614012565b5b601f19601f8301169050602081019050919050565b6000819050602082019050919050565b6000819050602082019050919050565b60008190508160005260206000209050919050565b600081519050919050565b600081519050919050565b600081519050919050565b6000602082019050919050565b6000602082019050919050565b600082825260208201905092915050565b600082825260208201905092915050565b600082825260208201905092915050565b600082825260208201905092915050565b600081905092915050565b6000613dcc82613ebe565b9150613dd783613ebe565b925082613de757613de6613fb4565b5b828204905092915050565b6000613dfd82613ebe565b9150613e0883613ebe565b9250817fffffffffffffffffffffffffffffffffffffffffffffffffffffffffffffffff0483118215151615613e4157613e40613f85565b5b828202905092915050565b6000613e5782613ebe565b9150613e6283613ebe565b925082821015613e7557613e74613f85565b5b828203905092915050565b6000613e8b82613e9e565b9050919050565b60008115159050919050565b600073ffffffffffffffffffffffffffffffffffffffff82169050919050565b6000819050919050565b82818337600083830152505050565b60005b83811015613ef5578082015181840152602081019050613eda565b83811115613f04576000848401525b50505050565b60006002820490506001821680613f2257607f821691505b60208210811415613f3657613f35613fe3565b5b50919050565b6000613f4782613ebe565b91507fffffffffffffffffffffffffffffffffffffffffffffffffffffffffffffffff821415613f7a57613f79613f85565b5b600182019050919050565b7f4e487b7100000000000000000000000000000000000000000000000000000000600052601160045260246000fd5b7f4e487b7100000000000000000000000000000000000000000000000000000000600052601260045260246000fd5b7f4e487b7100000000000000000000000000000000000000000000000000000000600052602260045260246000fd5b7f4e487b7100000000000000000000000000000000000000000000000000000000600052604160045260246000fd5b6000601f19601f8301169050919050565b61405b81613e80565b811461406657600080fd5b50565b61407281613e92565b811461407d57600080fd5b50565b61408981613ebe565b811461409457600080fd5b5056fea2646970667358221220a68045102b376d60a4a8efd56cbda6790f9c001be612b2590501db7251eed3b064736f6c63430008000033",
  "linkReferences": {},
  "deployedLinkReferences": {}
}