{
  "_format": "hh-sol-artifact-1",
  "contractName": "DecentralizedInsurance",
  "sourceName": "contracts/functions.sol",
  "abi": [
    {
      "inputs": [],
      "stateMutability": "nonpayable",
      "type": "constructor"
    },
    {
      "anonymous": false,
      "inputs": [
        {
          "indexed": false,
          "internalType": "uint256",
          "name": "planId",
          "type": "uint256"
        },
        {
          "indexed": false,
          "internalType": "address",
          "name": "company",
          "type": "address"
        }
      ],
      "name": "PlanCreated",
      "type": "event"
    },
    {
      "anonymous": false,
      "inputs": [
        {
          "indexed": false,
          "internalType": "uint256",
          "name": "planId",
          "type": "uint256"
        },
        {
          "indexed": false,
          "internalType": "address",
          "name": "customer",
          "type": "address"
        },
        {
          "indexed": false,
          "internalType": "uint256",
          "name": "amount",
          "type": "uint256"
        }
      ],
      "name": "PremiumPaid",
      "type": "event"
    },
    {
      "anonymous": false,
      "inputs": [
        {
          "indexed": false,
          "internalType": "uint256",
          "name": "requestId",
          "type": "uint256"
        },
        {
          "indexed": false,
          "internalType": "bool",
          "name": "isApproved",
          "type": "bool"
        }
      ],
      "name": "RequestResponded",
      "type": "event"
    },
    {
      "anonymous": false,
      "inputs": [
        {
          "indexed": false,
          "internalType": "uint256",
          "name": "requestId",
          "type": "uint256"
        },
        {
          "indexed": false,
          "internalType": "address",
          "name": "customer",
          "type": "address"
        },
        {
          "indexed": false,
          "internalType": "uint256",
          "name": "planId",
          "type": "uint256"
        }
      ],
      "name": "RequestSubmitted",
      "type": "event"
    },
    {
      "inputs": [
        {
          "internalType": "address",
          "name": "_addr",
          "type": "address"
        }
      ],
      "name": "banParticipant",
      "outputs": [],
      "stateMutability": "nonpayable",
      "type": "function"
    },
    {
      "inputs": [
        {
          "internalType": "address",
          "name": "",
          "type": "address"
        }
      ],
      "name": "companies",
      "outputs": [
        {
          "internalType": "address",
          "name": "addr",
          "type": "address"
        },
        {
          "internalType": "string",
          "name": "name",
          "type": "string"
        },
        {
          "internalType": "uint256",
          "name": "rate",
          "type": "uint256"
        }
      ],
      "stateMutability": "view",
      "type": "function"
    },
    {
      "inputs": [
        {
          "internalType": "string",
          "name": "_name",
          "type": "string"
        },
        {
          "internalType": "string",
          "name": "_description",
          "type": "string"
        },
        {
          "internalType": "uint256",
          "name": "_premium",
          "type": "uint256"
        },
        {
          "internalType": "uint256",
          "name": "_coverageAmount",
          "type": "uint256"
        },
        {
          "internalType": "uint256",
          "name": "_duration",
          "type": "uint256"
        }
      ],
      "name": "createPlan",
      "outputs": [],
      "stateMutability": "nonpayable",
      "type": "function"
    },
    {
      "inputs": [
        {
          "internalType": "address",
          "name": "",
          "type": "address"
        }
      ],
      "name": "customers",
      "outputs": [
        {
          "internalType": "address",
          "name": "addr",
          "type": "address"
        },
        {
          "internalType": "uint256",
          "name": "rate",
          "type": "uint256"
        }
      ],
      "stateMutability": "view",
      "type": "function"
    },
    {
      "inputs": [
        {
          "internalType": "uint256",
          "name": "_requestId",
          "type": "uint256"
        }
      ],
      "name": "denyOffer",
      "outputs": [],
      "stateMutability": "nonpayable",
      "type": "function"
    },
    {
      "inputs": [
        {
          "internalType": "uint256",
          "name": "",
          "type": "uint256"
        }
      ],
      "name": "insurancePlans",
      "outputs": [
        {
          "internalType": "uint256",
          "name": "id",
          "type": "uint256"
        },
        {
          "internalType": "address",
          "name": "company",
          "type": "address"
        },
        {
          "internalType": "string",
          "name": "name",
          "type": "string"
        },
        {
          "internalType": "string",
          "name": "description",
          "type": "string"
        },
        {
          "internalType": "uint256",
          "name": "premium",
          "type": "uint256"
        },
        {
          "internalType": "uint256",
          "name": "coverageAmount",
          "type": "uint256"
        },
        {
          "internalType": "uint256",
          "name": "duration",
          "type": "uint256"
        },
        {
          "internalType": "bool",
          "name": "isActive",
          "type": "bool"
        }
      ],
      "stateMutability": "view",
      "type": "function"
    },
    {
      "inputs": [
        {
          "internalType": "uint256",
          "name": "_planId",
          "type": "uint256"
        }
      ],
      "name": "payPremium",
      "outputs": [],
      "stateMutability": "payable",
      "type": "function"
    },
    {
      "inputs": [
        {
          "internalType": "uint256",
          "name": "",
          "type": "uint256"
        }
      ],
      "name": "requests",
      "outputs": [
        {
          "internalType": "uint256",
          "name": "id",
          "type": "uint256"
        },
        {
          "internalType": "address",
          "name": "customer",
          "type": "address"
        },
        {
          "internalType": "uint256",
          "name": "planId",
          "type": "uint256"
        },
        {
          "internalType": "bool",
          "name": "isApproved",
          "type": "bool"
        }
      ],
      "stateMutability": "view",
      "type": "function"
    },
    {
      "inputs": [
        {
          "internalType": "uint256",
          "name": "_requestId",
          "type": "uint256"
        },
        {
          "internalType": "bool",
          "name": "_approve",
          "type": "bool"
        }
      ],
      "name": "respondToRequest",
      "outputs": [],
      "stateMutability": "nonpayable",
      "type": "function"
    },
    {
      "inputs": [
        {
          "internalType": "uint256",
          "name": "_fee",
          "type": "uint256"
        }
      ],
      "name": "setPlatformFee",
      "outputs": [],
      "stateMutability": "nonpayable",
      "type": "function"
    },
    {
      "inputs": [
        {
          "internalType": "uint256",
          "name": "_planId",
          "type": "uint256"
        }
      ],
      "name": "submitRequest",
      "outputs": [],
      "stateMutability": "nonpayable",
      "type": "function"
    },
    {
      "inputs": [],
      "name": "viewPlans",
      "outputs": [
        {
          "components": [
            {
              "internalType": "uint256",
              "name": "id",
              "type": "uint256"
            },
            {
              "internalType": "address",
              "name": "company",
              "type": "address"
            },
            {
              "internalType": "string",
              "name": "name",
              "type": "string"
            },
            {
              "internalType": "string",
              "name": "description",
              "type": "string"
            },
            {
              "internalType": "uint256",
              "name": "premium",
              "type": "uint256"
            },
            {
              "internalType": "uint256",
              "name": "coverageAmount",
              "type": "uint256"
            },
            {
              "internalType": "uint256",
              "name": "duration",
              "type": "uint256"
            },
            {
              "internalType": "bool",
              "name": "isActive",
              "type": "bool"
            }
          ],
          "internalType": "struct DecentralizedInsurance.InsurancePlan[]",
          "name": "",
          "type": "tuple[]"
        }
      ],
      "stateMutability": "view",
      "type": "function"
    }
  ],
  "bytecode": "0x608060405260056000556001600255600160035534801561001f57600080fd5b5033600160006101000a81548173ffffffffffffffffffffffffffffffffffffffff021916908373ffffffffffffffffffffffffffffffffffffffff1602179055506121e8806100706000396000f3fe6080604052600436106100a75760003560e01c80634e8712b3116100645780634e8712b3146101c25780637746dfa9146101eb57806381d12c5814610214578063ba2d3f3814610254578063e5584ed71461027d578063ec1b7066146102a6576100a7565b806312e8e2c3146100ac5780631cdd1653146100d5578063336989ae146100fe578063355e6ce81461013c5780634364b26e1461017b57806348e9807f14610197575b600080fd5b3480156100b857600080fd5b506100d360048036038101906100ce91906116c1565b6102ea565b005b3480156100e157600080fd5b506100fc60048036038101906100f791906116c1565b610384565b005b34801561010a57600080fd5b50610125600480360381019061012091906115f1565b6105e0565b604051610133929190611b70565b60405180910390f35b34801561014857600080fd5b50610163600480360381019061015e91906115f1565b610624565b60405161017293929190611b32565b60405180910390f35b610195600480360381019061019091906116c1565b6106f6565b005b3480156101a357600080fd5b506101ac6108e1565b6040516101b99190611b99565b60405180910390f35b3480156101ce57600080fd5b506101e960048036038101906101e491906115f1565b610bf5565b005b3480156101f757600080fd5b50610212600480360381019061020d91906116c1565b610d7a565b005b34801561022057600080fd5b5061023b600480360381019061023691906116c1565b610e96565b60405161024b9493929190611da7565b60405180910390f35b34801561026057600080fd5b5061027b600480360381019061027691906116ea565b610ef3565b005b34801561028957600080fd5b506102a4600480360381019061029f919061161a565b611023565b005b3480156102b257600080fd5b506102cd60048036038101906102c891906116c1565b611285565b6040516102e1989796959493929190611ce4565b60405180910390f35b600160009054906101000a900473ffffffffffffffffffffffffffffffffffffffff1673ffffffffffffffffffffffffffffffffffffffff163373ffffffffffffffffffffffffffffffffffffffff161461037a576040517f08c379a000000000000000000000000000000000000000000000000000000000815260040161037190611c3b565b60405180910390fd5b8060008190555050565b600073ffffffffffffffffffffffffffffffffffffffff16600760003373ffffffffffffffffffffffffffffffffffffffff1673ffffffffffffffffffffffffffffffffffffffff16815260200190815260200160002060000160009054906101000a900473ffffffffffffffffffffffffffffffffffffffff1673ffffffffffffffffffffffffffffffffffffffff161415610456576040517f08c379a000000000000000000000000000000000000000000000000000000000815260040161044d90611bfb565b60405180910390fd5b6004600082815260200190815260200160002060070160009054906101000a900460ff166104b9576040517f08c379a00000000000000000000000000000000000000000000000000000000081526004016104b090611bdb565b60405180910390fd5b604051806080016040528060035481526020013373ffffffffffffffffffffffffffffffffffffffff168152602001828152602001600015158152506005600060035481526020019081526020016000206000820151816000015560208201518160010160006101000a81548173ffffffffffffffffffffffffffffffffffffffff021916908373ffffffffffffffffffffffffffffffffffffffff1602179055506040820151816002015560608201518160030160006101000a81548160ff0219169083151502179055509050507fded47fe1c7f7878a21a47327b3f5172551c245be83ba771fe716cdbe1bf55c7a60035433836040516105bd93929190611d70565b60405180910390a1600360008154809291906105d890612057565b919050555050565b60076020528060005260406000206000915090508060000160009054906101000a900473ffffffffffffffffffffffffffffffffffffffff16908060010154905082565b60066020528060005260406000206000915090508060000160009054906101000a900473ffffffffffffffffffffffffffffffffffffffff169080600101805461066d90612025565b80601f016020809104026020016040519081016040528092919081815260200182805461069990612025565b80156106e65780601f106106bb576101008083540402835291602001916106e6565b820191906000526020600020905b8154815290600101906020018083116106c957829003601f168201915b5050505050908060020154905083565b60006004600083815260200190815260200160002090508060070160009054906101000a900460ff1661075e576040517f08c379a000000000000000000000000000000000000000000000000000000000815260040161075590611c9b565b60405180910390fd5b806004015434146107a4576040517f08c379a000000000000000000000000000000000000000000000000000000000815260040161079b90611c1b565b60405180910390fd5b60006064600054346107b69190611f0d565b6107c09190611edc565b90508160010160009054906101000a900473ffffffffffffffffffffffffffffffffffffffff1673ffffffffffffffffffffffffffffffffffffffff166108fc823461080c9190611f67565b9081150290604051600060405180830381858888f19350505050158015610837573d6000803e3d6000fd5b50600160009054906101000a900473ffffffffffffffffffffffffffffffffffffffff1673ffffffffffffffffffffffffffffffffffffffff166108fc829081150290604051600060405180830381858888f193505050501580156108a0573d6000803e3d6000fd5b507ffbf1458fbbddabb878de144276216e8ccda619cbac2d598e6ee37ff72173afb18333346040516108d493929190611d70565b60405180910390a1505050565b6060600060016002546108f49190611f67565b67ffffffffffffffff811115610933577f4e487b7100000000000000000000000000000000000000000000000000000000600052604160045260246000fd5b60405190808252806020026020018201604052801561096c57816020015b61095961140a565b8152602001906001900390816109515790505b509050600080600190505b600254811015610bec576004600082815260200190815260200160002060070160009054906101000a900460ff1615610bd9576004600082815260200190815260200160002060405180610100016040529081600082015481526020016001820160009054906101000a900473ffffffffffffffffffffffffffffffffffffffff1673ffffffffffffffffffffffffffffffffffffffff1673ffffffffffffffffffffffffffffffffffffffff168152602001600282018054610a3990612025565b80601f0160208091040260200160405190810160405280929190818152602001828054610a6590612025565b8015610ab25780601f10610a8757610100808354040283529160200191610ab2565b820191906000526020600020905b815481529060010190602001808311610a9557829003601f168201915b50505050508152602001600382018054610acb90612025565b80601f0160208091040260200160405190810160405280929190818152602001828054610af790612025565b8015610b445780601f10610b1957610100808354040283529160200191610b44565b820191906000526020600020905b815481529060010190602001808311610b2757829003601f168201915b505050505081526020016004820154815260200160058201548152602001600682015481526020016007820160009054906101000a900460ff161515151581525050838381518110610bbf577f4e487b7100000000000000000000000000000000000000000000000000000000600052603260045260246000fd5b60200260200101819052508180610bd590612057565b9250505b8080610be490612057565b915050610977565b50819250505090565b600160009054906101000a900473ffffffffffffffffffffffffffffffffffffffff1673ffffffffffffffffffffffffffffffffffffffff163373ffffffffffffffffffffffffffffffffffffffff1614610c85576040517f08c379a0000000000000000000000000000000000000000000000000000000008152600401610c7c90611c3b565b60405180910390fd5b600660008273ffffffffffffffffffffffffffffffffffffffff1673ffffffffffffffffffffffffffffffffffffffff168152602001908152602001600020600080820160006101000a81549073ffffffffffffffffffffffffffffffffffffffff0219169055600182016000610cfc9190611467565b60028201600090555050600760008273ffffffffffffffffffffffffffffffffffffffff1673ffffffffffffffffffffffffffffffffffffffff168152602001908152602001600020600080820160006101000a81549073ffffffffffffffffffffffffffffffffffffffff02191690556001820160009055505050565b60006005600083815260200190815260200160002090503373ffffffffffffffffffffffffffffffffffffffff168160010160009054906101000a900473ffffffffffffffffffffffffffffffffffffffff1673ffffffffffffffffffffffffffffffffffffffff1614610e23576040517f08c379a0000000000000000000000000000000000000000000000000000000008152600401610e1a90611c7b565b60405180910390fd5b8060030160009054906101000a900460ff1615610e75576040517f08c379a0000000000000000000000000000000000000000000000000000000008152600401610e6c90611bbb565b60405180910390fd5b60008160030160006101000a81548160ff0219169083151502179055505050565b60056020528060005260406000206000915090508060000154908060010160009054906101000a900473ffffffffffffffffffffffffffffffffffffffff16908060020154908060030160009054906101000a900460ff16905084565b60006005600084815260200190815260200160002090506000600460008360020154815260200190815260200160002090503373ffffffffffffffffffffffffffffffffffffffff168160010160009054906101000a900473ffffffffffffffffffffffffffffffffffffffff1673ffffffffffffffffffffffffffffffffffffffff1614610fb7576040517f08c379a0000000000000000000000000000000000000000000000000000000008152600401610fae90611c7b565b60405180910390fd5b828260030160006101000a81548160ff0219169083151502179055507f5925f6070dba9d3c5caa9c961d661ea0c1772d7f95af99d278fe9e5b4e53caba848360030160009054906101000a900460ff16604051611015929190611dec565b60405180910390a150505050565b600073ffffffffffffffffffffffffffffffffffffffff16600660003373ffffffffffffffffffffffffffffffffffffffff1673ffffffffffffffffffffffffffffffffffffffff16815260200190815260200160002060000160009054906101000a900473ffffffffffffffffffffffffffffffffffffffff1673ffffffffffffffffffffffffffffffffffffffff1614156110f5576040517f08c379a00000000000000000000000000000000000000000000000000000000081526004016110ec90611c5b565b60405180910390fd5b60405180610100016040528060025481526020013373ffffffffffffffffffffffffffffffffffffffff168152602001868152602001858152602001848152602001838152602001828152602001600115158152506004600060025481526020019081526020016000206000820151816000015560208201518160010160006101000a81548173ffffffffffffffffffffffffffffffffffffffff021916908373ffffffffffffffffffffffffffffffffffffffff16021790555060408201518160020190805190602001906111cc9291906114a7565b5060608201518160030190805190602001906111e99291906114a7565b506080820151816004015560a0820151816005015560c0820151816006015560e08201518160070160006101000a81548160ff0219169083151502179055509050507f6b67a01eb500680a90226d64ad9239c6dc9c95b64ea6a8d9a3b5b94197b465856002543360405161125e929190611cbb565b60405180910390a16002600081548092919061127990612057565b91905055505050505050565b60046020528060005260406000206000915090508060000154908060010160009054906101000a900473ffffffffffffffffffffffffffffffffffffffff16908060020180546112d490612025565b80601f016020809104026020016040519081016040528092919081815260200182805461130090612025565b801561134d5780601f106113225761010080835404028352916020019161134d565b820191906000526020600020905b81548152906001019060200180831161133057829003601f168201915b50505050509080600301805461136290612025565b80601f016020809104026020016040519081016040528092919081815260200182805461138e90612025565b80156113db5780601f106113b0576101008083540402835291602001916113db565b820191906000526020600020905b8154815290600101906020018083116113be57829003601f168201915b5050505050908060040154908060050154908060060154908060070160009054906101000a900460ff16905088565b60405180610100016040528060008152602001600073ffffffffffffffffffffffffffffffffffffffff16815260200160608152602001606081526020016000815260200160008152602001600081526020016000151581525090565b50805461147390612025565b6000825580601f1061148557506114a4565b601f0160209004906000526020600020908101906114a3919061152d565b5b50565b8280546114b390612025565b90600052602060002090601f0160209004810192826114d5576000855561151c565b82601f106114ee57805160ff191683800117855561151c565b8280016001018555821561151c579182015b8281111561151b578251825591602001919060010190611500565b5b509050611529919061152d565b5090565b5b8082111561154657600081600090555060010161152e565b5090565b600061155d61155884611e46565b611e15565b90508281526020810184848401111561157557600080fd5b611580848285611fe3565b509392505050565b6000813590506115978161216d565b92915050565b6000813590506115ac81612184565b92915050565b600082601f8301126115c357600080fd5b81356115d384826020860161154a565b91505092915050565b6000813590506115eb8161219b565b92915050565b60006020828403121561160357600080fd5b600061161184828501611588565b91505092915050565b600080600080600060a0868803121561163257600080fd5b600086013567ffffffffffffffff81111561164c57600080fd5b611658888289016115b2565b955050602086013567ffffffffffffffff81111561167557600080fd5b611681888289016115b2565b9450506040611692888289016115dc565b93505060606116a3888289016115dc565b92505060806116b4888289016115dc565b9150509295509295909350565b6000602082840312156116d357600080fd5b60006116e1848285016115dc565b91505092915050565b600080604083850312156116fd57600080fd5b600061170b858286016115dc565b925050602061171c8582860161159d565b9150509250929050565b60006117328383611a5d565b905092915050565b61174381611f9b565b82525050565b61175281611f9b565b82525050565b600061176382611e86565b61176d8185611ea9565b93508360208202850161177f85611e76565b8060005b858110156117bb578484038952815161179c8582611726565b94506117a783611e9c565b925060208a01995050600181019050611783565b50829750879550505050505092915050565b6117d681611fad565b82525050565b6117e581611fad565b82525050565b60006117f682611e91565b6118008185611eba565b9350611810818560208601611ff2565b6118198161215c565b840191505092915050565b600061182f82611e91565b6118398185611ecb565b9350611849818560208601611ff2565b6118528161215c565b840191505092915050565b600061186a601983611ecb565b91507f5265717565737420616c726561647920617070726f7665642e000000000000006000830152602082019050919050565b60006118aa601783611ecb565b91507f496e76616c696420696e737572616e636520706c616e2e0000000000000000006000830152602082019050919050565b60006118ea601883611ecb565b91507f437573746f6d6572206e6f7420726567697374657265642e00000000000000006000830152602082019050919050565b600061192a601983611ecb565b91507f496e636f7272656374207072656d69756d20616d6f756e742e000000000000006000830152602082019050919050565b600061196a600b83611ecb565b91507f4f6e6c792061646d696e2e0000000000000000000000000000000000000000006000830152602082019050919050565b60006119aa601983611ecb565b91507f4e6f742061207265676973746572656420636f6d70616e792e000000000000006000830152602082019050919050565b60006119ea600f83611ecb565b91507f4e6f7420617574686f72697a65642e00000000000000000000000000000000006000830152602082019050919050565b6000611a2a600d83611ecb565b91507f496e76616c696420706c616e2e000000000000000000000000000000000000006000830152602082019050919050565b600061010083016000830151611a766000860182611b14565b506020830151611a89602086018261173a565b5060408301518482036040860152611aa182826117eb565b91505060608301518482036060860152611abb82826117eb565b9150506080830151611ad06080860182611b14565b5060a0830151611ae360a0860182611b14565b5060c0830151611af660c0860182611b14565b5060e0830151611b0960e08601826117cd565b508091505092915050565b611b1d81611fd9565b82525050565b611b2c81611fd9565b82525050565b6000606082019050611b476000830186611749565b8181036020830152611b598185611824565b9050611b686040830184611b23565b949350505050565b6000604082019050611b856000830185611749565b611b926020830184611b23565b9392505050565b60006020820190508181036000830152611bb38184611758565b905092915050565b60006020820190508181036000830152611bd48161185d565b9050919050565b60006020820190508181036000830152611bf48161189d565b9050919050565b60006020820190508181036000830152611c14816118dd565b9050919050565b60006020820190508181036000830152611c348161191d565b9050919050565b60006020820190508181036000830152611c548161195d565b9050919050565b60006020820190508181036000830152611c748161199d565b9050919050565b60006020820190508181036000830152611c94816119dd565b9050919050565b60006020820190508181036000830152611cb481611a1d565b9050919050565b6000604082019050611cd06000830185611b23565b611cdd6020830184611749565b9392505050565b600061010082019050611cfa600083018b611b23565b611d07602083018a611749565b8181036040830152611d198189611824565b90508181036060830152611d2d8188611824565b9050611d3c6080830187611b23565b611d4960a0830186611b23565b611d5660c0830185611b23565b611d6360e08301846117dc565b9998505050505050505050565b6000606082019050611d856000830186611b23565b611d926020830185611749565b611d9f6040830184611b23565b949350505050565b6000608082019050611dbc6000830187611b23565b611dc96020830186611749565b611dd66040830185611b23565b611de360608301846117dc565b95945050505050565b6000604082019050611e016000830185611b23565b611e0e60208301846117dc565b9392505050565b6000604051905081810181811067ffffffffffffffff82111715611e3c57611e3b61212d565b5b8060405250919050565b600067ffffffffffffffff821115611e6157611e6061212d565b5b601f19601f8301169050602081019050919050565b6000819050602082019050919050565b600081519050919050565b600081519050919050565b6000602082019050919050565b600082825260208201905092915050565b600082825260208201905092915050565b600082825260208201905092915050565b6000611ee782611fd9565b9150611ef283611fd9565b925082611f0257611f016120cf565b5b828204905092915050565b6000611f1882611fd9565b9150611f2383611fd9565b9250817fffffffffffffffffffffffffffffffffffffffffffffffffffffffffffffffff0483118215151615611f5c57611f5b6120a0565b5b828202905092915050565b6000611f7282611fd9565b9150611f7d83611fd9565b925082821015611f9057611f8f6120a0565b5b828203905092915050565b6000611fa682611fb9565b9050919050565b60008115159050919050565b600073ffffffffffffffffffffffffffffffffffffffff82169050919050565b6000819050919050565b82818337600083830152505050565b60005b83811015612010578082015181840152602081019050611ff5565b8381111561201f576000848401525b50505050565b6000600282049050600182168061203d57607f821691505b60208210811415612051576120506120fe565b5b50919050565b600061206282611fd9565b91507fffffffffffffffffffffffffffffffffffffffffffffffffffffffffffffffff821415612095576120946120a0565b5b600182019050919050565b7f4e487b7100000000000000000000000000000000000000000000000000000000600052601160045260246000fd5b7f4e487b7100000000000000000000000000000000000000000000000000000000600052601260045260246000fd5b7f4e487b7100000000000000000000000000000000000000000000000000000000600052602260045260246000fd5b7f4e487b7100000000000000000000000000000000000000000000000000000000600052604160045260246000fd5b6000601f19601f8301169050919050565b61217681611f9b565b811461218157600080fd5b50565b61218d81611fad565b811461219857600080fd5b50565b6121a481611fd9565b81146121af57600080fd5b5056fea2646970667358221220293d72564e1960b2a1791432c3f14f559aab023bfad1bcc382a713c1bb893e4964736f6c63430008000033",
  "linkReferences": {},
  "deployedLinkReferences": {}
}