{
  "_format": "hh-sol-artifact-1",
  "contractName": "DecentralizedInsurance",
  "sourceName": "contracts/functions.sol",
  "abi": [
    {
      "inputs": [],
      "stateMutability": "nonpayable",
      "type": "constructor"
    },
    {
      "anonymous": false,
      "inputs": [
        {
          "indexed": false,
          "internalType": "uint256",
          "name": "requestId",
          "type": "uint256"
        },
        {
          "indexed": false,
          "internalType": "uint256",
          "name": "claimAmount",
          "type": "uint256"
        }
      ],
      "name": "ClaimSettled",
      "type": "event"
    },
    {
      "anonymous": false,
      "inputs": [
        {
          "indexed": false,
          "internalType": "address",
          "name": "customer",
          "type": "address"
        },
        {
          "indexed": false,
          "internalType": "uint256",
          "name": "rate",
          "type": "uint256"
        }
      ],
      "name": "CustomerRegistered",
      "type": "event"
    },
    {
      "anonymous": false,
      "inputs": [
        {
          "indexed": false,
          "internalType": "uint256",
          "name": "planId",
          "type": "uint256"
        },
        {
          "indexed": false,
          "internalType": "uint256",
          "name": "companyId",
          "type": "uint256"
        }
      ],
      "name": "PlanCreated",
      "type": "event"
    },
    {
      "anonymous": false,
      "inputs": [
        {
          "indexed": false,
          "internalType": "uint256",
          "name": "planId",
          "type": "uint256"
        },
        {
          "indexed": false,
          "internalType": "address",
          "name": "customer",
          "type": "address"
        },
        {
          "indexed": false,
          "internalType": "uint256",
          "name": "amount",
          "type": "uint256"
        }
      ],
      "name": "PremiumPaid",
      "type": "event"
    },
    {
      "anonymous": false,
      "inputs": [
        {
          "indexed": false,
          "internalType": "uint256",
          "name": "requestId",
          "type": "uint256"
        },
        {
          "indexed": false,
          "internalType": "bool",
          "name": "isApproved",
          "type": "bool"
        }
      ],
      "name": "RequestResponded",
      "type": "event"
    },
    {
      "anonymous": false,
      "inputs": [
        {
          "indexed": false,
          "internalType": "uint256",
          "name": "requestId",
          "type": "uint256"
        },
        {
          "indexed": false,
          "internalType": "address",
          "name": "customer",
          "type": "address"
        },
        {
          "indexed": false,
          "internalType": "uint256",
          "name": "planId",
          "type": "uint256"
        }
      ],
      "name": "RequestSubmitted",
      "type": "event"
    },
    {
      "inputs": [
        {
          "internalType": "uint256",
          "name": "_requestId",
          "type": "uint256"
        },
        {
          "internalType": "bool",
          "name": "_approve",
          "type": "bool"
        }
      ],
      "name": "Request_decision_By_Company",
      "outputs": [],
      "stateMutability": "nonpayable",
      "type": "function"
    },
    {
      "inputs": [
        {
          "internalType": "uint256",
          "name": "_requestId",
          "type": "uint256"
        }
      ],
      "name": "acceptOffer",
      "outputs": [],
      "stateMutability": "nonpayable",
      "type": "function"
    },
    {
      "inputs": [],
      "name": "admin",
      "outputs": [
        {
          "internalType": "address",
          "name": "",
          "type": "address"
        }
      ],
      "stateMutability": "view",
      "type": "function"
    },
    {
      "inputs": [
        {
          "internalType": "uint256",
          "name": "_companyId",
          "type": "uint256"
        }
      ],
      "name": "banCompany",
      "outputs": [],
      "stateMutability": "nonpayable",
      "type": "function"
    },
    {
      "inputs": [
        {
          "internalType": "string",
          "name": "",
          "type": "string"
        }
      ],
      "name": "bannedCompanyNames",
      "outputs": [
        {
          "internalType": "bool",
          "name": "",
          "type": "bool"
        }
      ],
      "stateMutability": "view",
      "type": "function"
    },
    {
      "inputs": [
        {
          "internalType": "uint256",
          "name": "_planId",
          "type": "uint256"
        },
        {
          "internalType": "bool",
          "name": "_status",
          "type": "bool"
        }
      ],
      "name": "changePlanStatus",
      "outputs": [],
      "stateMutability": "nonpayable",
      "type": "function"
    },
    {
      "inputs": [
        {
          "internalType": "uint256",
          "name": "",
          "type": "uint256"
        }
      ],
      "name": "companies",
      "outputs": [
        {
          "internalType": "uint256",
          "name": "id",
          "type": "uint256"
        },
        {
          "internalType": "address",
          "name": "addr",
          "type": "address"
        },
        {
          "internalType": "string",
          "name": "name",
          "type": "string"
        },
        {
          "internalType": "uint256",
          "name": "customer_rating",
          "type": "uint256"
        },
        {
          "internalType": "bool",
          "name": "isActive",
          "type": "bool"
        }
      ],
      "stateMutability": "view",
      "type": "function"
    },
    {
      "inputs": [
        {
          "internalType": "address",
          "name": "",
          "type": "address"
        }
      ],
      "name": "companyIds",
      "outputs": [
        {
          "internalType": "uint256",
          "name": "",
          "type": "uint256"
        }
      ],
      "stateMutability": "view",
      "type": "function"
    },
    {
      "inputs": [
        {
          "internalType": "string",
          "name": "_name",
          "type": "string"
        },
        {
          "internalType": "string",
          "name": "_description",
          "type": "string"
        },
        {
          "internalType": "uint256",
          "name": "_premium",
          "type": "uint256"
        },
        {
          "internalType": "uint256",
          "name": "_coverageAmount",
          "type": "uint256"
        },
        {
          "internalType": "uint256",
          "name": "_duration",
          "type": "uint256"
        }
      ],
      "name": "createPlan",
      "outputs": [],
      "stateMutability": "nonpayable",
      "type": "function"
    },
    {
      "inputs": [
        {
          "internalType": "string",
          "name": "",
          "type": "string"
        }
      ],
      "name": "customers",
      "outputs": [
        {
          "internalType": "address",
          "name": "addr",
          "type": "address"
        },
        {
          "internalType": "string",
          "name": "name",
          "type": "string"
        },
        {
          "internalType": "uint256",
          "name": "rate",
          "type": "uint256"
        },
        {
          "internalType": "bool",
          "name": "isRegistered",
          "type": "bool"
        }
      ],
      "stateMutability": "view",
      "type": "function"
    },
    {
      "inputs": [
        {
          "internalType": "uint256",
          "name": "_requestId",
          "type": "uint256"
        }
      ],
      "name": "denyOffer",
      "outputs": [],
      "stateMutability": "nonpayable",
      "type": "function"
    },
    {
      "inputs": [
        {
          "internalType": "string",
          "name": "_name",
          "type": "string"
        }
      ],
      "name": "getCustomer",
      "outputs": [
        {
          "components": [
            {
              "internalType": "address",
              "name": "addr",
              "type": "address"
            },
            {
              "internalType": "string",
              "name": "name",
              "type": "string"
            },
            {
              "internalType": "uint256",
              "name": "rate",
              "type": "uint256"
            },
            {
              "internalType": "bool",
              "name": "isRegistered",
              "type": "bool"
            }
          ],
          "internalType": "struct DecentralizedInsurance.Customer",
          "name": "",
          "type": "tuple"
        }
      ],
      "stateMutability": "view",
      "type": "function"
    },
    {
      "inputs": [
        {
          "internalType": "uint256",
          "name": "",
          "type": "uint256"
        }
      ],
      "name": "insurancePlans",
      "outputs": [
        {
          "internalType": "uint256",
          "name": "id",
          "type": "uint256"
        },
        {
          "internalType": "uint256",
          "name": "companyId",
          "type": "uint256"
        },
        {
          "internalType": "string",
          "name": "name",
          "type": "string"
        },
        {
          "internalType": "string",
          "name": "description",
          "type": "string"
        },
        {
          "internalType": "uint256",
          "name": "premium",
          "type": "uint256"
        },
        {
          "internalType": "uint256",
          "name": "coverageAmount",
          "type": "uint256"
        },
        {
          "internalType": "uint256",
          "name": "duration",
          "type": "uint256"
        },
        {
          "internalType": "bool",
          "name": "isActive",
          "type": "bool"
        }
      ],
      "stateMutability": "view",
      "type": "function"
    },
    {
      "inputs": [],
      "name": "listBannedCompanies",
      "outputs": [
        {
          "internalType": "string[]",
          "name": "",
          "type": "string[]"
        }
      ],
      "stateMutability": "view",
      "type": "function"
    },
    {
      "inputs": [],
      "name": "nextCompanyId",
      "outputs": [
        {
          "internalType": "uint256",
          "name": "",
          "type": "uint256"
        }
      ],
      "stateMutability": "view",
      "type": "function"
    },
    {
      "inputs": [
        {
          "internalType": "uint256",
          "name": "_planId",
          "type": "uint256"
        }
      ],
      "name": "payPremium",
      "outputs": [],
      "stateMutability": "payable",
      "type": "function"
    },
    {
      "inputs": [
        {
          "internalType": "string",
          "name": "_name",
          "type": "string"
        },
        {
          "internalType": "uint256",
          "name": "_rate",
          "type": "uint256"
        }
      ],
      "name": "registerCompany",
      "outputs": [],
      "stateMutability": "nonpayable",
      "type": "function"
    },
    {
      "inputs": [
        {
          "internalType": "string",
          "name": "_name",
          "type": "string"
        },
        {
          "internalType": "uint256",
          "name": "_rate",
          "type": "uint256"
        }
      ],
      "name": "registerCustomer",
      "outputs": [],
      "stateMutability": "nonpayable",
      "type": "function"
    },
    {
      "inputs": [
        {
          "internalType": "uint256",
          "name": "",
          "type": "uint256"
        }
      ],
      "name": "requests",
      "outputs": [
        {
          "internalType": "uint256",
          "name": "id",
          "type": "uint256"
        },
        {
          "internalType": "address",
          "name": "customer",
          "type": "address"
        },
        {
          "internalType": "uint256",
          "name": "planId",
          "type": "uint256"
        },
        {
          "internalType": "bool",
          "name": "Company_Approved",
          "type": "bool"
        },
        {
          "internalType": "bool",
          "name": "Customer_Approved",
          "type": "bool"
        },
        {
          "internalType": "int256",
          "name": "isActive",
          "type": "int256"
        },
        {
          "internalType": "bool",
          "name": "isClaimed",
          "type": "bool"
        },
        {
          "internalType": "uint256",
          "name": "claimAmount",
          "type": "uint256"
        }
      ],
      "stateMutability": "view",
      "type": "function"
    },
    {
      "inputs": [
        {
          "internalType": "uint256",
          "name": "_fee",
          "type": "uint256"
        }
      ],
      "name": "setPlatformFee",
      "outputs": [],
      "stateMutability": "nonpayable",
      "type": "function"
    },
    {
      "inputs": [
        {
          "internalType": "uint256",
          "name": "_requestId",
          "type": "uint256"
        }
      ],
      "name": "settleClaim",
      "outputs": [],
      "stateMutability": "nonpayable",
      "type": "function"
    },
    {
      "inputs": [
        {
          "internalType": "string",
          "name": "name_",
          "type": "string"
        },
        {
          "internalType": "uint256",
          "name": "_planId",
          "type": "uint256"
        }
      ],
      "name": "submitRequest",
      "outputs": [],
      "stateMutability": "nonpayable",
      "type": "function"
    },
    {
      "inputs": [
        {
          "internalType": "string",
          "name": "_name",
          "type": "string"
        }
      ],
      "name": "unbanCompany",
      "outputs": [],
      "stateMutability": "nonpayable",
      "type": "function"
    },
    {
      "inputs": [],
      "name": "viewPlans",
      "outputs": [
        {
          "components": [
            {
              "internalType": "uint256",
              "name": "id",
              "type": "uint256"
            },
            {
              "internalType": "uint256",
              "name": "companyId",
              "type": "uint256"
            },
            {
              "internalType": "string",
              "name": "name",
              "type": "string"
            },
            {
              "internalType": "string",
              "name": "description",
              "type": "string"
            },
            {
              "internalType": "uint256",
              "name": "premium",
              "type": "uint256"
            },
            {
              "internalType": "uint256",
              "name": "coverageAmount",
              "type": "uint256"
            },
            {
              "internalType": "uint256",
              "name": "duration",
              "type": "uint256"
            },
            {
              "internalType": "bool",
              "name": "isActive",
              "type": "bool"
            }
          ],
          "internalType": "struct DecentralizedInsurance.InsurancePlan[]",
          "name": "",
          "type": "tuple[]"
        }
      ],
      "stateMutability": "view",
      "type": "function"
    },
    {
      "inputs": [],
      "name": "viewRequests",
      "outputs": [
        {
          "components": [
            {
              "internalType": "uint256",
              "name": "id",
              "type": "uint256"
            },
            {
              "internalType": "address",
              "name": "customer",
              "type": "address"
            },
            {
              "internalType": "uint256",
              "name": "planId",
              "type": "uint256"
            },
            {
              "internalType": "bool",
              "name": "Company_Approved",
              "type": "bool"
            },
            {
              "internalType": "bool",
              "name": "Customer_Approved",
              "type": "bool"
            },
            {
              "internalType": "int256",
              "name": "isActive",
              "type": "int256"
            },
            {
              "internalType": "bool",
              "name": "isClaimed",
              "type": "bool"
            },
            {
              "internalType": "uint256",
              "name": "claimAmount",
              "type": "uint256"
            }
          ],
          "internalType": "struct DecentralizedInsurance.Request[]",
          "name": "",
          "type": "tuple[]"
        }
      ],
      "stateMutability": "view",
      "type": "function"
    }
  ],
  "bytecode": "0x608060405260056000556001600355600160045534801561001f57600080fd5b5033600160006101000a81548173ffffffffffffffffffffffffffffffffffffffff021916908373ffffffffffffffffffffffffffffffffffffffff1602179055506001600281905550614a37806100786000396000f3fe6080604052600436106101665760003560e01c806381d12c58116100d1578063d448ee4c1161008a578063e5584ed711610064578063e5584ed714610549578063ec1b706614610572578063f851a440146105b6578063ffc8cf8f146105e157610166565b8063d448ee4c146104b8578063d8d3c829146104f5578063e406f1d81461052057610166565b806381d12c581461037a5780639f242f22146103be578063a82c98d0146103fb578063b11e63d41461043b578063b5cb71a814610466578063c815729d1461048f57610166565b80635170c1aa116101235780635170c1aa1461026e578063518bddd914610297578063521e686d146102d45780635bffa51d146102ff5780635d8e6397146103285780637746dfa91461035157610166565b806312e8e2c31461016b5780631714ae63146101945780632813d19d146101bd5780634364b26e146101fe57806343d4c3701461021a57806348e9807f14610243575b600080fd5b34801561017757600080fd5b50610192600480360381019061018d91906132fd565b61060a565b005b3480156101a057600080fd5b506101bb60048036038101906101b691906132a9565b6106a4565b005b3480156101c957600080fd5b506101e460048036038101906101df91906132fd565b610839565b6040516101f59594939291906143db565b60405180910390f35b610218600480360381019061021391906132fd565b610924565b005b34801561022657600080fd5b50610241600480360381019061023c9190613326565b610bcf565b005b34801561024f57600080fd5b50610258610e20565b604051610265919061401f565b60405180910390f35b34801561027a57600080fd5b50610295600480360381019061029091906132a9565b6110e8565b005b3480156102a357600080fd5b506102be60048036038101906102b991906131c1565b611401565b6040516102cb919061439e565b60405180910390f35b3480156102e057600080fd5b506102e9611583565b6040516102f69190614041565b60405180910390f35b34801561030b57600080fd5b50610326600480360381019061032191906132fd565b61189b565b005b34801561033457600080fd5b5061034f600480360381019061034a9190613326565b611a74565b005b34801561035d57600080fd5b50610378600480360381019061037391906132fd565b611cd4565b005b34801561038657600080fd5b506103a1600480360381019061039c91906132fd565b611eb1565b6040516103b598979695949392919061446c565b60405180910390f35b3480156103ca57600080fd5b506103e560048036038101906103e09190613198565b611f40565b6040516103f291906143c0565b60405180910390f35b34801561040757600080fd5b50610422600480360381019061041d91906131c1565b611f58565b6040516104329493929190613f88565b60405180910390f35b34801561044757600080fd5b50610450612053565b60405161045d9190613ffd565b60405180910390f35b34801561047257600080fd5b5061048d600480360381019061048891906132a9565b6122af565b005b34801561049b57600080fd5b506104b660048036038101906104b191906132fd565b61251d565b005b3480156104c457600080fd5b506104df60048036038101906104da91906131c1565b6126f8565b6040516104ec9190614063565b60405180910390f35b34801561050157600080fd5b5061050a61272e565b60405161051791906143c0565b60405180910390f35b34801561052c57600080fd5b50610547600480360381019061054291906132fd565b612734565b005b34801561055557600080fd5b50610570600480360381019061056b9190613202565b6129fc565b005b34801561057e57600080fd5b50610599600480360381019061059491906132fd565b612ca5565b6040516105ad98979695949392919061453c565b60405180910390f35b3480156105c257600080fd5b506105cb612e0a565b6040516105d89190613f6d565b60405180910390f35b3480156105ed57600080fd5b50610608600480360381019061060391906131c1565b612e30565b005b600160009054906101000a900473ffffffffffffffffffffffffffffffffffffffff1673ffffffffffffffffffffffffffffffffffffffff163373ffffffffffffffffffffffffffffffffffffffff161461069a576040517f08c379a00000000000000000000000000000000000000000000000000000000081526004016106919061415e565b60405180910390fd5b8060008190555050565b6009826040516106b49190613f3f565b908152602001604051809103902060030160009054906101000a900460ff1615610713576040517f08c379a000000000000000000000000000000000000000000000000000000000815260040161070a9061423e565b60405180910390fd5b60405180608001604052803373ffffffffffffffffffffffffffffffffffffffff1681526020018381526020018281526020016001151581525060098360405161075d9190613f3f565b908152602001604051809103902060008201518160000160006101000a81548173ffffffffffffffffffffffffffffffffffffffff021916908373ffffffffffffffffffffffffffffffffffffffff16021790555060208201518160010190805190602001906107ce929190612f66565b506040820151816002015560608201518160030160006101000a81548160ff0219169083151502179055509050507f3e2e23ad95ac9d48f62299dd498880d0e69059ed54888b0b71031dc2615f9a60338260405161082d929190613fd4565b60405180910390a15050565b60076020528060005260406000206000915090508060000154908060010160009054906101000a900473ffffffffffffffffffffffffffffffffffffffff169080600201805461088890614874565b80601f01602080910402602001604051908101604052809291908181526020018280546108b490614874565b80156109015780601f106108d657610100808354040283529160200191610901565b820191906000526020600020905b8154815290600101906020018083116108e457829003601f168201915b5050505050908060030154908060040160009054906101000a900460ff16905085565b60006005600083815260200190815260200160002090508060070160009054906101000a900460ff1661098c576040517f08c379a00000000000000000000000000000000000000000000000000000000081526004016109839061427e565b60405180910390fd5b806004015434146109d2576040517f08c379a00000000000000000000000000000000000000000000000000000000081526004016109c99061413e565b60405180910390fd5b600073ffffffffffffffffffffffffffffffffffffffff16600760008360010154815260200190815260200160002060010160009054906101000a900473ffffffffffffffffffffffffffffffffffffffff1673ffffffffffffffffffffffffffffffffffffffff161415610a7c576040517f08c379a0000000000000000000000000000000000000000000000000000000008152600401610a739061429e565b60405180910390fd5b6000606460005434610a8e9190614752565b610a989190614721565b9050600760008360010154815260200190815260200160002060010160009054906101000a900473ffffffffffffffffffffffffffffffffffffffff1673ffffffffffffffffffffffffffffffffffffffff166108fc8234610afa91906147ac565b9081150290604051600060405180830381858888f19350505050158015610b25573d6000803e3d6000fd5b50600160009054906101000a900473ffffffffffffffffffffffffffffffffffffffff1673ffffffffffffffffffffffffffffffffffffffff166108fc829081150290604051600060405180830381858888f19350505050158015610b8e573d6000803e3d6000fd5b507ffbf1458fbbddabb878de144276216e8ccda619cbac2d598e6ee37ff72173afb1833334604051610bc293929190614435565b60405180910390a1505050565b60006006600084815260200190815260200160002090506000600860003373ffffffffffffffffffffffffffffffffffffffff1673ffffffffffffffffffffffffffffffffffffffff1681526020019081526020016000205490508060056000600660008881526020019081526020016000206002015481526020019081526020016000206001015414610c98576040517f08c379a0000000000000000000000000000000000000000000000000000000008152600401610c8f9061437e565b60405180910390fd5b6000600660008681526020019081526020016000206004015414610cf1576040517f08c379a0000000000000000000000000000000000000000000000000000000008152600401610ce8906141fe565b60405180910390fd5b600a60076000838152602001908152602001600020600201604051610d169190613f56565b908152602001604051809103902060009054906101000a900460ff1615610d72576040517f08c379a0000000000000000000000000000000000000000000000000000000008152600401610d699061433e565b60405180910390fd5b8215610d9a5760018260030160006101000a81548160ff021916908315150217905550610de1565b60008260030160006101000a81548160ff0219169083151502179055507fffffffffffffffffffffffffffffffffffffffffffffffffffffffffffffffff82600401819055505b7f5925f6070dba9d3c5caa9c961d661ea0c1772d7f95af99d278fe9e5b4e53caba8484604051610e129291906144ea565b60405180910390a150505050565b606060006001600354610e3391906147ac565b67ffffffffffffffff811115610e72577f4e487b7100000000000000000000000000000000000000000000000000000000600052604160045260246000fd5b604051908082528060200260200182016040528015610eab57816020015b610e98612fec565b815260200190600190039081610e905790505b509050600080600190505b6003548110156110df576005600082815260200190815260200160002060070160009054906101000a900460ff16156110cc5760056000828152602001908152602001600020604051806101000160405290816000820154815260200160018201548152602001600282018054610f2c90614874565b80601f0160208091040260200160405190810160405280929190818152602001828054610f5890614874565b8015610fa55780601f10610f7a57610100808354040283529160200191610fa5565b820191906000526020600020905b815481529060010190602001808311610f8857829003601f168201915b50505050508152602001600382018054610fbe90614874565b80601f0160208091040260200160405190810160405280929190818152602001828054610fea90614874565b80156110375780601f1061100c57610100808354040283529160200191611037565b820191906000526020600020905b81548152906001019060200180831161101a57829003601f168201915b505050505081526020016004820154815260200160058201548152602001600682015481526020016007820160009054906101000a900460ff1615151515815250508383815181106110b2577f4e487b7100000000000000000000000000000000000000000000000000000000600052603260045260246000fd5b602002602001018190525081806110c8906148a6565b9250505b80806110d7906148a6565b915050610eb6565b50819250505090565b600160009054906101000a900473ffffffffffffffffffffffffffffffffffffffff1673ffffffffffffffffffffffffffffffffffffffff163373ffffffffffffffffffffffffffffffffffffffff1614611178576040517f08c379a000000000000000000000000000000000000000000000000000000000815260040161116f9061415e565b60405180910390fd5b600a826040516111889190613f3f565b908152602001604051809103902060009054906101000a900460ff16156111e4576040517f08c379a00000000000000000000000000000000000000000000000000000000081526004016111db906142de565b60405180910390fd5b6000600190505b6002548110156112ac57826040516020016112069190613f3f565b60405160208183030381529060405280519060200120600760008381526020019081526020016000206002016040516020016112429190613f56565b604051602081830303815290604052805190602001201415611299576040517f08c379a00000000000000000000000000000000000000000000000000000000081526004016112909061431e565b60405180910390fd5b80806112a4906148a6565b9150506111eb565b506040518060a0016040528060025481526020013373ffffffffffffffffffffffffffffffffffffffff168152602001838152602001828152602001600115158152506007600060025481526020019081526020016000206000820151816000015560208201518160010160006101000a81548173ffffffffffffffffffffffffffffffffffffffff021916908373ffffffffffffffffffffffffffffffffffffffff1602179055506040820151816002019080519060200190611371929190612f66565b506060820151816003015560808201518160040160006101000a81548160ff021916908315150217905550905050600254600860003373ffffffffffffffffffffffffffffffffffffffff1673ffffffffffffffffffffffffffffffffffffffff16815260200190815260200160002081905550600260008154809291906113f8906148a6565b91905055505050565b611409613033565b6009826040516114199190613f3f565b908152602001604051809103902060030160009054906101000a900460ff16611477576040517f08c379a000000000000000000000000000000000000000000000000000000000815260040161146e906140de565b60405180910390fd5b6009826040516114879190613f3f565b908152602001604051809103902060000160009054906101000a900473ffffffffffffffffffffffffffffffffffffffff1673ffffffffffffffffffffffffffffffffffffffff163373ffffffffffffffffffffffffffffffffffffffff16148061153f5750600160009054906101000a900473ffffffffffffffffffffffffffffffffffffffff1673ffffffffffffffffffffffffffffffffffffffff163373ffffffffffffffffffffffffffffffffffffffff16145b61157e576040517f08c379a00000000000000000000000000000000000000000000000000000000081526004016115759061435e565b60405180910390fd5b919050565b6060600080600860003373ffffffffffffffffffffffffffffffffffffffff1673ffffffffffffffffffffffffffffffffffffffff1681526020019081526020016000205490506000600190505b60045481101561165457600060066000838152602001908152602001600020600201541415801561162d575081600560006006600085815260200190815260200160002060020154815260200190815260200160002060010154145b1561164157828061163d906148a6565b9350505b808061164c906148a6565b9150506115d1565b5060008267ffffffffffffffff811115611697577f4e487b7100000000000000000000000000000000000000000000000000000000600052604160045260246000fd5b6040519080825280602002602001820160405280156116d057816020015b6116bd613073565b8152602001906001900390816116b55790505b509050600080600190505b600454811015611890576000600660008381526020019081526020016000206002015414158015611737575083600560006006600085815260200190815260200160002060020154815260200190815260200160002060010154145b1561187d576006600082815260200190815260200160002060405180610100016040529081600082015481526020016001820160009054906101000a900473ffffffffffffffffffffffffffffffffffffffff1673ffffffffffffffffffffffffffffffffffffffff1673ffffffffffffffffffffffffffffffffffffffff168152602001600282015481526020016003820160009054906101000a900460ff161515151581526020016003820160019054906101000a900460ff16151515158152602001600482015481526020016005820160009054906101000a900460ff16151515158152602001600682015481525050838381518110611863577f4e487b7100000000000000000000000000000000000000000000000000000000600052603260045260246000fd5b60200260200101819052508180611879906148a6565b9250505b8080611888906148a6565b9150506116db565b508194505050505090565b600160009054906101000a900473ffffffffffffffffffffffffffffffffffffffff1673ffffffffffffffffffffffffffffffffffffffff163373ffffffffffffffffffffffffffffffffffffffff161461192b576040517f08c379a00000000000000000000000000000000000000000000000000000000081526004016119229061415e565b60405180910390fd5b600060076000838152602001908152602001600020600201805461194e90614874565b80601f016020809104026020016040519081016040528092919081815260200182805461197a90614874565b80156119c75780601f1061199c576101008083540402835291602001916119c7565b820191906000526020600020905b8154815290600101906020018083116119aa57829003601f168201915b5050505050905060006007600084815260200190815260200160002060010160009054906101000a900473ffffffffffffffffffffffffffffffffffffffff1690506001600a83604051611a1b9190613f3f565b908152602001604051809103902060006101000a81548160ff02191690831515021790555060006007600085815260200190815260200160002060040160006101000a81548160ff021916908315150217905550505050565b6000600860003373ffffffffffffffffffffffffffffffffffffffff1673ffffffffffffffffffffffffffffffffffffffff168152602001908152602001600020549050600073ffffffffffffffffffffffffffffffffffffffff166007600083815260200190815260200160002060010160009054906101000a900473ffffffffffffffffffffffffffffffffffffffff1673ffffffffffffffffffffffffffffffffffffffff161415611b5e576040517f08c379a0000000000000000000000000000000000000000000000000000000008152600401611b559061417e565b60405180910390fd5b80600560008581526020019081526020016000206001015414611bb6576040517f08c379a0000000000000000000000000000000000000000000000000000000008152600401611bad906141de565b60405180910390fd5b8115156005600085815260200190815260200160002060070160009054906101000a900460ff1615151415611c20576040517f08c379a0000000000000000000000000000000000000000000000000000000008152600401611c17906140be565b60405180910390fd5b600a60076000838152602001908152602001600020600201604051611c459190613f56565b908152602001604051809103902060009054906101000a900460ff1615611ca1576040517f08c379a0000000000000000000000000000000000000000000000000000000008152600401611c989061433e565b60405180910390fd5b816005600085815260200190815260200160002060070160006101000a81548160ff021916908315150217905550505050565b60006006600083815260200190815260200160002090503373ffffffffffffffffffffffffffffffffffffffff168160010160009054906101000a900473ffffffffffffffffffffffffffffffffffffffff1673ffffffffffffffffffffffffffffffffffffffff1614611d7d576040517f08c379a0000000000000000000000000000000000000000000000000000000008152600401611d74906141de565b60405180910390fd5b6000816004015414611dc4576040517f08c379a0000000000000000000000000000000000000000000000000000000008152600401611dbb906141fe565b60405180910390fd5b8060030160019054906101000a900460ff1615611e16576040517f08c379a0000000000000000000000000000000000000000000000000000000008152600401611e0d9061407e565b60405180910390fd5b8060030160009054906101000a900460ff16611e67576040517f08c379a0000000000000000000000000000000000000000000000000000000008152600401611e5e9061421e565b60405180910390fd5b60008160030160016101000a81548160ff0219169083151502179055507fffffffffffffffffffffffffffffffffffffffffffffffffffffffffffffffff81600401819055505050565b60066020528060005260406000206000915090508060000154908060010160009054906101000a900473ffffffffffffffffffffffffffffffffffffffff16908060020154908060030160009054906101000a900460ff16908060030160019054906101000a900460ff16908060040154908060050160009054906101000a900460ff16908060060154905088565b60086020528060005260406000206000915090505481565b6009818051602081018201805184825260208301602085012081835280955050505050506000915090508060000160009054906101000a900473ffffffffffffffffffffffffffffffffffffffff1690806001018054611fb790614874565b80601f0160208091040260200160405190810160405280929190818152602001828054611fe390614874565b80156120305780601f1061200557610100808354040283529160200191612030565b820191906000526020600020905b81548152906001019060200180831161201357829003601f168201915b5050505050908060020154908060030160009054906101000a900460ff16905084565b6060600080600190505b6002548110156120cf57600a6007600083815260200190815260200160002060020160405161208c9190613f56565b908152602001604051809103902060009054906101000a900460ff16156120bc5781806120b8906148a6565b9250505b80806120c7906148a6565b91505061205d565b5060008167ffffffffffffffff811115612112577f4e487b7100000000000000000000000000000000000000000000000000000000600052604160045260246000fd5b60405190808252806020026020018201604052801561214557816020015b60608152602001906001900390816121305790505b509050600080600190505b6002548110156122a557600a6007600083815260200190815260200160002060020160405161217f9190613f56565b908152602001604051809103902060009054906101000a900460ff1615612292576007600082815260200190815260200160002060020180546121c190614874565b80601f01602080910402602001604051908101604052809291908181526020018280546121ed90614874565b801561223a5780601f1061220f5761010080835404028352916020019161223a565b820191906000526020600020905b81548152906001019060200180831161221d57829003601f168201915b5050505050838381518110612278577f4e487b7100000000000000000000000000000000000000000000000000000000600052603260045260246000fd5b6020026020010181905250818061228e906148a6565b9250505b808061229d906148a6565b915050612150565b5081935050505090565b6009826040516122bf9190613f3f565b908152602001604051809103902060030160009054906101000a900460ff1661231d576040517f08c379a00000000000000000000000000000000000000000000000000000000081526004016123149061411e565b60405180910390fd5b6005600082815260200190815260200160002060070160009054906101000a900460ff16612380576040517f08c379a0000000000000000000000000000000000000000000000000000000008152600401612377906140fe565b60405180910390fd5b60405180610100016040528060045481526020013373ffffffffffffffffffffffffffffffffffffffff1681526020018281526020016000151581526020016000151581526020016000815260200160001515815260200160008152506006600060045481526020019081526020016000206000820151816000015560208201518160010160006101000a81548173ffffffffffffffffffffffffffffffffffffffff021916908373ffffffffffffffffffffffffffffffffffffffff1602179055506040820151816002015560608201518160030160006101000a81548160ff02191690831515021790555060808201518160030160016101000a81548160ff02191690831515021790555060a0820151816004015560c08201518160050160006101000a81548160ff02191690831515021790555060e082015181600601559050507fded47fe1c7f7878a21a47327b3f5172551c245be83ba771fe716cdbe1bf55c7a60045433836040516124f993929190614435565b60405180910390a160046000815480929190612514906148a6565b91905055505050565b60006006600083815260200190815260200160002090503373ffffffffffffffffffffffffffffffffffffffff168160010160009054906101000a900473ffffffffffffffffffffffffffffffffffffffff1673ffffffffffffffffffffffffffffffffffffffff16146125c6576040517f08c379a00000000000000000000000000000000000000000000000000000000081526004016125bd906141de565b60405180910390fd5b600081600401541461260d576040517f08c379a0000000000000000000000000000000000000000000000000000000008152600401612604906141fe565b60405180910390fd5b8060030160009054906101000a900460ff1661265e576040517f08c379a00000000000000000000000000000000000000000000000000000000081526004016126559061421e565b60405180910390fd5b8060050160009054906101000a900460ff16156126b0576040517f08c379a00000000000000000000000000000000000000000000000000000000081526004016126a79061425e565b60405180910390fd5b60018160050160006101000a81548160ff02191690831515021790555060018160030160016101000a81548160ff021916908315150217905550600181600401819055505050565b600a818051602081018201805184825260208301602085012081835280955050505050506000915054906101000a900460ff1681565b60025481565b60006006600083815260200190815260200160002090503373ffffffffffffffffffffffffffffffffffffffff16600760008360020154815260200190815260200160002060010160009054906101000a900473ffffffffffffffffffffffffffffffffffffffff1673ffffffffffffffffffffffffffffffffffffffff16146127f3576040517f08c379a00000000000000000000000000000000000000000000000000000000081526004016127ea906142fe565b60405180910390fd5b8060030160009054906101000a900460ff16612844576040517f08c379a000000000000000000000000000000000000000000000000000000000815260040161283b9061409e565b60405180910390fd5b8060030160019054906101000a900460ff16612895576040517f08c379a000000000000000000000000000000000000000000000000000000000815260040161288c9061419e565b60405180910390fd5b8060050160009054906101000a900460ff16156128e7576040517f08c379a00000000000000000000000000000000000000000000000000000000081526004016128de906142be565b60405180910390fd5b600081600601546005600084600201548152602001908152602001600020600501541161292e57600560008360020154815260200190815260200160002060050154612934565b81600601545b90508160010160009054906101000a900473ffffffffffffffffffffffffffffffffffffffff1673ffffffffffffffffffffffffffffffffffffffff166108fc829081150290604051600060405180830381858888f193505050501580156129a0573d6000803e3d6000fd5b5060018260050160006101000a81548160ff0219169083151502179055507fb74faa515c161a6aa3d68dd9ecf21d897dde4efbb1a2b72be2c86508f034175483826040516129ef929190614513565b60405180910390a1505050565b6000600860003373ffffffffffffffffffffffffffffffffffffffff1673ffffffffffffffffffffffffffffffffffffffff168152602001908152602001600020549050600073ffffffffffffffffffffffffffffffffffffffff166007600083815260200190815260200160002060010160009054906101000a900473ffffffffffffffffffffffffffffffffffffffff1673ffffffffffffffffffffffffffffffffffffffff161415612ae6576040517f08c379a0000000000000000000000000000000000000000000000000000000008152600401612add9061417e565b60405180910390fd5b600a60076000838152602001908152602001600020600201604051612b0b9190613f56565b908152602001604051809103902060009054906101000a900460ff1615612b67576040517f08c379a0000000000000000000000000000000000000000000000000000000008152600401612b5e9061433e565b60405180910390fd5b60405180610100016040528060035481526020018281526020018781526020018681526020018581526020018481526020018381526020016001151581525060056000600354815260200190815260200160002060008201518160000155602082015181600101556040820151816002019080519060200190612beb929190612f66565b506060820151816003019080519060200190612c08929190612f66565b506080820151816004015560a0820151816005015560c0820151816006015560e08201518160070160006101000a81548160ff0219169083151502179055509050507f5fac4c43830252b9984ca8bf915ae2a0774180c35c5472120325c1961e45b62b60035482604051612c7d929190614513565b60405180910390a160036000815480929190612c98906148a6565b9190505550505050505050565b6005602052806000526040600020600091509050806000015490806001015490806002018054612cd490614874565b80601f0160208091040260200160405190810160405280929190818152602001828054612d0090614874565b8015612d4d5780601f10612d2257610100808354040283529160200191612d4d565b820191906000526020600020905b815481529060010190602001808311612d3057829003601f168201915b505050505090806003018054612d6290614874565b80601f0160208091040260200160405190810160405280929190818152602001828054612d8e90614874565b8015612ddb5780601f10612db057610100808354040283529160200191612ddb565b820191906000526020600020905b815481529060010190602001808311612dbe57829003601f168201915b5050505050908060040154908060050154908060060154908060070160009054906101000a900460ff16905088565b600160009054906101000a900473ffffffffffffffffffffffffffffffffffffffff1681565b600160009054906101000a900473ffffffffffffffffffffffffffffffffffffffff1673ffffffffffffffffffffffffffffffffffffffff163373ffffffffffffffffffffffffffffffffffffffff1614612ec0576040517f08c379a0000000000000000000000000000000000000000000000000000000008152600401612eb79061415e565b60405180910390fd5b600a81604051612ed09190613f3f565b908152602001604051809103902060009054906101000a900460ff1615612f2c576040517f08c379a0000000000000000000000000000000000000000000000000000000008152600401612f23906141be565b60405180910390fd5b6000600a82604051612f3e9190613f3f565b908152602001604051809103902060006101000a81548160ff02191690831515021790555050565b828054612f7290614874565b90600052602060002090601f016020900481019282612f945760008555612fdb565b82601f10612fad57805160ff1916838001178555612fdb565b82800160010185558215612fdb579182015b82811115612fda578251825591602001919060010190612fbf565b5b509050612fe891906130d4565b5090565b604051806101000160405280600081526020016000815260200160608152602001606081526020016000815260200160008152602001600081526020016000151581525090565b6040518060800160405280600073ffffffffffffffffffffffffffffffffffffffff16815260200160608152602001600081526020016000151581525090565b60405180610100016040528060008152602001600073ffffffffffffffffffffffffffffffffffffffff1681526020016000815260200160001515815260200160001515815260200160008152602001600015158152602001600081525090565b5b808211156130ed5760008160009055506001016130d5565b5090565b60006131046130ff846145f9565b6145c8565b90508281526020810184848401111561311c57600080fd5b613127848285614832565b509392505050565b60008135905061313e816149bc565b92915050565b600081359050613153816149d3565b92915050565b600082601f83011261316a57600080fd5b813561317a8482602086016130f1565b91505092915050565b600081359050613192816149ea565b92915050565b6000602082840312156131aa57600080fd5b60006131b88482850161312f565b91505092915050565b6000602082840312156131d357600080fd5b600082013567ffffffffffffffff8111156131ed57600080fd5b6131f984828501613159565b91505092915050565b600080600080600060a0868803121561321a57600080fd5b600086013567ffffffffffffffff81111561323457600080fd5b61324088828901613159565b955050602086013567ffffffffffffffff81111561325d57600080fd5b61326988828901613159565b945050604061327a88828901613183565b935050606061328b88828901613183565b925050608061329c88828901613183565b9150509295509295909350565b600080604083850312156132bc57600080fd5b600083013567ffffffffffffffff8111156132d657600080fd5b6132e285828601613159565b92505060206132f385828601613183565b9150509250929050565b60006020828403121561330f57600080fd5b600061331d84828501613183565b91505092915050565b6000806040838503121561333957600080fd5b600061334785828601613183565b925050602061335885828601613144565b9150509250929050565b600061336e8383613545565b905092915050565b60006133828383613dc8565b905092915050565b60006133968383613e7f565b6101008301905092915050565b6133ac816147e0565b82525050565b6133bb816147e0565b82525050565b60006133cc8261466e565b6133d681856146c1565b9350836020820285016133e885614629565b8060005b8581101561342457848403895281516134058582613362565b94506134108361469a565b925060208a019950506001810190506133ec565b50829750879550505050505092915050565b600061344182614679565b61344b81856146d2565b93508360208202850161345d85614639565b8060005b85811015613499578484038952815161347a8582613376565b9450613485836146a7565b925060208a01995050600181019050613461565b50829750879550505050505092915050565b60006134b682614684565b6134c081856146e3565b93506134cb83614649565b8060005b838110156134fc5781516134e3888261338a565b97506134ee836146b4565b9250506001810190506134cf565b5085935050505092915050565b613512816147f2565b82525050565b613521816147f2565b82525050565b613530816147fe565b82525050565b61353f816147fe565b82525050565b60006135508261468f565b61355a81856146f4565b935061356a818560208601614841565b613573816149ab565b840191505092915050565b60006135898261468f565b6135938185614705565b93506135a3818560208601614841565b6135ac816149ab565b840191505092915050565b60006135c28261468f565b6135cc8185614716565b93506135dc818560208601614841565b80840191505092915050565b600081546135f581614874565b6135ff8186614716565b9450600182166000811461361a576001811461362b5761365e565b60ff1983168652818601935061365e565b61363485614659565b60005b8381101561365657815481890152600182019150602081019050613637565b838801955050505b50505092915050565b6000613674601983614705565b91507f5265717565737420616c726561647920617070726f7665642e000000000000006000830152602082019050919050565b60006136b4602083614705565b91507f52657175657374206e6f7420617070726f76656420627920636f6d70616e792e6000830152602082019050919050565b60006136f4601483614705565b91507f4e6f206368616e676520696e207374617475732e0000000000000000000000006000830152602082019050919050565b6000613734601b83614705565b91507f437573746f6d6572206973206e6f7420726567697374657265642e00000000006000830152602082019050919050565b6000613774601783614705565b91507f496e76616c696420696e737572616e636520706c616e2e0000000000000000006000830152602082019050919050565b60006137b4601883614705565b91507f437573746f6d6572206e6f7420726567697374657265642e00000000000000006000830152602082019050919050565b60006137f4601983614705565b91507f496e636f7272656374207072656d69756d20616d6f756e742e000000000000006000830152602082019050919050565b6000613834600b83614705565b91507f4f6e6c792061646d696e2e0000000000000000000000000000000000000000006000830152602082019050919050565b6000613874601983614705565b91507f4e6f742061207265676973746572656420636f6d70616e792e000000000000006000830152602082019050919050565b60006138b4602183614705565b91507f52657175657374206e6f7420617070726f76656420627920637573746f6d657260008301527f2e000000000000000000000000000000000000000000000000000000000000006020830152604082019050919050565b600061391a601683614705565b91507f436f6d70616e79206973206e6f742062616e6e65642e000000000000000000006000830152602082019050919050565b600061395a600f83614705565b91507f4e6f7420617574686f72697a65642e00000000000000000000000000000000006000830152602082019050919050565b600061399a603883614705565b91507f526571756573742069732065697468657220617070726f766564206f7220646560008301527f636c696e65642e20526573756c742069732066696e616c2e00000000000000006020830152604082019050919050565b6000613a00601883614705565b91507f52657175657374206973206e6f7420617070726f7665642e00000000000000006000830152602082019050919050565b6000613a40601c83614705565b91507f437573746f6d657220616c726561647920726567697374657265642e000000006000830152602082019050919050565b6000613a80601883614705565b91507f5265717565737420616c726561647920636c61696d65642e00000000000000006000830152602082019050919050565b6000613ac0600d83614705565b91507f496e76616c696420706c616e2e000000000000000000000000000000000000006000830152602082019050919050565b6000613b00601083614705565b91507f496e76616c696420636f6d70616e792e000000000000000000000000000000006000830152602082019050919050565b6000613b40601683614705565b91507f436c61696d20616c726561647920736574746c65642e000000000000000000006000830152602082019050919050565b6000613b80601783614705565b91507f436f6d70616e79206e616d652069732062616e6e65642e0000000000000000006000830152602082019050919050565b6000613bc0602383614705565b91507f4f6e6c792074686520636f6d70616e792063616e20736574746c6520636c616960008301527f6d732e00000000000000000000000000000000000000000000000000000000006020830152604082019050919050565b6000613c26602083614705565b91507f436f6d70616e79206e616d6520616c726561647920726567697374657265642e6000830152602082019050919050565b6000613c66601283614705565b91507f436f6d70616e792069732062616e6e65642e00000000000000000000000000006000830152602082019050919050565b6000613ca6602883614705565b91507f4e6f7420617574686f72697a656420746f207669657720637573746f6d65722060008301527f64657461696c732e0000000000000000000000000000000000000000000000006020830152604082019050919050565b6000613d0c602783614705565b91507f4f6e6c792074686520636f6d70616e792063616e206576616c7561746520726560008301527f7175657374732e000000000000000000000000000000000000000000000000006020830152604082019050919050565b6000608083016000830151613d7d60008601826133a3565b5060208301518482036020860152613d958282613545565b9150506040830151613daa6040860182613f21565b506060830151613dbd6060860182613509565b508091505092915050565b600061010083016000830151613de16000860182613f21565b506020830151613df46020860182613f21565b5060408301518482036040860152613e0c8282613545565b91505060608301518482036060860152613e268282613545565b9150506080830151613e3b6080860182613f21565b5060a0830151613e4e60a0860182613f21565b5060c0830151613e6160c0860182613f21565b5060e0830151613e7460e0860182613509565b508091505092915050565b61010082016000820151613e966000850182613f21565b506020820151613ea960208501826133a3565b506040820151613ebc6040850182613f21565b506060820151613ecf6060850182613509565b506080820151613ee26080850182613509565b5060a0820151613ef560a0850182613527565b5060c0820151613f0860c0850182613509565b5060e0820151613f1b60e0850182613f21565b50505050565b613f2a81614828565b82525050565b613f3981614828565b82525050565b6000613f4b82846135b7565b915081905092915050565b6000613f6282846135e8565b915081905092915050565b6000602082019050613f8260008301846133b2565b92915050565b6000608082019050613f9d60008301876133b2565b8181036020830152613faf818661357e565b9050613fbe6040830185613f30565b613fcb6060830184613518565b95945050505050565b6000604082019050613fe960008301856133b2565b613ff66020830184613f30565b9392505050565b6000602082019050818103600083015261401781846133c1565b905092915050565b600060208201905081810360008301526140398184613436565b905092915050565b6000602082019050818103600083015261405b81846134ab565b905092915050565b60006020820190506140786000830184613518565b92915050565b6000602082019050818103600083015261409781613667565b9050919050565b600060208201905081810360008301526140b7816136a7565b9050919050565b600060208201905081810360008301526140d7816136e7565b9050919050565b600060208201905081810360008301526140f781613727565b9050919050565b6000602082019050818103600083015261411781613767565b9050919050565b60006020820190508181036000830152614137816137a7565b9050919050565b60006020820190508181036000830152614157816137e7565b9050919050565b6000602082019050818103600083015261417781613827565b9050919050565b6000602082019050818103600083015261419781613867565b9050919050565b600060208201905081810360008301526141b7816138a7565b9050919050565b600060208201905081810360008301526141d78161390d565b9050919050565b600060208201905081810360008301526141f78161394d565b9050919050565b600060208201905081810360008301526142178161398d565b9050919050565b60006020820190508181036000830152614237816139f3565b9050919050565b6000602082019050818103600083015261425781613a33565b9050919050565b6000602082019050818103600083015261427781613a73565b9050919050565b6000602082019050818103600083015261429781613ab3565b9050919050565b600060208201905081810360008301526142b781613af3565b9050919050565b600060208201905081810360008301526142d781613b33565b9050919050565b600060208201905081810360008301526142f781613b73565b9050919050565b6000602082019050818103600083015261431781613bb3565b9050919050565b6000602082019050818103600083015261433781613c19565b9050919050565b6000602082019050818103600083015261435781613c59565b9050919050565b6000602082019050818103600083015261437781613c99565b9050919050565b6000602082019050818103600083015261439781613cff565b9050919050565b600060208201905081810360008301526143b88184613d65565b905092915050565b60006020820190506143d56000830184613f30565b92915050565b600060a0820190506143f06000830188613f30565b6143fd60208301876133b2565b818103604083015261440f818661357e565b905061441e6060830185613f30565b61442b6080830184613518565b9695505050505050565b600060608201905061444a6000830186613f30565b61445760208301856133b2565b6144646040830184613f30565b949350505050565b600061010082019050614482600083018b613f30565b61448f602083018a6133b2565b61449c6040830189613f30565b6144a96060830188613518565b6144b66080830187613518565b6144c360a0830186613536565b6144d060c0830185613518565b6144dd60e0830184613f30565b9998505050505050505050565b60006040820190506144ff6000830185613f30565b61450c6020830184613518565b9392505050565b60006040820190506145286000830185613f30565b6145356020830184613f30565b9392505050565b600061010082019050614552600083018b613f30565b61455f602083018a613f30565b8181036040830152614571818961357e565b90508181036060830152614585818861357e565b90506145946080830187613f30565b6145a160a0830186613f30565b6145ae60c0830185613f30565b6145bb60e0830184613518565b9998505050505050505050565b6000604051905081810181811067ffffffffffffffff821117156145ef576145ee61497c565b5b8060405250919050565b600067ffffffffffffffff8211156146145761461361497c565b5b601f19601f8301169050602081019050919050565b6000819050602082019050919050565b6000819050602082019050919050565b6000819050602082019050919050565b60008190508160005260206000209050919050565b600081519050919050565b600081519050919050565b600081519050919050565b600081519050919050565b6000602082019050919050565b6000602082019050919050565b6000602082019050919050565b600082825260208201905092915050565b600082825260208201905092915050565b600082825260208201905092915050565b600082825260208201905092915050565b600082825260208201905092915050565b600081905092915050565b600061472c82614828565b915061473783614828565b9250826147475761474661491e565b5b828204905092915050565b600061475d82614828565b915061476883614828565b9250817fffffffffffffffffffffffffffffffffffffffffffffffffffffffffffffffff04831182151516156147a1576147a06148ef565b5b828202905092915050565b60006147b782614828565b91506147c283614828565b9250828210156147d5576147d46148ef565b5b828203905092915050565b60006147eb82614808565b9050919050565b60008115159050919050565b6000819050919050565b600073ffffffffffffffffffffffffffffffffffffffff82169050919050565b6000819050919050565b82818337600083830152505050565b60005b8381101561485f578082015181840152602081019050614844565b8381111561486e576000848401525b50505050565b6000600282049050600182168061488c57607f821691505b602082108114156148a05761489f61494d565b5b50919050565b60006148b182614828565b91507fffffffffffffffffffffffffffffffffffffffffffffffffffffffffffffffff8214156148e4576148e36148ef565b5b600182019050919050565b7f4e487b7100000000000000000000000000000000000000000000000000000000600052601160045260246000fd5b7f4e487b7100000000000000000000000000000000000000000000000000000000600052601260045260246000fd5b7f4e487b7100000000000000000000000000000000000000000000000000000000600052602260045260246000fd5b7f4e487b7100000000000000000000000000000000000000000000000000000000600052604160045260246000fd5b6000601f19601f8301169050919050565b6149c5816147e0565b81146149d057600080fd5b50565b6149dc816147f2565b81146149e757600080fd5b50565b6149f381614828565b81146149fe57600080fd5b5056fea264697066735822122098636030851282b74c1b20551c1f6909103cc43424038cb677eb7117a23244a564736f6c63430008000033",
  "linkReferences": {},
  "deployedLinkReferences": {}
}