{
  "_format": "hh-sol-artifact-1",
  "contractName": "DecentralizedInsurance",
  "sourceName": "contracts/functions.sol",
  "abi": [
    {
      "inputs": [],
      "stateMutability": "nonpayable",
      "type": "constructor"
    },
    {
      "anonymous": false,
      "inputs": [
        {
          "indexed": false,
          "internalType": "uint256",
          "name": "requestId",
          "type": "uint256"
        },
        {
          "indexed": false,
          "internalType": "uint256",
          "name": "claimAmount",
          "type": "uint256"
        }
      ],
      "name": "ClaimSettled",
      "type": "event"
    },
    {
      "anonymous": false,
      "inputs": [
        {
          "indexed": false,
          "internalType": "address",
          "name": "customer",
          "type": "address"
        },
        {
          "indexed": false,
          "internalType": "uint256",
          "name": "rate",
          "type": "uint256"
        }
      ],
      "name": "CustomerRegistered",
      "type": "event"
    },
    {
      "anonymous": false,
      "inputs": [
        {
          "indexed": false,
          "internalType": "uint256",
          "name": "planId",
          "type": "uint256"
        },
        {
          "indexed": false,
          "internalType": "uint256",
          "name": "companyId",
          "type": "uint256"
        }
      ],
      "name": "PlanCreated",
      "type": "event"
    },
    {
      "anonymous": false,
      "inputs": [
        {
          "indexed": false,
          "internalType": "uint256",
          "name": "planId",
          "type": "uint256"
        },
        {
          "indexed": false,
          "internalType": "address",
          "name": "customer",
          "type": "address"
        },
        {
          "indexed": false,
          "internalType": "uint256",
          "name": "amount",
          "type": "uint256"
        }
      ],
      "name": "PremiumPaid",
      "type": "event"
    },
    {
      "anonymous": false,
      "inputs": [
        {
          "indexed": false,
          "internalType": "uint256",
          "name": "requestId",
          "type": "uint256"
        },
        {
          "indexed": false,
          "internalType": "bool",
          "name": "isApproved",
          "type": "bool"
        }
      ],
      "name": "RequestResponded",
      "type": "event"
    },
    {
      "anonymous": false,
      "inputs": [
        {
          "indexed": false,
          "internalType": "uint256",
          "name": "requestId",
          "type": "uint256"
        },
        {
          "indexed": false,
          "internalType": "address",
          "name": "customer",
          "type": "address"
        },
        {
          "indexed": false,
          "internalType": "uint256",
          "name": "planId",
          "type": "uint256"
        }
      ],
      "name": "RequestSubmitted",
      "type": "event"
    },
    {
      "inputs": [
        {
          "internalType": "uint256",
          "name": "_requestId",
          "type": "uint256"
        },
        {
          "internalType": "bool",
          "name": "_approve",
          "type": "bool"
        },
        {
          "internalType": "uint256",
          "name": "_counterClaimAmount",
          "type": "uint256"
        }
      ],
      "name": "Request_Negotiation",
      "outputs": [],
      "stateMutability": "nonpayable",
      "type": "function"
    },
    {
      "inputs": [
        {
          "internalType": "uint256",
          "name": "_requestId",
          "type": "uint256"
        }
      ],
      "name": "acceptOffer",
      "outputs": [],
      "stateMutability": "nonpayable",
      "type": "function"
    },
    {
      "inputs": [],
      "name": "admin",
      "outputs": [
        {
          "internalType": "address",
          "name": "",
          "type": "address"
        }
      ],
      "stateMutability": "view",
      "type": "function"
    },
    {
      "inputs": [
        {
          "internalType": "uint256",
          "name": "_companyId",
          "type": "uint256"
        }
      ],
      "name": "banCompany",
      "outputs": [],
      "stateMutability": "nonpayable",
      "type": "function"
    },
    {
      "inputs": [
        {
          "internalType": "string",
          "name": "",
          "type": "string"
        }
      ],
      "name": "bannedCompanyNames",
      "outputs": [
        {
          "internalType": "bool",
          "name": "",
          "type": "bool"
        }
      ],
      "stateMutability": "view",
      "type": "function"
    },
    {
      "inputs": [
        {
          "internalType": "uint256",
          "name": "_planId",
          "type": "uint256"
        },
        {
          "internalType": "bool",
          "name": "_status",
          "type": "bool"
        }
      ],
      "name": "changePlanStatus",
      "outputs": [],
      "stateMutability": "nonpayable",
      "type": "function"
    },
    {
      "inputs": [
        {
          "internalType": "uint256",
          "name": "",
          "type": "uint256"
        }
      ],
      "name": "companies",
      "outputs": [
        {
          "internalType": "uint256",
          "name": "id",
          "type": "uint256"
        },
        {
          "internalType": "address",
          "name": "addr",
          "type": "address"
        },
        {
          "internalType": "string",
          "name": "name",
          "type": "string"
        },
        {
          "internalType": "uint256",
          "name": "customer_rating",
          "type": "uint256"
        }
      ],
      "stateMutability": "view",
      "type": "function"
    },
    {
      "inputs": [
        {
          "internalType": "address",
          "name": "",
          "type": "address"
        }
      ],
      "name": "companyIds",
      "outputs": [
        {
          "internalType": "uint256",
          "name": "",
          "type": "uint256"
        }
      ],
      "stateMutability": "view",
      "type": "function"
    },
    {
      "inputs": [
        {
          "internalType": "string",
          "name": "_name",
          "type": "string"
        },
        {
          "internalType": "string",
          "name": "_description",
          "type": "string"
        },
        {
          "internalType": "uint256",
          "name": "_premium",
          "type": "uint256"
        },
        {
          "internalType": "uint256",
          "name": "_coverageAmount",
          "type": "uint256"
        },
        {
          "internalType": "uint256",
          "name": "_duration",
          "type": "uint256"
        }
      ],
      "name": "createPlan",
      "outputs": [],
      "stateMutability": "nonpayable",
      "type": "function"
    },
    {
      "inputs": [
        {
          "internalType": "string",
          "name": "",
          "type": "string"
        }
      ],
      "name": "customers",
      "outputs": [
        {
          "internalType": "address",
          "name": "addr",
          "type": "address"
        },
        {
          "internalType": "string",
          "name": "name",
          "type": "string"
        },
        {
          "internalType": "uint256",
          "name": "rate",
          "type": "uint256"
        },
        {
          "internalType": "bool",
          "name": "isRegistered",
          "type": "bool"
        }
      ],
      "stateMutability": "view",
      "type": "function"
    },
    {
      "inputs": [
        {
          "internalType": "uint256",
          "name": "_requestId",
          "type": "uint256"
        }
      ],
      "name": "denyOffer",
      "outputs": [],
      "stateMutability": "nonpayable",
      "type": "function"
    },
    {
      "inputs": [
        {
          "internalType": "string",
          "name": "_name",
          "type": "string"
        }
      ],
      "name": "getCustomer",
      "outputs": [
        {
          "components": [
            {
              "internalType": "address",
              "name": "addr",
              "type": "address"
            },
            {
              "internalType": "string",
              "name": "name",
              "type": "string"
            },
            {
              "internalType": "uint256",
              "name": "rate",
              "type": "uint256"
            },
            {
              "internalType": "bool",
              "name": "isRegistered",
              "type": "bool"
            }
          ],
          "internalType": "struct DecentralizedInsurance.Customer",
          "name": "",
          "type": "tuple"
        }
      ],
      "stateMutability": "view",
      "type": "function"
    },
    {
      "inputs": [
        {
          "internalType": "uint256",
          "name": "",
          "type": "uint256"
        }
      ],
      "name": "insurancePlans",
      "outputs": [
        {
          "internalType": "uint256",
          "name": "id",
          "type": "uint256"
        },
        {
          "internalType": "uint256",
          "name": "companyId",
          "type": "uint256"
        },
        {
          "internalType": "string",
          "name": "name",
          "type": "string"
        },
        {
          "internalType": "string",
          "name": "description",
          "type": "string"
        },
        {
          "internalType": "uint256",
          "name": "premium",
          "type": "uint256"
        },
        {
          "internalType": "uint256",
          "name": "coverageAmount",
          "type": "uint256"
        },
        {
          "internalType": "uint256",
          "name": "duration",
          "type": "uint256"
        },
        {
          "internalType": "bool",
          "name": "isActive",
          "type": "bool"
        }
      ],
      "stateMutability": "view",
      "type": "function"
    },
    {
      "inputs": [],
      "name": "nextCompanyId",
      "outputs": [
        {
          "internalType": "uint256",
          "name": "",
          "type": "uint256"
        }
      ],
      "stateMutability": "view",
      "type": "function"
    },
    {
      "inputs": [
        {
          "internalType": "uint256",
          "name": "_planId",
          "type": "uint256"
        }
      ],
      "name": "payPremium",
      "outputs": [],
      "stateMutability": "payable",
      "type": "function"
    },
    {
      "inputs": [
        {
          "internalType": "string",
          "name": "_name",
          "type": "string"
        },
        {
          "internalType": "uint256",
          "name": "_rate",
          "type": "uint256"
        }
      ],
      "name": "registerCompany",
      "outputs": [],
      "stateMutability": "nonpayable",
      "type": "function"
    },
    {
      "inputs": [
        {
          "internalType": "string",
          "name": "_name",
          "type": "string"
        },
        {
          "internalType": "uint256",
          "name": "_rate",
          "type": "uint256"
        }
      ],
      "name": "registerCustomer",
      "outputs": [],
      "stateMutability": "nonpayable",
      "type": "function"
    },
    {
      "inputs": [
        {
          "internalType": "uint256",
          "name": "",
          "type": "uint256"
        }
      ],
      "name": "requests",
      "outputs": [
        {
          "internalType": "uint256",
          "name": "id",
          "type": "uint256"
        },
        {
          "internalType": "address",
          "name": "customer",
          "type": "address"
        },
        {
          "internalType": "uint256",
          "name": "planId",
          "type": "uint256"
        },
        {
          "internalType": "bool",
          "name": "isApproved",
          "type": "bool"
        },
        {
          "internalType": "bool",
          "name": "isClaimed",
          "type": "bool"
        },
        {
          "internalType": "uint256",
          "name": "claimAmount",
          "type": "uint256"
        }
      ],
      "stateMutability": "view",
      "type": "function"
    },
    {
      "inputs": [
        {
          "internalType": "uint256",
          "name": "_fee",
          "type": "uint256"
        }
      ],
      "name": "setPlatformFee",
      "outputs": [],
      "stateMutability": "nonpayable",
      "type": "function"
    },
    {
      "inputs": [
        {
          "internalType": "uint256",
          "name": "_requestId",
          "type": "uint256"
        }
      ],
      "name": "settleClaim",
      "outputs": [],
      "stateMutability": "nonpayable",
      "type": "function"
    },
    {
      "inputs": [
        {
          "internalType": "string",
          "name": "name_",
          "type": "string"
        },
        {
          "internalType": "uint256",
          "name": "_planId",
          "type": "uint256"
        }
      ],
      "name": "submitRequest",
      "outputs": [],
      "stateMutability": "nonpayable",
      "type": "function"
    },
    {
      "inputs": [
        {
          "internalType": "string",
          "name": "_name",
          "type": "string"
        }
      ],
      "name": "unbanCompany",
      "outputs": [],
      "stateMutability": "nonpayable",
      "type": "function"
    },
    {
      "inputs": [],
      "name": "viewPlans",
      "outputs": [
        {
          "components": [
            {
              "internalType": "uint256",
              "name": "id",
              "type": "uint256"
            },
            {
              "internalType": "uint256",
              "name": "companyId",
              "type": "uint256"
            },
            {
              "internalType": "string",
              "name": "name",
              "type": "string"
            },
            {
              "internalType": "string",
              "name": "description",
              "type": "string"
            },
            {
              "internalType": "uint256",
              "name": "premium",
              "type": "uint256"
            },
            {
              "internalType": "uint256",
              "name": "coverageAmount",
              "type": "uint256"
            },
            {
              "internalType": "uint256",
              "name": "duration",
              "type": "uint256"
            },
            {
              "internalType": "bool",
              "name": "isActive",
              "type": "bool"
            }
          ],
          "internalType": "struct DecentralizedInsurance.InsurancePlan[]",
          "name": "",
          "type": "tuple[]"
        }
      ],
      "stateMutability": "view",
      "type": "function"
    },
    {
      "inputs": [],
      "name": "viewRequests",
      "outputs": [
        {
          "components": [
            {
              "internalType": "uint256",
              "name": "id",
              "type": "uint256"
            },
            {
              "internalType": "address",
              "name": "customer",
              "type": "address"
            },
            {
              "internalType": "uint256",
              "name": "planId",
              "type": "uint256"
            },
            {
              "internalType": "bool",
              "name": "isApproved",
              "type": "bool"
            },
            {
              "internalType": "bool",
              "name": "isClaimed",
              "type": "bool"
            },
            {
              "internalType": "uint256",
              "name": "claimAmount",
              "type": "uint256"
            }
          ],
          "internalType": "struct DecentralizedInsurance.Request[]",
          "name": "",
          "type": "tuple[]"
        }
      ],
      "stateMutability": "view",
      "type": "function"
    }
  ],
  "bytecode": "0x608060405260056000556001600355600160045534801561001f57600080fd5b5033600160006101000a81548173ffffffffffffffffffffffffffffffffffffffff021916908373ffffffffffffffffffffffffffffffffffffffff16021790555060016002819055506140cc806100786000396000f3fe60806040526004361061014b5760003560e01c806381d12c58116100b6578063d8d3c8291161006f578063d8d3c829146104ac578063e406f1d8146104d7578063e5584ed714610500578063ec1b706614610529578063f851a4401461056d578063ffc8cf8f146105985761014b565b806381d12c581461035e5780639f242f22146103a0578063a82c98d0146103dd578063b5cb71a81461041d578063c815729d14610446578063d448ee4c1461046f5761014b565b80635170c1aa116101085780635170c1aa14610252578063518bddd91461027b578063521e686d146102b85780635bffa51d146102e35780635d8e63971461030c5780637746dfa9146103355761014b565b806312e8e2c3146101505780631714ae63146101795780632813d19d146101a25780633134e4c4146101e25780634364b26e1461020b57806348e9807f14610227575b600080fd5b34801561015c57600080fd5b5061017760048036038101906101729190612cf4565b6105c1565b005b34801561018557600080fd5b506101a0600480360381019061019b9190612ca0565b61065b565b005b3480156101ae57600080fd5b506101c960048036038101906101c49190612cf4565b6107f0565b6040516101d99493929190613ade565b60405180910390f35b3480156101ee57600080fd5b5061020960048036038101906102049190612d59565b6108c8565b005b61022560048036038101906102209190612cf4565b610a02565b005b34801561023357600080fd5b5061023c610c03565b60405161024991906137c2565b60405180910390f35b34801561025e57600080fd5b5061027960048036038101906102749190612ca0565b610ecb565b005b34801561028757600080fd5b506102a2600480360381019061029d9190612bb8565b6111bb565b6040516102af9190613aa1565b60405180910390f35b3480156102c457600080fd5b506102cd61136f565b6040516102da91906137e4565b60405180910390f35b3480156102ef57600080fd5b5061030a60048036038101906103059190612cf4565b611661565b005b34801561031857600080fd5b50610333600480360381019061032e9190612d1d565b611868565b005b34801561034157600080fd5b5061035c60048036038101906103579190612cf4565b611a47565b005b34801561036a57600080fd5b5061038560048036038101906103809190612cf4565b611bb4565b60405161039796959493929190613b61565b60405180910390f35b3480156103ac57600080fd5b506103c760048036038101906103c29190612b8f565b611c2a565b6040516103d49190613ac3565b60405180910390f35b3480156103e957600080fd5b5061040460048036038101906103ff9190612bb8565b611c42565b604051610414949392919061374d565b60405180910390f35b34801561042957600080fd5b50610444600480360381019061043f9190612ca0565b611d3d565b005b34801561045257600080fd5b5061046d60048036038101906104689190612cf4565b611f70565b005b34801561047b57600080fd5b5061049660048036038101906104919190612bb8565b612193565b6040516104a39190613806565b60405180910390f35b3480156104b857600080fd5b506104c16121c9565b6040516104ce9190613ac3565b60405180910390f35b3480156104e357600080fd5b506104fe60048036038101906104f99190612cf4565b6121cf565b005b34801561050c57600080fd5b5061052760048036038101906105229190612bf9565b612446565b005b34801561053557600080fd5b50610550600480360381019061054b9190612cf4565b61266e565b604051610564989796959493929190613c14565b60405180910390f35b34801561057957600080fd5b506105826127d3565b60405161058f9190613732565b60405180910390f35b3480156105a457600080fd5b506105bf60048036038101906105ba9190612bb8565b6127f9565b005b600160009054906101000a900473ffffffffffffffffffffffffffffffffffffffff1673ffffffffffffffffffffffffffffffffffffffff163373ffffffffffffffffffffffffffffffffffffffff1614610651576040517f08c379a0000000000000000000000000000000000000000000000000000000008152600401610648906138c1565b60405180910390fd5b8060008190555050565b60098260405161066b9190613704565b908152602001604051809103902060030160009054906101000a900460ff16156106ca576040517f08c379a00000000000000000000000000000000000000000000000000000000081526004016106c190613981565b60405180910390fd5b60405180608001604052803373ffffffffffffffffffffffffffffffffffffffff168152602001838152602001828152602001600115158152506009836040516107149190613704565b908152602001604051809103902060008201518160000160006101000a81548173ffffffffffffffffffffffffffffffffffffffff021916908373ffffffffffffffffffffffffffffffffffffffff160217905550602082015181600101908051906020019061078592919061292e565b506040820151816002015560608201518160030160006101000a81548160ff0219169083151502179055509050507f3e2e23ad95ac9d48f62299dd498880d0e69059ed54888b0b71031dc2615f9a6033826040516107e4929190613799565b60405180910390a15050565b60076020528060005260406000206000915090508060000154908060010160009054906101000a900473ffffffffffffffffffffffffffffffffffffffff169080600201805461083f90613f09565b80601f016020809104026020016040519081016040528092919081815260200182805461086b90613f09565b80156108b85780601f1061088d576101008083540402835291602001916108b8565b820191906000526020600020905b81548152906001019060200180831161089b57829003601f168201915b5050505050908060030154905084565b60006006600085815260200190815260200160002090503373ffffffffffffffffffffffffffffffffffffffff16600760008360020154815260200190815260200160002060010160009054906101000a900473ffffffffffffffffffffffffffffffffffffffff1673ffffffffffffffffffffffffffffffffffffffff1614610987576040517f08c379a000000000000000000000000000000000000000000000000000000000815260040161097e90613a81565b60405180910390fd5b82156109af5760018160030160006101000a81548160ff0219169083151502179055506109c3565b60008211156109c2578181600401819055505b5b7f5925f6070dba9d3c5caa9c961d661ea0c1772d7f95af99d278fe9e5b4e53caba84846040516109f4929190613bc2565b60405180910390a150505050565b60006005600083815260200190815260200160002090508060070160009054906101000a900460ff16610a6a576040517f08c379a0000000000000000000000000000000000000000000000000000000008152600401610a61906139c1565b60405180910390fd5b80600401543414610ab0576040517f08c379a0000000000000000000000000000000000000000000000000000000008152600401610aa7906138a1565b60405180910390fd5b6000606460005434610ac29190613df1565b610acc9190613dc0565b9050600760008360010154815260200190815260200160002060010160009054906101000a900473ffffffffffffffffffffffffffffffffffffffff1673ffffffffffffffffffffffffffffffffffffffff166108fc8234610b2e9190613e4b565b9081150290604051600060405180830381858888f19350505050158015610b59573d6000803e3d6000fd5b50600160009054906101000a900473ffffffffffffffffffffffffffffffffffffffff1673ffffffffffffffffffffffffffffffffffffffff166108fc829081150290604051600060405180830381858888f19350505050158015610bc2573d6000803e3d6000fd5b507ffbf1458fbbddabb878de144276216e8ccda619cbac2d598e6ee37ff72173afb1833334604051610bf693929190613b2a565b60405180910390a1505050565b606060006001600354610c169190613e4b565b67ffffffffffffffff811115610c55577f4e487b7100000000000000000000000000000000000000000000000000000000600052604160045260246000fd5b604051908082528060200260200182016040528015610c8e57816020015b610c7b6129b4565b815260200190600190039081610c735790505b509050600080600190505b600354811015610ec2576005600082815260200190815260200160002060070160009054906101000a900460ff1615610eaf5760056000828152602001908152602001600020604051806101000160405290816000820154815260200160018201548152602001600282018054610d0f90613f09565b80601f0160208091040260200160405190810160405280929190818152602001828054610d3b90613f09565b8015610d885780601f10610d5d57610100808354040283529160200191610d88565b820191906000526020600020905b815481529060010190602001808311610d6b57829003601f168201915b50505050508152602001600382018054610da190613f09565b80601f0160208091040260200160405190810160405280929190818152602001828054610dcd90613f09565b8015610e1a5780601f10610def57610100808354040283529160200191610e1a565b820191906000526020600020905b815481529060010190602001808311610dfd57829003601f168201915b505050505081526020016004820154815260200160058201548152602001600682015481526020016007820160009054906101000a900460ff161515151581525050838381518110610e95577f4e487b7100000000000000000000000000000000000000000000000000000000600052603260045260246000fd5b60200260200101819052508180610eab90613f3b565b9250505b8080610eba90613f3b565b915050610c99565b50819250505090565b600160009054906101000a900473ffffffffffffffffffffffffffffffffffffffff1673ffffffffffffffffffffffffffffffffffffffff163373ffffffffffffffffffffffffffffffffffffffff1614610f5b576040517f08c379a0000000000000000000000000000000000000000000000000000000008152600401610f52906138c1565b60405180910390fd5b600a82604051610f6b9190613704565b908152602001604051809103902060009054906101000a900460ff1615610fc7576040517f08c379a0000000000000000000000000000000000000000000000000000000008152600401610fbe90613a01565b60405180910390fd5b6000600190505b60025481101561108f5782604051602001610fe99190613704565b6040516020818303038152906040528051906020012060076000838152602001908152602001600020600201604051602001611025919061371b565b60405160208183030381529060405280519060200120141561107c576040517f08c379a000000000000000000000000000000000000000000000000000000000815260040161107390613a61565b60405180910390fd5b808061108790613f3b565b915050610fce565b50604051806080016040528060025481526020013373ffffffffffffffffffffffffffffffffffffffff168152602001838152602001828152506007600060025481526020019081526020016000206000820151816000015560208201518160010160006101000a81548173ffffffffffffffffffffffffffffffffffffffff021916908373ffffffffffffffffffffffffffffffffffffffff160217905550604082015181600201908051906020019061114b92919061292e565b5060608201518160030155905050600254600860003373ffffffffffffffffffffffffffffffffffffffff1673ffffffffffffffffffffffffffffffffffffffff16815260200190815260200160002081905550600260008154809291906111b290613f3b565b91905055505050565b6111c36129fb565b6009826040516111d39190613704565b908152602001604051809103902060030160009054906101000a900460ff1615611232576040517f08c379a000000000000000000000000000000000000000000000000000000000815260040161122990613981565b60405180910390fd5b6009826040516112429190613704565b90815260200160405180910390206040518060800160405290816000820160009054906101000a900473ffffffffffffffffffffffffffffffffffffffff1673ffffffffffffffffffffffffffffffffffffffff1673ffffffffffffffffffffffffffffffffffffffff1681526020016001820180546112c190613f09565b80601f01602080910402602001604051908101604052809291908181526020018280546112ed90613f09565b801561133a5780601f1061130f5761010080835404028352916020019161133a565b820191906000526020600020905b81548152906001019060200180831161131d57829003601f168201915b50505050508152602001600282015481526020016003820160009054906101000a900460ff1615151515815250509050919050565b6060600080600860003373ffffffffffffffffffffffffffffffffffffffff1673ffffffffffffffffffffffffffffffffffffffff1681526020019081526020016000205490506000600190505b600454811015611440576000600660008381526020019081526020016000206002015414158015611419575081600560006006600085815260200190815260200160002060020154815260200190815260200160002060010154145b1561142d57828061142990613f3b565b9350505b808061143890613f3b565b9150506113bd565b5060008267ffffffffffffffff811115611483577f4e487b7100000000000000000000000000000000000000000000000000000000600052604160045260246000fd5b6040519080825280602002602001820160405280156114bc57816020015b6114a9612a3b565b8152602001906001900390816114a15790505b509050600080600190505b600454811015611656576000600660008381526020019081526020016000206002015414158015611523575083600560006006600085815260200190815260200160002060020154815260200190815260200160002060010154145b1561164357600660008281526020019081526020016000206040518060c0016040529081600082015481526020016001820160009054906101000a900473ffffffffffffffffffffffffffffffffffffffff1673ffffffffffffffffffffffffffffffffffffffff1673ffffffffffffffffffffffffffffffffffffffff168152602001600282015481526020016003820160009054906101000a900460ff161515151581526020016003820160019054906101000a900460ff16151515158152602001600482015481525050838381518110611629577f4e487b7100000000000000000000000000000000000000000000000000000000600052603260045260246000fd5b6020026020010181905250818061163f90613f3b565b9250505b808061164e90613f3b565b9150506114c7565b508194505050505090565b600160009054906101000a900473ffffffffffffffffffffffffffffffffffffffff1673ffffffffffffffffffffffffffffffffffffffff163373ffffffffffffffffffffffffffffffffffffffff16146116f1576040517f08c379a00000000000000000000000000000000000000000000000000000000081526004016116e8906138c1565b60405180910390fd5b600060076000838152602001908152602001600020600201805461171490613f09565b80601f016020809104026020016040519081016040528092919081815260200182805461174090613f09565b801561178d5780601f106117625761010080835404028352916020019161178d565b820191906000526020600020905b81548152906001019060200180831161177057829003601f168201915b5050505050905060006007600084815260200190815260200160002060010160009054906101000a900473ffffffffffffffffffffffffffffffffffffffff1690506001600a836040516117e19190613704565b908152602001604051809103902060006101000a81548160ff021916908315150217905550600760008481526020019081526020016000206000808201600090556001820160006101000a81549073ffffffffffffffffffffffffffffffffffffffff02191690556002820160006118599190612a8b565b60038201600090555050505050565b6000600860003373ffffffffffffffffffffffffffffffffffffffff1673ffffffffffffffffffffffffffffffffffffffff168152602001908152602001600020549050600073ffffffffffffffffffffffffffffffffffffffff166007600083815260200190815260200160002060010160009054906101000a900473ffffffffffffffffffffffffffffffffffffffff1673ffffffffffffffffffffffffffffffffffffffff161415611952576040517f08c379a0000000000000000000000000000000000000000000000000000000008152600401611949906138e1565b60405180910390fd5b806005600085815260200190815260200160002060010154146119aa576040517f08c379a00000000000000000000000000000000000000000000000000000000081526004016119a190613921565b60405180910390fd5b8115156005600085815260200190815260200160002060070160009054906101000a900460ff1615151415611a14576040517f08c379a0000000000000000000000000000000000000000000000000000000008152600401611a0b90613841565b60405180910390fd5b816005600085815260200190815260200160002060070160006101000a81548160ff021916908315150217905550505050565b60006006600083815260200190815260200160002090503373ffffffffffffffffffffffffffffffffffffffff168160010160009054906101000a900473ffffffffffffffffffffffffffffffffffffffff1673ffffffffffffffffffffffffffffffffffffffff1614611af0576040517f08c379a0000000000000000000000000000000000000000000000000000000008152600401611ae790613921565b60405180910390fd5b8060030160009054906101000a900460ff1615611b42576040517f08c379a0000000000000000000000000000000000000000000000000000000008152600401611b3990613821565b60405180910390fd5b8060030160009054906101000a900460ff16611b93576040517f08c379a0000000000000000000000000000000000000000000000000000000008152600401611b8a90613961565b60405180910390fd5b60008160030160006101000a81548160ff0219169083151502179055505050565b60066020528060005260406000206000915090508060000154908060010160009054906101000a900473ffffffffffffffffffffffffffffffffffffffff16908060020154908060030160009054906101000a900460ff16908060030160019054906101000a900460ff16908060040154905086565b60086020528060005260406000206000915090505481565b6009818051602081018201805184825260208301602085012081835280955050505050506000915090508060000160009054906101000a900473ffffffffffffffffffffffffffffffffffffffff1690806001018054611ca190613f09565b80601f0160208091040260200160405190810160405280929190818152602001828054611ccd90613f09565b8015611d1a5780601f10611cef57610100808354040283529160200191611d1a565b820191906000526020600020905b815481529060010190602001808311611cfd57829003601f168201915b5050505050908060020154908060030160009054906101000a900460ff16905084565b600982604051611d4d9190613704565b908152602001604051809103902060030160009054906101000a900460ff16611dab576040517f08c379a0000000000000000000000000000000000000000000000000000000008152600401611da290613881565b60405180910390fd5b6005600082815260200190815260200160002060070160009054906101000a900460ff16611e0e576040517f08c379a0000000000000000000000000000000000000000000000000000000008152600401611e0590613861565b60405180910390fd5b6040518060c0016040528060045481526020013373ffffffffffffffffffffffffffffffffffffffff16815260200182815260200160001515815260200160001515815260200160008152506006600060045481526020019081526020016000206000820151816000015560208201518160010160006101000a81548173ffffffffffffffffffffffffffffffffffffffff021916908373ffffffffffffffffffffffffffffffffffffffff1602179055506040820151816002015560608201518160030160006101000a81548160ff02191690831515021790555060808201518160030160016101000a81548160ff02191690831515021790555060a082015181600401559050507fded47fe1c7f7878a21a47327b3f5172551c245be83ba771fe716cdbe1bf55c7a6004543383604051611f4c93929190613b2a565b60405180910390a160046000815480929190611f6790613f3b565b91905055505050565b60006006600083815260200190815260200160002090503373ffffffffffffffffffffffffffffffffffffffff168160010160009054906101000a900473ffffffffffffffffffffffffffffffffffffffff1673ffffffffffffffffffffffffffffffffffffffff1614612019576040517f08c379a000000000000000000000000000000000000000000000000000000000815260040161201090613921565b60405180910390fd5b8060030160009054906101000a900460ff1661206a576040517f08c379a000000000000000000000000000000000000000000000000000000000815260040161206190613961565b60405180910390fd5b8060030160019054906101000a900460ff16156120bc576040517f08c379a00000000000000000000000000000000000000000000000000000000081526004016120b3906139a1565b60405180910390fd5b60018160030160016101000a81548160ff0219169083151502179055506000816004015411612120576040517f08c379a000000000000000000000000000000000000000000000000000000000815260040161211790613a41565b60405180910390fd5b8060010160009054906101000a900473ffffffffffffffffffffffffffffffffffffffff1673ffffffffffffffffffffffffffffffffffffffff166108fc82600401549081150290604051600060405180830381858888f1935050505015801561218e573d6000803e3d6000fd5b505050565b600a818051602081018201805184825260208301602085012081835280955050505050506000915054906101000a900460ff1681565b60025481565b60006006600083815260200190815260200160002090503373ffffffffffffffffffffffffffffffffffffffff16600760008360020154815260200190815260200160002060010160009054906101000a900473ffffffffffffffffffffffffffffffffffffffff1673ffffffffffffffffffffffffffffffffffffffff161461228e576040517f08c379a000000000000000000000000000000000000000000000000000000000815260040161228590613a21565b60405180910390fd5b8060030160009054906101000a900460ff166122df576040517f08c379a00000000000000000000000000000000000000000000000000000000081526004016122d690613941565b60405180910390fd5b8060030160019054906101000a900460ff1615612331576040517f08c379a0000000000000000000000000000000000000000000000000000000008152600401612328906139e1565b60405180910390fd5b60008160040154600560008460020154815260200190815260200160002060050154116123785760056000836002015481526020019081526020016000206005015461237e565b81600401545b90508160010160009054906101000a900473ffffffffffffffffffffffffffffffffffffffff1673ffffffffffffffffffffffffffffffffffffffff166108fc829081150290604051600060405180830381858888f193505050501580156123ea573d6000803e3d6000fd5b5060018260030160016101000a81548160ff0219169083151502179055507fb74faa515c161a6aa3d68dd9ecf21d897dde4efbb1a2b72be2c86508f03417548382604051612439929190613beb565b60405180910390a1505050565b6000600860003373ffffffffffffffffffffffffffffffffffffffff1673ffffffffffffffffffffffffffffffffffffffff168152602001908152602001600020549050600073ffffffffffffffffffffffffffffffffffffffff166007600083815260200190815260200160002060010160009054906101000a900473ffffffffffffffffffffffffffffffffffffffff1673ffffffffffffffffffffffffffffffffffffffff161415612530576040517f08c379a0000000000000000000000000000000000000000000000000000000008152600401612527906138e1565b60405180910390fd5b604051806101000160405280600354815260200182815260200187815260200186815260200185815260200184815260200183815260200160011515815250600560006003548152602001908152602001600020600082015181600001556020820151816001015560408201518160020190805190602001906125b492919061292e565b5060608201518160030190805190602001906125d192919061292e565b506080820151816004015560a0820151816005015560c0820151816006015560e08201518160070160006101000a81548160ff0219169083151502179055509050507f5fac4c43830252b9984ca8bf915ae2a0774180c35c5472120325c1961e45b62b60035482604051612646929190613beb565b60405180910390a16003600081548092919061266190613f3b565b9190505550505050505050565b600560205280600052604060002060009150905080600001549080600101549080600201805461269d90613f09565b80601f01602080910402602001604051908101604052809291908181526020018280546126c990613f09565b80156127165780601f106126eb57610100808354040283529160200191612716565b820191906000526020600020905b8154815290600101906020018083116126f957829003601f168201915b50505050509080600301805461272b90613f09565b80601f016020809104026020016040519081016040528092919081815260200182805461275790613f09565b80156127a45780601f10612779576101008083540402835291602001916127a4565b820191906000526020600020905b81548152906001019060200180831161278757829003601f168201915b5050505050908060040154908060050154908060060154908060070160009054906101000a900460ff16905088565b600160009054906101000a900473ffffffffffffffffffffffffffffffffffffffff1681565b600160009054906101000a900473ffffffffffffffffffffffffffffffffffffffff1673ffffffffffffffffffffffffffffffffffffffff163373ffffffffffffffffffffffffffffffffffffffff1614612889576040517f08c379a0000000000000000000000000000000000000000000000000000000008152600401612880906138c1565b60405180910390fd5b600a816040516128999190613704565b908152602001604051809103902060009054906101000a900460ff166128f4576040517f08c379a00000000000000000000000000000000000000000000000000000000081526004016128eb90613901565b60405180910390fd5b6000600a826040516129069190613704565b908152602001604051809103902060006101000a81548160ff02191690831515021790555050565b82805461293a90613f09565b90600052602060002090601f01602090048101928261295c57600085556129a3565b82601f1061297557805160ff19168380011785556129a3565b828001600101855582156129a3579182015b828111156129a2578251825591602001919060010190612987565b5b5090506129b09190612acb565b5090565b604051806101000160405280600081526020016000815260200160608152602001606081526020016000815260200160008152602001600081526020016000151581525090565b6040518060800160405280600073ffffffffffffffffffffffffffffffffffffffff16815260200160608152602001600081526020016000151581525090565b6040518060c0016040528060008152602001600073ffffffffffffffffffffffffffffffffffffffff16815260200160008152602001600015158152602001600015158152602001600081525090565b508054612a9790613f09565b6000825580601f10612aa95750612ac8565b601f016020900490600052602060002090810190612ac79190612acb565b5b50565b5b80821115612ae4576000816000905550600101612acc565b5090565b6000612afb612af684613cd1565b613ca0565b905082815260208101848484011115612b1357600080fd5b612b1e848285613ec7565b509392505050565b600081359050612b3581614051565b92915050565b600081359050612b4a81614068565b92915050565b600082601f830112612b6157600080fd5b8135612b71848260208601612ae8565b91505092915050565b600081359050612b898161407f565b92915050565b600060208284031215612ba157600080fd5b6000612baf84828501612b26565b91505092915050565b600060208284031215612bca57600080fd5b600082013567ffffffffffffffff811115612be457600080fd5b612bf084828501612b50565b91505092915050565b600080600080600060a08688031215612c1157600080fd5b600086013567ffffffffffffffff811115612c2b57600080fd5b612c3788828901612b50565b955050602086013567ffffffffffffffff811115612c5457600080fd5b612c6088828901612b50565b9450506040612c7188828901612b7a565b9350506060612c8288828901612b7a565b9250506080612c9388828901612b7a565b9150509295509295909350565b60008060408385031215612cb357600080fd5b600083013567ffffffffffffffff811115612ccd57600080fd5b612cd985828601612b50565b9250506020612cea85828601612b7a565b9150509250929050565b600060208284031215612d0657600080fd5b6000612d1484828501612b7a565b91505092915050565b60008060408385031215612d3057600080fd5b6000612d3e85828601612b7a565b9250506020612d4f85828601612b3b565b9150509250929050565b600080600060608486031215612d6e57600080fd5b6000612d7c86828701612b7a565b9350506020612d8d86828701612b3b565b9250506040612d9e86828701612b7a565b9150509250925092565b6000612db483836135b4565b905092915050565b6000612dc8838361366b565b60c08301905092915050565b612ddd81613e7f565b82525050565b612dec81613e7f565b82525050565b6000612dfd82613d36565b612e078185613d71565b935083602082028501612e1985613d01565b8060005b85811015612e555784840389528151612e368582612da8565b9450612e4183613d57565b925060208a01995050600181019050612e1d565b50829750879550505050505092915050565b6000612e7282613d41565b612e7c8185613d82565b9350612e8783613d11565b8060005b83811015612eb8578151612e9f8882612dbc565b9750612eaa83613d64565b925050600181019050612e8b565b5085935050505092915050565b612ece81613e91565b82525050565b612edd81613e91565b82525050565b6000612eee82613d4c565b612ef88185613d93565b9350612f08818560208601613ed6565b612f1181614040565b840191505092915050565b6000612f2782613d4c565b612f318185613da4565b9350612f41818560208601613ed6565b612f4a81614040565b840191505092915050565b6000612f6082613d4c565b612f6a8185613db5565b9350612f7a818560208601613ed6565b80840191505092915050565b60008154612f9381613f09565b612f9d8186613db5565b94506001821660008114612fb85760018114612fc957612ffc565b60ff19831686528186019350612ffc565b612fd285613d21565b60005b83811015612ff457815481890152600182019150602081019050612fd5565b838801955050505b50505092915050565b6000613012601983613da4565b91507f5265717565737420616c726561647920617070726f7665642e000000000000006000830152602082019050919050565b6000613052601483613da4565b91507f4e6f206368616e676520696e207374617475732e0000000000000000000000006000830152602082019050919050565b6000613092601783613da4565b91507f496e76616c696420696e737572616e636520706c616e2e0000000000000000006000830152602082019050919050565b60006130d2601883613da4565b91507f437573746f6d6572206e6f7420726567697374657265642e00000000000000006000830152602082019050919050565b6000613112601983613da4565b91507f496e636f7272656374207072656d69756d20616d6f756e742e000000000000006000830152602082019050919050565b6000613152600b83613da4565b91507f4f6e6c792061646d696e2e0000000000000000000000000000000000000000006000830152602082019050919050565b6000613192601983613da4565b91507f4e6f742061207265676973746572656420636f6d70616e792e000000000000006000830152602082019050919050565b60006131d2601683613da4565b91507f436f6d70616e79206973206e6f742062616e6e65642e000000000000000000006000830152602082019050919050565b6000613212600f83613da4565b91507f4e6f7420617574686f72697a65642e00000000000000000000000000000000006000830152602082019050919050565b6000613252601583613da4565b91507f52657175657374206e6f7420617070726f7665642e00000000000000000000006000830152602082019050919050565b6000613292601883613da4565b91507f52657175657374206973206e6f7420617070726f7665642e00000000000000006000830152602082019050919050565b60006132d2601c83613da4565b91507f437573746f6d657220616c726561647920726567697374657265642e000000006000830152602082019050919050565b6000613312601883613da4565b91507f5265717565737420616c726561647920636c61696d65642e00000000000000006000830152602082019050919050565b6000613352600d83613da4565b91507f496e76616c696420706c616e2e000000000000000000000000000000000000006000830152602082019050919050565b6000613392601683613da4565b91507f436c61696d20616c726561647920736574746c65642e000000000000000000006000830152602082019050919050565b60006133d2601783613da4565b91507f436f6d70616e79206e616d652069732062616e6e65642e0000000000000000006000830152602082019050919050565b6000613412602383613da4565b91507f4f6e6c792074686520636f6d70616e792063616e20736574746c6520636c616960008301527f6d732e00000000000000000000000000000000000000000000000000000000006020830152604082019050919050565b6000613478601583613da4565b91507f496e76616c696420636c61696d20616d6f756e742e00000000000000000000006000830152602082019050919050565b60006134b8602083613da4565b91507f436f6d70616e79206e616d6520616c726561647920726567697374657265642e6000830152602082019050919050565b60006134f8602783613da4565b91507f4f6e6c792074686520636f6d70616e792063616e206576616c7561746520726560008301527f7175657374732e000000000000000000000000000000000000000000000000006020830152604082019050919050565b60006080830160008301516135696000860182612dd4565b50602083015184820360208601526135818282612ee3565b915050604083015161359660408601826136e6565b5060608301516135a96060860182612ec5565b508091505092915050565b6000610100830160008301516135cd60008601826136e6565b5060208301516135e060208601826136e6565b50604083015184820360408601526135f88282612ee3565b915050606083015184820360608601526136128282612ee3565b915050608083015161362760808601826136e6565b5060a083015161363a60a08601826136e6565b5060c083015161364d60c08601826136e6565b5060e083015161366060e0860182612ec5565b508091505092915050565b60c08201600082015161368160008501826136e6565b5060208201516136946020850182612dd4565b5060408201516136a760408501826136e6565b5060608201516136ba6060850182612ec5565b5060808201516136cd6080850182612ec5565b5060a08201516136e060a08501826136e6565b50505050565b6136ef81613ebd565b82525050565b6136fe81613ebd565b82525050565b60006137108284612f55565b915081905092915050565b60006137278284612f86565b915081905092915050565b60006020820190506137476000830184612de3565b92915050565b60006080820190506137626000830187612de3565b81810360208301526137748186612f1c565b905061378360408301856136f5565b6137906060830184612ed4565b95945050505050565b60006040820190506137ae6000830185612de3565b6137bb60208301846136f5565b9392505050565b600060208201905081810360008301526137dc8184612df2565b905092915050565b600060208201905081810360008301526137fe8184612e67565b905092915050565b600060208201905061381b6000830184612ed4565b92915050565b6000602082019050818103600083015261383a81613005565b9050919050565b6000602082019050818103600083015261385a81613045565b9050919050565b6000602082019050818103600083015261387a81613085565b9050919050565b6000602082019050818103600083015261389a816130c5565b9050919050565b600060208201905081810360008301526138ba81613105565b9050919050565b600060208201905081810360008301526138da81613145565b9050919050565b600060208201905081810360008301526138fa81613185565b9050919050565b6000602082019050818103600083015261391a816131c5565b9050919050565b6000602082019050818103600083015261393a81613205565b9050919050565b6000602082019050818103600083015261395a81613245565b9050919050565b6000602082019050818103600083015261397a81613285565b9050919050565b6000602082019050818103600083015261399a816132c5565b9050919050565b600060208201905081810360008301526139ba81613305565b9050919050565b600060208201905081810360008301526139da81613345565b9050919050565b600060208201905081810360008301526139fa81613385565b9050919050565b60006020820190508181036000830152613a1a816133c5565b9050919050565b60006020820190508181036000830152613a3a81613405565b9050919050565b60006020820190508181036000830152613a5a8161346b565b9050919050565b60006020820190508181036000830152613a7a816134ab565b9050919050565b60006020820190508181036000830152613a9a816134eb565b9050919050565b60006020820190508181036000830152613abb8184613551565b905092915050565b6000602082019050613ad860008301846136f5565b92915050565b6000608082019050613af360008301876136f5565b613b006020830186612de3565b8181036040830152613b128185612f1c565b9050613b2160608301846136f5565b95945050505050565b6000606082019050613b3f60008301866136f5565b613b4c6020830185612de3565b613b5960408301846136f5565b949350505050565b600060c082019050613b7660008301896136f5565b613b836020830188612de3565b613b9060408301876136f5565b613b9d6060830186612ed4565b613baa6080830185612ed4565b613bb760a08301846136f5565b979650505050505050565b6000604082019050613bd760008301856136f5565b613be46020830184612ed4565b9392505050565b6000604082019050613c0060008301856136f5565b613c0d60208301846136f5565b9392505050565b600061010082019050613c2a600083018b6136f5565b613c37602083018a6136f5565b8181036040830152613c498189612f1c565b90508181036060830152613c5d8188612f1c565b9050613c6c60808301876136f5565b613c7960a08301866136f5565b613c8660c08301856136f5565b613c9360e0830184612ed4565b9998505050505050505050565b6000604051905081810181811067ffffffffffffffff82111715613cc757613cc6614011565b5b8060405250919050565b600067ffffffffffffffff821115613cec57613ceb614011565b5b601f19601f8301169050602081019050919050565b6000819050602082019050919050565b6000819050602082019050919050565b60008190508160005260206000209050919050565b600081519050919050565b600081519050919050565b600081519050919050565b6000602082019050919050565b6000602082019050919050565b600082825260208201905092915050565b600082825260208201905092915050565b600082825260208201905092915050565b600082825260208201905092915050565b600081905092915050565b6000613dcb82613ebd565b9150613dd683613ebd565b925082613de657613de5613fb3565b5b828204905092915050565b6000613dfc82613ebd565b9150613e0783613ebd565b9250817fffffffffffffffffffffffffffffffffffffffffffffffffffffffffffffffff0483118215151615613e4057613e3f613f84565b5b828202905092915050565b6000613e5682613ebd565b9150613e6183613ebd565b925082821015613e7457613e73613f84565b5b828203905092915050565b6000613e8a82613e9d565b9050919050565b60008115159050919050565b600073ffffffffffffffffffffffffffffffffffffffff82169050919050565b6000819050919050565b82818337600083830152505050565b60005b83811015613ef4578082015181840152602081019050613ed9565b83811115613f03576000848401525b50505050565b60006002820490506001821680613f2157607f821691505b60208210811415613f3557613f34613fe2565b5b50919050565b6000613f4682613ebd565b91507fffffffffffffffffffffffffffffffffffffffffffffffffffffffffffffffff821415613f7957613f78613f84565b5b600182019050919050565b7f4e487b7100000000000000000000000000000000000000000000000000000000600052601160045260246000fd5b7f4e487b7100000000000000000000000000000000000000000000000000000000600052601260045260246000fd5b7f4e487b7100000000000000000000000000000000000000000000000000000000600052602260045260246000fd5b7f4e487b7100000000000000000000000000000000000000000000000000000000600052604160045260246000fd5b6000601f19601f8301169050919050565b61405a81613e7f565b811461406557600080fd5b50565b61407181613e91565b811461407c57600080fd5b50565b61408881613ebd565b811461409357600080fd5b5056fea26469706673582212203b70ff2b120e18be756741f174bb381bf6ba13ea46f8e0eaeb66889cf2e9586964736f6c63430008000033",
  "linkReferences": {},
  "deployedLinkReferences": {}
}