{
  "_format": "hh-sol-artifact-1",
  "contractName": "DecentralizedInsurance",
  "sourceName": "contracts/functions.sol",
  "abi": [
    {
      "inputs": [],
      "stateMutability": "nonpayable",
      "type": "constructor"
    },
    {
      "anonymous": false,
      "inputs": [
        {
          "indexed": false,
          "internalType": "uint256",
          "name": "requestId",
          "type": "uint256"
        },
        {
          "indexed": false,
          "internalType": "uint256",
          "name": "claimAmount",
          "type": "uint256"
        }
      ],
      "name": "ClaimSettled",
      "type": "event"
    },
    {
      "anonymous": false,
      "inputs": [
        {
          "indexed": false,
          "internalType": "address",
          "name": "customer",
          "type": "address"
        },
        {
          "indexed": false,
          "internalType": "uint256",
          "name": "rate",
          "type": "uint256"
        }
      ],
      "name": "CustomerRegistered",
      "type": "event"
    },
    {
      "anonymous": false,
      "inputs": [
        {
          "indexed": false,
          "internalType": "uint256",
          "name": "planId",
          "type": "uint256"
        },
        {
          "indexed": false,
          "internalType": "uint256",
          "name": "companyId",
          "type": "uint256"
        }
      ],
      "name": "PlanCreated",
      "type": "event"
    },
    {
      "anonymous": false,
      "inputs": [
        {
          "indexed": false,
          "internalType": "uint256",
          "name": "planId",
          "type": "uint256"
        },
        {
          "indexed": false,
          "internalType": "address",
          "name": "customer",
          "type": "address"
        },
        {
          "indexed": false,
          "internalType": "uint256",
          "name": "amount",
          "type": "uint256"
        }
      ],
      "name": "PremiumPaid",
      "type": "event"
    },
    {
      "anonymous": false,
      "inputs": [
        {
          "indexed": false,
          "internalType": "uint256",
          "name": "requestId",
          "type": "uint256"
        },
        {
          "indexed": false,
          "internalType": "bool",
          "name": "isApproved",
          "type": "bool"
        }
      ],
      "name": "RequestResponded",
      "type": "event"
    },
    {
      "anonymous": false,
      "inputs": [
        {
          "indexed": false,
          "internalType": "uint256",
          "name": "requestId",
          "type": "uint256"
        },
        {
          "indexed": false,
          "internalType": "address",
          "name": "customer",
          "type": "address"
        },
        {
          "indexed": false,
          "internalType": "uint256",
          "name": "planId",
          "type": "uint256"
        }
      ],
      "name": "RequestSubmitted",
      "type": "event"
    },
    {
      "inputs": [
        {
          "internalType": "uint256",
          "name": "_requestId",
          "type": "uint256"
        },
        {
          "internalType": "bool",
          "name": "_approve",
          "type": "bool"
        }
      ],
      "name": "Request_decision_By_Company",
      "outputs": [],
      "stateMutability": "nonpayable",
      "type": "function"
    },
    {
      "inputs": [
        {
          "internalType": "uint256",
          "name": "_requestId",
          "type": "uint256"
        }
      ],
      "name": "acceptOffer",
      "outputs": [],
      "stateMutability": "nonpayable",
      "type": "function"
    },
    {
      "inputs": [],
      "name": "admin",
      "outputs": [
        {
          "internalType": "address",
          "name": "",
          "type": "address"
        }
      ],
      "stateMutability": "view",
      "type": "function"
    },
    {
      "inputs": [
        {
          "internalType": "uint256",
          "name": "_companyId",
          "type": "uint256"
        }
      ],
      "name": "banCompany",
      "outputs": [],
      "stateMutability": "nonpayable",
      "type": "function"
    },
    {
      "inputs": [
        {
          "internalType": "string",
          "name": "",
          "type": "string"
        }
      ],
      "name": "bannedCompanyNames",
      "outputs": [
        {
          "internalType": "bool",
          "name": "",
          "type": "bool"
        }
      ],
      "stateMutability": "view",
      "type": "function"
    },
    {
      "inputs": [
        {
          "internalType": "uint256",
          "name": "_planId",
          "type": "uint256"
        },
        {
          "internalType": "bool",
          "name": "_status",
          "type": "bool"
        }
      ],
      "name": "changePlanStatus",
      "outputs": [],
      "stateMutability": "nonpayable",
      "type": "function"
    },
    {
      "inputs": [
        {
          "internalType": "uint256",
          "name": "",
          "type": "uint256"
        }
      ],
      "name": "companies",
      "outputs": [
        {
          "internalType": "uint256",
          "name": "id",
          "type": "uint256"
        },
        {
          "internalType": "address",
          "name": "addr",
          "type": "address"
        },
        {
          "internalType": "string",
          "name": "name",
          "type": "string"
        },
        {
          "internalType": "uint256",
          "name": "customer_rating",
          "type": "uint256"
        }
      ],
      "stateMutability": "view",
      "type": "function"
    },
    {
      "inputs": [
        {
          "internalType": "address",
          "name": "",
          "type": "address"
        }
      ],
      "name": "companyIds",
      "outputs": [
        {
          "internalType": "uint256",
          "name": "",
          "type": "uint256"
        }
      ],
      "stateMutability": "view",
      "type": "function"
    },
    {
      "inputs": [
        {
          "internalType": "string",
          "name": "_name",
          "type": "string"
        },
        {
          "internalType": "string",
          "name": "_description",
          "type": "string"
        },
        {
          "internalType": "uint256",
          "name": "_premium",
          "type": "uint256"
        },
        {
          "internalType": "uint256",
          "name": "_coverageAmount",
          "type": "uint256"
        },
        {
          "internalType": "uint256",
          "name": "_duration",
          "type": "uint256"
        }
      ],
      "name": "createPlan",
      "outputs": [],
      "stateMutability": "nonpayable",
      "type": "function"
    },
    {
      "inputs": [
        {
          "internalType": "string",
          "name": "",
          "type": "string"
        }
      ],
      "name": "customers",
      "outputs": [
        {
          "internalType": "address",
          "name": "addr",
          "type": "address"
        },
        {
          "internalType": "string",
          "name": "name",
          "type": "string"
        },
        {
          "internalType": "uint256",
          "name": "rate",
          "type": "uint256"
        },
        {
          "internalType": "bool",
          "name": "isRegistered",
          "type": "bool"
        }
      ],
      "stateMutability": "view",
      "type": "function"
    },
    {
      "inputs": [
        {
          "internalType": "uint256",
          "name": "_requestId",
          "type": "uint256"
        }
      ],
      "name": "denyOffer",
      "outputs": [],
      "stateMutability": "nonpayable",
      "type": "function"
    },
    {
      "inputs": [
        {
          "internalType": "string",
          "name": "_name",
          "type": "string"
        }
      ],
      "name": "getCustomer",
      "outputs": [
        {
          "components": [
            {
              "internalType": "address",
              "name": "addr",
              "type": "address"
            },
            {
              "internalType": "string",
              "name": "name",
              "type": "string"
            },
            {
              "internalType": "uint256",
              "name": "rate",
              "type": "uint256"
            },
            {
              "internalType": "bool",
              "name": "isRegistered",
              "type": "bool"
            }
          ],
          "internalType": "struct DecentralizedInsurance.Customer",
          "name": "",
          "type": "tuple"
        }
      ],
      "stateMutability": "view",
      "type": "function"
    },
    {
      "inputs": [
        {
          "internalType": "uint256",
          "name": "",
          "type": "uint256"
        }
      ],
      "name": "insurancePlans",
      "outputs": [
        {
          "internalType": "uint256",
          "name": "id",
          "type": "uint256"
        },
        {
          "internalType": "uint256",
          "name": "companyId",
          "type": "uint256"
        },
        {
          "internalType": "string",
          "name": "name",
          "type": "string"
        },
        {
          "internalType": "string",
          "name": "description",
          "type": "string"
        },
        {
          "internalType": "uint256",
          "name": "premium",
          "type": "uint256"
        },
        {
          "internalType": "uint256",
          "name": "coverageAmount",
          "type": "uint256"
        },
        {
          "internalType": "uint256",
          "name": "duration",
          "type": "uint256"
        },
        {
          "internalType": "bool",
          "name": "isActive",
          "type": "bool"
        }
      ],
      "stateMutability": "view",
      "type": "function"
    },
    {
      "inputs": [],
      "name": "nextCompanyId",
      "outputs": [
        {
          "internalType": "uint256",
          "name": "",
          "type": "uint256"
        }
      ],
      "stateMutability": "view",
      "type": "function"
    },
    {
      "inputs": [
        {
          "internalType": "uint256",
          "name": "_planId",
          "type": "uint256"
        }
      ],
      "name": "payPremium",
      "outputs": [],
      "stateMutability": "payable",
      "type": "function"
    },
    {
      "inputs": [
        {
          "internalType": "string",
          "name": "_name",
          "type": "string"
        },
        {
          "internalType": "uint256",
          "name": "_rate",
          "type": "uint256"
        }
      ],
      "name": "registerCompany",
      "outputs": [],
      "stateMutability": "nonpayable",
      "type": "function"
    },
    {
      "inputs": [
        {
          "internalType": "string",
          "name": "_name",
          "type": "string"
        },
        {
          "internalType": "uint256",
          "name": "_rate",
          "type": "uint256"
        }
      ],
      "name": "registerCustomer",
      "outputs": [],
      "stateMutability": "nonpayable",
      "type": "function"
    },
    {
      "inputs": [
        {
          "internalType": "uint256",
          "name": "",
          "type": "uint256"
        }
      ],
      "name": "requests",
      "outputs": [
        {
          "internalType": "uint256",
          "name": "id",
          "type": "uint256"
        },
        {
          "internalType": "address",
          "name": "customer",
          "type": "address"
        },
        {
          "internalType": "uint256",
          "name": "planId",
          "type": "uint256"
        },
        {
          "internalType": "bool",
          "name": "Company_Approved",
          "type": "bool"
        },
        {
          "internalType": "bool",
          "name": "Customer_Approved",
          "type": "bool"
        },
        {
          "internalType": "bool",
          "name": "isClaimed",
          "type": "bool"
        },
        {
          "internalType": "uint256",
          "name": "claimAmount",
          "type": "uint256"
        }
      ],
      "stateMutability": "view",
      "type": "function"
    },
    {
      "inputs": [
        {
          "internalType": "uint256",
          "name": "_fee",
          "type": "uint256"
        }
      ],
      "name": "setPlatformFee",
      "outputs": [],
      "stateMutability": "nonpayable",
      "type": "function"
    },
    {
      "inputs": [
        {
          "internalType": "uint256",
          "name": "_requestId",
          "type": "uint256"
        }
      ],
      "name": "settleClaim",
      "outputs": [],
      "stateMutability": "nonpayable",
      "type": "function"
    },
    {
      "inputs": [
        {
          "internalType": "string",
          "name": "name_",
          "type": "string"
        },
        {
          "internalType": "uint256",
          "name": "_planId",
          "type": "uint256"
        }
      ],
      "name": "submitRequest",
      "outputs": [],
      "stateMutability": "nonpayable",
      "type": "function"
    },
    {
      "inputs": [
        {
          "internalType": "string",
          "name": "_name",
          "type": "string"
        }
      ],
      "name": "unbanCompany",
      "outputs": [],
      "stateMutability": "nonpayable",
      "type": "function"
    },
    {
      "inputs": [],
      "name": "viewPlans",
      "outputs": [
        {
          "components": [
            {
              "internalType": "uint256",
              "name": "id",
              "type": "uint256"
            },
            {
              "internalType": "uint256",
              "name": "companyId",
              "type": "uint256"
            },
            {
              "internalType": "string",
              "name": "name",
              "type": "string"
            },
            {
              "internalType": "string",
              "name": "description",
              "type": "string"
            },
            {
              "internalType": "uint256",
              "name": "premium",
              "type": "uint256"
            },
            {
              "internalType": "uint256",
              "name": "coverageAmount",
              "type": "uint256"
            },
            {
              "internalType": "uint256",
              "name": "duration",
              "type": "uint256"
            },
            {
              "internalType": "bool",
              "name": "isActive",
              "type": "bool"
            }
          ],
          "internalType": "struct DecentralizedInsurance.InsurancePlan[]",
          "name": "",
          "type": "tuple[]"
        }
      ],
      "stateMutability": "view",
      "type": "function"
    },
    {
      "inputs": [],
      "name": "viewRequests",
      "outputs": [
        {
          "components": [
            {
              "internalType": "uint256",
              "name": "id",
              "type": "uint256"
            },
            {
              "internalType": "address",
              "name": "customer",
              "type": "address"
            },
            {
              "internalType": "uint256",
              "name": "planId",
              "type": "uint256"
            },
            {
              "internalType": "bool",
              "name": "Company_Approved",
              "type": "bool"
            },
            {
              "internalType": "bool",
              "name": "Customer_Approved",
              "type": "bool"
            },
            {
              "internalType": "bool",
              "name": "isClaimed",
              "type": "bool"
            },
            {
              "internalType": "uint256",
              "name": "claimAmount",
              "type": "uint256"
            }
          ],
          "internalType": "struct DecentralizedInsurance.Request[]",
          "name": "",
          "type": "tuple[]"
        }
      ],
      "stateMutability": "view",
      "type": "function"
    }
  ],
  "bytecode": "0x608060405260056000556001600355600160045534801561001f57600080fd5b5033600160006101000a81548173ffffffffffffffffffffffffffffffffffffffff021916908373ffffffffffffffffffffffffffffffffffffffff1602179055506001600281905550614177806100786000396000f3fe60806040526004361061014b5760003560e01c806381d12c58116100b6578063d8d3c8291161006f578063d8d3c829146104ad578063e406f1d8146104d8578063e5584ed714610501578063ec1b70661461052a578063f851a4401461056e578063ffc8cf8f146105995761014b565b806381d12c581461035e5780639f242f22146103a1578063a82c98d0146103de578063b5cb71a81461041e578063c815729d14610447578063d448ee4c146104705761014b565b80635170c1aa116101085780635170c1aa14610252578063518bddd91461027b578063521e686d146102b85780635bffa51d146102e35780635d8e63971461030c5780637746dfa9146103355761014b565b806312e8e2c3146101505780631714ae63146101795780632813d19d146101a25780634364b26e146101e257806343d4c370146101fe57806348e9807f14610227575b600080fd5b34801561015c57600080fd5b5061017760048036038101906101729190612d47565b6105c2565b005b34801561018557600080fd5b506101a0600480360381019061019b9190612cf3565b61065c565b005b3480156101ae57600080fd5b506101c960048036038101906101c49190612d47565b6107f1565b6040516101d99493929190613b7b565b60405180910390f35b6101fc60048036038101906101f79190612d47565b6108c9565b005b34801561020a57600080fd5b5061022560048036038101906102209190612d70565b610aca565b005b34801561023357600080fd5b5061023c610bf6565b604051610249919061383f565b60405180910390f35b34801561025e57600080fd5b5061027960048036038101906102749190612cf3565b610ebe565b005b34801561028757600080fd5b506102a2600480360381019061029d9190612c0b565b6111ae565b6040516102af9190613b3e565b60405180910390f35b3480156102c457600080fd5b506102cd611362565b6040516102da9190613861565b60405180910390f35b3480156102ef57600080fd5b5061030a60048036038101906103059190612d47565b61166f565b005b34801561031857600080fd5b50610333600480360381019061032e9190612d70565b611876565b005b34801561034157600080fd5b5061035c60048036038101906103579190612d47565b611a55565b005b34801561036a57600080fd5b5061038560048036038101906103809190612d47565b611bc2565b6040516103989796959493929190613bfe565b60405180910390f35b3480156103ad57600080fd5b506103c860048036038101906103c39190612be2565b611c4b565b6040516103d59190613b60565b60405180910390f35b3480156103ea57600080fd5b5061040560048036038101906104009190612c0b565b611c63565b60405161041594939291906137ca565b60405180910390f35b34801561042a57600080fd5b5061044560048036038101906104409190612cf3565b611d5e565b005b34801561045357600080fd5b5061046e60048036038101906104699190612d47565b611fba565b005b34801561047c57600080fd5b5061049760048036038101906104929190612c0b565b61218b565b6040516104a49190613883565b60405180910390f35b3480156104b957600080fd5b506104c26121c1565b6040516104cf9190613b60565b60405180910390f35b3480156104e457600080fd5b506104ff60048036038101906104fa9190612d47565b6121c7565b005b34801561050d57600080fd5b5061052860048036038101906105239190612c4c565b61248f565b005b34801561053657600080fd5b50610551600480360381019061054c9190612d47565b6126b7565b604051610565989796959493929190613cbf565b60405180910390f35b34801561057a57600080fd5b5061058361281c565b60405161059091906137af565b60405180910390f35b3480156105a557600080fd5b506105c060048036038101906105bb9190612c0b565b612842565b005b600160009054906101000a900473ffffffffffffffffffffffffffffffffffffffff1673ffffffffffffffffffffffffffffffffffffffff163373ffffffffffffffffffffffffffffffffffffffff1614610652576040517f08c379a00000000000000000000000000000000000000000000000000000000081526004016106499061395e565b60405180910390fd5b8060008190555050565b60098260405161066c9190613781565b908152602001604051809103902060030160009054906101000a900460ff16156106cb576040517f08c379a00000000000000000000000000000000000000000000000000000000081526004016106c290613a1e565b60405180910390fd5b60405180608001604052803373ffffffffffffffffffffffffffffffffffffffff168152602001838152602001828152602001600115158152506009836040516107159190613781565b908152602001604051809103902060008201518160000160006101000a81548173ffffffffffffffffffffffffffffffffffffffff021916908373ffffffffffffffffffffffffffffffffffffffff1602179055506020820151816001019080519060200190610786929190612978565b506040820151816002015560608201518160030160006101000a81548160ff0219169083151502179055509050507f3e2e23ad95ac9d48f62299dd498880d0e69059ed54888b0b71031dc2615f9a6033826040516107e5929190613816565b60405180910390a15050565b60076020528060005260406000206000915090508060000154908060010160009054906101000a900473ffffffffffffffffffffffffffffffffffffffff169080600201805461084090613fb4565b80601f016020809104026020016040519081016040528092919081815260200182805461086c90613fb4565b80156108b95780601f1061088e576101008083540402835291602001916108b9565b820191906000526020600020905b81548152906001019060200180831161089c57829003601f168201915b5050505050908060030154905084565b60006005600083815260200190815260200160002090508060070160009054906101000a900460ff16610931576040517f08c379a000000000000000000000000000000000000000000000000000000000815260040161092890613a5e565b60405180910390fd5b80600401543414610977576040517f08c379a000000000000000000000000000000000000000000000000000000000815260040161096e9061393e565b60405180910390fd5b60006064600054346109899190613e9c565b6109939190613e6b565b9050600760008360010154815260200190815260200160002060010160009054906101000a900473ffffffffffffffffffffffffffffffffffffffff1673ffffffffffffffffffffffffffffffffffffffff166108fc82346109f59190613ef6565b9081150290604051600060405180830381858888f19350505050158015610a20573d6000803e3d6000fd5b50600160009054906101000a900473ffffffffffffffffffffffffffffffffffffffff1673ffffffffffffffffffffffffffffffffffffffff166108fc829081150290604051600060405180830381858888f19350505050158015610a89573d6000803e3d6000fd5b507ffbf1458fbbddabb878de144276216e8ccda619cbac2d598e6ee37ff72173afb1833334604051610abd93929190613bc7565b60405180910390a1505050565b60006006600084815260200190815260200160002090506000600860003373ffffffffffffffffffffffffffffffffffffffff1673ffffffffffffffffffffffffffffffffffffffff1681526020019081526020016000205490508060056000600660008881526020019081526020016000206002015481526020019081526020016000206001015414610b93576040517f08c379a0000000000000000000000000000000000000000000000000000000008152600401610b8a90613b1e565b60405180910390fd5b8215610bb75760018260030160006101000a81548160ff0219169083151502179055505b7f5925f6070dba9d3c5caa9c961d661ea0c1772d7f95af99d278fe9e5b4e53caba8484604051610be8929190613c6d565b60405180910390a150505050565b606060006001600354610c099190613ef6565b67ffffffffffffffff811115610c48577f4e487b7100000000000000000000000000000000000000000000000000000000600052604160045260246000fd5b604051908082528060200260200182016040528015610c8157816020015b610c6e6129fe565b815260200190600190039081610c665790505b509050600080600190505b600354811015610eb5576005600082815260200190815260200160002060070160009054906101000a900460ff1615610ea25760056000828152602001908152602001600020604051806101000160405290816000820154815260200160018201548152602001600282018054610d0290613fb4565b80601f0160208091040260200160405190810160405280929190818152602001828054610d2e90613fb4565b8015610d7b5780601f10610d5057610100808354040283529160200191610d7b565b820191906000526020600020905b815481529060010190602001808311610d5e57829003601f168201915b50505050508152602001600382018054610d9490613fb4565b80601f0160208091040260200160405190810160405280929190818152602001828054610dc090613fb4565b8015610e0d5780601f10610de257610100808354040283529160200191610e0d565b820191906000526020600020905b815481529060010190602001808311610df057829003601f168201915b505050505081526020016004820154815260200160058201548152602001600682015481526020016007820160009054906101000a900460ff161515151581525050838381518110610e88577f4e487b7100000000000000000000000000000000000000000000000000000000600052603260045260246000fd5b60200260200101819052508180610e9e90613fe6565b9250505b8080610ead90613fe6565b915050610c8c565b50819250505090565b600160009054906101000a900473ffffffffffffffffffffffffffffffffffffffff1673ffffffffffffffffffffffffffffffffffffffff163373ffffffffffffffffffffffffffffffffffffffff1614610f4e576040517f08c379a0000000000000000000000000000000000000000000000000000000008152600401610f459061395e565b60405180910390fd5b600a82604051610f5e9190613781565b908152602001604051809103902060009054906101000a900460ff1615610fba576040517f08c379a0000000000000000000000000000000000000000000000000000000008152600401610fb190613a9e565b60405180910390fd5b6000600190505b6002548110156110825782604051602001610fdc9190613781565b60405160208183030381529060405280519060200120600760008381526020019081526020016000206002016040516020016110189190613798565b60405160208183030381529060405280519060200120141561106f576040517f08c379a000000000000000000000000000000000000000000000000000000000815260040161106690613afe565b60405180910390fd5b808061107a90613fe6565b915050610fc1565b50604051806080016040528060025481526020013373ffffffffffffffffffffffffffffffffffffffff168152602001838152602001828152506007600060025481526020019081526020016000206000820151816000015560208201518160010160006101000a81548173ffffffffffffffffffffffffffffffffffffffff021916908373ffffffffffffffffffffffffffffffffffffffff160217905550604082015181600201908051906020019061113e929190612978565b5060608201518160030155905050600254600860003373ffffffffffffffffffffffffffffffffffffffff1673ffffffffffffffffffffffffffffffffffffffff16815260200190815260200160002081905550600260008154809291906111a590613fe6565b91905055505050565b6111b6612a45565b6009826040516111c69190613781565b908152602001604051809103902060030160009054906101000a900460ff1615611225576040517f08c379a000000000000000000000000000000000000000000000000000000000815260040161121c90613a1e565b60405180910390fd5b6009826040516112359190613781565b90815260200160405180910390206040518060800160405290816000820160009054906101000a900473ffffffffffffffffffffffffffffffffffffffff1673ffffffffffffffffffffffffffffffffffffffff1673ffffffffffffffffffffffffffffffffffffffff1681526020016001820180546112b490613fb4565b80601f01602080910402602001604051908101604052809291908181526020018280546112e090613fb4565b801561132d5780601f106113025761010080835404028352916020019161132d565b820191906000526020600020905b81548152906001019060200180831161131057829003601f168201915b50505050508152602001600282015481526020016003820160009054906101000a900460ff1615151515815250509050919050565b6060600080600860003373ffffffffffffffffffffffffffffffffffffffff1673ffffffffffffffffffffffffffffffffffffffff1681526020019081526020016000205490506000600190505b60045481101561143357600060066000838152602001908152602001600020600201541415801561140c575081600560006006600085815260200190815260200160002060020154815260200190815260200160002060010154145b1561142057828061141c90613fe6565b9350505b808061142b90613fe6565b9150506113b0565b5060008267ffffffffffffffff811115611476577f4e487b7100000000000000000000000000000000000000000000000000000000600052604160045260246000fd5b6040519080825280602002602001820160405280156114af57816020015b61149c612a85565b8152602001906001900390816114945790505b509050600080600190505b600454811015611664576000600660008381526020019081526020016000206002015414158015611516575083600560006006600085815260200190815260200160002060020154815260200190815260200160002060010154145b1561165157600660008281526020019081526020016000206040518060e0016040529081600082015481526020016001820160009054906101000a900473ffffffffffffffffffffffffffffffffffffffff1673ffffffffffffffffffffffffffffffffffffffff1673ffffffffffffffffffffffffffffffffffffffff168152602001600282015481526020016003820160009054906101000a900460ff161515151581526020016003820160019054906101000a900460ff161515151581526020016003820160029054906101000a900460ff16151515158152602001600482015481525050838381518110611637577f4e487b7100000000000000000000000000000000000000000000000000000000600052603260045260246000fd5b6020026020010181905250818061164d90613fe6565b9250505b808061165c90613fe6565b9150506114ba565b508194505050505090565b600160009054906101000a900473ffffffffffffffffffffffffffffffffffffffff1673ffffffffffffffffffffffffffffffffffffffff163373ffffffffffffffffffffffffffffffffffffffff16146116ff576040517f08c379a00000000000000000000000000000000000000000000000000000000081526004016116f69061395e565b60405180910390fd5b600060076000838152602001908152602001600020600201805461172290613fb4565b80601f016020809104026020016040519081016040528092919081815260200182805461174e90613fb4565b801561179b5780601f106117705761010080835404028352916020019161179b565b820191906000526020600020905b81548152906001019060200180831161177e57829003601f168201915b5050505050905060006007600084815260200190815260200160002060010160009054906101000a900473ffffffffffffffffffffffffffffffffffffffff1690506001600a836040516117ef9190613781565b908152602001604051809103902060006101000a81548160ff021916908315150217905550600760008481526020019081526020016000206000808201600090556001820160006101000a81549073ffffffffffffffffffffffffffffffffffffffff02191690556002820160006118679190612ade565b60038201600090555050505050565b6000600860003373ffffffffffffffffffffffffffffffffffffffff1673ffffffffffffffffffffffffffffffffffffffff168152602001908152602001600020549050600073ffffffffffffffffffffffffffffffffffffffff166007600083815260200190815260200160002060010160009054906101000a900473ffffffffffffffffffffffffffffffffffffffff1673ffffffffffffffffffffffffffffffffffffffff161415611960576040517f08c379a00000000000000000000000000000000000000000000000000000000081526004016119579061397e565b60405180910390fd5b806005600085815260200190815260200160002060010154146119b8576040517f08c379a00000000000000000000000000000000000000000000000000000000081526004016119af906139de565b60405180910390fd5b8115156005600085815260200190815260200160002060070160009054906101000a900460ff1615151415611a22576040517f08c379a0000000000000000000000000000000000000000000000000000000008152600401611a19906138de565b60405180910390fd5b816005600085815260200190815260200160002060070160006101000a81548160ff021916908315150217905550505050565b60006006600083815260200190815260200160002090503373ffffffffffffffffffffffffffffffffffffffff168160010160009054906101000a900473ffffffffffffffffffffffffffffffffffffffff1673ffffffffffffffffffffffffffffffffffffffff1614611afe576040517f08c379a0000000000000000000000000000000000000000000000000000000008152600401611af5906139de565b60405180910390fd5b8060030160019054906101000a900460ff1615611b50576040517f08c379a0000000000000000000000000000000000000000000000000000000008152600401611b479061389e565b60405180910390fd5b8060030160009054906101000a900460ff16611ba1576040517f08c379a0000000000000000000000000000000000000000000000000000000008152600401611b98906139fe565b60405180910390fd5b60008160030160016101000a81548160ff0219169083151502179055505050565b60066020528060005260406000206000915090508060000154908060010160009054906101000a900473ffffffffffffffffffffffffffffffffffffffff16908060020154908060030160009054906101000a900460ff16908060030160019054906101000a900460ff16908060030160029054906101000a900460ff16908060040154905087565b60086020528060005260406000206000915090505481565b6009818051602081018201805184825260208301602085012081835280955050505050506000915090508060000160009054906101000a900473ffffffffffffffffffffffffffffffffffffffff1690806001018054611cc290613fb4565b80601f0160208091040260200160405190810160405280929190818152602001828054611cee90613fb4565b8015611d3b5780601f10611d1057610100808354040283529160200191611d3b565b820191906000526020600020905b815481529060010190602001808311611d1e57829003601f168201915b5050505050908060020154908060030160009054906101000a900460ff16905084565b600982604051611d6e9190613781565b908152602001604051809103902060030160009054906101000a900460ff16611dcc576040517f08c379a0000000000000000000000000000000000000000000000000000000008152600401611dc39061391e565b60405180910390fd5b6005600082815260200190815260200160002060070160009054906101000a900460ff16611e2f576040517f08c379a0000000000000000000000000000000000000000000000000000000008152600401611e26906138fe565b60405180910390fd5b6040518060e0016040528060045481526020013373ffffffffffffffffffffffffffffffffffffffff16815260200182815260200160001515815260200160001515815260200160001515815260200160008152506006600060045481526020019081526020016000206000820151816000015560208201518160010160006101000a81548173ffffffffffffffffffffffffffffffffffffffff021916908373ffffffffffffffffffffffffffffffffffffffff1602179055506040820151816002015560608201518160030160006101000a81548160ff02191690831515021790555060808201518160030160016101000a81548160ff02191690831515021790555060a08201518160030160026101000a81548160ff02191690831515021790555060c082015181600401559050507fded47fe1c7f7878a21a47327b3f5172551c245be83ba771fe716cdbe1bf55c7a6004543383604051611f9693929190613bc7565b60405180910390a160046000815480929190611fb190613fe6565b91905055505050565b60006006600083815260200190815260200160002090503373ffffffffffffffffffffffffffffffffffffffff168160010160009054906101000a900473ffffffffffffffffffffffffffffffffffffffff1673ffffffffffffffffffffffffffffffffffffffff1614612063576040517f08c379a000000000000000000000000000000000000000000000000000000000815260040161205a906139de565b60405180910390fd5b8060030160009054906101000a900460ff166120b4576040517f08c379a00000000000000000000000000000000000000000000000000000000081526004016120ab906139fe565b60405180910390fd5b8060030160029054906101000a900460ff1615612106576040517f08c379a00000000000000000000000000000000000000000000000000000000081526004016120fd90613a3e565b60405180910390fd5b60018160030160026101000a81548160ff02191690831515021790555060018160030160016101000a81548160ff0219169083151502179055506000816004015411612187576040517f08c379a000000000000000000000000000000000000000000000000000000000815260040161217e90613ade565b60405180910390fd5b5050565b600a818051602081018201805184825260208301602085012081835280955050505050506000915054906101000a900460ff1681565b60025481565b60006006600083815260200190815260200160002090503373ffffffffffffffffffffffffffffffffffffffff16600760008360020154815260200190815260200160002060010160009054906101000a900473ffffffffffffffffffffffffffffffffffffffff1673ffffffffffffffffffffffffffffffffffffffff1614612286576040517f08c379a000000000000000000000000000000000000000000000000000000000815260040161227d90613abe565b60405180910390fd5b8060030160009054906101000a900460ff166122d7576040517f08c379a00000000000000000000000000000000000000000000000000000000081526004016122ce906138be565b60405180910390fd5b8060030160019054906101000a900460ff16612328576040517f08c379a000000000000000000000000000000000000000000000000000000000815260040161231f9061399e565b60405180910390fd5b8060030160029054906101000a900460ff161561237a576040517f08c379a000000000000000000000000000000000000000000000000000000000815260040161237190613a7e565b60405180910390fd5b60008160040154600560008460020154815260200190815260200160002060050154116123c1576005600083600201548152602001908152602001600020600501546123c7565b81600401545b90508160010160009054906101000a900473ffffffffffffffffffffffffffffffffffffffff1673ffffffffffffffffffffffffffffffffffffffff166108fc829081150290604051600060405180830381858888f19350505050158015612433573d6000803e3d6000fd5b5060018260030160026101000a81548160ff0219169083151502179055507fb74faa515c161a6aa3d68dd9ecf21d897dde4efbb1a2b72be2c86508f03417548382604051612482929190613c96565b60405180910390a1505050565b6000600860003373ffffffffffffffffffffffffffffffffffffffff1673ffffffffffffffffffffffffffffffffffffffff168152602001908152602001600020549050600073ffffffffffffffffffffffffffffffffffffffff166007600083815260200190815260200160002060010160009054906101000a900473ffffffffffffffffffffffffffffffffffffffff1673ffffffffffffffffffffffffffffffffffffffff161415612579576040517f08c379a00000000000000000000000000000000000000000000000000000000081526004016125709061397e565b60405180910390fd5b604051806101000160405280600354815260200182815260200187815260200186815260200185815260200184815260200183815260200160011515815250600560006003548152602001908152602001600020600082015181600001556020820151816001015560408201518160020190805190602001906125fd929190612978565b50606082015181600301908051906020019061261a929190612978565b506080820151816004015560a0820151816005015560c0820151816006015560e08201518160070160006101000a81548160ff0219169083151502179055509050507f5fac4c43830252b9984ca8bf915ae2a0774180c35c5472120325c1961e45b62b6003548260405161268f929190613c96565b60405180910390a1600360008154809291906126aa90613fe6565b9190505550505050505050565b60056020528060005260406000206000915090508060000154908060010154908060020180546126e690613fb4565b80601f016020809104026020016040519081016040528092919081815260200182805461271290613fb4565b801561275f5780601f106127345761010080835404028352916020019161275f565b820191906000526020600020905b81548152906001019060200180831161274257829003601f168201915b50505050509080600301805461277490613fb4565b80601f01602080910402602001604051908101604052809291908181526020018280546127a090613fb4565b80156127ed5780601f106127c2576101008083540402835291602001916127ed565b820191906000526020600020905b8154815290600101906020018083116127d057829003601f168201915b5050505050908060040154908060050154908060060154908060070160009054906101000a900460ff16905088565b600160009054906101000a900473ffffffffffffffffffffffffffffffffffffffff1681565b600160009054906101000a900473ffffffffffffffffffffffffffffffffffffffff1673ffffffffffffffffffffffffffffffffffffffff163373ffffffffffffffffffffffffffffffffffffffff16146128d2576040517f08c379a00000000000000000000000000000000000000000000000000000000081526004016128c99061395e565b60405180910390fd5b600a816040516128e29190613781565b908152602001604051809103902060009054906101000a900460ff161561293e576040517f08c379a0000000000000000000000000000000000000000000000000000000008152600401612935906139be565b60405180910390fd5b6000600a826040516129509190613781565b908152602001604051809103902060006101000a81548160ff02191690831515021790555050565b82805461298490613fb4565b90600052602060002090601f0160209004810192826129a657600085556129ed565b82601f106129bf57805160ff19168380011785556129ed565b828001600101855582156129ed579182015b828111156129ec5782518255916020019190600101906129d1565b5b5090506129fa9190612b1e565b5090565b604051806101000160405280600081526020016000815260200160608152602001606081526020016000815260200160008152602001600081526020016000151581525090565b6040518060800160405280600073ffffffffffffffffffffffffffffffffffffffff16815260200160608152602001600081526020016000151581525090565b6040518060e0016040528060008152602001600073ffffffffffffffffffffffffffffffffffffffff16815260200160008152602001600015158152602001600015158152602001600015158152602001600081525090565b508054612aea90613fb4565b6000825580601f10612afc5750612b1b565b601f016020900490600052602060002090810190612b1a9190612b1e565b5b50565b5b80821115612b37576000816000905550600101612b1f565b5090565b6000612b4e612b4984613d7c565b613d4b565b905082815260208101848484011115612b6657600080fd5b612b71848285613f72565b509392505050565b600081359050612b88816140fc565b92915050565b600081359050612b9d81614113565b92915050565b600082601f830112612bb457600080fd5b8135612bc4848260208601612b3b565b91505092915050565b600081359050612bdc8161412a565b92915050565b600060208284031215612bf457600080fd5b6000612c0284828501612b79565b91505092915050565b600060208284031215612c1d57600080fd5b600082013567ffffffffffffffff811115612c3757600080fd5b612c4384828501612ba3565b91505092915050565b600080600080600060a08688031215612c6457600080fd5b600086013567ffffffffffffffff811115612c7e57600080fd5b612c8a88828901612ba3565b955050602086013567ffffffffffffffff811115612ca757600080fd5b612cb388828901612ba3565b9450506040612cc488828901612bcd565b9350506060612cd588828901612bcd565b9250506080612ce688828901612bcd565b9150509295509295909350565b60008060408385031215612d0657600080fd5b600083013567ffffffffffffffff811115612d2057600080fd5b612d2c85828601612ba3565b9250506020612d3d85828601612bcd565b9150509250929050565b600060208284031215612d5957600080fd5b6000612d6784828501612bcd565b91505092915050565b60008060408385031215612d8357600080fd5b6000612d9185828601612bcd565b9250506020612da285828601612b8e565b9150509250929050565b6000612db8838361361e565b905092915050565b6000612dcc83836136d5565b60e08301905092915050565b612de181613f2a565b82525050565b612df081613f2a565b82525050565b6000612e0182613de1565b612e0b8185613e1c565b935083602082028501612e1d85613dac565b8060005b85811015612e595784840389528151612e3a8582612dac565b9450612e4583613e02565b925060208a01995050600181019050612e21565b50829750879550505050505092915050565b6000612e7682613dec565b612e808185613e2d565b9350612e8b83613dbc565b8060005b83811015612ebc578151612ea38882612dc0565b9750612eae83613e0f565b925050600181019050612e8f565b5085935050505092915050565b612ed281613f3c565b82525050565b612ee181613f3c565b82525050565b6000612ef282613df7565b612efc8185613e3e565b9350612f0c818560208601613f81565b612f15816140eb565b840191505092915050565b6000612f2b82613df7565b612f358185613e4f565b9350612f45818560208601613f81565b612f4e816140eb565b840191505092915050565b6000612f6482613df7565b612f6e8185613e60565b9350612f7e818560208601613f81565b80840191505092915050565b60008154612f9781613fb4565b612fa18186613e60565b94506001821660008114612fbc5760018114612fcd57613000565b60ff19831686528186019350613000565b612fd685613dcc565b60005b83811015612ff857815481890152600182019150602081019050612fd9565b838801955050505b50505092915050565b6000613016601983613e4f565b91507f5265717565737420616c726561647920617070726f7665642e000000000000006000830152602082019050919050565b6000613056602083613e4f565b91507f52657175657374206e6f7420617070726f76656420627920636f6d70616e792e6000830152602082019050919050565b6000613096601483613e4f565b91507f4e6f206368616e676520696e207374617475732e0000000000000000000000006000830152602082019050919050565b60006130d6601783613e4f565b91507f496e76616c696420696e737572616e636520706c616e2e0000000000000000006000830152602082019050919050565b6000613116601883613e4f565b91507f437573746f6d6572206e6f7420726567697374657265642e00000000000000006000830152602082019050919050565b6000613156601983613e4f565b91507f496e636f7272656374207072656d69756d20616d6f756e742e000000000000006000830152602082019050919050565b6000613196600b83613e4f565b91507f4f6e6c792061646d696e2e0000000000000000000000000000000000000000006000830152602082019050919050565b60006131d6601983613e4f565b91507f4e6f742061207265676973746572656420636f6d70616e792e000000000000006000830152602082019050919050565b6000613216602183613e4f565b91507f52657175657374206e6f7420617070726f76656420627920637573746f6d657260008301527f2e000000000000000000000000000000000000000000000000000000000000006020830152604082019050919050565b600061327c601683613e4f565b91507f436f6d70616e79206973206e6f742062616e6e65642e000000000000000000006000830152602082019050919050565b60006132bc600f83613e4f565b91507f4e6f7420617574686f72697a65642e00000000000000000000000000000000006000830152602082019050919050565b60006132fc601883613e4f565b91507f52657175657374206973206e6f7420617070726f7665642e00000000000000006000830152602082019050919050565b600061333c601c83613e4f565b91507f437573746f6d657220616c726561647920726567697374657265642e000000006000830152602082019050919050565b600061337c601883613e4f565b91507f5265717565737420616c726561647920636c61696d65642e00000000000000006000830152602082019050919050565b60006133bc600d83613e4f565b91507f496e76616c696420706c616e2e000000000000000000000000000000000000006000830152602082019050919050565b60006133fc601683613e4f565b91507f436c61696d20616c726561647920736574746c65642e000000000000000000006000830152602082019050919050565b600061343c601783613e4f565b91507f436f6d70616e79206e616d652069732062616e6e65642e0000000000000000006000830152602082019050919050565b600061347c602383613e4f565b91507f4f6e6c792074686520636f6d70616e792063616e20736574746c6520636c616960008301527f6d732e00000000000000000000000000000000000000000000000000000000006020830152604082019050919050565b60006134e2601583613e4f565b91507f496e76616c696420636c61696d20616d6f756e742e00000000000000000000006000830152602082019050919050565b6000613522602083613e4f565b91507f436f6d70616e79206e616d6520616c726561647920726567697374657265642e6000830152602082019050919050565b6000613562602783613e4f565b91507f4f6e6c792074686520636f6d70616e792063616e206576616c7561746520726560008301527f7175657374732e000000000000000000000000000000000000000000000000006020830152604082019050919050565b60006080830160008301516135d36000860182612dd8565b50602083015184820360208601526135eb8282612ee7565b91505060408301516136006040860182613763565b5060608301516136136060860182612ec9565b508091505092915050565b6000610100830160008301516136376000860182613763565b50602083015161364a6020860182613763565b50604083015184820360408601526136628282612ee7565b9150506060830151848203606086015261367c8282612ee7565b91505060808301516136916080860182613763565b5060a08301516136a460a0860182613763565b5060c08301516136b760c0860182613763565b5060e08301516136ca60e0860182612ec9565b508091505092915050565b60e0820160008201516136eb6000850182613763565b5060208201516136fe6020850182612dd8565b5060408201516137116040850182613763565b5060608201516137246060850182612ec9565b5060808201516137376080850182612ec9565b5060a082015161374a60a0850182612ec9565b5060c082015161375d60c0850182613763565b50505050565b61376c81613f68565b82525050565b61377b81613f68565b82525050565b600061378d8284612f59565b915081905092915050565b60006137a48284612f8a565b915081905092915050565b60006020820190506137c46000830184612de7565b92915050565b60006080820190506137df6000830187612de7565b81810360208301526137f18186612f20565b90506138006040830185613772565b61380d6060830184612ed8565b95945050505050565b600060408201905061382b6000830185612de7565b6138386020830184613772565b9392505050565b600060208201905081810360008301526138598184612df6565b905092915050565b6000602082019050818103600083015261387b8184612e6b565b905092915050565b60006020820190506138986000830184612ed8565b92915050565b600060208201905081810360008301526138b781613009565b9050919050565b600060208201905081810360008301526138d781613049565b9050919050565b600060208201905081810360008301526138f781613089565b9050919050565b60006020820190508181036000830152613917816130c9565b9050919050565b6000602082019050818103600083015261393781613109565b9050919050565b6000602082019050818103600083015261395781613149565b9050919050565b6000602082019050818103600083015261397781613189565b9050919050565b60006020820190508181036000830152613997816131c9565b9050919050565b600060208201905081810360008301526139b781613209565b9050919050565b600060208201905081810360008301526139d78161326f565b9050919050565b600060208201905081810360008301526139f7816132af565b9050919050565b60006020820190508181036000830152613a17816132ef565b9050919050565b60006020820190508181036000830152613a378161332f565b9050919050565b60006020820190508181036000830152613a578161336f565b9050919050565b60006020820190508181036000830152613a77816133af565b9050919050565b60006020820190508181036000830152613a97816133ef565b9050919050565b60006020820190508181036000830152613ab78161342f565b9050919050565b60006020820190508181036000830152613ad78161346f565b9050919050565b60006020820190508181036000830152613af7816134d5565b9050919050565b60006020820190508181036000830152613b1781613515565b9050919050565b60006020820190508181036000830152613b3781613555565b9050919050565b60006020820190508181036000830152613b5881846135bb565b905092915050565b6000602082019050613b756000830184613772565b92915050565b6000608082019050613b906000830187613772565b613b9d6020830186612de7565b8181036040830152613baf8185612f20565b9050613bbe6060830184613772565b95945050505050565b6000606082019050613bdc6000830186613772565b613be96020830185612de7565b613bf66040830184613772565b949350505050565b600060e082019050613c13600083018a613772565b613c206020830189612de7565b613c2d6040830188613772565b613c3a6060830187612ed8565b613c476080830186612ed8565b613c5460a0830185612ed8565b613c6160c0830184613772565b98975050505050505050565b6000604082019050613c826000830185613772565b613c8f6020830184612ed8565b9392505050565b6000604082019050613cab6000830185613772565b613cb86020830184613772565b9392505050565b600061010082019050613cd5600083018b613772565b613ce2602083018a613772565b8181036040830152613cf48189612f20565b90508181036060830152613d088188612f20565b9050613d176080830187613772565b613d2460a0830186613772565b613d3160c0830185613772565b613d3e60e0830184612ed8565b9998505050505050505050565b6000604051905081810181811067ffffffffffffffff82111715613d7257613d716140bc565b5b8060405250919050565b600067ffffffffffffffff821115613d9757613d966140bc565b5b601f19601f8301169050602081019050919050565b6000819050602082019050919050565b6000819050602082019050919050565b60008190508160005260206000209050919050565b600081519050919050565b600081519050919050565b600081519050919050565b6000602082019050919050565b6000602082019050919050565b600082825260208201905092915050565b600082825260208201905092915050565b600082825260208201905092915050565b600082825260208201905092915050565b600081905092915050565b6000613e7682613f68565b9150613e8183613f68565b925082613e9157613e9061405e565b5b828204905092915050565b6000613ea782613f68565b9150613eb283613f68565b9250817fffffffffffffffffffffffffffffffffffffffffffffffffffffffffffffffff0483118215151615613eeb57613eea61402f565b5b828202905092915050565b6000613f0182613f68565b9150613f0c83613f68565b925082821015613f1f57613f1e61402f565b5b828203905092915050565b6000613f3582613f48565b9050919050565b60008115159050919050565b600073ffffffffffffffffffffffffffffffffffffffff82169050919050565b6000819050919050565b82818337600083830152505050565b60005b83811015613f9f578082015181840152602081019050613f84565b83811115613fae576000848401525b50505050565b60006002820490506001821680613fcc57607f821691505b60208210811415613fe057613fdf61408d565b5b50919050565b6000613ff182613f68565b91507fffffffffffffffffffffffffffffffffffffffffffffffffffffffffffffffff8214156140245761402361402f565b5b600182019050919050565b7f4e487b7100000000000000000000000000000000000000000000000000000000600052601160045260246000fd5b7f4e487b7100000000000000000000000000000000000000000000000000000000600052601260045260246000fd5b7f4e487b7100000000000000000000000000000000000000000000000000000000600052602260045260246000fd5b7f4e487b7100000000000000000000000000000000000000000000000000000000600052604160045260246000fd5b6000601f19601f8301169050919050565b61410581613f2a565b811461411057600080fd5b50565b61411c81613f3c565b811461412757600080fd5b50565b61413381613f68565b811461413e57600080fd5b5056fea26469706673582212206d12011c151ffdd0d6e8439c4319fc11490a8336a6bd9e80206b8033409d468564736f6c63430008000033",
  "linkReferences": {},
  "deployedLinkReferences": {}
}