{
  "_format": "hh-sol-artifact-1",
  "contractName": "DecentralizedInsurance",
  "sourceName": "contracts/functions.sol",
  "abi": [
    {
      "inputs": [],
      "stateMutability": "nonpayable",
      "type": "constructor"
    },
    {
      "anonymous": false,
      "inputs": [
        {
          "indexed": false,
          "internalType": "uint256",
          "name": "requestId",
          "type": "uint256"
        },
        {
          "indexed": false,
          "internalType": "uint256",
          "name": "claimAmount",
          "type": "uint256"
        }
      ],
      "name": "ClaimSettled",
      "type": "event"
    },
    {
      "anonymous": false,
      "inputs": [
        {
          "indexed": false,
          "internalType": "address",
          "name": "customer",
          "type": "address"
        },
        {
          "indexed": false,
          "internalType": "uint256",
          "name": "rate",
          "type": "uint256"
        }
      ],
      "name": "CustomerRegistered",
      "type": "event"
    },
    {
      "anonymous": false,
      "inputs": [
        {
          "indexed": false,
          "internalType": "uint256",
          "name": "planId",
          "type": "uint256"
        },
        {
          "indexed": false,
          "internalType": "uint256",
          "name": "companyId",
          "type": "uint256"
        }
      ],
      "name": "PlanCreated",
      "type": "event"
    },
    {
      "anonymous": false,
      "inputs": [
        {
          "indexed": false,
          "internalType": "uint256",
          "name": "planId",
          "type": "uint256"
        },
        {
          "indexed": false,
          "internalType": "address",
          "name": "customer",
          "type": "address"
        },
        {
          "indexed": false,
          "internalType": "uint256",
          "name": "amount",
          "type": "uint256"
        }
      ],
      "name": "PremiumPaid",
      "type": "event"
    },
    {
      "anonymous": false,
      "inputs": [
        {
          "indexed": false,
          "internalType": "uint256",
          "name": "requestId",
          "type": "uint256"
        },
        {
          "indexed": false,
          "internalType": "bool",
          "name": "isApproved",
          "type": "bool"
        }
      ],
      "name": "RequestResponded",
      "type": "event"
    },
    {
      "anonymous": false,
      "inputs": [
        {
          "indexed": false,
          "internalType": "uint256",
          "name": "requestId",
          "type": "uint256"
        },
        {
          "indexed": false,
          "internalType": "address",
          "name": "customer",
          "type": "address"
        },
        {
          "indexed": false,
          "internalType": "uint256",
          "name": "planId",
          "type": "uint256"
        }
      ],
      "name": "RequestSubmitted",
      "type": "event"
    },
    {
      "inputs": [
        {
          "internalType": "uint256",
          "name": "_requestId",
          "type": "uint256"
        },
        {
          "internalType": "bool",
          "name": "_approve",
          "type": "bool"
        },
        {
          "internalType": "uint256",
          "name": "_counterClaimAmount",
          "type": "uint256"
        }
      ],
      "name": "Request_Negotiation",
      "outputs": [],
      "stateMutability": "nonpayable",
      "type": "function"
    },
    {
      "inputs": [
        {
          "internalType": "uint256",
          "name": "_requestId",
          "type": "uint256"
        }
      ],
      "name": "acceptOffer",
      "outputs": [],
      "stateMutability": "nonpayable",
      "type": "function"
    },
    {
      "inputs": [],
      "name": "admin",
      "outputs": [
        {
          "internalType": "address",
          "name": "",
          "type": "address"
        }
      ],
      "stateMutability": "view",
      "type": "function"
    },
    {
      "inputs": [
        {
          "internalType": "uint256",
          "name": "_companyId",
          "type": "uint256"
        }
      ],
      "name": "banCompany",
      "outputs": [],
      "stateMutability": "nonpayable",
      "type": "function"
    },
    {
      "inputs": [
        {
          "internalType": "bytes32",
          "name": "",
          "type": "bytes32"
        }
      ],
      "name": "bannedCompanyNames",
      "outputs": [
        {
          "internalType": "bool",
          "name": "",
          "type": "bool"
        }
      ],
      "stateMutability": "view",
      "type": "function"
    },
    {
      "inputs": [
        {
          "internalType": "uint256",
          "name": "_planId",
          "type": "uint256"
        },
        {
          "internalType": "bool",
          "name": "_status",
          "type": "bool"
        }
      ],
      "name": "changePlanStatus",
      "outputs": [],
      "stateMutability": "nonpayable",
      "type": "function"
    },
    {
      "inputs": [
        {
          "internalType": "uint256",
          "name": "",
          "type": "uint256"
        }
      ],
      "name": "companies",
      "outputs": [
        {
          "internalType": "uint256",
          "name": "id",
          "type": "uint256"
        },
        {
          "internalType": "address",
          "name": "addr",
          "type": "address"
        },
        {
          "internalType": "string",
          "name": "name",
          "type": "string"
        },
        {
          "internalType": "uint256",
          "name": "customer_rating",
          "type": "uint256"
        }
      ],
      "stateMutability": "view",
      "type": "function"
    },
    {
      "inputs": [
        {
          "internalType": "address",
          "name": "",
          "type": "address"
        }
      ],
      "name": "companyIds",
      "outputs": [
        {
          "internalType": "uint256",
          "name": "",
          "type": "uint256"
        }
      ],
      "stateMutability": "view",
      "type": "function"
    },
    {
      "inputs": [
        {
          "internalType": "string",
          "name": "_name",
          "type": "string"
        },
        {
          "internalType": "string",
          "name": "_description",
          "type": "string"
        },
        {
          "internalType": "uint256",
          "name": "_premium",
          "type": "uint256"
        },
        {
          "internalType": "uint256",
          "name": "_coverageAmount",
          "type": "uint256"
        },
        {
          "internalType": "uint256",
          "name": "_duration",
          "type": "uint256"
        }
      ],
      "name": "createPlan",
      "outputs": [],
      "stateMutability": "nonpayable",
      "type": "function"
    },
    {
      "inputs": [
        {
          "internalType": "address",
          "name": "",
          "type": "address"
        }
      ],
      "name": "customers",
      "outputs": [
        {
          "internalType": "address",
          "name": "addr",
          "type": "address"
        },
        {
          "internalType": "uint256",
          "name": "rate",
          "type": "uint256"
        },
        {
          "internalType": "bool",
          "name": "isRegistered",
          "type": "bool"
        }
      ],
      "stateMutability": "view",
      "type": "function"
    },
    {
      "inputs": [
        {
          "internalType": "uint256",
          "name": "_requestId",
          "type": "uint256"
        }
      ],
      "name": "denyOffer",
      "outputs": [],
      "stateMutability": "nonpayable",
      "type": "function"
    },
    {
      "inputs": [
        {
          "internalType": "uint256",
          "name": "",
          "type": "uint256"
        }
      ],
      "name": "insurancePlans",
      "outputs": [
        {
          "internalType": "uint256",
          "name": "id",
          "type": "uint256"
        },
        {
          "internalType": "uint256",
          "name": "companyId",
          "type": "uint256"
        },
        {
          "internalType": "string",
          "name": "name",
          "type": "string"
        },
        {
          "internalType": "string",
          "name": "description",
          "type": "string"
        },
        {
          "internalType": "uint256",
          "name": "premium",
          "type": "uint256"
        },
        {
          "internalType": "uint256",
          "name": "coverageAmount",
          "type": "uint256"
        },
        {
          "internalType": "uint256",
          "name": "duration",
          "type": "uint256"
        },
        {
          "internalType": "bool",
          "name": "isActive",
          "type": "bool"
        }
      ],
      "stateMutability": "view",
      "type": "function"
    },
    {
      "inputs": [],
      "name": "nextCompanyId",
      "outputs": [
        {
          "internalType": "uint256",
          "name": "",
          "type": "uint256"
        }
      ],
      "stateMutability": "view",
      "type": "function"
    },
    {
      "inputs": [
        {
          "internalType": "uint256",
          "name": "_planId",
          "type": "uint256"
        }
      ],
      "name": "payPremium",
      "outputs": [],
      "stateMutability": "payable",
      "type": "function"
    },
    {
      "inputs": [
        {
          "internalType": "string",
          "name": "_name",
          "type": "string"
        },
        {
          "internalType": "uint256",
          "name": "_rate",
          "type": "uint256"
        }
      ],
      "name": "registerCompany",
      "outputs": [],
      "stateMutability": "nonpayable",
      "type": "function"
    },
    {
      "inputs": [
        {
          "internalType": "uint256",
          "name": "_rate",
          "type": "uint256"
        }
      ],
      "name": "registerCustomer",
      "outputs": [],
      "stateMutability": "nonpayable",
      "type": "function"
    },
    {
      "inputs": [
        {
          "internalType": "uint256",
          "name": "",
          "type": "uint256"
        }
      ],
      "name": "requests",
      "outputs": [
        {
          "internalType": "uint256",
          "name": "id",
          "type": "uint256"
        },
        {
          "internalType": "address",
          "name": "customer",
          "type": "address"
        },
        {
          "internalType": "uint256",
          "name": "planId",
          "type": "uint256"
        },
        {
          "internalType": "bool",
          "name": "isApproved",
          "type": "bool"
        },
        {
          "internalType": "bool",
          "name": "isClaimed",
          "type": "bool"
        },
        {
          "internalType": "uint256",
          "name": "claimAmount",
          "type": "uint256"
        }
      ],
      "stateMutability": "view",
      "type": "function"
    },
    {
      "inputs": [
        {
          "internalType": "uint256",
          "name": "_fee",
          "type": "uint256"
        }
      ],
      "name": "setPlatformFee",
      "outputs": [],
      "stateMutability": "nonpayable",
      "type": "function"
    },
    {
      "inputs": [
        {
          "internalType": "uint256",
          "name": "_requestId",
          "type": "uint256"
        }
      ],
      "name": "settleClaim",
      "outputs": [],
      "stateMutability": "nonpayable",
      "type": "function"
    },
    {
      "inputs": [
        {
          "internalType": "uint256",
          "name": "_planId",
          "type": "uint256"
        }
      ],
      "name": "submitRequest",
      "outputs": [],
      "stateMutability": "nonpayable",
      "type": "function"
    },
    {
      "inputs": [
        {
          "internalType": "string",
          "name": "_name",
          "type": "string"
        }
      ],
      "name": "unbanCompany",
      "outputs": [],
      "stateMutability": "nonpayable",
      "type": "function"
    },
    {
      "inputs": [],
      "name": "viewPlans",
      "outputs": [
        {
          "components": [
            {
              "internalType": "uint256",
              "name": "id",
              "type": "uint256"
            },
            {
              "internalType": "uint256",
              "name": "companyId",
              "type": "uint256"
            },
            {
              "internalType": "string",
              "name": "name",
              "type": "string"
            },
            {
              "internalType": "string",
              "name": "description",
              "type": "string"
            },
            {
              "internalType": "uint256",
              "name": "premium",
              "type": "uint256"
            },
            {
              "internalType": "uint256",
              "name": "coverageAmount",
              "type": "uint256"
            },
            {
              "internalType": "uint256",
              "name": "duration",
              "type": "uint256"
            },
            {
              "internalType": "bool",
              "name": "isActive",
              "type": "bool"
            }
          ],
          "internalType": "struct DecentralizedInsurance.InsurancePlan[]",
          "name": "",
          "type": "tuple[]"
        }
      ],
      "stateMutability": "view",
      "type": "function"
    },
    {
      "inputs": [],
      "name": "viewRequests",
      "outputs": [
        {
          "components": [
            {
              "internalType": "uint256",
              "name": "id",
              "type": "uint256"
            },
            {
              "internalType": "address",
              "name": "customer",
              "type": "address"
            },
            {
              "internalType": "uint256",
              "name": "planId",
              "type": "uint256"
            },
            {
              "internalType": "bool",
              "name": "isApproved",
              "type": "bool"
            },
            {
              "internalType": "bool",
              "name": "isClaimed",
              "type": "bool"
            },
            {
              "internalType": "uint256",
              "name": "claimAmount",
              "type": "uint256"
            }
          ],
          "internalType": "struct DecentralizedInsurance.Request[]",
          "name": "",
          "type": "tuple[]"
        }
      ],
      "stateMutability": "view",
      "type": "function"
    }
  ],
  "bytecode": "0x608060405260056000556001600355600160045534801561001f57600080fd5b5033600160006101000a81548173ffffffffffffffffffffffffffffffffffffffff021916908373ffffffffffffffffffffffffffffffffffffffff1602179055506001600281905550613ede806100786000396000f3fe6080604052600436106101405760003560e01c80635d8e6397116100b6578063d8d3c8291161006f578063d8d3c82914610463578063e406f1d81461048e578063e5584ed7146104b7578063ec1b7066146104e0578063f851a44014610524578063ffc8cf8f1461054f57610140565b80635d8e6397146103405780637746dfa91461036957806381d12c58146103925780639f242f22146103d4578063c815729d14610411578063d732775f1461043a57610140565b8063336989ae11610108578063336989ae1461023d5780634364b26e1461027c57806348e9807f146102985780635170c1aa146102c3578063521e686d146102ec5780635bffa51d1461031757610140565b806312e8e2c3146101455780631cdd16531461016e5780632813d19d146101975780633134e4c4146101d75780633353ee2114610200575b600080fd5b34801561015157600080fd5b5061016c60048036038101906101679190612b7f565b610578565b005b34801561017a57600080fd5b5061019560048036038101906101909190612b7f565b610612565b005b3480156101a357600080fd5b506101be60048036038101906101b99190612b7f565b610865565b6040516101ce94939291906138cf565b60405180910390f35b3480156101e357600080fd5b506101fe60048036038101906101f99190612be4565b61093d565b005b34801561020c57600080fd5b5061022760048036038101906102229190612a1a565b610a77565b6040516102349190613619565b60405180910390f35b34801561024957600080fd5b50610264600480360381019061025f91906129f1565b610a97565b6040516102739392919061359e565b60405180910390f35b61029660048036038101906102919190612b7f565b610aee565b005b3480156102a457600080fd5b506102ad610cef565b6040516102ba91906135d5565b60405180910390f35b3480156102cf57600080fd5b506102ea60048036038101906102e59190612b2b565b610fb7565b005b3480156102f857600080fd5b506103016112c2565b60405161030e91906135f7565b60405180910390f35b34801561032357600080fd5b5061033e60048036038101906103399190612b7f565b6115b4565b005b34801561034c57600080fd5b5061036760048036038101906103629190612ba8565b611890565b005b34801561037557600080fd5b50610390600480360381019061038b9190612b7f565b611a6f565b005b34801561039e57600080fd5b506103b960048036038101906103b49190612b7f565b611bdc565b6040516103cb96959493929190613952565b60405180910390f35b3480156103e057600080fd5b506103fb60048036038101906103f691906129f1565b611c52565b60405161040891906138b4565b60405180910390f35b34801561041d57600080fd5b5061043860048036038101906104339190612b7f565b611c6a565b005b34801561044657600080fd5b50610461600480360381019061045c9190612b7f565b611e8d565b005b34801561046f57600080fd5b50610478612040565b60405161048591906138b4565b60405180910390f35b34801561049a57600080fd5b506104b560048036038101906104b09190612b7f565b612046565b005b3480156104c357600080fd5b506104de60048036038101906104d99190612a84565b6122bd565b005b3480156104ec57600080fd5b5061050760048036038101906105029190612b7f565b6124e5565b60405161051b989796959493929190613a05565b60405180910390f35b34801561053057600080fd5b5061053961264a565b604051610546919061355a565b60405180910390f35b34801561055b57600080fd5b5061057660048036038101906105719190612a43565b612670565b005b600160009054906101000a900473ffffffffffffffffffffffffffffffffffffffff1673ffffffffffffffffffffffffffffffffffffffff163373ffffffffffffffffffffffffffffffffffffffff1614610608576040517f08c379a00000000000000000000000000000000000000000000000000000000081526004016105ff906136d4565b60405180910390fd5b8060008190555050565b6005600082815260200190815260200160002060070160009054906101000a900460ff16610675576040517f08c379a000000000000000000000000000000000000000000000000000000000815260040161066c90613674565b60405180910390fd5b600960003373ffffffffffffffffffffffffffffffffffffffff1673ffffffffffffffffffffffffffffffffffffffff16815260200190815260200160002060020160009054906101000a900460ff16610704576040517f08c379a00000000000000000000000000000000000000000000000000000000081526004016106fb90613694565b60405180910390fd5b6040518060c0016040528060045481526020013373ffffffffffffffffffffffffffffffffffffffff16815260200182815260200160001515815260200160001515815260200160008152506006600060045481526020019081526020016000206000820151816000015560208201518160010160006101000a81548173ffffffffffffffffffffffffffffffffffffffff021916908373ffffffffffffffffffffffffffffffffffffffff1602179055506040820151816002015560608201518160030160006101000a81548160ff02191690831515021790555060808201518160030160016101000a81548160ff02191690831515021790555060a082015181600401559050507fded47fe1c7f7878a21a47327b3f5172551c245be83ba771fe716cdbe1bf55c7a60045433836040516108429392919061391b565b60405180910390a16004600081548092919061085d90613d36565b919050555050565b60076020528060005260406000206000915090508060000154908060010160009054906101000a900473ffffffffffffffffffffffffffffffffffffffff16908060020180546108b490613d04565b80601f01602080910402602001604051908101604052809291908181526020018280546108e090613d04565b801561092d5780601f106109025761010080835404028352916020019161092d565b820191906000526020600020905b81548152906001019060200180831161091057829003601f168201915b5050505050908060030154905084565b60006006600085815260200190815260200160002090503373ffffffffffffffffffffffffffffffffffffffff16600760008360020154815260200190815260200160002060010160009054906101000a900473ffffffffffffffffffffffffffffffffffffffff1673ffffffffffffffffffffffffffffffffffffffff16146109fc576040517f08c379a00000000000000000000000000000000000000000000000000000000081526004016109f390613894565b60405180910390fd5b8215610a245760018160030160006101000a81548160ff021916908315150217905550610a38565b6000821115610a37578181600401819055505b5b7f5925f6070dba9d3c5caa9c961d661ea0c1772d7f95af99d278fe9e5b4e53caba8484604051610a699291906139b3565b60405180910390a150505050565b600a6020528060005260406000206000915054906101000a900460ff1681565b60096020528060005260406000206000915090508060000160009054906101000a900473ffffffffffffffffffffffffffffffffffffffff16908060010154908060020160009054906101000a900460ff16905083565b60006005600083815260200190815260200160002090508060070160009054906101000a900460ff16610b56576040517f08c379a0000000000000000000000000000000000000000000000000000000008152600401610b4d906137d4565b60405180910390fd5b80600401543414610b9c576040517f08c379a0000000000000000000000000000000000000000000000000000000008152600401610b93906136b4565b60405180910390fd5b6000606460005434610bae9190613be2565b610bb89190613bb1565b9050600760008360010154815260200190815260200160002060010160009054906101000a900473ffffffffffffffffffffffffffffffffffffffff1673ffffffffffffffffffffffffffffffffffffffff166108fc8234610c1a9190613c3c565b9081150290604051600060405180830381858888f19350505050158015610c45573d6000803e3d6000fd5b50600160009054906101000a900473ffffffffffffffffffffffffffffffffffffffff1673ffffffffffffffffffffffffffffffffffffffff166108fc829081150290604051600060405180830381858888f19350505050158015610cae573d6000803e3d6000fd5b507ffbf1458fbbddabb878de144276216e8ccda619cbac2d598e6ee37ff72173afb1833334604051610ce29392919061391b565b60405180910390a1505050565b606060006001600354610d029190613c3c565b67ffffffffffffffff811115610d41577f4e487b7100000000000000000000000000000000000000000000000000000000600052604160045260246000fd5b604051908082528060200260200182016040528015610d7a57816020015b610d676127bb565b815260200190600190039081610d5f5790505b509050600080600190505b600354811015610fae576005600082815260200190815260200160002060070160009054906101000a900460ff1615610f9b5760056000828152602001908152602001600020604051806101000160405290816000820154815260200160018201548152602001600282018054610dfb90613d04565b80601f0160208091040260200160405190810160405280929190818152602001828054610e2790613d04565b8015610e745780601f10610e4957610100808354040283529160200191610e74565b820191906000526020600020905b815481529060010190602001808311610e5757829003601f168201915b50505050508152602001600382018054610e8d90613d04565b80601f0160208091040260200160405190810160405280929190818152602001828054610eb990613d04565b8015610f065780601f10610edb57610100808354040283529160200191610f06565b820191906000526020600020905b815481529060010190602001808311610ee957829003601f168201915b505050505081526020016004820154815260200160058201548152602001600682015481526020016007820160009054906101000a900460ff161515151581525050838381518110610f81577f4e487b7100000000000000000000000000000000000000000000000000000000600052603260045260246000fd5b60200260200101819052508180610f9790613d36565b9250505b8080610fa690613d36565b915050610d85565b50819250505090565b600160009054906101000a900473ffffffffffffffffffffffffffffffffffffffff1673ffffffffffffffffffffffffffffffffffffffff163373ffffffffffffffffffffffffffffffffffffffff1614611047576040517f08c379a000000000000000000000000000000000000000000000000000000000815260040161103e906136d4565b60405180910390fd5b600a60008360405160200161105c919061352c565b60405160208183030381529060405280519060200120815260200190815260200160002060009054906101000a900460ff16156110ce576040517f08c379a00000000000000000000000000000000000000000000000000000000081526004016110c590613814565b60405180910390fd5b6000600190505b60025481101561119657826040516020016110f0919061352c565b604051602081830303815290604052805190602001206007600083815260200190815260200160002060020160405160200161112c9190613543565b604051602081830303815290604052805190602001201415611183576040517f08c379a000000000000000000000000000000000000000000000000000000000815260040161117a90613874565b60405180910390fd5b808061118e90613d36565b9150506110d5565b50604051806080016040528060025481526020013373ffffffffffffffffffffffffffffffffffffffff168152602001838152602001828152506007600060025481526020019081526020016000206000820151816000015560208201518160010160006101000a81548173ffffffffffffffffffffffffffffffffffffffff021916908373ffffffffffffffffffffffffffffffffffffffff1602179055506040820151816002019080519060200190611252929190612802565b5060608201518160030155905050600254600860003373ffffffffffffffffffffffffffffffffffffffff1673ffffffffffffffffffffffffffffffffffffffff16815260200190815260200160002081905550600260008154809291906112b990613d36565b91905055505050565b6060600080600860003373ffffffffffffffffffffffffffffffffffffffff1673ffffffffffffffffffffffffffffffffffffffff1681526020019081526020016000205490506000600190505b60045481101561139357600060066000838152602001908152602001600020600201541415801561136c575081600560006006600085815260200190815260200160002060020154815260200190815260200160002060010154145b1561138057828061137c90613d36565b9350505b808061138b90613d36565b915050611310565b5060008267ffffffffffffffff8111156113d6577f4e487b7100000000000000000000000000000000000000000000000000000000600052604160045260246000fd5b60405190808252806020026020018201604052801561140f57816020015b6113fc612888565b8152602001906001900390816113f45790505b509050600080600190505b6004548110156115a9576000600660008381526020019081526020016000206002015414158015611476575083600560006006600085815260200190815260200160002060020154815260200190815260200160002060010154145b1561159657600660008281526020019081526020016000206040518060c0016040529081600082015481526020016001820160009054906101000a900473ffffffffffffffffffffffffffffffffffffffff1673ffffffffffffffffffffffffffffffffffffffff1673ffffffffffffffffffffffffffffffffffffffff168152602001600282015481526020016003820160009054906101000a900460ff161515151581526020016003820160019054906101000a900460ff1615151515815260200160048201548152505083838151811061157c577f4e487b7100000000000000000000000000000000000000000000000000000000600052603260045260246000fd5b6020026020010181905250818061159290613d36565b9250505b80806115a190613d36565b91505061141a565b508194505050505090565b600160009054906101000a900473ffffffffffffffffffffffffffffffffffffffff1673ffffffffffffffffffffffffffffffffffffffff163373ffffffffffffffffffffffffffffffffffffffff1614611644576040517f08c379a000000000000000000000000000000000000000000000000000000000815260040161163b906136d4565b60405180910390fd5b600060076000838152602001908152602001600020600201805461166790613d04565b80601f016020809104026020016040519081016040528092919081815260200182805461169390613d04565b80156116e05780601f106116b5576101008083540402835291602001916116e0565b820191906000526020600020905b8154815290600101906020018083116116c357829003601f168201915b5050505050905060006007600084815260200190815260200160002060010160009054906101000a900473ffffffffffffffffffffffffffffffffffffffff1690506001600a600084604051602001611739919061352c565b60405160208183030381529060405280519060200120815260200190815260200160002060006101000a81548160ff021916908315150217905550600760008481526020019081526020016000206000808201600090556001820160006101000a81549073ffffffffffffffffffffffffffffffffffffffff02191690556002820160006117c791906128d8565b60038201600090555050600073ffffffffffffffffffffffffffffffffffffffff168173ffffffffffffffffffffffffffffffffffffffff161461188b57600960008273ffffffffffffffffffffffffffffffffffffffff1673ffffffffffffffffffffffffffffffffffffffff168152602001908152602001600020600080820160006101000a81549073ffffffffffffffffffffffffffffffffffffffff021916905560018201600090556002820160006101000a81549060ff021916905550505b505050565b6000600860003373ffffffffffffffffffffffffffffffffffffffff1673ffffffffffffffffffffffffffffffffffffffff168152602001908152602001600020549050600073ffffffffffffffffffffffffffffffffffffffff166007600083815260200190815260200160002060010160009054906101000a900473ffffffffffffffffffffffffffffffffffffffff1673ffffffffffffffffffffffffffffffffffffffff16141561197a576040517f08c379a0000000000000000000000000000000000000000000000000000000008152600401611971906136f4565b60405180910390fd5b806005600085815260200190815260200160002060010154146119d2576040517f08c379a00000000000000000000000000000000000000000000000000000000081526004016119c990613734565b60405180910390fd5b8115156005600085815260200190815260200160002060070160009054906101000a900460ff1615151415611a3c576040517f08c379a0000000000000000000000000000000000000000000000000000000008152600401611a3390613654565b60405180910390fd5b816005600085815260200190815260200160002060070160006101000a81548160ff021916908315150217905550505050565b60006006600083815260200190815260200160002090503373ffffffffffffffffffffffffffffffffffffffff168160010160009054906101000a900473ffffffffffffffffffffffffffffffffffffffff1673ffffffffffffffffffffffffffffffffffffffff1614611b18576040517f08c379a0000000000000000000000000000000000000000000000000000000008152600401611b0f90613734565b60405180910390fd5b8060030160009054906101000a900460ff1615611b6a576040517f08c379a0000000000000000000000000000000000000000000000000000000008152600401611b6190613634565b60405180910390fd5b8060030160009054906101000a900460ff16611bbb576040517f08c379a0000000000000000000000000000000000000000000000000000000008152600401611bb290613774565b60405180910390fd5b60008160030160006101000a81548160ff0219169083151502179055505050565b60066020528060005260406000206000915090508060000154908060010160009054906101000a900473ffffffffffffffffffffffffffffffffffffffff16908060020154908060030160009054906101000a900460ff16908060030160019054906101000a900460ff16908060040154905086565b60086020528060005260406000206000915090505481565b60006006600083815260200190815260200160002090503373ffffffffffffffffffffffffffffffffffffffff168160010160009054906101000a900473ffffffffffffffffffffffffffffffffffffffff1673ffffffffffffffffffffffffffffffffffffffff1614611d13576040517f08c379a0000000000000000000000000000000000000000000000000000000008152600401611d0a90613734565b60405180910390fd5b8060030160009054906101000a900460ff16611d64576040517f08c379a0000000000000000000000000000000000000000000000000000000008152600401611d5b90613774565b60405180910390fd5b8060030160019054906101000a900460ff1615611db6576040517f08c379a0000000000000000000000000000000000000000000000000000000008152600401611dad906137b4565b60405180910390fd5b60018160030160016101000a81548160ff0219169083151502179055506000816004015411611e1a576040517f08c379a0000000000000000000000000000000000000000000000000000000008152600401611e1190613854565b60405180910390fd5b8060010160009054906101000a900473ffffffffffffffffffffffffffffffffffffffff1673ffffffffffffffffffffffffffffffffffffffff166108fc82600401549081150290604051600060405180830381858888f19350505050158015611e88573d6000803e3d6000fd5b505050565b600960003373ffffffffffffffffffffffffffffffffffffffff1673ffffffffffffffffffffffffffffffffffffffff16815260200190815260200160002060020160009054906101000a900460ff1615611f1d576040517f08c379a0000000000000000000000000000000000000000000000000000000008152600401611f1490613794565b60405180910390fd5b60405180606001604052803373ffffffffffffffffffffffffffffffffffffffff16815260200182815260200160011515815250600960003373ffffffffffffffffffffffffffffffffffffffff1673ffffffffffffffffffffffffffffffffffffffff16815260200190815260200160002060008201518160000160006101000a81548173ffffffffffffffffffffffffffffffffffffffff021916908373ffffffffffffffffffffffffffffffffffffffff1602179055506020820151816001015560408201518160020160006101000a81548160ff0219169083151502179055509050507f3e2e23ad95ac9d48f62299dd498880d0e69059ed54888b0b71031dc2615f9a603382604051612035929190613575565b60405180910390a150565b60025481565b60006006600083815260200190815260200160002090503373ffffffffffffffffffffffffffffffffffffffff16600760008360020154815260200190815260200160002060010160009054906101000a900473ffffffffffffffffffffffffffffffffffffffff1673ffffffffffffffffffffffffffffffffffffffff1614612105576040517f08c379a00000000000000000000000000000000000000000000000000000000081526004016120fc90613834565b60405180910390fd5b8060030160009054906101000a900460ff16612156576040517f08c379a000000000000000000000000000000000000000000000000000000000815260040161214d90613754565b60405180910390fd5b8060030160019054906101000a900460ff16156121a8576040517f08c379a000000000000000000000000000000000000000000000000000000000815260040161219f906137f4565b60405180910390fd5b60008160040154600560008460020154815260200190815260200160002060050154116121ef576005600083600201548152602001908152602001600020600501546121f5565b81600401545b90508160010160009054906101000a900473ffffffffffffffffffffffffffffffffffffffff1673ffffffffffffffffffffffffffffffffffffffff166108fc829081150290604051600060405180830381858888f19350505050158015612261573d6000803e3d6000fd5b5060018260030160016101000a81548160ff0219169083151502179055507fb74faa515c161a6aa3d68dd9ecf21d897dde4efbb1a2b72be2c86508f034175483826040516122b09291906139dc565b60405180910390a1505050565b6000600860003373ffffffffffffffffffffffffffffffffffffffff1673ffffffffffffffffffffffffffffffffffffffff168152602001908152602001600020549050600073ffffffffffffffffffffffffffffffffffffffff166007600083815260200190815260200160002060010160009054906101000a900473ffffffffffffffffffffffffffffffffffffffff1673ffffffffffffffffffffffffffffffffffffffff1614156123a7576040517f08c379a000000000000000000000000000000000000000000000000000000000815260040161239e906136f4565b60405180910390fd5b6040518061010001604052806003548152602001828152602001878152602001868152602001858152602001848152602001838152602001600115158152506005600060035481526020019081526020016000206000820151816000015560208201518160010155604082015181600201908051906020019061242b929190612802565b506060820151816003019080519060200190612448929190612802565b506080820151816004015560a0820151816005015560c0820151816006015560e08201518160070160006101000a81548160ff0219169083151502179055509050507f5fac4c43830252b9984ca8bf915ae2a0774180c35c5472120325c1961e45b62b600354826040516124bd9291906139dc565b60405180910390a1600360008154809291906124d890613d36565b9190505550505050505050565b600560205280600052604060002060009150905080600001549080600101549080600201805461251490613d04565b80601f016020809104026020016040519081016040528092919081815260200182805461254090613d04565b801561258d5780601f106125625761010080835404028352916020019161258d565b820191906000526020600020905b81548152906001019060200180831161257057829003601f168201915b5050505050908060030180546125a290613d04565b80601f01602080910402602001604051908101604052809291908181526020018280546125ce90613d04565b801561261b5780601f106125f05761010080835404028352916020019161261b565b820191906000526020600020905b8154815290600101906020018083116125fe57829003601f168201915b5050505050908060040154908060050154908060060154908060070160009054906101000a900460ff16905088565b600160009054906101000a900473ffffffffffffffffffffffffffffffffffffffff1681565b600160009054906101000a900473ffffffffffffffffffffffffffffffffffffffff1673ffffffffffffffffffffffffffffffffffffffff163373ffffffffffffffffffffffffffffffffffffffff1614612700576040517f08c379a00000000000000000000000000000000000000000000000000000000081526004016126f7906136d4565b60405180910390fd5b600081604051602001612713919061352c565b604051602081830303815290604052805190602001209050600a600082815260200190815260200160002060009054906101000a900460ff1661278b576040517f08c379a000000000000000000000000000000000000000000000000000000000815260040161278290613714565b60405180910390fd5b6000600a600083815260200190815260200160002060006101000a81548160ff0219169083151502179055505050565b604051806101000160405280600081526020016000815260200160608152602001606081526020016000815260200160008152602001600081526020016000151581525090565b82805461280e90613d04565b90600052602060002090601f0160209004810192826128305760008555612877565b82601f1061284957805160ff1916838001178555612877565b82800160010185558215612877579182015b8281111561287657825182559160200191906001019061285b565b5b5090506128849190612918565b5090565b6040518060c0016040528060008152602001600073ffffffffffffffffffffffffffffffffffffffff16815260200160008152602001600015158152602001600015158152602001600081525090565b5080546128e490613d04565b6000825580601f106128f65750612915565b601f0160209004906000526020600020908101906129149190612918565b5b50565b5b80821115612931576000816000905550600101612919565b5090565b600061294861294384613ac2565b613a91565b90508281526020810184848401111561296057600080fd5b61296b848285613cc2565b509392505050565b60008135905061298281613e4c565b92915050565b60008135905061299781613e63565b92915050565b6000813590506129ac81613e7a565b92915050565b600082601f8301126129c357600080fd5b81356129d3848260208601612935565b91505092915050565b6000813590506129eb81613e91565b92915050565b600060208284031215612a0357600080fd5b6000612a1184828501612973565b91505092915050565b600060208284031215612a2c57600080fd5b6000612a3a8482850161299d565b91505092915050565b600060208284031215612a5557600080fd5b600082013567ffffffffffffffff811115612a6f57600080fd5b612a7b848285016129b2565b91505092915050565b600080600080600060a08688031215612a9c57600080fd5b600086013567ffffffffffffffff811115612ab657600080fd5b612ac2888289016129b2565b955050602086013567ffffffffffffffff811115612adf57600080fd5b612aeb888289016129b2565b9450506040612afc888289016129dc565b9350506060612b0d888289016129dc565b9250506080612b1e888289016129dc565b9150509295509295909350565b60008060408385031215612b3e57600080fd5b600083013567ffffffffffffffff811115612b5857600080fd5b612b64858286016129b2565b9250506020612b75858286016129dc565b9150509250929050565b600060208284031215612b9157600080fd5b6000612b9f848285016129dc565b91505092915050565b60008060408385031215612bbb57600080fd5b6000612bc9858286016129dc565b9250506020612bda85828601612988565b9150509250929050565b600080600060608486031215612bf957600080fd5b6000612c07868287016129dc565b9350506020612c1886828701612988565b9250506040612c29868287016129dc565b9150509250925092565b6000612c3f83836133dc565b905092915050565b6000612c538383613493565b60c08301905092915050565b612c6881613c70565b82525050565b612c7781613c70565b82525050565b6000612c8882613b27565b612c928185613b62565b935083602082028501612ca485613af2565b8060005b85811015612ce05784840389528151612cc18582612c33565b9450612ccc83613b48565b925060208a01995050600181019050612ca8565b50829750879550505050505092915050565b6000612cfd82613b32565b612d078185613b73565b9350612d1283613b02565b8060005b83811015612d43578151612d2a8882612c47565b9750612d3583613b55565b925050600181019050612d16565b5085935050505092915050565b612d5981613c82565b82525050565b612d6881613c82565b82525050565b6000612d7982613b3d565b612d838185613b84565b9350612d93818560208601613cd1565b612d9c81613e3b565b840191505092915050565b6000612db282613b3d565b612dbc8185613b95565b9350612dcc818560208601613cd1565b612dd581613e3b565b840191505092915050565b6000612deb82613b3d565b612df58185613ba6565b9350612e05818560208601613cd1565b80840191505092915050565b60008154612e1e81613d04565b612e288186613ba6565b94506001821660008114612e435760018114612e5457612e87565b60ff19831686528186019350612e87565b612e5d85613b12565b60005b83811015612e7f57815481890152600182019150602081019050612e60565b838801955050505b50505092915050565b6000612e9d601983613b95565b91507f5265717565737420616c726561647920617070726f7665642e000000000000006000830152602082019050919050565b6000612edd601483613b95565b91507f4e6f206368616e676520696e207374617475732e0000000000000000000000006000830152602082019050919050565b6000612f1d601783613b95565b91507f496e76616c696420696e737572616e636520706c616e2e0000000000000000006000830152602082019050919050565b6000612f5d601883613b95565b91507f437573746f6d6572206e6f7420726567697374657265642e00000000000000006000830152602082019050919050565b6000612f9d601983613b95565b91507f496e636f7272656374207072656d69756d20616d6f756e742e000000000000006000830152602082019050919050565b6000612fdd600b83613b95565b91507f4f6e6c792061646d696e2e0000000000000000000000000000000000000000006000830152602082019050919050565b600061301d601983613b95565b91507f4e6f742061207265676973746572656420636f6d70616e792e000000000000006000830152602082019050919050565b600061305d601683613b95565b91507f436f6d70616e79206973206e6f742062616e6e65642e000000000000000000006000830152602082019050919050565b600061309d600f83613b95565b91507f4e6f7420617574686f72697a65642e00000000000000000000000000000000006000830152602082019050919050565b60006130dd601583613b95565b91507f52657175657374206e6f7420617070726f7665642e00000000000000000000006000830152602082019050919050565b600061311d601883613b95565b91507f52657175657374206973206e6f7420617070726f7665642e00000000000000006000830152602082019050919050565b600061315d601c83613b95565b91507f437573746f6d657220616c726561647920726567697374657265642e000000006000830152602082019050919050565b600061319d601883613b95565b91507f5265717565737420616c726561647920636c61696d65642e00000000000000006000830152602082019050919050565b60006131dd600d83613b95565b91507f496e76616c696420706c616e2e000000000000000000000000000000000000006000830152602082019050919050565b600061321d601683613b95565b91507f436c61696d20616c726561647920736574746c65642e000000000000000000006000830152602082019050919050565b600061325d601783613b95565b91507f436f6d70616e79206e616d652069732062616e6e65642e0000000000000000006000830152602082019050919050565b600061329d602383613b95565b91507f4f6e6c792074686520636f6d70616e792063616e20736574746c6520636c616960008301527f6d732e00000000000000000000000000000000000000000000000000000000006020830152604082019050919050565b6000613303601583613b95565b91507f496e76616c696420636c61696d20616d6f756e742e00000000000000000000006000830152602082019050919050565b6000613343602083613b95565b91507f436f6d70616e79206e616d6520616c726561647920726567697374657265642e6000830152602082019050919050565b6000613383602783613b95565b91507f4f6e6c792074686520636f6d70616e792063616e206576616c7561746520726560008301527f7175657374732e000000000000000000000000000000000000000000000000006020830152604082019050919050565b6000610100830160008301516133f5600086018261350e565b506020830151613408602086018261350e565b50604083015184820360408601526134208282612d6e565b9150506060830151848203606086015261343a8282612d6e565b915050608083015161344f608086018261350e565b5060a083015161346260a086018261350e565b5060c083015161347560c086018261350e565b5060e083015161348860e0860182612d50565b508091505092915050565b60c0820160008201516134a9600085018261350e565b5060208201516134bc6020850182612c5f565b5060408201516134cf604085018261350e565b5060608201516134e26060850182612d50565b5060808201516134f56080850182612d50565b5060a082015161350860a085018261350e565b50505050565b61351781613cb8565b82525050565b61352681613cb8565b82525050565b60006135388284612de0565b915081905092915050565b600061354f8284612e11565b915081905092915050565b600060208201905061356f6000830184612c6e565b92915050565b600060408201905061358a6000830185612c6e565b613597602083018461351d565b9392505050565b60006060820190506135b36000830186612c6e565b6135c0602083018561351d565b6135cd6040830184612d5f565b949350505050565b600060208201905081810360008301526135ef8184612c7d565b905092915050565b600060208201905081810360008301526136118184612cf2565b905092915050565b600060208201905061362e6000830184612d5f565b92915050565b6000602082019050818103600083015261364d81612e90565b9050919050565b6000602082019050818103600083015261366d81612ed0565b9050919050565b6000602082019050818103600083015261368d81612f10565b9050919050565b600060208201905081810360008301526136ad81612f50565b9050919050565b600060208201905081810360008301526136cd81612f90565b9050919050565b600060208201905081810360008301526136ed81612fd0565b9050919050565b6000602082019050818103600083015261370d81613010565b9050919050565b6000602082019050818103600083015261372d81613050565b9050919050565b6000602082019050818103600083015261374d81613090565b9050919050565b6000602082019050818103600083015261376d816130d0565b9050919050565b6000602082019050818103600083015261378d81613110565b9050919050565b600060208201905081810360008301526137ad81613150565b9050919050565b600060208201905081810360008301526137cd81613190565b9050919050565b600060208201905081810360008301526137ed816131d0565b9050919050565b6000602082019050818103600083015261380d81613210565b9050919050565b6000602082019050818103600083015261382d81613250565b9050919050565b6000602082019050818103600083015261384d81613290565b9050919050565b6000602082019050818103600083015261386d816132f6565b9050919050565b6000602082019050818103600083015261388d81613336565b9050919050565b600060208201905081810360008301526138ad81613376565b9050919050565b60006020820190506138c9600083018461351d565b92915050565b60006080820190506138e4600083018761351d565b6138f16020830186612c6e565b81810360408301526139038185612da7565b9050613912606083018461351d565b95945050505050565b6000606082019050613930600083018661351d565b61393d6020830185612c6e565b61394a604083018461351d565b949350505050565b600060c082019050613967600083018961351d565b6139746020830188612c6e565b613981604083018761351d565b61398e6060830186612d5f565b61399b6080830185612d5f565b6139a860a083018461351d565b979650505050505050565b60006040820190506139c8600083018561351d565b6139d56020830184612d5f565b9392505050565b60006040820190506139f1600083018561351d565b6139fe602083018461351d565b9392505050565b600061010082019050613a1b600083018b61351d565b613a28602083018a61351d565b8181036040830152613a3a8189612da7565b90508181036060830152613a4e8188612da7565b9050613a5d608083018761351d565b613a6a60a083018661351d565b613a7760c083018561351d565b613a8460e0830184612d5f565b9998505050505050505050565b6000604051905081810181811067ffffffffffffffff82111715613ab857613ab7613e0c565b5b8060405250919050565b600067ffffffffffffffff821115613add57613adc613e0c565b5b601f19601f8301169050602081019050919050565b6000819050602082019050919050565b6000819050602082019050919050565b60008190508160005260206000209050919050565b600081519050919050565b600081519050919050565b600081519050919050565b6000602082019050919050565b6000602082019050919050565b600082825260208201905092915050565b600082825260208201905092915050565b600082825260208201905092915050565b600082825260208201905092915050565b600081905092915050565b6000613bbc82613cb8565b9150613bc783613cb8565b925082613bd757613bd6613dae565b5b828204905092915050565b6000613bed82613cb8565b9150613bf883613cb8565b9250817fffffffffffffffffffffffffffffffffffffffffffffffffffffffffffffffff0483118215151615613c3157613c30613d7f565b5b828202905092915050565b6000613c4782613cb8565b9150613c5283613cb8565b925082821015613c6557613c64613d7f565b5b828203905092915050565b6000613c7b82613c98565b9050919050565b60008115159050919050565b6000819050919050565b600073ffffffffffffffffffffffffffffffffffffffff82169050919050565b6000819050919050565b82818337600083830152505050565b60005b83811015613cef578082015181840152602081019050613cd4565b83811115613cfe576000848401525b50505050565b60006002820490506001821680613d1c57607f821691505b60208210811415613d3057613d2f613ddd565b5b50919050565b6000613d4182613cb8565b91507fffffffffffffffffffffffffffffffffffffffffffffffffffffffffffffffff821415613d7457613d73613d7f565b5b600182019050919050565b7f4e487b7100000000000000000000000000000000000000000000000000000000600052601160045260246000fd5b7f4e487b7100000000000000000000000000000000000000000000000000000000600052601260045260246000fd5b7f4e487b7100000000000000000000000000000000000000000000000000000000600052602260045260246000fd5b7f4e487b7100000000000000000000000000000000000000000000000000000000600052604160045260246000fd5b6000601f19601f8301169050919050565b613e5581613c70565b8114613e6057600080fd5b50565b613e6c81613c82565b8114613e7757600080fd5b50565b613e8381613c8e565b8114613e8e57600080fd5b50565b613e9a81613cb8565b8114613ea557600080fd5b5056fea2646970667358221220e213d322f766fcd5e2fb6a5a0810ae243d7d590617d561f1c42efdf40b9c034364736f6c63430008000033",
  "linkReferences": {},
  "deployedLinkReferences": {}
}