{
  "_format": "hh-sol-artifact-1",
  "contractName": "DecentralizedInsurance",
  "sourceName": "contracts/functions.sol",
  "abi": [
    {
      "inputs": [],
      "stateMutability": "nonpayable",
      "type": "constructor"
    },
    {
      "anonymous": false,
      "inputs": [
        {
          "indexed": false,
          "internalType": "uint256",
          "name": "requestId",
          "type": "uint256"
        },
        {
          "indexed": false,
          "internalType": "uint256",
          "name": "claimAmount",
          "type": "uint256"
        }
      ],
      "name": "ClaimSettled",
      "type": "event"
    },
    {
      "anonymous": false,
      "inputs": [
        {
          "indexed": false,
          "internalType": "uint256",
          "name": "planId",
          "type": "uint256"
        },
        {
          "indexed": false,
          "internalType": "uint256",
          "name": "companyId",
          "type": "uint256"
        }
      ],
      "name": "PlanCreated",
      "type": "event"
    },
    {
      "anonymous": false,
      "inputs": [
        {
          "indexed": false,
          "internalType": "uint256",
          "name": "planId",
          "type": "uint256"
        },
        {
          "indexed": false,
          "internalType": "address",
          "name": "customer",
          "type": "address"
        },
        {
          "indexed": false,
          "internalType": "uint256",
          "name": "amount",
          "type": "uint256"
        }
      ],
      "name": "PremiumPaid",
      "type": "event"
    },
    {
      "anonymous": false,
      "inputs": [
        {
          "indexed": false,
          "internalType": "uint256",
          "name": "requestId",
          "type": "uint256"
        },
        {
          "indexed": false,
          "internalType": "bool",
          "name": "isApproved",
          "type": "bool"
        }
      ],
      "name": "RequestResponded",
      "type": "event"
    },
    {
      "anonymous": false,
      "inputs": [
        {
          "indexed": false,
          "internalType": "uint256",
          "name": "requestId",
          "type": "uint256"
        },
        {
          "indexed": false,
          "internalType": "address",
          "name": "customer",
          "type": "address"
        },
        {
          "indexed": false,
          "internalType": "uint256",
          "name": "planId",
          "type": "uint256"
        }
      ],
      "name": "RequestSubmitted",
      "type": "event"
    },
    {
      "inputs": [
        {
          "internalType": "uint256",
          "name": "_requestId",
          "type": "uint256"
        },
        {
          "internalType": "bool",
          "name": "_approve",
          "type": "bool"
        },
        {
          "internalType": "uint256",
          "name": "_counterClaimAmount",
          "type": "uint256"
        }
      ],
      "name": "Request_Negotiation",
      "outputs": [],
      "stateMutability": "nonpayable",
      "type": "function"
    },
    {
      "inputs": [],
      "name": "admin",
      "outputs": [
        {
          "internalType": "address",
          "name": "",
          "type": "address"
        }
      ],
      "stateMutability": "view",
      "type": "function"
    },
    {
      "inputs": [
        {
          "internalType": "uint256",
          "name": "_companyId",
          "type": "uint256"
        }
      ],
      "name": "banParticipant",
      "outputs": [],
      "stateMutability": "nonpayable",
      "type": "function"
    },
    {
      "inputs": [
        {
          "internalType": "uint256",
          "name": "",
          "type": "uint256"
        }
      ],
      "name": "companies",
      "outputs": [
        {
          "internalType": "uint256",
          "name": "id",
          "type": "uint256"
        },
        {
          "internalType": "address",
          "name": "addr",
          "type": "address"
        },
        {
          "internalType": "string",
          "name": "name",
          "type": "string"
        },
        {
          "internalType": "uint256",
          "name": "rate",
          "type": "uint256"
        }
      ],
      "stateMutability": "view",
      "type": "function"
    },
    {
      "inputs": [
        {
          "internalType": "address",
          "name": "",
          "type": "address"
        }
      ],
      "name": "companyIds",
      "outputs": [
        {
          "internalType": "uint256",
          "name": "",
          "type": "uint256"
        }
      ],
      "stateMutability": "view",
      "type": "function"
    },
    {
      "inputs": [
        {
          "internalType": "string",
          "name": "_name",
          "type": "string"
        },
        {
          "internalType": "string",
          "name": "_description",
          "type": "string"
        },
        {
          "internalType": "uint256",
          "name": "_premium",
          "type": "uint256"
        },
        {
          "internalType": "uint256",
          "name": "_coverageAmount",
          "type": "uint256"
        },
        {
          "internalType": "uint256",
          "name": "_duration",
          "type": "uint256"
        }
      ],
      "name": "createPlan",
      "outputs": [],
      "stateMutability": "nonpayable",
      "type": "function"
    },
    {
      "inputs": [
        {
          "internalType": "address",
          "name": "",
          "type": "address"
        }
      ],
      "name": "customers",
      "outputs": [
        {
          "internalType": "address",
          "name": "addr",
          "type": "address"
        },
        {
          "internalType": "uint256",
          "name": "rate",
          "type": "uint256"
        }
      ],
      "stateMutability": "view",
      "type": "function"
    },
    {
      "inputs": [
        {
          "internalType": "uint256",
          "name": "_requestId",
          "type": "uint256"
        }
      ],
      "name": "denyOffer",
      "outputs": [],
      "stateMutability": "nonpayable",
      "type": "function"
    },
    {
      "inputs": [
        {
          "internalType": "uint256",
          "name": "_requestId",
          "type": "uint256"
        }
      ],
      "name": "evaluateCustomer",
      "outputs": [
        {
          "internalType": "bool",
          "name": "",
          "type": "bool"
        }
      ],
      "stateMutability": "view",
      "type": "function"
    },
    {
      "inputs": [
        {
          "internalType": "uint256",
          "name": "",
          "type": "uint256"
        }
      ],
      "name": "insurancePlans",
      "outputs": [
        {
          "internalType": "uint256",
          "name": "id",
          "type": "uint256"
        },
        {
          "internalType": "uint256",
          "name": "companyId",
          "type": "uint256"
        },
        {
          "internalType": "string",
          "name": "name",
          "type": "string"
        },
        {
          "internalType": "string",
          "name": "description",
          "type": "string"
        },
        {
          "internalType": "uint256",
          "name": "premium",
          "type": "uint256"
        },
        {
          "internalType": "uint256",
          "name": "coverageAmount",
          "type": "uint256"
        },
        {
          "internalType": "uint256",
          "name": "duration",
          "type": "uint256"
        },
        {
          "internalType": "bool",
          "name": "isActive",
          "type": "bool"
        }
      ],
      "stateMutability": "view",
      "type": "function"
    },
    {
      "inputs": [],
      "name": "nextCompanyId",
      "outputs": [
        {
          "internalType": "uint256",
          "name": "",
          "type": "uint256"
        }
      ],
      "stateMutability": "view",
      "type": "function"
    },
    {
      "inputs": [
        {
          "internalType": "uint256",
          "name": "_planId",
          "type": "uint256"
        }
      ],
      "name": "payPremium",
      "outputs": [],
      "stateMutability": "payable",
      "type": "function"
    },
    {
      "inputs": [
        {
          "internalType": "string",
          "name": "_name",
          "type": "string"
        },
        {
          "internalType": "uint256",
          "name": "_rate",
          "type": "uint256"
        }
      ],
      "name": "registerCompany",
      "outputs": [],
      "stateMutability": "nonpayable",
      "type": "function"
    },
    {
      "inputs": [
        {
          "internalType": "uint256",
          "name": "",
          "type": "uint256"
        }
      ],
      "name": "requests",
      "outputs": [
        {
          "internalType": "uint256",
          "name": "id",
          "type": "uint256"
        },
        {
          "internalType": "address",
          "name": "customer",
          "type": "address"
        },
        {
          "internalType": "uint256",
          "name": "planId",
          "type": "uint256"
        },
        {
          "internalType": "bool",
          "name": "isApproved",
          "type": "bool"
        },
        {
          "internalType": "bool",
          "name": "isClaimed",
          "type": "bool"
        },
        {
          "internalType": "uint256",
          "name": "claimAmount",
          "type": "uint256"
        }
      ],
      "stateMutability": "view",
      "type": "function"
    },
    {
      "inputs": [
        {
          "internalType": "uint256",
          "name": "_fee",
          "type": "uint256"
        }
      ],
      "name": "setPlatformFee",
      "outputs": [],
      "stateMutability": "nonpayable",
      "type": "function"
    },
    {
      "inputs": [
        {
          "internalType": "uint256",
          "name": "_requestId",
          "type": "uint256"
        }
      ],
      "name": "settleClaim",
      "outputs": [],
      "stateMutability": "nonpayable",
      "type": "function"
    },
    {
      "inputs": [
        {
          "internalType": "uint256",
          "name": "_planId",
          "type": "uint256"
        }
      ],
      "name": "submitRequest",
      "outputs": [],
      "stateMutability": "nonpayable",
      "type": "function"
    },
    {
      "inputs": [],
      "name": "viewPlans",
      "outputs": [
        {
          "components": [
            {
              "internalType": "uint256",
              "name": "id",
              "type": "uint256"
            },
            {
              "internalType": "uint256",
              "name": "companyId",
              "type": "uint256"
            },
            {
              "internalType": "string",
              "name": "name",
              "type": "string"
            },
            {
              "internalType": "string",
              "name": "description",
              "type": "string"
            },
            {
              "internalType": "uint256",
              "name": "premium",
              "type": "uint256"
            },
            {
              "internalType": "uint256",
              "name": "coverageAmount",
              "type": "uint256"
            },
            {
              "internalType": "uint256",
              "name": "duration",
              "type": "uint256"
            },
            {
              "internalType": "bool",
              "name": "isActive",
              "type": "bool"
            }
          ],
          "internalType": "struct DecentralizedInsurance.InsurancePlan[]",
          "name": "",
          "type": "tuple[]"
        }
      ],
      "stateMutability": "view",
      "type": "function"
    },
    {
      "inputs": [],
      "name": "viewRequests",
      "outputs": [
        {
          "components": [
            {
              "internalType": "uint256",
              "name": "id",
              "type": "uint256"
            },
            {
              "internalType": "address",
              "name": "customer",
              "type": "address"
            },
            {
              "internalType": "uint256",
              "name": "planId",
              "type": "uint256"
            },
            {
              "internalType": "bool",
              "name": "isApproved",
              "type": "bool"
            },
            {
              "internalType": "bool",
              "name": "isClaimed",
              "type": "bool"
            },
            {
              "internalType": "uint256",
              "name": "claimAmount",
              "type": "uint256"
            }
          ],
          "internalType": "struct DecentralizedInsurance.Request[]",
          "name": "",
          "type": "tuple[]"
        }
      ],
      "stateMutability": "view",
      "type": "function"
    }
  ],
  "bytecode": "0x608060405260056000556001600355600160045534801561001f57600080fd5b5033600160006101000a81548173ffffffffffffffffffffffffffffffffffffffff021916908373ffffffffffffffffffffffffffffffffffffffff1602179055506001600281905550612f72806100786000396000f3fe6080604052600436106101145760003560e01c8063521e686d116100a0578063d8d3c82911610064578063d8d3c829146103bb578063e406f1d8146103e6578063e5584ed71461040f578063ec1b706614610438578063f851a4401461047c57610114565b8063521e686d146102ab5780635734d8aa146102d65780637746dfa91461031357806381d12c581461033c5780639f242f221461037e57610114565b80633134e4c4116100e75780633134e4c4146101d4578063336989ae146101fd5780634364b26e1461023b57806348e9807f146102575780635170c1aa1461028257610114565b8063115615c71461011957806312e8e2c3146101425780631cdd16531461016b5780632813d19d14610194575b600080fd5b34801561012557600080fd5b50610140600480360381019061013b91906120a5565b6104a7565b005b34801561014e57600080fd5b50610169600480360381019061016491906120a5565b61063e565b005b34801561017757600080fd5b50610192600480360381019061018d91906120a5565b6106d8565b005b3480156101a057600080fd5b506101bb60048036038101906101b691906120a5565b61089c565b6040516101cb94939291906129a4565b60405180910390f35b3480156101e057600080fd5b506101fb60048036038101906101f691906120ce565b610974565b005b34801561020957600080fd5b50610224600480360381019061021f9190611f81565b610aae565b604051610232929190612781565b60405180910390f35b610255600480360381019061025091906120a5565b610af2565b005b34801561026357600080fd5b5061026c610cf3565b60405161027991906127aa565b60405180910390f35b34801561028e57600080fd5b506102a960048036038101906102a49190612051565b610fbb565b005b3480156102b757600080fd5b506102c0611176565b6040516102cd91906127cc565b60405180910390f35b3480156102e257600080fd5b506102fd60048036038101906102f891906120a5565b611468565b60405161030a91906127ee565b60405180910390f35b34801561031f57600080fd5b5061033a600480360381019061033591906120a5565b611586565b005b34801561034857600080fd5b50610363600480360381019061035e91906120a5565b6116a2565b60405161037596959493929190612a27565b60405180910390f35b34801561038a57600080fd5b506103a560048036038101906103a09190611f81565b611718565b6040516103b29190612989565b60405180910390f35b3480156103c757600080fd5b506103d0611730565b6040516103dd9190612989565b60405180910390f35b3480156103f257600080fd5b5061040d600480360381019061040891906120a5565b611736565b005b34801561041b57600080fd5b5061043660048036038101906104319190611faa565b6119ad565b005b34801561044457600080fd5b5061045f600480360381019061045a91906120a5565b611bd5565b604051610473989796959493929190612ada565b60405180910390f35b34801561048857600080fd5b50610491611d3a565b60405161049e9190612766565b60405180910390f35b600160009054906101000a900473ffffffffffffffffffffffffffffffffffffffff1673ffffffffffffffffffffffffffffffffffffffff163373ffffffffffffffffffffffffffffffffffffffff1614610537576040517f08c379a000000000000000000000000000000000000000000000000000000000815260040161052e90612889565b60405180910390fd5b600760008281526020019081526020016000206000808201600090556001820160006101000a81549073ffffffffffffffffffffffffffffffffffffffff021916905560028201600061058a9190611d60565b60038201600090555050600960006007600084815260200190815260200160002060010160009054906101000a900473ffffffffffffffffffffffffffffffffffffffff1673ffffffffffffffffffffffffffffffffffffffff1673ffffffffffffffffffffffffffffffffffffffff168152602001908152602001600020600080820160006101000a81549073ffffffffffffffffffffffffffffffffffffffff02191690556001820160009055505050565b600160009054906101000a900473ffffffffffffffffffffffffffffffffffffffff1673ffffffffffffffffffffffffffffffffffffffff163373ffffffffffffffffffffffffffffffffffffffff16146106ce576040517f08c379a00000000000000000000000000000000000000000000000000000000081526004016106c590612889565b60405180910390fd5b8060008190555050565b6005600082815260200190815260200160002060070160009054906101000a900460ff1661073b576040517f08c379a000000000000000000000000000000000000000000000000000000000815260040161073290612829565b60405180910390fd5b6040518060c0016040528060045481526020013373ffffffffffffffffffffffffffffffffffffffff16815260200182815260200160001515815260200160001515815260200160008152506006600060045481526020019081526020016000206000820151816000015560208201518160010160006101000a81548173ffffffffffffffffffffffffffffffffffffffff021916908373ffffffffffffffffffffffffffffffffffffffff1602179055506040820151816002015560608201518160030160006101000a81548160ff02191690831515021790555060808201518160030160016101000a81548160ff02191690831515021790555060a082015181600401559050507fded47fe1c7f7878a21a47327b3f5172551c245be83ba771fe716cdbe1bf55c7a6004543383604051610879939291906129f0565b60405180910390a16004600081548092919061089490612de1565b919050555050565b60076020528060005260406000206000915090508060000154908060010160009054906101000a900473ffffffffffffffffffffffffffffffffffffffff16908060020180546108eb90612daf565b80601f016020809104026020016040519081016040528092919081815260200182805461091790612daf565b80156109645780601f1061093957610100808354040283529160200191610964565b820191906000526020600020905b81548152906001019060200180831161094757829003601f168201915b5050505050908060030154905084565b60006006600085815260200190815260200160002090503373ffffffffffffffffffffffffffffffffffffffff16600760008360020154815260200190815260200160002060010160009054906101000a900473ffffffffffffffffffffffffffffffffffffffff1673ffffffffffffffffffffffffffffffffffffffff1614610a33576040517f08c379a0000000000000000000000000000000000000000000000000000000008152600401610a2a90612969565b60405180910390fd5b8215610a5b5760018160030160006101000a81548160ff021916908315150217905550610a6f565b6000821115610a6e578181600401819055505b5b7f5925f6070dba9d3c5caa9c961d661ea0c1772d7f95af99d278fe9e5b4e53caba8484604051610aa0929190612a88565b60405180910390a150505050565b60096020528060005260406000206000915090508060000160009054906101000a900473ffffffffffffffffffffffffffffffffffffffff16908060010154905082565b60006005600083815260200190815260200160002090508060070160009054906101000a900460ff16610b5a576040517f08c379a0000000000000000000000000000000000000000000000000000000008152600401610b5190612909565b60405180910390fd5b80600401543414610ba0576040517f08c379a0000000000000000000000000000000000000000000000000000000008152600401610b9790612869565b60405180910390fd5b6000606460005434610bb29190612c97565b610bbc9190612c66565b9050600760008360010154815260200190815260200160002060010160009054906101000a900473ffffffffffffffffffffffffffffffffffffffff1673ffffffffffffffffffffffffffffffffffffffff166108fc8234610c1e9190612cf1565b9081150290604051600060405180830381858888f19350505050158015610c49573d6000803e3d6000fd5b50600160009054906101000a900473ffffffffffffffffffffffffffffffffffffffff1673ffffffffffffffffffffffffffffffffffffffff166108fc829081150290604051600060405180830381858888f19350505050158015610cb2573d6000803e3d6000fd5b507ffbf1458fbbddabb878de144276216e8ccda619cbac2d598e6ee37ff72173afb1833334604051610ce6939291906129f0565b60405180910390a1505050565b606060006001600354610d069190612cf1565b67ffffffffffffffff811115610d45577f4e487b7100000000000000000000000000000000000000000000000000000000600052604160045260246000fd5b604051908082528060200260200182016040528015610d7e57816020015b610d6b611da0565b815260200190600190039081610d635790505b509050600080600190505b600354811015610fb2576005600082815260200190815260200160002060070160009054906101000a900460ff1615610f9f5760056000828152602001908152602001600020604051806101000160405290816000820154815260200160018201548152602001600282018054610dff90612daf565b80601f0160208091040260200160405190810160405280929190818152602001828054610e2b90612daf565b8015610e785780601f10610e4d57610100808354040283529160200191610e78565b820191906000526020600020905b815481529060010190602001808311610e5b57829003601f168201915b50505050508152602001600382018054610e9190612daf565b80601f0160208091040260200160405190810160405280929190818152602001828054610ebd90612daf565b8015610f0a5780601f10610edf57610100808354040283529160200191610f0a565b820191906000526020600020905b815481529060010190602001808311610eed57829003601f168201915b505050505081526020016004820154815260200160058201548152602001600682015481526020016007820160009054906101000a900460ff161515151581525050838381518110610f85577f4e487b7100000000000000000000000000000000000000000000000000000000600052603260045260246000fd5b60200260200101819052508180610f9b90612de1565b9250505b8080610faa90612de1565b915050610d89565b50819250505090565b600160009054906101000a900473ffffffffffffffffffffffffffffffffffffffff1673ffffffffffffffffffffffffffffffffffffffff163373ffffffffffffffffffffffffffffffffffffffff161461104b576040517f08c379a000000000000000000000000000000000000000000000000000000000815260040161104290612889565b60405180910390fd5b604051806080016040528060025481526020013373ffffffffffffffffffffffffffffffffffffffff168152602001838152602001828152506007600060025481526020019081526020016000206000820151816000015560208201518160010160006101000a81548173ffffffffffffffffffffffffffffffffffffffff021916908373ffffffffffffffffffffffffffffffffffffffff1602179055506040820151816002019080519060200190611106929190611de7565b5060608201518160030155905050600254600860003373ffffffffffffffffffffffffffffffffffffffff1673ffffffffffffffffffffffffffffffffffffffff168152602001908152602001600020819055506002600081548092919061116d90612de1565b91905055505050565b6060600080600860003373ffffffffffffffffffffffffffffffffffffffff1673ffffffffffffffffffffffffffffffffffffffff1681526020019081526020016000205490506000600190505b600454811015611247576000600660008381526020019081526020016000206002015414158015611220575081600560006006600085815260200190815260200160002060020154815260200190815260200160002060010154145b1561123457828061123090612de1565b9350505b808061123f90612de1565b9150506111c4565b5060008267ffffffffffffffff81111561128a577f4e487b7100000000000000000000000000000000000000000000000000000000600052604160045260246000fd5b6040519080825280602002602001820160405280156112c357816020015b6112b0611e6d565b8152602001906001900390816112a85790505b509050600080600190505b60045481101561145d57600060066000838152602001908152602001600020600201541415801561132a575083600560006006600085815260200190815260200160002060020154815260200190815260200160002060010154145b1561144a57600660008281526020019081526020016000206040518060c0016040529081600082015481526020016001820160009054906101000a900473ffffffffffffffffffffffffffffffffffffffff1673ffffffffffffffffffffffffffffffffffffffff1673ffffffffffffffffffffffffffffffffffffffff168152602001600282015481526020016003820160009054906101000a900460ff161515151581526020016003820160019054906101000a900460ff16151515158152602001600482015481525050838381518110611430577f4e487b7100000000000000000000000000000000000000000000000000000000600052603260045260246000fd5b6020026020010181905250818061144690612de1565b9250505b808061145590612de1565b9150506112ce565b508194505050505090565b600080600660008481526020019081526020016000209050600073ffffffffffffffffffffffffffffffffffffffff168160010160009054906101000a900473ffffffffffffffffffffffffffffffffffffffff1673ffffffffffffffffffffffffffffffffffffffff161415611514576040517f08c379a000000000000000000000000000000000000000000000000000000000815260040161150b90612849565b60405180910390fd5b6006600960008360010160009054906101000a900473ffffffffffffffffffffffffffffffffffffffff1673ffffffffffffffffffffffffffffffffffffffff1673ffffffffffffffffffffffffffffffffffffffff1681526020019081526020016000206001015411915050919050565b60006006600083815260200190815260200160002090503373ffffffffffffffffffffffffffffffffffffffff168160010160009054906101000a900473ffffffffffffffffffffffffffffffffffffffff1673ffffffffffffffffffffffffffffffffffffffff161461162f576040517f08c379a0000000000000000000000000000000000000000000000000000000008152600401611626906128c9565b60405180910390fd5b8060030160009054906101000a900460ff1615611681576040517f08c379a000000000000000000000000000000000000000000000000000000000815260040161167890612809565b60405180910390fd5b60008160030160006101000a81548160ff0219169083151502179055505050565b60066020528060005260406000206000915090508060000154908060010160009054906101000a900473ffffffffffffffffffffffffffffffffffffffff16908060020154908060030160009054906101000a900460ff16908060030160019054906101000a900460ff16908060040154905086565b60086020528060005260406000206000915090505481565b60025481565b60006006600083815260200190815260200160002090503373ffffffffffffffffffffffffffffffffffffffff16600760008360020154815260200190815260200160002060010160009054906101000a900473ffffffffffffffffffffffffffffffffffffffff1673ffffffffffffffffffffffffffffffffffffffff16146117f5576040517f08c379a00000000000000000000000000000000000000000000000000000000081526004016117ec90612949565b60405180910390fd5b8060030160009054906101000a900460ff16611846576040517f08c379a000000000000000000000000000000000000000000000000000000000815260040161183d906128e9565b60405180910390fd5b8060030160019054906101000a900460ff1615611898576040517f08c379a000000000000000000000000000000000000000000000000000000000815260040161188f90612929565b60405180910390fd5b60008160040154600560008460020154815260200190815260200160002060050154116118df576005600083600201548152602001908152602001600020600501546118e5565b81600401545b90508160010160009054906101000a900473ffffffffffffffffffffffffffffffffffffffff1673ffffffffffffffffffffffffffffffffffffffff166108fc829081150290604051600060405180830381858888f19350505050158015611951573d6000803e3d6000fd5b5060018260030160016101000a81548160ff0219169083151502179055507fb74faa515c161a6aa3d68dd9ecf21d897dde4efbb1a2b72be2c86508f034175483826040516119a0929190612ab1565b60405180910390a1505050565b6000600860003373ffffffffffffffffffffffffffffffffffffffff1673ffffffffffffffffffffffffffffffffffffffff168152602001908152602001600020549050600073ffffffffffffffffffffffffffffffffffffffff166007600083815260200190815260200160002060010160009054906101000a900473ffffffffffffffffffffffffffffffffffffffff1673ffffffffffffffffffffffffffffffffffffffff161415611a97576040517f08c379a0000000000000000000000000000000000000000000000000000000008152600401611a8e906128a9565b60405180910390fd5b60405180610100016040528060035481526020018281526020018781526020018681526020018581526020018481526020018381526020016001151581525060056000600354815260200190815260200160002060008201518160000155602082015181600101556040820151816002019080519060200190611b1b929190611de7565b506060820151816003019080519060200190611b38929190611de7565b506080820151816004015560a0820151816005015560c0820151816006015560e08201518160070160006101000a81548160ff0219169083151502179055509050507f5fac4c43830252b9984ca8bf915ae2a0774180c35c5472120325c1961e45b62b60035482604051611bad929190612ab1565b60405180910390a160036000815480929190611bc890612de1565b9190505550505050505050565b6005602052806000526040600020600091509050806000015490806001015490806002018054611c0490612daf565b80601f0160208091040260200160405190810160405280929190818152602001828054611c3090612daf565b8015611c7d5780601f10611c5257610100808354040283529160200191611c7d565b820191906000526020600020905b815481529060010190602001808311611c6057829003601f168201915b505050505090806003018054611c9290612daf565b80601f0160208091040260200160405190810160405280929190818152602001828054611cbe90612daf565b8015611d0b5780601f10611ce057610100808354040283529160200191611d0b565b820191906000526020600020905b815481529060010190602001808311611cee57829003601f168201915b5050505050908060040154908060050154908060060154908060070160009054906101000a900460ff16905088565b600160009054906101000a900473ffffffffffffffffffffffffffffffffffffffff1681565b508054611d6c90612daf565b6000825580601f10611d7e5750611d9d565b601f016020900490600052602060002090810190611d9c9190611ebd565b5b50565b604051806101000160405280600081526020016000815260200160608152602001606081526020016000815260200160008152602001600081526020016000151581525090565b828054611df390612daf565b90600052602060002090601f016020900481019282611e155760008555611e5c565b82601f10611e2e57805160ff1916838001178555611e5c565b82800160010185558215611e5c579182015b82811115611e5b578251825591602001919060010190611e40565b5b509050611e699190611ebd565b5090565b6040518060c0016040528060008152602001600073ffffffffffffffffffffffffffffffffffffffff16815260200160008152602001600015158152602001600015158152602001600081525090565b5b80821115611ed6576000816000905550600101611ebe565b5090565b6000611eed611ee884612b97565b612b66565b905082815260208101848484011115611f0557600080fd5b611f10848285612d6d565b509392505050565b600081359050611f2781612ef7565b92915050565b600081359050611f3c81612f0e565b92915050565b600082601f830112611f5357600080fd5b8135611f63848260208601611eda565b91505092915050565b600081359050611f7b81612f25565b92915050565b600060208284031215611f9357600080fd5b6000611fa184828501611f18565b91505092915050565b600080600080600060a08688031215611fc257600080fd5b600086013567ffffffffffffffff811115611fdc57600080fd5b611fe888828901611f42565b955050602086013567ffffffffffffffff81111561200557600080fd5b61201188828901611f42565b945050604061202288828901611f6c565b935050606061203388828901611f6c565b925050608061204488828901611f6c565b9150509295509295909350565b6000806040838503121561206457600080fd5b600083013567ffffffffffffffff81111561207e57600080fd5b61208a85828601611f42565b925050602061209b85828601611f6c565b9150509250929050565b6000602082840312156120b757600080fd5b60006120c584828501611f6c565b91505092915050565b6000806000606084860312156120e357600080fd5b60006120f186828701611f6c565b935050602061210286828701611f2d565b925050604061211386828701611f6c565b9150509250925092565b60006121298383612616565b905092915050565b600061213d83836126cd565b60c08301905092915050565b61215281612d25565b82525050565b61216181612d25565b82525050565b600061217282612be7565b61217c8185612c22565b93508360208202850161218e85612bc7565b8060005b858110156121ca57848403895281516121ab858261211d565b94506121b683612c08565b925060208a01995050600181019050612192565b50829750879550505050505092915050565b60006121e782612bf2565b6121f18185612c33565b93506121fc83612bd7565b8060005b8381101561222d5781516122148882612131565b975061221f83612c15565b925050600181019050612200565b5085935050505092915050565b61224381612d37565b82525050565b61225281612d37565b82525050565b600061226382612bfd565b61226d8185612c44565b935061227d818560208601612d7c565b61228681612ee6565b840191505092915050565b600061229c82612bfd565b6122a68185612c55565b93506122b6818560208601612d7c565b6122bf81612ee6565b840191505092915050565b60006122d7601983612c55565b91507f5265717565737420616c726561647920617070726f7665642e000000000000006000830152602082019050919050565b6000612317601783612c55565b91507f496e76616c696420696e737572616e636520706c616e2e0000000000000000006000830152602082019050919050565b6000612357601783612c55565b91507f5265717565737420646f6573206e6f742065786973742e0000000000000000006000830152602082019050919050565b6000612397601983612c55565b91507f496e636f7272656374207072656d69756d20616d6f756e742e000000000000006000830152602082019050919050565b60006123d7600b83612c55565b91507f4f6e6c792061646d696e2e0000000000000000000000000000000000000000006000830152602082019050919050565b6000612417601983612c55565b91507f4e6f742061207265676973746572656420636f6d70616e792e000000000000006000830152602082019050919050565b6000612457600f83612c55565b91507f4e6f7420617574686f72697a65642e00000000000000000000000000000000006000830152602082019050919050565b6000612497601583612c55565b91507f52657175657374206e6f7420617070726f7665642e00000000000000000000006000830152602082019050919050565b60006124d7600d83612c55565b91507f496e76616c696420706c616e2e000000000000000000000000000000000000006000830152602082019050919050565b6000612517601683612c55565b91507f436c61696d20616c726561647920736574746c65642e000000000000000000006000830152602082019050919050565b6000612557602383612c55565b91507f4f6e6c792074686520636f6d70616e792063616e20736574746c6520636c616960008301527f6d732e00000000000000000000000000000000000000000000000000000000006020830152604082019050919050565b60006125bd602783612c55565b91507f4f6e6c792074686520636f6d70616e792063616e206576616c7561746520726560008301527f7175657374732e000000000000000000000000000000000000000000000000006020830152604082019050919050565b60006101008301600083015161262f6000860182612748565b5060208301516126426020860182612748565b506040830151848203604086015261265a8282612258565b915050606083015184820360608601526126748282612258565b91505060808301516126896080860182612748565b5060a083015161269c60a0860182612748565b5060c08301516126af60c0860182612748565b5060e08301516126c260e086018261223a565b508091505092915050565b60c0820160008201516126e36000850182612748565b5060208201516126f66020850182612149565b5060408201516127096040850182612748565b50606082015161271c606085018261223a565b50608082015161272f608085018261223a565b5060a082015161274260a0850182612748565b50505050565b61275181612d63565b82525050565b61276081612d63565b82525050565b600060208201905061277b6000830184612158565b92915050565b60006040820190506127966000830185612158565b6127a36020830184612757565b9392505050565b600060208201905081810360008301526127c48184612167565b905092915050565b600060208201905081810360008301526127e681846121dc565b905092915050565b60006020820190506128036000830184612249565b92915050565b60006020820190508181036000830152612822816122ca565b9050919050565b600060208201905081810360008301526128428161230a565b9050919050565b600060208201905081810360008301526128628161234a565b9050919050565b600060208201905081810360008301526128828161238a565b9050919050565b600060208201905081810360008301526128a2816123ca565b9050919050565b600060208201905081810360008301526128c28161240a565b9050919050565b600060208201905081810360008301526128e28161244a565b9050919050565b600060208201905081810360008301526129028161248a565b9050919050565b60006020820190508181036000830152612922816124ca565b9050919050565b600060208201905081810360008301526129428161250a565b9050919050565b600060208201905081810360008301526129628161254a565b9050919050565b60006020820190508181036000830152612982816125b0565b9050919050565b600060208201905061299e6000830184612757565b92915050565b60006080820190506129b96000830187612757565b6129c66020830186612158565b81810360408301526129d88185612291565b90506129e76060830184612757565b95945050505050565b6000606082019050612a056000830186612757565b612a126020830185612158565b612a1f6040830184612757565b949350505050565b600060c082019050612a3c6000830189612757565b612a496020830188612158565b612a566040830187612757565b612a636060830186612249565b612a706080830185612249565b612a7d60a0830184612757565b979650505050505050565b6000604082019050612a9d6000830185612757565b612aaa6020830184612249565b9392505050565b6000604082019050612ac66000830185612757565b612ad36020830184612757565b9392505050565b600061010082019050612af0600083018b612757565b612afd602083018a612757565b8181036040830152612b0f8189612291565b90508181036060830152612b238188612291565b9050612b326080830187612757565b612b3f60a0830186612757565b612b4c60c0830185612757565b612b5960e0830184612249565b9998505050505050505050565b6000604051905081810181811067ffffffffffffffff82111715612b8d57612b8c612eb7565b5b8060405250919050565b600067ffffffffffffffff821115612bb257612bb1612eb7565b5b601f19601f8301169050602081019050919050565b6000819050602082019050919050565b6000819050602082019050919050565b600081519050919050565b600081519050919050565b600081519050919050565b6000602082019050919050565b6000602082019050919050565b600082825260208201905092915050565b600082825260208201905092915050565b600082825260208201905092915050565b600082825260208201905092915050565b6000612c7182612d63565b9150612c7c83612d63565b925082612c8c57612c8b612e59565b5b828204905092915050565b6000612ca282612d63565b9150612cad83612d63565b9250817fffffffffffffffffffffffffffffffffffffffffffffffffffffffffffffffff0483118215151615612ce657612ce5612e2a565b5b828202905092915050565b6000612cfc82612d63565b9150612d0783612d63565b925082821015612d1a57612d19612e2a565b5b828203905092915050565b6000612d3082612d43565b9050919050565b60008115159050919050565b600073ffffffffffffffffffffffffffffffffffffffff82169050919050565b6000819050919050565b82818337600083830152505050565b60005b83811015612d9a578082015181840152602081019050612d7f565b83811115612da9576000848401525b50505050565b60006002820490506001821680612dc757607f821691505b60208210811415612ddb57612dda612e88565b5b50919050565b6000612dec82612d63565b91507fffffffffffffffffffffffffffffffffffffffffffffffffffffffffffffffff821415612e1f57612e1e612e2a565b5b600182019050919050565b7f4e487b7100000000000000000000000000000000000000000000000000000000600052601160045260246000fd5b7f4e487b7100000000000000000000000000000000000000000000000000000000600052601260045260246000fd5b7f4e487b7100000000000000000000000000000000000000000000000000000000600052602260045260246000fd5b7f4e487b7100000000000000000000000000000000000000000000000000000000600052604160045260246000fd5b6000601f19601f8301169050919050565b612f0081612d25565b8114612f0b57600080fd5b50565b612f1781612d37565b8114612f2257600080fd5b50565b612f2e81612d63565b8114612f3957600080fd5b5056fea2646970667358221220ba77465c08c4dd4814ab1e883f21aa6481de4f20f28cb5d63de979e67e5f9e9d64736f6c63430008000033",
  "linkReferences": {},
  "deployedLinkReferences": {}
}