{
  "_format": "hh-sol-artifact-1",
  "contractName": "DecentralizedInsurance",
  "sourceName": "contracts/functions.sol",
  "abi": [
    {
      "inputs": [],
      "stateMutability": "nonpayable",
      "type": "constructor"
    },
    {
      "anonymous": false,
      "inputs": [
        {
          "indexed": false,
          "internalType": "uint256",
          "name": "requestId",
          "type": "uint256"
        },
        {
          "indexed": false,
          "internalType": "uint256",
          "name": "claimAmount",
          "type": "uint256"
        }
      ],
      "name": "ClaimSettled",
      "type": "event"
    },
    {
      "anonymous": false,
      "inputs": [
        {
          "indexed": false,
          "internalType": "address",
          "name": "customer",
          "type": "address"
        },
        {
          "indexed": false,
          "internalType": "uint256",
          "name": "rate",
          "type": "uint256"
        }
      ],
      "name": "CustomerRegistered",
      "type": "event"
    },
    {
      "anonymous": false,
      "inputs": [
        {
          "indexed": false,
          "internalType": "uint256",
          "name": "planId",
          "type": "uint256"
        },
        {
          "indexed": false,
          "internalType": "uint256",
          "name": "companyId",
          "type": "uint256"
        }
      ],
      "name": "PlanCreated",
      "type": "event"
    },
    {
      "anonymous": false,
      "inputs": [
        {
          "indexed": false,
          "internalType": "uint256",
          "name": "planId",
          "type": "uint256"
        },
        {
          "indexed": false,
          "internalType": "address",
          "name": "customer",
          "type": "address"
        },
        {
          "indexed": false,
          "internalType": "uint256",
          "name": "amount",
          "type": "uint256"
        }
      ],
      "name": "PremiumPaid",
      "type": "event"
    },
    {
      "anonymous": false,
      "inputs": [
        {
          "indexed": false,
          "internalType": "uint256",
          "name": "requestId",
          "type": "uint256"
        },
        {
          "indexed": false,
          "internalType": "bool",
          "name": "isApproved",
          "type": "bool"
        }
      ],
      "name": "RequestResponded",
      "type": "event"
    },
    {
      "anonymous": false,
      "inputs": [
        {
          "indexed": false,
          "internalType": "uint256",
          "name": "requestId",
          "type": "uint256"
        },
        {
          "indexed": false,
          "internalType": "address",
          "name": "customer",
          "type": "address"
        },
        {
          "indexed": false,
          "internalType": "uint256",
          "name": "planId",
          "type": "uint256"
        }
      ],
      "name": "RequestSubmitted",
      "type": "event"
    },
    {
      "inputs": [
        {
          "internalType": "uint256",
          "name": "_requestId",
          "type": "uint256"
        },
        {
          "internalType": "bool",
          "name": "_approve",
          "type": "bool"
        }
      ],
      "name": "Request_decision_By_Company",
      "outputs": [],
      "stateMutability": "nonpayable",
      "type": "function"
    },
    {
      "inputs": [
        {
          "internalType": "uint256",
          "name": "_requestId",
          "type": "uint256"
        }
      ],
      "name": "acceptOffer",
      "outputs": [],
      "stateMutability": "nonpayable",
      "type": "function"
    },
    {
      "inputs": [],
      "name": "admin",
      "outputs": [
        {
          "internalType": "address",
          "name": "",
          "type": "address"
        }
      ],
      "stateMutability": "view",
      "type": "function"
    },
    {
      "inputs": [
        {
          "internalType": "uint256",
          "name": "_companyId",
          "type": "uint256"
        }
      ],
      "name": "banCompany",
      "outputs": [],
      "stateMutability": "nonpayable",
      "type": "function"
    },
    {
      "inputs": [
        {
          "internalType": "string",
          "name": "",
          "type": "string"
        }
      ],
      "name": "bannedCompanyNames",
      "outputs": [
        {
          "internalType": "bool",
          "name": "",
          "type": "bool"
        }
      ],
      "stateMutability": "view",
      "type": "function"
    },
    {
      "inputs": [
        {
          "internalType": "uint256",
          "name": "_planId",
          "type": "uint256"
        },
        {
          "internalType": "bool",
          "name": "_status",
          "type": "bool"
        }
      ],
      "name": "changePlanStatus",
      "outputs": [],
      "stateMutability": "nonpayable",
      "type": "function"
    },
    {
      "inputs": [
        {
          "internalType": "uint256",
          "name": "",
          "type": "uint256"
        }
      ],
      "name": "companies",
      "outputs": [
        {
          "internalType": "uint256",
          "name": "id",
          "type": "uint256"
        },
        {
          "internalType": "address",
          "name": "addr",
          "type": "address"
        },
        {
          "internalType": "string",
          "name": "name",
          "type": "string"
        },
        {
          "internalType": "uint256",
          "name": "customer_rating",
          "type": "uint256"
        }
      ],
      "stateMutability": "view",
      "type": "function"
    },
    {
      "inputs": [
        {
          "internalType": "address",
          "name": "",
          "type": "address"
        }
      ],
      "name": "companyIds",
      "outputs": [
        {
          "internalType": "uint256",
          "name": "",
          "type": "uint256"
        }
      ],
      "stateMutability": "view",
      "type": "function"
    },
    {
      "inputs": [
        {
          "internalType": "string",
          "name": "_name",
          "type": "string"
        },
        {
          "internalType": "string",
          "name": "_description",
          "type": "string"
        },
        {
          "internalType": "uint256",
          "name": "_premium",
          "type": "uint256"
        },
        {
          "internalType": "uint256",
          "name": "_coverageAmount",
          "type": "uint256"
        },
        {
          "internalType": "uint256",
          "name": "_duration",
          "type": "uint256"
        }
      ],
      "name": "createPlan",
      "outputs": [],
      "stateMutability": "nonpayable",
      "type": "function"
    },
    {
      "inputs": [
        {
          "internalType": "string",
          "name": "",
          "type": "string"
        }
      ],
      "name": "customers",
      "outputs": [
        {
          "internalType": "address",
          "name": "addr",
          "type": "address"
        },
        {
          "internalType": "string",
          "name": "name",
          "type": "string"
        },
        {
          "internalType": "uint256",
          "name": "rate",
          "type": "uint256"
        },
        {
          "internalType": "bool",
          "name": "isRegistered",
          "type": "bool"
        }
      ],
      "stateMutability": "view",
      "type": "function"
    },
    {
      "inputs": [
        {
          "internalType": "uint256",
          "name": "_requestId",
          "type": "uint256"
        }
      ],
      "name": "denyOffer",
      "outputs": [],
      "stateMutability": "nonpayable",
      "type": "function"
    },
    {
      "inputs": [
        {
          "internalType": "string",
          "name": "_name",
          "type": "string"
        }
      ],
      "name": "getCustomer",
      "outputs": [
        {
          "components": [
            {
              "internalType": "address",
              "name": "addr",
              "type": "address"
            },
            {
              "internalType": "string",
              "name": "name",
              "type": "string"
            },
            {
              "internalType": "uint256",
              "name": "rate",
              "type": "uint256"
            },
            {
              "internalType": "bool",
              "name": "isRegistered",
              "type": "bool"
            }
          ],
          "internalType": "struct DecentralizedInsurance.Customer",
          "name": "",
          "type": "tuple"
        }
      ],
      "stateMutability": "view",
      "type": "function"
    },
    {
      "inputs": [
        {
          "internalType": "uint256",
          "name": "",
          "type": "uint256"
        }
      ],
      "name": "insurancePlans",
      "outputs": [
        {
          "internalType": "uint256",
          "name": "id",
          "type": "uint256"
        },
        {
          "internalType": "uint256",
          "name": "companyId",
          "type": "uint256"
        },
        {
          "internalType": "string",
          "name": "name",
          "type": "string"
        },
        {
          "internalType": "string",
          "name": "description",
          "type": "string"
        },
        {
          "internalType": "uint256",
          "name": "premium",
          "type": "uint256"
        },
        {
          "internalType": "uint256",
          "name": "coverageAmount",
          "type": "uint256"
        },
        {
          "internalType": "uint256",
          "name": "duration",
          "type": "uint256"
        },
        {
          "internalType": "bool",
          "name": "isActive",
          "type": "bool"
        }
      ],
      "stateMutability": "view",
      "type": "function"
    },
    {
      "inputs": [],
      "name": "nextCompanyId",
      "outputs": [
        {
          "internalType": "uint256",
          "name": "",
          "type": "uint256"
        }
      ],
      "stateMutability": "view",
      "type": "function"
    },
    {
      "inputs": [
        {
          "internalType": "uint256",
          "name": "_planId",
          "type": "uint256"
        }
      ],
      "name": "payPremium",
      "outputs": [],
      "stateMutability": "payable",
      "type": "function"
    },
    {
      "inputs": [
        {
          "internalType": "string",
          "name": "_name",
          "type": "string"
        },
        {
          "internalType": "uint256",
          "name": "_rate",
          "type": "uint256"
        }
      ],
      "name": "registerCompany",
      "outputs": [],
      "stateMutability": "nonpayable",
      "type": "function"
    },
    {
      "inputs": [
        {
          "internalType": "string",
          "name": "_name",
          "type": "string"
        },
        {
          "internalType": "uint256",
          "name": "_rate",
          "type": "uint256"
        }
      ],
      "name": "registerCustomer",
      "outputs": [],
      "stateMutability": "nonpayable",
      "type": "function"
    },
    {
      "inputs": [
        {
          "internalType": "uint256",
          "name": "",
          "type": "uint256"
        }
      ],
      "name": "requests",
      "outputs": [
        {
          "internalType": "uint256",
          "name": "id",
          "type": "uint256"
        },
        {
          "internalType": "address",
          "name": "customer",
          "type": "address"
        },
        {
          "internalType": "uint256",
          "name": "planId",
          "type": "uint256"
        },
        {
          "internalType": "bool",
          "name": "Company_Approved",
          "type": "bool"
        },
        {
          "internalType": "bool",
          "name": "Customer_Approved",
          "type": "bool"
        },
        {
          "internalType": "int256",
          "name": "isActive",
          "type": "int256"
        },
        {
          "internalType": "bool",
          "name": "isClaimed",
          "type": "bool"
        },
        {
          "internalType": "uint256",
          "name": "claimAmount",
          "type": "uint256"
        }
      ],
      "stateMutability": "view",
      "type": "function"
    },
    {
      "inputs": [
        {
          "internalType": "uint256",
          "name": "_fee",
          "type": "uint256"
        }
      ],
      "name": "setPlatformFee",
      "outputs": [],
      "stateMutability": "nonpayable",
      "type": "function"
    },
    {
      "inputs": [
        {
          "internalType": "uint256",
          "name": "_requestId",
          "type": "uint256"
        }
      ],
      "name": "settleClaim",
      "outputs": [],
      "stateMutability": "nonpayable",
      "type": "function"
    },
    {
      "inputs": [
        {
          "internalType": "string",
          "name": "name_",
          "type": "string"
        },
        {
          "internalType": "uint256",
          "name": "_planId",
          "type": "uint256"
        }
      ],
      "name": "submitRequest",
      "outputs": [],
      "stateMutability": "nonpayable",
      "type": "function"
    },
    {
      "inputs": [
        {
          "internalType": "string",
          "name": "_name",
          "type": "string"
        }
      ],
      "name": "unbanCompany",
      "outputs": [],
      "stateMutability": "nonpayable",
      "type": "function"
    },
    {
      "inputs": [],
      "name": "viewPlans",
      "outputs": [
        {
          "components": [
            {
              "internalType": "uint256",
              "name": "id",
              "type": "uint256"
            },
            {
              "internalType": "uint256",
              "name": "companyId",
              "type": "uint256"
            },
            {
              "internalType": "string",
              "name": "name",
              "type": "string"
            },
            {
              "internalType": "string",
              "name": "description",
              "type": "string"
            },
            {
              "internalType": "uint256",
              "name": "premium",
              "type": "uint256"
            },
            {
              "internalType": "uint256",
              "name": "coverageAmount",
              "type": "uint256"
            },
            {
              "internalType": "uint256",
              "name": "duration",
              "type": "uint256"
            },
            {
              "internalType": "bool",
              "name": "isActive",
              "type": "bool"
            }
          ],
          "internalType": "struct DecentralizedInsurance.InsurancePlan[]",
          "name": "",
          "type": "tuple[]"
        }
      ],
      "stateMutability": "view",
      "type": "function"
    },
    {
      "inputs": [],
      "name": "viewRequests",
      "outputs": [
        {
          "components": [
            {
              "internalType": "uint256",
              "name": "id",
              "type": "uint256"
            },
            {
              "internalType": "address",
              "name": "customer",
              "type": "address"
            },
            {
              "internalType": "uint256",
              "name": "planId",
              "type": "uint256"
            },
            {
              "internalType": "bool",
              "name": "Company_Approved",
              "type": "bool"
            },
            {
              "internalType": "bool",
              "name": "Customer_Approved",
              "type": "bool"
            },
            {
              "internalType": "int256",
              "name": "isActive",
              "type": "int256"
            },
            {
              "internalType": "bool",
              "name": "isClaimed",
              "type": "bool"
            },
            {
              "internalType": "uint256",
              "name": "claimAmount",
              "type": "uint256"
            }
          ],
          "internalType": "struct DecentralizedInsurance.Request[]",
          "name": "",
          "type": "tuple[]"
        }
      ],
      "stateMutability": "view",
      "type": "function"
    }
  ],
  "bytecode": "0x608060405260056000556001600355600160045534801561001f57600080fd5b5033600160006101000a81548173ffffffffffffffffffffffffffffffffffffffff021916908373ffffffffffffffffffffffffffffffffffffffff1602179055506001600281905550614333806100786000396000f3fe60806040526004361061014b5760003560e01c806381d12c58116100b6578063d8d3c8291161006f578063d8d3c829146104ae578063e406f1d8146104d9578063e5584ed714610502578063ec1b70661461052b578063f851a4401461056f578063ffc8cf8f1461059a5761014b565b806381d12c581461035e5780639f242f22146103a2578063a82c98d0146103df578063b5cb71a81461041f578063c815729d14610448578063d448ee4c146104715761014b565b80635170c1aa116101085780635170c1aa14610252578063518bddd91461027b578063521e686d146102b85780635bffa51d146102e35780635d8e63971461030c5780637746dfa9146103355761014b565b806312e8e2c3146101505780631714ae63146101795780632813d19d146101a25780634364b26e146101e257806343d4c370146101fe57806348e9807f14610227575b600080fd5b34801561015c57600080fd5b5061017760048036038101906101729190612e91565b6105c3565b005b34801561018557600080fd5b506101a0600480360381019061019b9190612e3d565b61065d565b005b3480156101ae57600080fd5b506101c960048036038101906101c49190612e91565b6107f2565b6040516101d99493929190613d1e565b60405180910390f35b6101fc60048036038101906101f79190612e91565b6108ca565b005b34801561020a57600080fd5b5061022560048036038101906102209190612eba565b610acb565b005b34801561023357600080fd5b5061023c610c9b565b60405161024991906139e2565b60405180910390f35b34801561025e57600080fd5b5061027960048036038101906102749190612e3d565b610f63565b005b34801561028757600080fd5b506102a2600480360381019061029d9190612d55565b611253565b6040516102af9190613ce1565b60405180910390f35b3480156102c457600080fd5b506102cd611407565b6040516102da9190613a04565b60405180910390f35b3480156102ef57600080fd5b5061030a60048036038101906103059190612e91565b61171f565b005b34801561031857600080fd5b50610333600480360381019061032e9190612eba565b611926565b005b34801561034157600080fd5b5061035c60048036038101906103579190612e91565b611b05565b005b34801561036a57600080fd5b5061038560048036038101906103809190612e91565b611ce2565b604051610399989796959493929190613da1565b60405180910390f35b3480156103ae57600080fd5b506103c960048036038101906103c49190612d2c565b611d71565b6040516103d69190613d03565b60405180910390f35b3480156103eb57600080fd5b5061040660048036038101906104019190612d55565b611d89565b604051610416949392919061396d565b60405180910390f35b34801561042b57600080fd5b5061044660048036038101906104419190612e3d565b611e84565b005b34801561045457600080fd5b5061046f600480360381019061046a9190612e91565b6120f2565b005b34801561047d57600080fd5b5061049860048036038101906104939190612d55565b6122cd565b6040516104a59190613a26565b60405180910390f35b3480156104ba57600080fd5b506104c3612303565b6040516104d09190613d03565b60405180910390f35b3480156104e557600080fd5b5061050060048036038101906104fb9190612e91565b612309565b005b34801561050e57600080fd5b5061052960048036038101906105249190612d96565b6125d1565b005b34801561053757600080fd5b50610552600480360381019061054d9190612e91565b6127f9565b604051610566989796959493929190613e71565b60405180910390f35b34801561057b57600080fd5b5061058461295e565b6040516105919190613952565b60405180910390f35b3480156105a657600080fd5b506105c160048036038101906105bc9190612d55565b612984565b005b600160009054906101000a900473ffffffffffffffffffffffffffffffffffffffff1673ffffffffffffffffffffffffffffffffffffffff163373ffffffffffffffffffffffffffffffffffffffff1614610653576040517f08c379a000000000000000000000000000000000000000000000000000000000815260040161064a90613b01565b60405180910390fd5b8060008190555050565b60098260405161066d9190613924565b908152602001604051809103902060030160009054906101000a900460ff16156106cc576040517f08c379a00000000000000000000000000000000000000000000000000000000081526004016106c390613be1565b60405180910390fd5b60405180608001604052803373ffffffffffffffffffffffffffffffffffffffff168152602001838152602001828152602001600115158152506009836040516107169190613924565b908152602001604051809103902060008201518160000160006101000a81548173ffffffffffffffffffffffffffffffffffffffff021916908373ffffffffffffffffffffffffffffffffffffffff1602179055506020820151816001019080519060200190610787929190612aba565b506040820151816002015560608201518160030160006101000a81548160ff0219169083151502179055509050507f3e2e23ad95ac9d48f62299dd498880d0e69059ed54888b0b71031dc2615f9a6033826040516107e69291906139b9565b60405180910390a15050565b60076020528060005260406000206000915090508060000154908060010160009054906101000a900473ffffffffffffffffffffffffffffffffffffffff169080600201805461084190614170565b80601f016020809104026020016040519081016040528092919081815260200182805461086d90614170565b80156108ba5780601f1061088f576101008083540402835291602001916108ba565b820191906000526020600020905b81548152906001019060200180831161089d57829003601f168201915b5050505050908060030154905084565b60006005600083815260200190815260200160002090508060070160009054906101000a900460ff16610932576040517f08c379a000000000000000000000000000000000000000000000000000000000815260040161092990613c21565b60405180910390fd5b80600401543414610978576040517f08c379a000000000000000000000000000000000000000000000000000000000815260040161096f90613ae1565b60405180910390fd5b600060646000543461098a919061404e565b610994919061401d565b9050600760008360010154815260200190815260200160002060010160009054906101000a900473ffffffffffffffffffffffffffffffffffffffff1673ffffffffffffffffffffffffffffffffffffffff166108fc82346109f691906140a8565b9081150290604051600060405180830381858888f19350505050158015610a21573d6000803e3d6000fd5b50600160009054906101000a900473ffffffffffffffffffffffffffffffffffffffff1673ffffffffffffffffffffffffffffffffffffffff166108fc829081150290604051600060405180830381858888f19350505050158015610a8a573d6000803e3d6000fd5b507ffbf1458fbbddabb878de144276216e8ccda619cbac2d598e6ee37ff72173afb1833334604051610abe93929190613d6a565b60405180910390a1505050565b60006006600084815260200190815260200160002090506000600860003373ffffffffffffffffffffffffffffffffffffffff1673ffffffffffffffffffffffffffffffffffffffff1681526020019081526020016000205490508060056000600660008881526020019081526020016000206002015481526020019081526020016000206001015414610b94576040517f08c379a0000000000000000000000000000000000000000000000000000000008152600401610b8b90613cc1565b60405180910390fd5b6000600660008681526020019081526020016000206004015414610bed576040517f08c379a0000000000000000000000000000000000000000000000000000000008152600401610be490613ba1565b60405180910390fd5b8215610c155760018260030160006101000a81548160ff021916908315150217905550610c5c565b60008260030160006101000a81548160ff0219169083151502179055507fffffffffffffffffffffffffffffffffffffffffffffffffffffffffffffffff82600401819055505b7f5925f6070dba9d3c5caa9c961d661ea0c1772d7f95af99d278fe9e5b4e53caba8484604051610c8d929190613e1f565b60405180910390a150505050565b606060006001600354610cae91906140a8565b67ffffffffffffffff811115610ced577f4e487b7100000000000000000000000000000000000000000000000000000000600052604160045260246000fd5b604051908082528060200260200182016040528015610d2657816020015b610d13612b40565b815260200190600190039081610d0b5790505b509050600080600190505b600354811015610f5a576005600082815260200190815260200160002060070160009054906101000a900460ff1615610f475760056000828152602001908152602001600020604051806101000160405290816000820154815260200160018201548152602001600282018054610da790614170565b80601f0160208091040260200160405190810160405280929190818152602001828054610dd390614170565b8015610e205780601f10610df557610100808354040283529160200191610e20565b820191906000526020600020905b815481529060010190602001808311610e0357829003601f168201915b50505050508152602001600382018054610e3990614170565b80601f0160208091040260200160405190810160405280929190818152602001828054610e6590614170565b8015610eb25780601f10610e8757610100808354040283529160200191610eb2565b820191906000526020600020905b815481529060010190602001808311610e9557829003601f168201915b505050505081526020016004820154815260200160058201548152602001600682015481526020016007820160009054906101000a900460ff161515151581525050838381518110610f2d577f4e487b7100000000000000000000000000000000000000000000000000000000600052603260045260246000fd5b60200260200101819052508180610f43906141a2565b9250505b8080610f52906141a2565b915050610d31565b50819250505090565b600160009054906101000a900473ffffffffffffffffffffffffffffffffffffffff1673ffffffffffffffffffffffffffffffffffffffff163373ffffffffffffffffffffffffffffffffffffffff1614610ff3576040517f08c379a0000000000000000000000000000000000000000000000000000000008152600401610fea90613b01565b60405180910390fd5b600a826040516110039190613924565b908152602001604051809103902060009054906101000a900460ff161561105f576040517f08c379a000000000000000000000000000000000000000000000000000000000815260040161105690613c61565b60405180910390fd5b6000600190505b60025481101561112757826040516020016110819190613924565b60405160208183030381529060405280519060200120600760008381526020019081526020016000206002016040516020016110bd919061393b565b604051602081830303815290604052805190602001201415611114576040517f08c379a000000000000000000000000000000000000000000000000000000000815260040161110b90613ca1565b60405180910390fd5b808061111f906141a2565b915050611066565b50604051806080016040528060025481526020013373ffffffffffffffffffffffffffffffffffffffff168152602001838152602001828152506007600060025481526020019081526020016000206000820151816000015560208201518160010160006101000a81548173ffffffffffffffffffffffffffffffffffffffff021916908373ffffffffffffffffffffffffffffffffffffffff16021790555060408201518160020190805190602001906111e3929190612aba565b5060608201518160030155905050600254600860003373ffffffffffffffffffffffffffffffffffffffff1673ffffffffffffffffffffffffffffffffffffffff168152602001908152602001600020819055506002600081548092919061124a906141a2565b91905055505050565b61125b612b87565b60098260405161126b9190613924565b908152602001604051809103902060030160009054906101000a900460ff16156112ca576040517f08c379a00000000000000000000000000000000000000000000000000000000081526004016112c190613be1565b60405180910390fd5b6009826040516112da9190613924565b90815260200160405180910390206040518060800160405290816000820160009054906101000a900473ffffffffffffffffffffffffffffffffffffffff1673ffffffffffffffffffffffffffffffffffffffff1673ffffffffffffffffffffffffffffffffffffffff16815260200160018201805461135990614170565b80601f016020809104026020016040519081016040528092919081815260200182805461138590614170565b80156113d25780601f106113a7576101008083540402835291602001916113d2565b820191906000526020600020905b8154815290600101906020018083116113b557829003601f168201915b50505050508152602001600282015481526020016003820160009054906101000a900460ff1615151515815250509050919050565b6060600080600860003373ffffffffffffffffffffffffffffffffffffffff1673ffffffffffffffffffffffffffffffffffffffff1681526020019081526020016000205490506000600190505b6004548110156114d85760006006600083815260200190815260200160002060020154141580156114b1575081600560006006600085815260200190815260200160002060020154815260200190815260200160002060010154145b156114c55782806114c1906141a2565b9350505b80806114d0906141a2565b915050611455565b5060008267ffffffffffffffff81111561151b577f4e487b7100000000000000000000000000000000000000000000000000000000600052604160045260246000fd5b60405190808252806020026020018201604052801561155457816020015b611541612bc7565b8152602001906001900390816115395790505b509050600080600190505b6004548110156117145760006006600083815260200190815260200160002060020154141580156115bb575083600560006006600085815260200190815260200160002060020154815260200190815260200160002060010154145b15611701576006600082815260200190815260200160002060405180610100016040529081600082015481526020016001820160009054906101000a900473ffffffffffffffffffffffffffffffffffffffff1673ffffffffffffffffffffffffffffffffffffffff1673ffffffffffffffffffffffffffffffffffffffff168152602001600282015481526020016003820160009054906101000a900460ff161515151581526020016003820160019054906101000a900460ff16151515158152602001600482015481526020016005820160009054906101000a900460ff161515151581526020016006820154815250508383815181106116e7577f4e487b7100000000000000000000000000000000000000000000000000000000600052603260045260246000fd5b602002602001018190525081806116fd906141a2565b9250505b808061170c906141a2565b91505061155f565b508194505050505090565b600160009054906101000a900473ffffffffffffffffffffffffffffffffffffffff1673ffffffffffffffffffffffffffffffffffffffff163373ffffffffffffffffffffffffffffffffffffffff16146117af576040517f08c379a00000000000000000000000000000000000000000000000000000000081526004016117a690613b01565b60405180910390fd5b60006007600083815260200190815260200160002060020180546117d290614170565b80601f01602080910402602001604051908101604052809291908181526020018280546117fe90614170565b801561184b5780601f106118205761010080835404028352916020019161184b565b820191906000526020600020905b81548152906001019060200180831161182e57829003601f168201915b5050505050905060006007600084815260200190815260200160002060010160009054906101000a900473ffffffffffffffffffffffffffffffffffffffff1690506001600a8360405161189f9190613924565b908152602001604051809103902060006101000a81548160ff021916908315150217905550600760008481526020019081526020016000206000808201600090556001820160006101000a81549073ffffffffffffffffffffffffffffffffffffffff02191690556002820160006119179190612c28565b60038201600090555050505050565b6000600860003373ffffffffffffffffffffffffffffffffffffffff1673ffffffffffffffffffffffffffffffffffffffff168152602001908152602001600020549050600073ffffffffffffffffffffffffffffffffffffffff166007600083815260200190815260200160002060010160009054906101000a900473ffffffffffffffffffffffffffffffffffffffff1673ffffffffffffffffffffffffffffffffffffffff161415611a10576040517f08c379a0000000000000000000000000000000000000000000000000000000008152600401611a0790613b21565b60405180910390fd5b80600560008581526020019081526020016000206001015414611a68576040517f08c379a0000000000000000000000000000000000000000000000000000000008152600401611a5f90613b81565b60405180910390fd5b8115156005600085815260200190815260200160002060070160009054906101000a900460ff1615151415611ad2576040517f08c379a0000000000000000000000000000000000000000000000000000000008152600401611ac990613a81565b60405180910390fd5b816005600085815260200190815260200160002060070160006101000a81548160ff021916908315150217905550505050565b60006006600083815260200190815260200160002090503373ffffffffffffffffffffffffffffffffffffffff168160010160009054906101000a900473ffffffffffffffffffffffffffffffffffffffff1673ffffffffffffffffffffffffffffffffffffffff1614611bae576040517f08c379a0000000000000000000000000000000000000000000000000000000008152600401611ba590613b81565b60405180910390fd5b6000816004015414611bf5576040517f08c379a0000000000000000000000000000000000000000000000000000000008152600401611bec90613ba1565b60405180910390fd5b8060030160019054906101000a900460ff1615611c47576040517f08c379a0000000000000000000000000000000000000000000000000000000008152600401611c3e90613a41565b60405180910390fd5b8060030160009054906101000a900460ff16611c98576040517f08c379a0000000000000000000000000000000000000000000000000000000008152600401611c8f90613bc1565b60405180910390fd5b60008160030160016101000a81548160ff0219169083151502179055507fffffffffffffffffffffffffffffffffffffffffffffffffffffffffffffffff81600401819055505050565b60066020528060005260406000206000915090508060000154908060010160009054906101000a900473ffffffffffffffffffffffffffffffffffffffff16908060020154908060030160009054906101000a900460ff16908060030160019054906101000a900460ff16908060040154908060050160009054906101000a900460ff16908060060154905088565b60086020528060005260406000206000915090505481565b6009818051602081018201805184825260208301602085012081835280955050505050506000915090508060000160009054906101000a900473ffffffffffffffffffffffffffffffffffffffff1690806001018054611de890614170565b80601f0160208091040260200160405190810160405280929190818152602001828054611e1490614170565b8015611e615780601f10611e3657610100808354040283529160200191611e61565b820191906000526020600020905b815481529060010190602001808311611e4457829003601f168201915b5050505050908060020154908060030160009054906101000a900460ff16905084565b600982604051611e949190613924565b908152602001604051809103902060030160009054906101000a900460ff16611ef2576040517f08c379a0000000000000000000000000000000000000000000000000000000008152600401611ee990613ac1565b60405180910390fd5b6005600082815260200190815260200160002060070160009054906101000a900460ff16611f55576040517f08c379a0000000000000000000000000000000000000000000000000000000008152600401611f4c90613aa1565b60405180910390fd5b60405180610100016040528060045481526020013373ffffffffffffffffffffffffffffffffffffffff1681526020018281526020016000151581526020016000151581526020016000815260200160001515815260200160008152506006600060045481526020019081526020016000206000820151816000015560208201518160010160006101000a81548173ffffffffffffffffffffffffffffffffffffffff021916908373ffffffffffffffffffffffffffffffffffffffff1602179055506040820151816002015560608201518160030160006101000a81548160ff02191690831515021790555060808201518160030160016101000a81548160ff02191690831515021790555060a0820151816004015560c08201518160050160006101000a81548160ff02191690831515021790555060e082015181600601559050507fded47fe1c7f7878a21a47327b3f5172551c245be83ba771fe716cdbe1bf55c7a60045433836040516120ce93929190613d6a565b60405180910390a1600460008154809291906120e9906141a2565b91905055505050565b60006006600083815260200190815260200160002090503373ffffffffffffffffffffffffffffffffffffffff168160010160009054906101000a900473ffffffffffffffffffffffffffffffffffffffff1673ffffffffffffffffffffffffffffffffffffffff161461219b576040517f08c379a000000000000000000000000000000000000000000000000000000000815260040161219290613b81565b60405180910390fd5b60008160040154146121e2576040517f08c379a00000000000000000000000000000000000000000000000000000000081526004016121d990613ba1565b60405180910390fd5b8060030160009054906101000a900460ff16612233576040517f08c379a000000000000000000000000000000000000000000000000000000000815260040161222a90613bc1565b60405180910390fd5b8060050160009054906101000a900460ff1615612285576040517f08c379a000000000000000000000000000000000000000000000000000000000815260040161227c90613c01565b60405180910390fd5b60018160050160006101000a81548160ff02191690831515021790555060018160030160016101000a81548160ff021916908315150217905550600181600401819055505050565b600a818051602081018201805184825260208301602085012081835280955050505050506000915054906101000a900460ff1681565b60025481565b60006006600083815260200190815260200160002090503373ffffffffffffffffffffffffffffffffffffffff16600760008360020154815260200190815260200160002060010160009054906101000a900473ffffffffffffffffffffffffffffffffffffffff1673ffffffffffffffffffffffffffffffffffffffff16146123c8576040517f08c379a00000000000000000000000000000000000000000000000000000000081526004016123bf90613c81565b60405180910390fd5b8060030160009054906101000a900460ff16612419576040517f08c379a000000000000000000000000000000000000000000000000000000000815260040161241090613a61565b60405180910390fd5b8060030160019054906101000a900460ff1661246a576040517f08c379a000000000000000000000000000000000000000000000000000000000815260040161246190613b41565b60405180910390fd5b8060050160009054906101000a900460ff16156124bc576040517f08c379a00000000000000000000000000000000000000000000000000000000081526004016124b390613c41565b60405180910390fd5b600081600601546005600084600201548152602001908152602001600020600501541161250357600560008360020154815260200190815260200160002060050154612509565b81600601545b90508160010160009054906101000a900473ffffffffffffffffffffffffffffffffffffffff1673ffffffffffffffffffffffffffffffffffffffff166108fc829081150290604051600060405180830381858888f19350505050158015612575573d6000803e3d6000fd5b5060018260050160006101000a81548160ff0219169083151502179055507fb74faa515c161a6aa3d68dd9ecf21d897dde4efbb1a2b72be2c86508f034175483826040516125c4929190613e48565b60405180910390a1505050565b6000600860003373ffffffffffffffffffffffffffffffffffffffff1673ffffffffffffffffffffffffffffffffffffffff168152602001908152602001600020549050600073ffffffffffffffffffffffffffffffffffffffff166007600083815260200190815260200160002060010160009054906101000a900473ffffffffffffffffffffffffffffffffffffffff1673ffffffffffffffffffffffffffffffffffffffff1614156126bb576040517f08c379a00000000000000000000000000000000000000000000000000000000081526004016126b290613b21565b60405180910390fd5b6040518061010001604052806003548152602001828152602001878152602001868152602001858152602001848152602001838152602001600115158152506005600060035481526020019081526020016000206000820151816000015560208201518160010155604082015181600201908051906020019061273f929190612aba565b50606082015181600301908051906020019061275c929190612aba565b506080820151816004015560a0820151816005015560c0820151816006015560e08201518160070160006101000a81548160ff0219169083151502179055509050507f5fac4c43830252b9984ca8bf915ae2a0774180c35c5472120325c1961e45b62b600354826040516127d1929190613e48565b60405180910390a1600360008154809291906127ec906141a2565b9190505550505050505050565b600560205280600052604060002060009150905080600001549080600101549080600201805461282890614170565b80601f016020809104026020016040519081016040528092919081815260200182805461285490614170565b80156128a15780601f10612876576101008083540402835291602001916128a1565b820191906000526020600020905b81548152906001019060200180831161288457829003601f168201915b5050505050908060030180546128b690614170565b80601f01602080910402602001604051908101604052809291908181526020018280546128e290614170565b801561292f5780601f106129045761010080835404028352916020019161292f565b820191906000526020600020905b81548152906001019060200180831161291257829003601f168201915b5050505050908060040154908060050154908060060154908060070160009054906101000a900460ff16905088565b600160009054906101000a900473ffffffffffffffffffffffffffffffffffffffff1681565b600160009054906101000a900473ffffffffffffffffffffffffffffffffffffffff1673ffffffffffffffffffffffffffffffffffffffff163373ffffffffffffffffffffffffffffffffffffffff1614612a14576040517f08c379a0000000000000000000000000000000000000000000000000000000008152600401612a0b90613b01565b60405180910390fd5b600a81604051612a249190613924565b908152602001604051809103902060009054906101000a900460ff1615612a80576040517f08c379a0000000000000000000000000000000000000000000000000000000008152600401612a7790613b61565b60405180910390fd5b6000600a82604051612a929190613924565b908152602001604051809103902060006101000a81548160ff02191690831515021790555050565b828054612ac690614170565b90600052602060002090601f016020900481019282612ae85760008555612b2f565b82601f10612b0157805160ff1916838001178555612b2f565b82800160010185558215612b2f579182015b82811115612b2e578251825591602001919060010190612b13565b5b509050612b3c9190612c68565b5090565b604051806101000160405280600081526020016000815260200160608152602001606081526020016000815260200160008152602001600081526020016000151581525090565b6040518060800160405280600073ffffffffffffffffffffffffffffffffffffffff16815260200160608152602001600081526020016000151581525090565b60405180610100016040528060008152602001600073ffffffffffffffffffffffffffffffffffffffff1681526020016000815260200160001515815260200160001515815260200160008152602001600015158152602001600081525090565b508054612c3490614170565b6000825580601f10612c465750612c65565b601f016020900490600052602060002090810190612c649190612c68565b5b50565b5b80821115612c81576000816000905550600101612c69565b5090565b6000612c98612c9384613f2e565b613efd565b905082815260208101848484011115612cb057600080fd5b612cbb84828561412e565b509392505050565b600081359050612cd2816142b8565b92915050565b600081359050612ce7816142cf565b92915050565b600082601f830112612cfe57600080fd5b8135612d0e848260208601612c85565b91505092915050565b600081359050612d26816142e6565b92915050565b600060208284031215612d3e57600080fd5b6000612d4c84828501612cc3565b91505092915050565b600060208284031215612d6757600080fd5b600082013567ffffffffffffffff811115612d8157600080fd5b612d8d84828501612ced565b91505092915050565b600080600080600060a08688031215612dae57600080fd5b600086013567ffffffffffffffff811115612dc857600080fd5b612dd488828901612ced565b955050602086013567ffffffffffffffff811115612df157600080fd5b612dfd88828901612ced565b9450506040612e0e88828901612d17565b9350506060612e1f88828901612d17565b9250506080612e3088828901612d17565b9150509295509295909350565b60008060408385031215612e5057600080fd5b600083013567ffffffffffffffff811115612e6a57600080fd5b612e7685828601612ced565b9250506020612e8785828601612d17565b9150509250929050565b600060208284031215612ea357600080fd5b6000612eb184828501612d17565b91505092915050565b60008060408385031215612ecd57600080fd5b6000612edb85828601612d17565b9250506020612eec85828601612cd8565b9150509250929050565b6000612f0283836137ad565b905092915050565b6000612f168383613864565b6101008301905092915050565b612f2c816140dc565b82525050565b612f3b816140dc565b82525050565b6000612f4c82613f93565b612f568185613fce565b935083602082028501612f6885613f5e565b8060005b85811015612fa45784840389528151612f858582612ef6565b9450612f9083613fb4565b925060208a01995050600181019050612f6c565b50829750879550505050505092915050565b6000612fc182613f9e565b612fcb8185613fdf565b9350612fd683613f6e565b8060005b83811015613007578151612fee8882612f0a565b9750612ff983613fc1565b925050600181019050612fda565b5085935050505092915050565b61301d816140ee565b82525050565b61302c816140ee565b82525050565b61303b816140fa565b82525050565b61304a816140fa565b82525050565b600061305b82613fa9565b6130658185613ff0565b935061307581856020860161413d565b61307e816142a7565b840191505092915050565b600061309482613fa9565b61309e8185614001565b93506130ae81856020860161413d565b6130b7816142a7565b840191505092915050565b60006130cd82613fa9565b6130d78185614012565b93506130e781856020860161413d565b80840191505092915050565b6000815461310081614170565b61310a8186614012565b94506001821660008114613125576001811461313657613169565b60ff19831686528186019350613169565b61313f85613f7e565b60005b8381101561316157815481890152600182019150602081019050613142565b838801955050505b50505092915050565b600061317f601983614001565b91507f5265717565737420616c726561647920617070726f7665642e000000000000006000830152602082019050919050565b60006131bf602083614001565b91507f52657175657374206e6f7420617070726f76656420627920636f6d70616e792e6000830152602082019050919050565b60006131ff601483614001565b91507f4e6f206368616e676520696e207374617475732e0000000000000000000000006000830152602082019050919050565b600061323f601783614001565b91507f496e76616c696420696e737572616e636520706c616e2e0000000000000000006000830152602082019050919050565b600061327f601883614001565b91507f437573746f6d6572206e6f7420726567697374657265642e00000000000000006000830152602082019050919050565b60006132bf601983614001565b91507f496e636f7272656374207072656d69756d20616d6f756e742e000000000000006000830152602082019050919050565b60006132ff600b83614001565b91507f4f6e6c792061646d696e2e0000000000000000000000000000000000000000006000830152602082019050919050565b600061333f601983614001565b91507f4e6f742061207265676973746572656420636f6d70616e792e000000000000006000830152602082019050919050565b600061337f602183614001565b91507f52657175657374206e6f7420617070726f76656420627920637573746f6d657260008301527f2e000000000000000000000000000000000000000000000000000000000000006020830152604082019050919050565b60006133e5601683614001565b91507f436f6d70616e79206973206e6f742062616e6e65642e000000000000000000006000830152602082019050919050565b6000613425600f83614001565b91507f4e6f7420617574686f72697a65642e00000000000000000000000000000000006000830152602082019050919050565b6000613465603883614001565b91507f526571756573742069732065697468657220617070726f766564206f7220646560008301527f636c696e65642e20526573756c742069732066696e616c2e00000000000000006020830152604082019050919050565b60006134cb601883614001565b91507f52657175657374206973206e6f7420617070726f7665642e00000000000000006000830152602082019050919050565b600061350b601c83614001565b91507f437573746f6d657220616c726561647920726567697374657265642e000000006000830152602082019050919050565b600061354b601883614001565b91507f5265717565737420616c726561647920636c61696d65642e00000000000000006000830152602082019050919050565b600061358b600d83614001565b91507f496e76616c696420706c616e2e000000000000000000000000000000000000006000830152602082019050919050565b60006135cb601683614001565b91507f436c61696d20616c726561647920736574746c65642e000000000000000000006000830152602082019050919050565b600061360b601783614001565b91507f436f6d70616e79206e616d652069732062616e6e65642e0000000000000000006000830152602082019050919050565b600061364b602383614001565b91507f4f6e6c792074686520636f6d70616e792063616e20736574746c6520636c616960008301527f6d732e00000000000000000000000000000000000000000000000000000000006020830152604082019050919050565b60006136b1602083614001565b91507f436f6d70616e79206e616d6520616c726561647920726567697374657265642e6000830152602082019050919050565b60006136f1602783614001565b91507f4f6e6c792074686520636f6d70616e792063616e206576616c7561746520726560008301527f7175657374732e000000000000000000000000000000000000000000000000006020830152604082019050919050565b60006080830160008301516137626000860182612f23565b506020830151848203602086015261377a8282613050565b915050604083015161378f6040860182613906565b5060608301516137a26060860182613014565b508091505092915050565b6000610100830160008301516137c66000860182613906565b5060208301516137d96020860182613906565b50604083015184820360408601526137f18282613050565b9150506060830151848203606086015261380b8282613050565b91505060808301516138206080860182613906565b5060a083015161383360a0860182613906565b5060c083015161384660c0860182613906565b5060e083015161385960e0860182613014565b508091505092915050565b6101008201600082015161387b6000850182613906565b50602082015161388e6020850182612f23565b5060408201516138a16040850182613906565b5060608201516138b46060850182613014565b5060808201516138c76080850182613014565b5060a08201516138da60a0850182613032565b5060c08201516138ed60c0850182613014565b5060e082015161390060e0850182613906565b50505050565b61390f81614124565b82525050565b61391e81614124565b82525050565b600061393082846130c2565b915081905092915050565b600061394782846130f3565b915081905092915050565b60006020820190506139676000830184612f32565b92915050565b60006080820190506139826000830187612f32565b81810360208301526139948186613089565b90506139a36040830185613915565b6139b06060830184613023565b95945050505050565b60006040820190506139ce6000830185612f32565b6139db6020830184613915565b9392505050565b600060208201905081810360008301526139fc8184612f41565b905092915050565b60006020820190508181036000830152613a1e8184612fb6565b905092915050565b6000602082019050613a3b6000830184613023565b92915050565b60006020820190508181036000830152613a5a81613172565b9050919050565b60006020820190508181036000830152613a7a816131b2565b9050919050565b60006020820190508181036000830152613a9a816131f2565b9050919050565b60006020820190508181036000830152613aba81613232565b9050919050565b60006020820190508181036000830152613ada81613272565b9050919050565b60006020820190508181036000830152613afa816132b2565b9050919050565b60006020820190508181036000830152613b1a816132f2565b9050919050565b60006020820190508181036000830152613b3a81613332565b9050919050565b60006020820190508181036000830152613b5a81613372565b9050919050565b60006020820190508181036000830152613b7a816133d8565b9050919050565b60006020820190508181036000830152613b9a81613418565b9050919050565b60006020820190508181036000830152613bba81613458565b9050919050565b60006020820190508181036000830152613bda816134be565b9050919050565b60006020820190508181036000830152613bfa816134fe565b9050919050565b60006020820190508181036000830152613c1a8161353e565b9050919050565b60006020820190508181036000830152613c3a8161357e565b9050919050565b60006020820190508181036000830152613c5a816135be565b9050919050565b60006020820190508181036000830152613c7a816135fe565b9050919050565b60006020820190508181036000830152613c9a8161363e565b9050919050565b60006020820190508181036000830152613cba816136a4565b9050919050565b60006020820190508181036000830152613cda816136e4565b9050919050565b60006020820190508181036000830152613cfb818461374a565b905092915050565b6000602082019050613d186000830184613915565b92915050565b6000608082019050613d336000830187613915565b613d406020830186612f32565b8181036040830152613d528185613089565b9050613d616060830184613915565b95945050505050565b6000606082019050613d7f6000830186613915565b613d8c6020830185612f32565b613d996040830184613915565b949350505050565b600061010082019050613db7600083018b613915565b613dc4602083018a612f32565b613dd16040830189613915565b613dde6060830188613023565b613deb6080830187613023565b613df860a0830186613041565b613e0560c0830185613023565b613e1260e0830184613915565b9998505050505050505050565b6000604082019050613e346000830185613915565b613e416020830184613023565b9392505050565b6000604082019050613e5d6000830185613915565b613e6a6020830184613915565b9392505050565b600061010082019050613e87600083018b613915565b613e94602083018a613915565b8181036040830152613ea68189613089565b90508181036060830152613eba8188613089565b9050613ec96080830187613915565b613ed660a0830186613915565b613ee360c0830185613915565b613ef060e0830184613023565b9998505050505050505050565b6000604051905081810181811067ffffffffffffffff82111715613f2457613f23614278565b5b8060405250919050565b600067ffffffffffffffff821115613f4957613f48614278565b5b601f19601f8301169050602081019050919050565b6000819050602082019050919050565b6000819050602082019050919050565b60008190508160005260206000209050919050565b600081519050919050565b600081519050919050565b600081519050919050565b6000602082019050919050565b6000602082019050919050565b600082825260208201905092915050565b600082825260208201905092915050565b600082825260208201905092915050565b600082825260208201905092915050565b600081905092915050565b600061402882614124565b915061403383614124565b9250826140435761404261421a565b5b828204905092915050565b600061405982614124565b915061406483614124565b9250817fffffffffffffffffffffffffffffffffffffffffffffffffffffffffffffffff048311821515161561409d5761409c6141eb565b5b828202905092915050565b60006140b382614124565b91506140be83614124565b9250828210156140d1576140d06141eb565b5b828203905092915050565b60006140e782614104565b9050919050565b60008115159050919050565b6000819050919050565b600073ffffffffffffffffffffffffffffffffffffffff82169050919050565b6000819050919050565b82818337600083830152505050565b60005b8381101561415b578082015181840152602081019050614140565b8381111561416a576000848401525b50505050565b6000600282049050600182168061418857607f821691505b6020821081141561419c5761419b614249565b5b50919050565b60006141ad82614124565b91507fffffffffffffffffffffffffffffffffffffffffffffffffffffffffffffffff8214156141e0576141df6141eb565b5b600182019050919050565b7f4e487b7100000000000000000000000000000000000000000000000000000000600052601160045260246000fd5b7f4e487b7100000000000000000000000000000000000000000000000000000000600052601260045260246000fd5b7f4e487b7100000000000000000000000000000000000000000000000000000000600052602260045260246000fd5b7f4e487b7100000000000000000000000000000000000000000000000000000000600052604160045260246000fd5b6000601f19601f8301169050919050565b6142c1816140dc565b81146142cc57600080fd5b50565b6142d8816140ee565b81146142e357600080fd5b50565b6142ef81614124565b81146142fa57600080fd5b5056fea2646970667358221220f7e3a1d826ae351ec13d56bec4468260b1247dda73089a52de2a0d2085c7049f64736f6c63430008000033",
  "linkReferences": {},
  "deployedLinkReferences": {}
}