{
  "_format": "hh-sol-artifact-1",
  "contractName": "DecentralizedInsurance",
  "sourceName": "contracts/functions.sol",
  "abi": [
    {
      "inputs": [],
      "stateMutability": "nonpayable",
      "type": "constructor"
    },
    {
      "anonymous": false,
      "inputs": [
        {
          "indexed": false,
          "internalType": "uint256",
          "name": "requestId",
          "type": "uint256"
        },
        {
          "indexed": false,
          "internalType": "uint256",
          "name": "claimAmount",
          "type": "uint256"
        }
      ],
      "name": "ClaimSettled",
      "type": "event"
    },
    {
      "anonymous": false,
      "inputs": [
        {
          "indexed": false,
          "internalType": "uint256",
          "name": "planId",
          "type": "uint256"
        },
        {
          "indexed": false,
          "internalType": "uint256",
          "name": "companyId",
          "type": "uint256"
        }
      ],
      "name": "PlanCreated",
      "type": "event"
    },
    {
      "anonymous": false,
      "inputs": [
        {
          "indexed": false,
          "internalType": "uint256",
          "name": "planId",
          "type": "uint256"
        },
        {
          "indexed": false,
          "internalType": "address",
          "name": "customer",
          "type": "address"
        },
        {
          "indexed": false,
          "internalType": "uint256",
          "name": "amount",
          "type": "uint256"
        }
      ],
      "name": "PremiumPaid",
      "type": "event"
    },
    {
      "anonymous": false,
      "inputs": [
        {
          "indexed": false,
          "internalType": "uint256",
          "name": "requestId",
          "type": "uint256"
        },
        {
          "indexed": false,
          "internalType": "bool",
          "name": "isApproved",
          "type": "bool"
        }
      ],
      "name": "RequestResponded",
      "type": "event"
    },
    {
      "anonymous": false,
      "inputs": [
        {
          "indexed": false,
          "internalType": "uint256",
          "name": "requestId",
          "type": "uint256"
        },
        {
          "indexed": false,
          "internalType": "address",
          "name": "customer",
          "type": "address"
        },
        {
          "indexed": false,
          "internalType": "uint256",
          "name": "planId",
          "type": "uint256"
        }
      ],
      "name": "RequestSubmitted",
      "type": "event"
    },
    {
      "inputs": [
        {
          "internalType": "uint256",
          "name": "_requestId",
          "type": "uint256"
        },
        {
          "internalType": "bool",
          "name": "_approve",
          "type": "bool"
        },
        {
          "internalType": "uint256",
          "name": "_counterClaimAmount",
          "type": "uint256"
        }
      ],
      "name": "Request_Negotiation",
      "outputs": [],
      "stateMutability": "nonpayable",
      "type": "function"
    },
    {
      "inputs": [],
      "name": "admin",
      "outputs": [
        {
          "internalType": "address",
          "name": "",
          "type": "address"
        }
      ],
      "stateMutability": "view",
      "type": "function"
    },
    {
      "inputs": [
        {
          "internalType": "uint256",
          "name": "_companyId",
          "type": "uint256"
        }
      ],
      "name": "banParticipant",
      "outputs": [],
      "stateMutability": "nonpayable",
      "type": "function"
    },
    {
      "inputs": [
        {
          "internalType": "uint256",
          "name": "",
          "type": "uint256"
        }
      ],
      "name": "companies",
      "outputs": [
        {
          "internalType": "uint256",
          "name": "id",
          "type": "uint256"
        },
        {
          "internalType": "address",
          "name": "addr",
          "type": "address"
        },
        {
          "internalType": "string",
          "name": "name",
          "type": "string"
        },
        {
          "internalType": "uint256",
          "name": "rate",
          "type": "uint256"
        }
      ],
      "stateMutability": "view",
      "type": "function"
    },
    {
      "inputs": [
        {
          "internalType": "address",
          "name": "",
          "type": "address"
        }
      ],
      "name": "companyIds",
      "outputs": [
        {
          "internalType": "uint256",
          "name": "",
          "type": "uint256"
        }
      ],
      "stateMutability": "view",
      "type": "function"
    },
    {
      "inputs": [
        {
          "internalType": "string",
          "name": "_name",
          "type": "string"
        },
        {
          "internalType": "string",
          "name": "_description",
          "type": "string"
        },
        {
          "internalType": "uint256",
          "name": "_premium",
          "type": "uint256"
        },
        {
          "internalType": "uint256",
          "name": "_coverageAmount",
          "type": "uint256"
        },
        {
          "internalType": "uint256",
          "name": "_duration",
          "type": "uint256"
        }
      ],
      "name": "createPlan",
      "outputs": [],
      "stateMutability": "nonpayable",
      "type": "function"
    },
    {
      "inputs": [
        {
          "internalType": "address",
          "name": "",
          "type": "address"
        }
      ],
      "name": "customers",
      "outputs": [
        {
          "internalType": "address",
          "name": "addr",
          "type": "address"
        },
        {
          "internalType": "uint256",
          "name": "rate",
          "type": "uint256"
        }
      ],
      "stateMutability": "view",
      "type": "function"
    },
    {
      "inputs": [
        {
          "internalType": "uint256",
          "name": "_requestId",
          "type": "uint256"
        }
      ],
      "name": "denyOffer",
      "outputs": [],
      "stateMutability": "nonpayable",
      "type": "function"
    },
    {
      "inputs": [
        {
          "internalType": "uint256",
          "name": "_requestId",
          "type": "uint256"
        }
      ],
      "name": "evaluateCustomer",
      "outputs": [
        {
          "internalType": "bool",
          "name": "",
          "type": "bool"
        }
      ],
      "stateMutability": "view",
      "type": "function"
    },
    {
      "inputs": [
        {
          "internalType": "uint256",
          "name": "",
          "type": "uint256"
        }
      ],
      "name": "insurancePlans",
      "outputs": [
        {
          "internalType": "uint256",
          "name": "id",
          "type": "uint256"
        },
        {
          "internalType": "uint256",
          "name": "companyId",
          "type": "uint256"
        },
        {
          "internalType": "string",
          "name": "name",
          "type": "string"
        },
        {
          "internalType": "string",
          "name": "description",
          "type": "string"
        },
        {
          "internalType": "uint256",
          "name": "premium",
          "type": "uint256"
        },
        {
          "internalType": "uint256",
          "name": "coverageAmount",
          "type": "uint256"
        },
        {
          "internalType": "uint256",
          "name": "duration",
          "type": "uint256"
        },
        {
          "internalType": "bool",
          "name": "isActive",
          "type": "bool"
        }
      ],
      "stateMutability": "view",
      "type": "function"
    },
    {
      "inputs": [],
      "name": "nextCompanyId",
      "outputs": [
        {
          "internalType": "uint256",
          "name": "",
          "type": "uint256"
        }
      ],
      "stateMutability": "view",
      "type": "function"
    },
    {
      "inputs": [
        {
          "internalType": "uint256",
          "name": "_planId",
          "type": "uint256"
        }
      ],
      "name": "payPremium",
      "outputs": [],
      "stateMutability": "payable",
      "type": "function"
    },
    {
      "inputs": [
        {
          "internalType": "string",
          "name": "_name",
          "type": "string"
        },
        {
          "internalType": "uint256",
          "name": "_rate",
          "type": "uint256"
        }
      ],
      "name": "registerCompany",
      "outputs": [],
      "stateMutability": "nonpayable",
      "type": "function"
    },
    {
      "inputs": [
        {
          "internalType": "uint256",
          "name": "",
          "type": "uint256"
        }
      ],
      "name": "requests",
      "outputs": [
        {
          "internalType": "uint256",
          "name": "id",
          "type": "uint256"
        },
        {
          "internalType": "address",
          "name": "customer",
          "type": "address"
        },
        {
          "internalType": "uint256",
          "name": "planId",
          "type": "uint256"
        },
        {
          "internalType": "bool",
          "name": "isApproved",
          "type": "bool"
        },
        {
          "internalType": "bool",
          "name": "isClaimed",
          "type": "bool"
        },
        {
          "internalType": "uint256",
          "name": "claimAmount",
          "type": "uint256"
        }
      ],
      "stateMutability": "view",
      "type": "function"
    },
    {
      "inputs": [
        {
          "internalType": "uint256",
          "name": "_fee",
          "type": "uint256"
        }
      ],
      "name": "setPlatformFee",
      "outputs": [],
      "stateMutability": "nonpayable",
      "type": "function"
    },
    {
      "inputs": [
        {
          "internalType": "uint256",
          "name": "_requestId",
          "type": "uint256"
        }
      ],
      "name": "settleClaim",
      "outputs": [],
      "stateMutability": "nonpayable",
      "type": "function"
    },
    {
      "inputs": [
        {
          "internalType": "uint256",
          "name": "_planId",
          "type": "uint256"
        }
      ],
      "name": "submitRequest",
      "outputs": [],
      "stateMutability": "nonpayable",
      "type": "function"
    },
    {
      "inputs": [],
      "name": "viewPlans",
      "outputs": [
        {
          "components": [
            {
              "internalType": "uint256",
              "name": "id",
              "type": "uint256"
            },
            {
              "internalType": "uint256",
              "name": "companyId",
              "type": "uint256"
            },
            {
              "internalType": "string",
              "name": "name",
              "type": "string"
            },
            {
              "internalType": "string",
              "name": "description",
              "type": "string"
            },
            {
              "internalType": "uint256",
              "name": "premium",
              "type": "uint256"
            },
            {
              "internalType": "uint256",
              "name": "coverageAmount",
              "type": "uint256"
            },
            {
              "internalType": "uint256",
              "name": "duration",
              "type": "uint256"
            },
            {
              "internalType": "bool",
              "name": "isActive",
              "type": "bool"
            }
          ],
          "internalType": "struct DecentralizedInsurance.InsurancePlan[]",
          "name": "",
          "type": "tuple[]"
        }
      ],
      "stateMutability": "view",
      "type": "function"
    },
    {
      "inputs": [],
      "name": "viewRequests",
      "outputs": [
        {
          "components": [
            {
              "internalType": "uint256",
              "name": "id",
              "type": "uint256"
            },
            {
              "internalType": "address",
              "name": "customer",
              "type": "address"
            },
            {
              "internalType": "uint256",
              "name": "planId",
              "type": "uint256"
            },
            {
              "internalType": "bool",
              "name": "isApproved",
              "type": "bool"
            },
            {
              "internalType": "bool",
              "name": "isClaimed",
              "type": "bool"
            },
            {
              "internalType": "uint256",
              "name": "claimAmount",
              "type": "uint256"
            }
          ],
          "internalType": "struct DecentralizedInsurance.Request[]",
          "name": "",
          "type": "tuple[]"
        }
      ],
      "stateMutability": "view",
      "type": "function"
    }
  ],
  "bytecode": "0x608060405260056000556001600355600160045534801561001f57600080fd5b5033600160006101000a81548173ffffffffffffffffffffffffffffffffffffffff021916908373ffffffffffffffffffffffffffffffffffffffff1602179055506001600281905550613065806100786000396000f3fe6080604052600436106101145760003560e01c8063521e686d116100a0578063d8d3c82911610064578063d8d3c829146103bb578063e406f1d8146103e6578063e5584ed71461040f578063ec1b706614610438578063f851a4401461047c57610114565b8063521e686d146102ab5780635734d8aa146102d65780637746dfa91461031357806381d12c581461033c5780639f242f221461037e57610114565b80633134e4c4116100e75780633134e4c4146101d4578063336989ae146101fd5780634364b26e1461023b57806348e9807f146102575780635170c1aa1461028257610114565b8063115615c71461011957806312e8e2c3146101425780631cdd16531461016b5780632813d19d14610194575b600080fd5b34801561012557600080fd5b50610140600480360381019061013b9190612138565b6104a7565b005b34801561014e57600080fd5b5061016960048036038101906101649190612138565b61063e565b005b34801561017757600080fd5b50610192600480360381019061018d9190612138565b6106d8565b005b3480156101a057600080fd5b506101bb60048036038101906101b69190612138565b61096e565b6040516101cb9493929190612a97565b60405180910390f35b3480156101e057600080fd5b506101fb60048036038101906101f69190612161565b610a46565b005b34801561020957600080fd5b50610224600480360381019061021f9190612014565b610b80565b604051610232929190612854565b60405180910390f35b61025560048036038101906102509190612138565b610bc4565b005b34801561026357600080fd5b5061026c610dc5565b604051610279919061287d565b60405180910390f35b34801561028e57600080fd5b506102a960048036038101906102a491906120e4565b61108d565b005b3480156102b757600080fd5b506102c0611248565b6040516102cd919061289f565b60405180910390f35b3480156102e257600080fd5b506102fd60048036038101906102f89190612138565b61153a565b60405161030a91906128c1565b60405180910390f35b34801561031f57600080fd5b5061033a60048036038101906103359190612138565b611658565b005b34801561034857600080fd5b50610363600480360381019061035e9190612138565b611774565b60405161037596959493929190612b1a565b60405180910390f35b34801561038a57600080fd5b506103a560048036038101906103a09190612014565b6117ea565b6040516103b29190612a7c565b60405180910390f35b3480156103c757600080fd5b506103d0611802565b6040516103dd9190612a7c565b60405180910390f35b3480156103f257600080fd5b5061040d60048036038101906104089190612138565b611808565b005b34801561041b57600080fd5b506104366004803603810190610431919061203d565b611a7f565b005b34801561044457600080fd5b5061045f600480360381019061045a9190612138565b611c68565b604051610473989796959493929190612bcd565b60405180910390f35b34801561048857600080fd5b50610491611dcd565b60405161049e9190612839565b60405180910390f35b600160009054906101000a900473ffffffffffffffffffffffffffffffffffffffff1673ffffffffffffffffffffffffffffffffffffffff163373ffffffffffffffffffffffffffffffffffffffff1614610537576040517f08c379a000000000000000000000000000000000000000000000000000000000815260040161052e9061297c565b60405180910390fd5b600760008281526020019081526020016000206000808201600090556001820160006101000a81549073ffffffffffffffffffffffffffffffffffffffff021916905560028201600061058a9190611df3565b60038201600090555050600960006007600084815260200190815260200160002060010160009054906101000a900473ffffffffffffffffffffffffffffffffffffffff1673ffffffffffffffffffffffffffffffffffffffff1673ffffffffffffffffffffffffffffffffffffffff168152602001908152602001600020600080820160006101000a81549073ffffffffffffffffffffffffffffffffffffffff02191690556001820160009055505050565b600160009054906101000a900473ffffffffffffffffffffffffffffffffffffffff1673ffffffffffffffffffffffffffffffffffffffff163373ffffffffffffffffffffffffffffffffffffffff16146106ce576040517f08c379a00000000000000000000000000000000000000000000000000000000081526004016106c59061297c565b60405180910390fd5b8060008190555050565b600073ffffffffffffffffffffffffffffffffffffffff16600960003373ffffffffffffffffffffffffffffffffffffffff1673ffffffffffffffffffffffffffffffffffffffff16815260200190815260200160002060000160009054906101000a900473ffffffffffffffffffffffffffffffffffffffff1673ffffffffffffffffffffffffffffffffffffffff1614156107aa576040517f08c379a00000000000000000000000000000000000000000000000000000000081526004016107a19061291c565b60405180910390fd5b6005600082815260200190815260200160002060070160009054906101000a900460ff1661080d576040517f08c379a0000000000000000000000000000000000000000000000000000000008152600401610804906128fc565b60405180910390fd5b6040518060c0016040528060045481526020013373ffffffffffffffffffffffffffffffffffffffff16815260200182815260200160001515815260200160001515815260200160008152506006600060045481526020019081526020016000206000820151816000015560208201518160010160006101000a81548173ffffffffffffffffffffffffffffffffffffffff021916908373ffffffffffffffffffffffffffffffffffffffff1602179055506040820151816002015560608201518160030160006101000a81548160ff02191690831515021790555060808201518160030160016101000a81548160ff02191690831515021790555060a082015181600401559050507fded47fe1c7f7878a21a47327b3f5172551c245be83ba771fe716cdbe1bf55c7a600454338360405161094b93929190612ae3565b60405180910390a16004600081548092919061096690612ed4565b919050555050565b60076020528060005260406000206000915090508060000154908060010160009054906101000a900473ffffffffffffffffffffffffffffffffffffffff16908060020180546109bd90612ea2565b80601f01602080910402602001604051908101604052809291908181526020018280546109e990612ea2565b8015610a365780601f10610a0b57610100808354040283529160200191610a36565b820191906000526020600020905b815481529060010190602001808311610a1957829003601f168201915b5050505050908060030154905084565b60006006600085815260200190815260200160002090503373ffffffffffffffffffffffffffffffffffffffff16600760008360020154815260200190815260200160002060010160009054906101000a900473ffffffffffffffffffffffffffffffffffffffff1673ffffffffffffffffffffffffffffffffffffffff1614610b05576040517f08c379a0000000000000000000000000000000000000000000000000000000008152600401610afc90612a5c565b60405180910390fd5b8215610b2d5760018160030160006101000a81548160ff021916908315150217905550610b41565b6000821115610b40578181600401819055505b5b7f5925f6070dba9d3c5caa9c961d661ea0c1772d7f95af99d278fe9e5b4e53caba8484604051610b72929190612b7b565b60405180910390a150505050565b60096020528060005260406000206000915090508060000160009054906101000a900473ffffffffffffffffffffffffffffffffffffffff16908060010154905082565b60006005600083815260200190815260200160002090508060070160009054906101000a900460ff16610c2c576040517f08c379a0000000000000000000000000000000000000000000000000000000008152600401610c23906129fc565b60405180910390fd5b80600401543414610c72576040517f08c379a0000000000000000000000000000000000000000000000000000000008152600401610c699061295c565b60405180910390fd5b6000606460005434610c849190612d8a565b610c8e9190612d59565b9050600760008360010154815260200190815260200160002060010160009054906101000a900473ffffffffffffffffffffffffffffffffffffffff1673ffffffffffffffffffffffffffffffffffffffff166108fc8234610cf09190612de4565b9081150290604051600060405180830381858888f19350505050158015610d1b573d6000803e3d6000fd5b50600160009054906101000a900473ffffffffffffffffffffffffffffffffffffffff1673ffffffffffffffffffffffffffffffffffffffff166108fc829081150290604051600060405180830381858888f19350505050158015610d84573d6000803e3d6000fd5b507ffbf1458fbbddabb878de144276216e8ccda619cbac2d598e6ee37ff72173afb1833334604051610db893929190612ae3565b60405180910390a1505050565b606060006001600354610dd89190612de4565b67ffffffffffffffff811115610e17577f4e487b7100000000000000000000000000000000000000000000000000000000600052604160045260246000fd5b604051908082528060200260200182016040528015610e5057816020015b610e3d611e33565b815260200190600190039081610e355790505b509050600080600190505b600354811015611084576005600082815260200190815260200160002060070160009054906101000a900460ff16156110715760056000828152602001908152602001600020604051806101000160405290816000820154815260200160018201548152602001600282018054610ed190612ea2565b80601f0160208091040260200160405190810160405280929190818152602001828054610efd90612ea2565b8015610f4a5780601f10610f1f57610100808354040283529160200191610f4a565b820191906000526020600020905b815481529060010190602001808311610f2d57829003601f168201915b50505050508152602001600382018054610f6390612ea2565b80601f0160208091040260200160405190810160405280929190818152602001828054610f8f90612ea2565b8015610fdc5780601f10610fb157610100808354040283529160200191610fdc565b820191906000526020600020905b815481529060010190602001808311610fbf57829003601f168201915b505050505081526020016004820154815260200160058201548152602001600682015481526020016007820160009054906101000a900460ff161515151581525050838381518110611057577f4e487b7100000000000000000000000000000000000000000000000000000000600052603260045260246000fd5b6020026020010181905250818061106d90612ed4565b9250505b808061107c90612ed4565b915050610e5b565b50819250505090565b600160009054906101000a900473ffffffffffffffffffffffffffffffffffffffff1673ffffffffffffffffffffffffffffffffffffffff163373ffffffffffffffffffffffffffffffffffffffff161461111d576040517f08c379a00000000000000000000000000000000000000000000000000000000081526004016111149061297c565b60405180910390fd5b604051806080016040528060025481526020013373ffffffffffffffffffffffffffffffffffffffff168152602001838152602001828152506007600060025481526020019081526020016000206000820151816000015560208201518160010160006101000a81548173ffffffffffffffffffffffffffffffffffffffff021916908373ffffffffffffffffffffffffffffffffffffffff16021790555060408201518160020190805190602001906111d8929190611e7a565b5060608201518160030155905050600254600860003373ffffffffffffffffffffffffffffffffffffffff1673ffffffffffffffffffffffffffffffffffffffff168152602001908152602001600020819055506002600081548092919061123f90612ed4565b91905055505050565b6060600080600860003373ffffffffffffffffffffffffffffffffffffffff1673ffffffffffffffffffffffffffffffffffffffff1681526020019081526020016000205490506000600190505b6004548110156113195760006006600083815260200190815260200160002060020154141580156112f2575081600560006006600085815260200190815260200160002060020154815260200190815260200160002060010154145b1561130657828061130290612ed4565b9350505b808061131190612ed4565b915050611296565b5060008267ffffffffffffffff81111561135c577f4e487b7100000000000000000000000000000000000000000000000000000000600052604160045260246000fd5b60405190808252806020026020018201604052801561139557816020015b611382611f00565b81526020019060019003908161137a5790505b509050600080600190505b60045481101561152f5760006006600083815260200190815260200160002060020154141580156113fc575083600560006006600085815260200190815260200160002060020154815260200190815260200160002060010154145b1561151c57600660008281526020019081526020016000206040518060c0016040529081600082015481526020016001820160009054906101000a900473ffffffffffffffffffffffffffffffffffffffff1673ffffffffffffffffffffffffffffffffffffffff1673ffffffffffffffffffffffffffffffffffffffff168152602001600282015481526020016003820160009054906101000a900460ff161515151581526020016003820160019054906101000a900460ff16151515158152602001600482015481525050838381518110611502577f4e487b7100000000000000000000000000000000000000000000000000000000600052603260045260246000fd5b6020026020010181905250818061151890612ed4565b9250505b808061152790612ed4565b9150506113a0565b508194505050505090565b600080600660008481526020019081526020016000209050600073ffffffffffffffffffffffffffffffffffffffff168160010160009054906101000a900473ffffffffffffffffffffffffffffffffffffffff1673ffffffffffffffffffffffffffffffffffffffff1614156115e6576040517f08c379a00000000000000000000000000000000000000000000000000000000081526004016115dd9061293c565b60405180910390fd5b6006600960008360010160009054906101000a900473ffffffffffffffffffffffffffffffffffffffff1673ffffffffffffffffffffffffffffffffffffffff1673ffffffffffffffffffffffffffffffffffffffff1681526020019081526020016000206001015411915050919050565b60006006600083815260200190815260200160002090503373ffffffffffffffffffffffffffffffffffffffff168160010160009054906101000a900473ffffffffffffffffffffffffffffffffffffffff1673ffffffffffffffffffffffffffffffffffffffff1614611701576040517f08c379a00000000000000000000000000000000000000000000000000000000081526004016116f8906129bc565b60405180910390fd5b8060030160009054906101000a900460ff1615611753576040517f08c379a000000000000000000000000000000000000000000000000000000000815260040161174a906128dc565b60405180910390fd5b60008160030160006101000a81548160ff0219169083151502179055505050565b60066020528060005260406000206000915090508060000154908060010160009054906101000a900473ffffffffffffffffffffffffffffffffffffffff16908060020154908060030160009054906101000a900460ff16908060030160019054906101000a900460ff16908060040154905086565b60086020528060005260406000206000915090505481565b60025481565b60006006600083815260200190815260200160002090503373ffffffffffffffffffffffffffffffffffffffff16600760008360020154815260200190815260200160002060010160009054906101000a900473ffffffffffffffffffffffffffffffffffffffff1673ffffffffffffffffffffffffffffffffffffffff16146118c7576040517f08c379a00000000000000000000000000000000000000000000000000000000081526004016118be90612a3c565b60405180910390fd5b8060030160009054906101000a900460ff16611918576040517f08c379a000000000000000000000000000000000000000000000000000000000815260040161190f906129dc565b60405180910390fd5b8060030160019054906101000a900460ff161561196a576040517f08c379a000000000000000000000000000000000000000000000000000000000815260040161196190612a1c565b60405180910390fd5b60008160040154600560008460020154815260200190815260200160002060050154116119b1576005600083600201548152602001908152602001600020600501546119b7565b81600401545b90508160010160009054906101000a900473ffffffffffffffffffffffffffffffffffffffff1673ffffffffffffffffffffffffffffffffffffffff166108fc829081150290604051600060405180830381858888f19350505050158015611a23573d6000803e3d6000fd5b5060018260030160016101000a81548160ff0219169083151502179055507fb74faa515c161a6aa3d68dd9ecf21d897dde4efbb1a2b72be2c86508f03417548382604051611a72929190612ba4565b60405180910390a1505050565b600073ffffffffffffffffffffffffffffffffffffffff1660076000600254815260200190815260200160002060010160009054906101000a900473ffffffffffffffffffffffffffffffffffffffff1673ffffffffffffffffffffffffffffffffffffffff161415611b27576040517f08c379a0000000000000000000000000000000000000000000000000000000008152600401611b1e9061299c565b60405180910390fd5b604051806101000160405280600354815260200160025481526020018681526020018581526020018481526020018381526020018281526020016001151581525060056000600354815260200190815260200160002060008201518160000155602082015181600101556040820151816002019080519060200190611bad929190611e7a565b506060820151816003019080519060200190611bca929190611e7a565b506080820151816004015560a0820151816005015560c0820151816006015560e08201518160070160006101000a81548160ff0219169083151502179055509050507f5fac4c43830252b9984ca8bf915ae2a0774180c35c5472120325c1961e45b62b600354600254604051611c41929190612ba4565b60405180910390a160036000815480929190611c5c90612ed4565b91905055505050505050565b6005602052806000526040600020600091509050806000015490806001015490806002018054611c9790612ea2565b80601f0160208091040260200160405190810160405280929190818152602001828054611cc390612ea2565b8015611d105780601f10611ce557610100808354040283529160200191611d10565b820191906000526020600020905b815481529060010190602001808311611cf357829003601f168201915b505050505090806003018054611d2590612ea2565b80601f0160208091040260200160405190810160405280929190818152602001828054611d5190612ea2565b8015611d9e5780601f10611d7357610100808354040283529160200191611d9e565b820191906000526020600020905b815481529060010190602001808311611d8157829003601f168201915b5050505050908060040154908060050154908060060154908060070160009054906101000a900460ff16905088565b600160009054906101000a900473ffffffffffffffffffffffffffffffffffffffff1681565b508054611dff90612ea2565b6000825580601f10611e115750611e30565b601f016020900490600052602060002090810190611e2f9190611f50565b5b50565b604051806101000160405280600081526020016000815260200160608152602001606081526020016000815260200160008152602001600081526020016000151581525090565b828054611e8690612ea2565b90600052602060002090601f016020900481019282611ea85760008555611eef565b82601f10611ec157805160ff1916838001178555611eef565b82800160010185558215611eef579182015b82811115611eee578251825591602001919060010190611ed3565b5b509050611efc9190611f50565b5090565b6040518060c0016040528060008152602001600073ffffffffffffffffffffffffffffffffffffffff16815260200160008152602001600015158152602001600015158152602001600081525090565b5b80821115611f69576000816000905550600101611f51565b5090565b6000611f80611f7b84612c8a565b612c59565b905082815260208101848484011115611f9857600080fd5b611fa3848285612e60565b509392505050565b600081359050611fba81612fea565b92915050565b600081359050611fcf81613001565b92915050565b600082601f830112611fe657600080fd5b8135611ff6848260208601611f6d565b91505092915050565b60008135905061200e81613018565b92915050565b60006020828403121561202657600080fd5b600061203484828501611fab565b91505092915050565b600080600080600060a0868803121561205557600080fd5b600086013567ffffffffffffffff81111561206f57600080fd5b61207b88828901611fd5565b955050602086013567ffffffffffffffff81111561209857600080fd5b6120a488828901611fd5565b94505060406120b588828901611fff565b93505060606120c688828901611fff565b92505060806120d788828901611fff565b9150509295509295909350565b600080604083850312156120f757600080fd5b600083013567ffffffffffffffff81111561211157600080fd5b61211d85828601611fd5565b925050602061212e85828601611fff565b9150509250929050565b60006020828403121561214a57600080fd5b600061215884828501611fff565b91505092915050565b60008060006060848603121561217657600080fd5b600061218486828701611fff565b935050602061219586828701611fc0565b92505060406121a686828701611fff565b9150509250925092565b60006121bc83836126e9565b905092915050565b60006121d083836127a0565b60c08301905092915050565b6121e581612e18565b82525050565b6121f481612e18565b82525050565b600061220582612cda565b61220f8185612d15565b93508360208202850161222185612cba565b8060005b8581101561225d578484038952815161223e85826121b0565b945061224983612cfb565b925060208a01995050600181019050612225565b50829750879550505050505092915050565b600061227a82612ce5565b6122848185612d26565b935061228f83612cca565b8060005b838110156122c05781516122a788826121c4565b97506122b283612d08565b925050600181019050612293565b5085935050505092915050565b6122d681612e2a565b82525050565b6122e581612e2a565b82525050565b60006122f682612cf0565b6123008185612d37565b9350612310818560208601612e6f565b61231981612fd9565b840191505092915050565b600061232f82612cf0565b6123398185612d48565b9350612349818560208601612e6f565b61235281612fd9565b840191505092915050565b600061236a601983612d48565b91507f5265717565737420616c726561647920617070726f7665642e000000000000006000830152602082019050919050565b60006123aa601783612d48565b91507f496e76616c696420696e737572616e636520706c616e2e0000000000000000006000830152602082019050919050565b60006123ea601883612d48565b91507f437573746f6d6572206e6f7420726567697374657265642e00000000000000006000830152602082019050919050565b600061242a601783612d48565b91507f5265717565737420646f6573206e6f742065786973742e0000000000000000006000830152602082019050919050565b600061246a601983612d48565b91507f496e636f7272656374207072656d69756d20616d6f756e742e000000000000006000830152602082019050919050565b60006124aa600b83612d48565b91507f4f6e6c792061646d696e2e0000000000000000000000000000000000000000006000830152602082019050919050565b60006124ea601983612d48565b91507f4e6f742061207265676973746572656420636f6d70616e792e000000000000006000830152602082019050919050565b600061252a600f83612d48565b91507f4e6f7420617574686f72697a65642e00000000000000000000000000000000006000830152602082019050919050565b600061256a601583612d48565b91507f52657175657374206e6f7420617070726f7665642e00000000000000000000006000830152602082019050919050565b60006125aa600d83612d48565b91507f496e76616c696420706c616e2e000000000000000000000000000000000000006000830152602082019050919050565b60006125ea601683612d48565b91507f436c61696d20616c726561647920736574746c65642e000000000000000000006000830152602082019050919050565b600061262a602383612d48565b91507f4f6e6c792074686520636f6d70616e792063616e20736574746c6520636c616960008301527f6d732e00000000000000000000000000000000000000000000000000000000006020830152604082019050919050565b6000612690602783612d48565b91507f4f6e6c792074686520636f6d70616e792063616e206576616c7561746520726560008301527f7175657374732e000000000000000000000000000000000000000000000000006020830152604082019050919050565b600061010083016000830151612702600086018261281b565b506020830151612715602086018261281b565b506040830151848203604086015261272d82826122eb565b9150506060830151848203606086015261274782826122eb565b915050608083015161275c608086018261281b565b5060a083015161276f60a086018261281b565b5060c083015161278260c086018261281b565b5060e083015161279560e08601826122cd565b508091505092915050565b60c0820160008201516127b6600085018261281b565b5060208201516127c960208501826121dc565b5060408201516127dc604085018261281b565b5060608201516127ef60608501826122cd565b50608082015161280260808501826122cd565b5060a082015161281560a085018261281b565b50505050565b61282481612e56565b82525050565b61283381612e56565b82525050565b600060208201905061284e60008301846121eb565b92915050565b600060408201905061286960008301856121eb565b612876602083018461282a565b9392505050565b6000602082019050818103600083015261289781846121fa565b905092915050565b600060208201905081810360008301526128b9818461226f565b905092915050565b60006020820190506128d660008301846122dc565b92915050565b600060208201905081810360008301526128f58161235d565b9050919050565b600060208201905081810360008301526129158161239d565b9050919050565b60006020820190508181036000830152612935816123dd565b9050919050565b600060208201905081810360008301526129558161241d565b9050919050565b600060208201905081810360008301526129758161245d565b9050919050565b600060208201905081810360008301526129958161249d565b9050919050565b600060208201905081810360008301526129b5816124dd565b9050919050565b600060208201905081810360008301526129d58161251d565b9050919050565b600060208201905081810360008301526129f58161255d565b9050919050565b60006020820190508181036000830152612a158161259d565b9050919050565b60006020820190508181036000830152612a35816125dd565b9050919050565b60006020820190508181036000830152612a558161261d565b9050919050565b60006020820190508181036000830152612a7581612683565b9050919050565b6000602082019050612a91600083018461282a565b92915050565b6000608082019050612aac600083018761282a565b612ab960208301866121eb565b8181036040830152612acb8185612324565b9050612ada606083018461282a565b95945050505050565b6000606082019050612af8600083018661282a565b612b0560208301856121eb565b612b12604083018461282a565b949350505050565b600060c082019050612b2f600083018961282a565b612b3c60208301886121eb565b612b49604083018761282a565b612b5660608301866122dc565b612b6360808301856122dc565b612b7060a083018461282a565b979650505050505050565b6000604082019050612b90600083018561282a565b612b9d60208301846122dc565b9392505050565b6000604082019050612bb9600083018561282a565b612bc6602083018461282a565b9392505050565b600061010082019050612be3600083018b61282a565b612bf0602083018a61282a565b8181036040830152612c028189612324565b90508181036060830152612c168188612324565b9050612c25608083018761282a565b612c3260a083018661282a565b612c3f60c083018561282a565b612c4c60e08301846122dc565b9998505050505050505050565b6000604051905081810181811067ffffffffffffffff82111715612c8057612c7f612faa565b5b8060405250919050565b600067ffffffffffffffff821115612ca557612ca4612faa565b5b601f19601f8301169050602081019050919050565b6000819050602082019050919050565b6000819050602082019050919050565b600081519050919050565b600081519050919050565b600081519050919050565b6000602082019050919050565b6000602082019050919050565b600082825260208201905092915050565b600082825260208201905092915050565b600082825260208201905092915050565b600082825260208201905092915050565b6000612d6482612e56565b9150612d6f83612e56565b925082612d7f57612d7e612f4c565b5b828204905092915050565b6000612d9582612e56565b9150612da083612e56565b9250817fffffffffffffffffffffffffffffffffffffffffffffffffffffffffffffffff0483118215151615612dd957612dd8612f1d565b5b828202905092915050565b6000612def82612e56565b9150612dfa83612e56565b925082821015612e0d57612e0c612f1d565b5b828203905092915050565b6000612e2382612e36565b9050919050565b60008115159050919050565b600073ffffffffffffffffffffffffffffffffffffffff82169050919050565b6000819050919050565b82818337600083830152505050565b60005b83811015612e8d578082015181840152602081019050612e72565b83811115612e9c576000848401525b50505050565b60006002820490506001821680612eba57607f821691505b60208210811415612ece57612ecd612f7b565b5b50919050565b6000612edf82612e56565b91507fffffffffffffffffffffffffffffffffffffffffffffffffffffffffffffffff821415612f1257612f11612f1d565b5b600182019050919050565b7f4e487b7100000000000000000000000000000000000000000000000000000000600052601160045260246000fd5b7f4e487b7100000000000000000000000000000000000000000000000000000000600052601260045260246000fd5b7f4e487b7100000000000000000000000000000000000000000000000000000000600052602260045260246000fd5b7f4e487b7100000000000000000000000000000000000000000000000000000000600052604160045260246000fd5b6000601f19601f8301169050919050565b612ff381612e18565b8114612ffe57600080fd5b50565b61300a81612e2a565b811461301557600080fd5b50565b61302181612e56565b811461302c57600080fd5b5056fea26469706673582212200ff08842ee2d4daaa817bacf95919a81f0d9af9669612168df88e7dd3e9f71c364736f6c63430008000033",
  "linkReferences": {},
  "deployedLinkReferences": {}
}