{
  "_format": "hh-sol-artifact-1",
  "contractName": "DecentralizedInsurance",
  "sourceName": "contracts/functions.sol",
  "abi": [
    {
      "inputs": [],
      "stateMutability": "nonpayable",
      "type": "constructor"
    },
    {
      "anonymous": false,
      "inputs": [
        {
          "indexed": false,
          "internalType": "address",
          "name": "customer",
          "type": "address"
        },
        {
          "indexed": false,
          "internalType": "uint256",
          "name": "rate",
          "type": "uint256"
        }
      ],
      "name": "CustomerRegistered",
      "type": "event"
    },
    {
      "anonymous": false,
      "inputs": [
        {
          "indexed": false,
          "internalType": "uint256",
          "name": "planId",
          "type": "uint256"
        },
        {
          "indexed": false,
          "internalType": "uint256",
          "name": "companyId",
          "type": "uint256"
        }
      ],
      "name": "PlanCreated",
      "type": "event"
    },
    {
      "anonymous": false,
      "inputs": [
        {
          "indexed": false,
          "internalType": "uint256",
          "name": "planId",
          "type": "uint256"
        },
        {
          "indexed": false,
          "internalType": "address",
          "name": "customer",
          "type": "address"
        },
        {
          "indexed": false,
          "internalType": "uint256",
          "name": "amount",
          "type": "uint256"
        }
      ],
      "name": "PremiumPaid",
      "type": "event"
    },
    {
      "anonymous": false,
      "inputs": [
        {
          "indexed": false,
          "internalType": "uint256",
          "name": "requestId",
          "type": "uint256"
        },
        {
          "indexed": false,
          "internalType": "bool",
          "name": "isApproved",
          "type": "bool"
        }
      ],
      "name": "RequestResponded",
      "type": "event"
    },
    {
      "anonymous": false,
      "inputs": [
        {
          "indexed": false,
          "internalType": "uint256",
          "name": "requestId",
          "type": "uint256"
        },
        {
          "indexed": false,
          "internalType": "address",
          "name": "customer",
          "type": "address"
        },
        {
          "indexed": false,
          "internalType": "uint256",
          "name": "planId",
          "type": "uint256"
        }
      ],
      "name": "RequestSubmitted",
      "type": "event"
    },
    {
      "inputs": [
        {
          "internalType": "uint256",
          "name": "_requestId",
          "type": "uint256"
        },
        {
          "internalType": "bool",
          "name": "_approve",
          "type": "bool"
        }
      ],
      "name": "Request_decision_By_Company",
      "outputs": [],
      "stateMutability": "nonpayable",
      "type": "function"
    },
    {
      "inputs": [
        {
          "internalType": "uint256",
          "name": "_requestId",
          "type": "uint256"
        }
      ],
      "name": "acceptOffer",
      "outputs": [],
      "stateMutability": "nonpayable",
      "type": "function"
    },
    {
      "inputs": [],
      "name": "admin",
      "outputs": [
        {
          "internalType": "address",
          "name": "",
          "type": "address"
        }
      ],
      "stateMutability": "view",
      "type": "function"
    },
    {
      "inputs": [
        {
          "internalType": "uint256",
          "name": "_companyId",
          "type": "uint256"
        }
      ],
      "name": "banCompany",
      "outputs": [],
      "stateMutability": "nonpayable",
      "type": "function"
    },
    {
      "inputs": [
        {
          "internalType": "string",
          "name": "",
          "type": "string"
        }
      ],
      "name": "bannedCompanyNames",
      "outputs": [
        {
          "internalType": "bool",
          "name": "",
          "type": "bool"
        }
      ],
      "stateMutability": "view",
      "type": "function"
    },
    {
      "inputs": [
        {
          "internalType": "uint256",
          "name": "_planId",
          "type": "uint256"
        },
        {
          "internalType": "bool",
          "name": "_status",
          "type": "bool"
        }
      ],
      "name": "changePlanStatus",
      "outputs": [],
      "stateMutability": "nonpayable",
      "type": "function"
    },
    {
      "inputs": [
        {
          "internalType": "uint256",
          "name": "",
          "type": "uint256"
        }
      ],
      "name": "companies",
      "outputs": [
        {
          "internalType": "uint256",
          "name": "id",
          "type": "uint256"
        },
        {
          "internalType": "address",
          "name": "addr",
          "type": "address"
        },
        {
          "internalType": "string",
          "name": "name",
          "type": "string"
        },
        {
          "internalType": "uint256",
          "name": "customer_rating",
          "type": "uint256"
        },
        {
          "internalType": "bool",
          "name": "isActive",
          "type": "bool"
        }
      ],
      "stateMutability": "view",
      "type": "function"
    },
    {
      "inputs": [
        {
          "internalType": "address",
          "name": "",
          "type": "address"
        }
      ],
      "name": "companyIds",
      "outputs": [
        {
          "internalType": "uint256",
          "name": "",
          "type": "uint256"
        }
      ],
      "stateMutability": "view",
      "type": "function"
    },
    {
      "inputs": [
        {
          "internalType": "string",
          "name": "_name",
          "type": "string"
        },
        {
          "internalType": "string",
          "name": "_description",
          "type": "string"
        },
        {
          "internalType": "uint256",
          "name": "_premium",
          "type": "uint256"
        },
        {
          "internalType": "uint256",
          "name": "_coverageAmount",
          "type": "uint256"
        },
        {
          "internalType": "uint256",
          "name": "_duration",
          "type": "uint256"
        }
      ],
      "name": "createPlan",
      "outputs": [],
      "stateMutability": "nonpayable",
      "type": "function"
    },
    {
      "inputs": [
        {
          "internalType": "string",
          "name": "",
          "type": "string"
        }
      ],
      "name": "customers",
      "outputs": [
        {
          "internalType": "address",
          "name": "addr",
          "type": "address"
        },
        {
          "internalType": "string",
          "name": "name",
          "type": "string"
        },
        {
          "internalType": "uint256",
          "name": "rate",
          "type": "uint256"
        },
        {
          "internalType": "bool",
          "name": "isRegistered",
          "type": "bool"
        }
      ],
      "stateMutability": "view",
      "type": "function"
    },
    {
      "inputs": [
        {
          "internalType": "uint256",
          "name": "_requestId",
          "type": "uint256"
        }
      ],
      "name": "denyOffer",
      "outputs": [],
      "stateMutability": "nonpayable",
      "type": "function"
    },
    {
      "inputs": [
        {
          "internalType": "string",
          "name": "_name",
          "type": "string"
        }
      ],
      "name": "getCustomer",
      "outputs": [
        {
          "components": [
            {
              "internalType": "address",
              "name": "addr",
              "type": "address"
            },
            {
              "internalType": "string",
              "name": "name",
              "type": "string"
            },
            {
              "internalType": "uint256",
              "name": "rate",
              "type": "uint256"
            },
            {
              "internalType": "bool",
              "name": "isRegistered",
              "type": "bool"
            }
          ],
          "internalType": "struct DecentralizedInsurance.Customer",
          "name": "",
          "type": "tuple"
        }
      ],
      "stateMutability": "view",
      "type": "function"
    },
    {
      "inputs": [
        {
          "internalType": "uint256",
          "name": "",
          "type": "uint256"
        }
      ],
      "name": "insurancePlans",
      "outputs": [
        {
          "internalType": "uint256",
          "name": "id",
          "type": "uint256"
        },
        {
          "internalType": "uint256",
          "name": "companyId",
          "type": "uint256"
        },
        {
          "internalType": "string",
          "name": "name",
          "type": "string"
        },
        {
          "internalType": "string",
          "name": "description",
          "type": "string"
        },
        {
          "internalType": "uint256",
          "name": "premium",
          "type": "uint256"
        },
        {
          "internalType": "uint256",
          "name": "coverageAmount",
          "type": "uint256"
        },
        {
          "internalType": "uint256",
          "name": "duration",
          "type": "uint256"
        },
        {
          "internalType": "bool",
          "name": "isActive",
          "type": "bool"
        }
      ],
      "stateMutability": "view",
      "type": "function"
    },
    {
      "inputs": [],
      "name": "listBannedCompanies",
      "outputs": [
        {
          "internalType": "string[]",
          "name": "",
          "type": "string[]"
        }
      ],
      "stateMutability": "view",
      "type": "function"
    },
    {
      "inputs": [],
      "name": "nextCompanyId",
      "outputs": [
        {
          "internalType": "uint256",
          "name": "",
          "type": "uint256"
        }
      ],
      "stateMutability": "view",
      "type": "function"
    },
    {
      "inputs": [
        {
          "internalType": "uint256",
          "name": "_planId",
          "type": "uint256"
        }
      ],
      "name": "payPremium",
      "outputs": [],
      "stateMutability": "payable",
      "type": "function"
    },
    {
      "inputs": [
        {
          "internalType": "string",
          "name": "_name",
          "type": "string"
        },
        {
          "internalType": "uint256",
          "name": "_rate",
          "type": "uint256"
        }
      ],
      "name": "registerCompany",
      "outputs": [],
      "stateMutability": "nonpayable",
      "type": "function"
    },
    {
      "inputs": [
        {
          "internalType": "string",
          "name": "_name",
          "type": "string"
        },
        {
          "internalType": "uint256",
          "name": "_rate",
          "type": "uint256"
        }
      ],
      "name": "registerCustomer",
      "outputs": [],
      "stateMutability": "nonpayable",
      "type": "function"
    },
    {
      "inputs": [
        {
          "internalType": "uint256",
          "name": "",
          "type": "uint256"
        }
      ],
      "name": "requests",
      "outputs": [
        {
          "internalType": "uint256",
          "name": "id",
          "type": "uint256"
        },
        {
          "internalType": "address",
          "name": "customer",
          "type": "address"
        },
        {
          "internalType": "uint256",
          "name": "planId",
          "type": "uint256"
        },
        {
          "internalType": "bool",
          "name": "Company_Approved",
          "type": "bool"
        },
        {
          "internalType": "bool",
          "name": "Customer_Approved",
          "type": "bool"
        },
        {
          "internalType": "int256",
          "name": "isActive",
          "type": "int256"
        },
        {
          "internalType": "bool",
          "name": "isClaimed",
          "type": "bool"
        },
        {
          "internalType": "uint256",
          "name": "claimAmount",
          "type": "uint256"
        }
      ],
      "stateMutability": "view",
      "type": "function"
    },
    {
      "inputs": [
        {
          "internalType": "uint256",
          "name": "_fee",
          "type": "uint256"
        }
      ],
      "name": "setPlatformFee",
      "outputs": [],
      "stateMutability": "nonpayable",
      "type": "function"
    },
    {
      "inputs": [
        {
          "internalType": "string",
          "name": "name_",
          "type": "string"
        },
        {
          "internalType": "uint256",
          "name": "_planId",
          "type": "uint256"
        }
      ],
      "name": "submitRequest",
      "outputs": [],
      "stateMutability": "nonpayable",
      "type": "function"
    },
    {
      "inputs": [
        {
          "internalType": "string",
          "name": "_name",
          "type": "string"
        }
      ],
      "name": "unbanCompany",
      "outputs": [],
      "stateMutability": "nonpayable",
      "type": "function"
    },
    {
      "inputs": [],
      "name": "viewPlans",
      "outputs": [
        {
          "components": [
            {
              "internalType": "uint256",
              "name": "id",
              "type": "uint256"
            },
            {
              "internalType": "uint256",
              "name": "companyId",
              "type": "uint256"
            },
            {
              "internalType": "string",
              "name": "name",
              "type": "string"
            },
            {
              "internalType": "string",
              "name": "description",
              "type": "string"
            },
            {
              "internalType": "uint256",
              "name": "premium",
              "type": "uint256"
            },
            {
              "internalType": "uint256",
              "name": "coverageAmount",
              "type": "uint256"
            },
            {
              "internalType": "uint256",
              "name": "duration",
              "type": "uint256"
            },
            {
              "internalType": "bool",
              "name": "isActive",
              "type": "bool"
            }
          ],
          "internalType": "struct DecentralizedInsurance.InsurancePlan[]",
          "name": "",
          "type": "tuple[]"
        }
      ],
      "stateMutability": "view",
      "type": "function"
    },
    {
      "inputs": [],
      "name": "viewRequests",
      "outputs": [
        {
          "components": [
            {
              "internalType": "uint256",
              "name": "id",
              "type": "uint256"
            },
            {
              "internalType": "address",
              "name": "customer",
              "type": "address"
            },
            {
              "internalType": "uint256",
              "name": "planId",
              "type": "uint256"
            },
            {
              "internalType": "bool",
              "name": "Company_Approved",
              "type": "bool"
            },
            {
              "internalType": "bool",
              "name": "Customer_Approved",
              "type": "bool"
            },
            {
              "internalType": "int256",
              "name": "isActive",
              "type": "int256"
            },
            {
              "internalType": "bool",
              "name": "isClaimed",
              "type": "bool"
            },
            {
              "internalType": "uint256",
              "name": "claimAmount",
              "type": "uint256"
            }
          ],
          "internalType": "struct DecentralizedInsurance.Request[]",
          "name": "",
          "type": "tuple[]"
        }
      ],
      "stateMutability": "view",
      "type": "function"
    }
  ],
  "bytecode": "0x608060405260056000556001600355600160045534801561001f57600080fd5b5033600160006101000a81548173ffffffffffffffffffffffffffffffffffffffff021916908373ffffffffffffffffffffffffffffffffffffffff160217905550600160028190555061455f806100786000396000f3fe60806040526004361061014b5760003560e01c806381d12c58116100b6578063d448ee4c1161006f578063d448ee4c1461049d578063d8d3c829146104da578063e5584ed714610505578063ec1b70661461052e578063f851a44014610572578063ffc8cf8f1461059d5761014b565b806381d12c581461035f5780639f242f22146103a3578063a82c98d0146103e0578063b11e63d414610420578063b5cb71a81461044b578063c815729d146104745761014b565b80635170c1aa116101085780635170c1aa14610253578063518bddd91461027c578063521e686d146102b95780635bffa51d146102e45780635d8e63971461030d5780637746dfa9146103365761014b565b806312e8e2c3146101505780631714ae63146101795780632813d19d146101a25780634364b26e146101e357806343d4c370146101ff57806348e9807f14610228575b600080fd5b34801561015c57600080fd5b5061017760048036038101906101729190612ff1565b6105c6565b005b34801561018557600080fd5b506101a0600480360381019061019b9190612f9d565b610660565b005b3480156101ae57600080fd5b506101c960048036038101906101c49190612ff1565b6107f5565b6040516101da959493929190613f03565b60405180910390f35b6101fd60048036038101906101f89190612ff1565b6108e0565b005b34801561020b57600080fd5b506102266004803603810190610221919061301a565b610b8b565b005b34801561023457600080fd5b5061023d610ddc565b60405161024a9190613bc7565b60405180910390f35b34801561025f57600080fd5b5061027a60048036038101906102759190612f9d565b6110a4565b005b34801561028857600080fd5b506102a3600480360381019061029e9190612eb5565b6113bd565b6040516102b09190613ec6565b60405180910390f35b3480156102c557600080fd5b506102ce61153f565b6040516102db9190613be9565b60405180910390f35b3480156102f057600080fd5b5061030b60048036038101906103069190612ff1565b611857565b005b34801561031957600080fd5b50610334600480360381019061032f919061301a565b611a30565b005b34801561034257600080fd5b5061035d60048036038101906103589190612ff1565b611c90565b005b34801561036b57600080fd5b5061038660048036038101906103819190612ff1565b611e6d565b60405161039a989796959493929190613f94565b60405180910390f35b3480156103af57600080fd5b506103ca60048036038101906103c59190612e8c565b611efc565b6040516103d79190613ee8565b60405180910390f35b3480156103ec57600080fd5b5061040760048036038101906104029190612eb5565b611f14565b6040516104179493929190613b30565b60405180910390f35b34801561042c57600080fd5b5061043561200f565b6040516104429190613ba5565b60405180910390f35b34801561045757600080fd5b50610472600480360381019061046d9190612f9d565b61226b565b005b34801561048057600080fd5b5061049b60048036038101906104969190612ff1565b6124d9565b005b3480156104a957600080fd5b506104c460048036038101906104bf9190612eb5565b6126b4565b6040516104d19190613c0b565b60405180910390f35b3480156104e657600080fd5b506104ef6126ea565b6040516104fc9190613ee8565b60405180910390f35b34801561051157600080fd5b5061052c60048036038101906105279190612ef6565b6126f0565b005b34801561053a57600080fd5b5061055560048036038101906105509190612ff1565b612999565b604051610569989796959493929190614064565b60405180910390f35b34801561057e57600080fd5b50610587612afe565b6040516105949190613b15565b60405180910390f35b3480156105a957600080fd5b506105c460048036038101906105bf9190612eb5565b612b24565b005b600160009054906101000a900473ffffffffffffffffffffffffffffffffffffffff1673ffffffffffffffffffffffffffffffffffffffff163373ffffffffffffffffffffffffffffffffffffffff1614610656576040517f08c379a000000000000000000000000000000000000000000000000000000000815260040161064d90613ce6565b60405180910390fd5b8060008190555050565b6009826040516106709190613ae7565b908152602001604051809103902060030160009054906101000a900460ff16156106cf576040517f08c379a00000000000000000000000000000000000000000000000000000000081526004016106c690613da6565b60405180910390fd5b60405180608001604052803373ffffffffffffffffffffffffffffffffffffffff168152602001838152602001828152602001600115158152506009836040516107199190613ae7565b908152602001604051809103902060008201518160000160006101000a81548173ffffffffffffffffffffffffffffffffffffffff021916908373ffffffffffffffffffffffffffffffffffffffff160217905550602082015181600101908051906020019061078a929190612c5a565b506040820151816002015560608201518160030160006101000a81548160ff0219169083151502179055509050507f3e2e23ad95ac9d48f62299dd498880d0e69059ed54888b0b71031dc2615f9a6033826040516107e9929190613b7c565b60405180910390a15050565b60076020528060005260406000206000915090508060000154908060010160009054906101000a900473ffffffffffffffffffffffffffffffffffffffff16908060020180546108449061439c565b80601f01602080910402602001604051908101604052809291908181526020018280546108709061439c565b80156108bd5780601f10610892576101008083540402835291602001916108bd565b820191906000526020600020905b8154815290600101906020018083116108a057829003601f168201915b5050505050908060030154908060040160009054906101000a900460ff16905085565b60006005600083815260200190815260200160002090508060070160009054906101000a900460ff16610948576040517f08c379a000000000000000000000000000000000000000000000000000000000815260040161093f90613de6565b60405180910390fd5b8060040154341461098e576040517f08c379a000000000000000000000000000000000000000000000000000000000815260040161098590613cc6565b60405180910390fd5b600073ffffffffffffffffffffffffffffffffffffffff16600760008360010154815260200190815260200160002060010160009054906101000a900473ffffffffffffffffffffffffffffffffffffffff1673ffffffffffffffffffffffffffffffffffffffff161415610a38576040517f08c379a0000000000000000000000000000000000000000000000000000000008152600401610a2f90613e06565b60405180910390fd5b6000606460005434610a4a919061427a565b610a549190614249565b9050600760008360010154815260200190815260200160002060010160009054906101000a900473ffffffffffffffffffffffffffffffffffffffff1673ffffffffffffffffffffffffffffffffffffffff166108fc8234610ab691906142d4565b9081150290604051600060405180830381858888f19350505050158015610ae1573d6000803e3d6000fd5b50600160009054906101000a900473ffffffffffffffffffffffffffffffffffffffff1673ffffffffffffffffffffffffffffffffffffffff166108fc829081150290604051600060405180830381858888f19350505050158015610b4a573d6000803e3d6000fd5b507ffbf1458fbbddabb878de144276216e8ccda619cbac2d598e6ee37ff72173afb1833334604051610b7e93929190613f5d565b60405180910390a1505050565b60006006600084815260200190815260200160002090506000600860003373ffffffffffffffffffffffffffffffffffffffff1673ffffffffffffffffffffffffffffffffffffffff1681526020019081526020016000205490508060056000600660008881526020019081526020016000206002015481526020019081526020016000206001015414610c54576040517f08c379a0000000000000000000000000000000000000000000000000000000008152600401610c4b90613ea6565b60405180910390fd5b6000600660008681526020019081526020016000206004015414610cad576040517f08c379a0000000000000000000000000000000000000000000000000000000008152600401610ca490613d66565b60405180910390fd5b600a60076000838152602001908152602001600020600201604051610cd29190613afe565b908152602001604051809103902060009054906101000a900460ff1615610d2e576040517f08c379a0000000000000000000000000000000000000000000000000000000008152600401610d2590613e66565b60405180910390fd5b8215610d565760018260030160006101000a81548160ff021916908315150217905550610d9d565b60008260030160006101000a81548160ff0219169083151502179055507fffffffffffffffffffffffffffffffffffffffffffffffffffffffffffffffff82600401819055505b7f5925f6070dba9d3c5caa9c961d661ea0c1772d7f95af99d278fe9e5b4e53caba8484604051610dce929190614012565b60405180910390a150505050565b606060006001600354610def91906142d4565b67ffffffffffffffff811115610e2e577f4e487b7100000000000000000000000000000000000000000000000000000000600052604160045260246000fd5b604051908082528060200260200182016040528015610e6757816020015b610e54612ce0565b815260200190600190039081610e4c5790505b509050600080600190505b60035481101561109b576005600082815260200190815260200160002060070160009054906101000a900460ff16156110885760056000828152602001908152602001600020604051806101000160405290816000820154815260200160018201548152602001600282018054610ee89061439c565b80601f0160208091040260200160405190810160405280929190818152602001828054610f149061439c565b8015610f615780601f10610f3657610100808354040283529160200191610f61565b820191906000526020600020905b815481529060010190602001808311610f4457829003601f168201915b50505050508152602001600382018054610f7a9061439c565b80601f0160208091040260200160405190810160405280929190818152602001828054610fa69061439c565b8015610ff35780601f10610fc857610100808354040283529160200191610ff3565b820191906000526020600020905b815481529060010190602001808311610fd657829003601f168201915b505050505081526020016004820154815260200160058201548152602001600682015481526020016007820160009054906101000a900460ff16151515158152505083838151811061106e577f4e487b7100000000000000000000000000000000000000000000000000000000600052603260045260246000fd5b60200260200101819052508180611084906143ce565b9250505b8080611093906143ce565b915050610e72565b50819250505090565b600160009054906101000a900473ffffffffffffffffffffffffffffffffffffffff1673ffffffffffffffffffffffffffffffffffffffff163373ffffffffffffffffffffffffffffffffffffffff1614611134576040517f08c379a000000000000000000000000000000000000000000000000000000000815260040161112b90613ce6565b60405180910390fd5b600a826040516111449190613ae7565b908152602001604051809103902060009054906101000a900460ff16156111a0576040517f08c379a000000000000000000000000000000000000000000000000000000000815260040161119790613e26565b60405180910390fd5b6000600190505b60025481101561126857826040516020016111c29190613ae7565b60405160208183030381529060405280519060200120600760008381526020019081526020016000206002016040516020016111fe9190613afe565b604051602081830303815290604052805190602001201415611255576040517f08c379a000000000000000000000000000000000000000000000000000000000815260040161124c90613e46565b60405180910390fd5b8080611260906143ce565b9150506111a7565b506040518060a0016040528060025481526020013373ffffffffffffffffffffffffffffffffffffffff168152602001838152602001828152602001600115158152506007600060025481526020019081526020016000206000820151816000015560208201518160010160006101000a81548173ffffffffffffffffffffffffffffffffffffffff021916908373ffffffffffffffffffffffffffffffffffffffff160217905550604082015181600201908051906020019061132d929190612c5a565b506060820151816003015560808201518160040160006101000a81548160ff021916908315150217905550905050600254600860003373ffffffffffffffffffffffffffffffffffffffff1673ffffffffffffffffffffffffffffffffffffffff16815260200190815260200160002081905550600260008154809291906113b4906143ce565b91905055505050565b6113c5612d27565b6009826040516113d59190613ae7565b908152602001604051809103902060030160009054906101000a900460ff16611433576040517f08c379a000000000000000000000000000000000000000000000000000000000815260040161142a90613c66565b60405180910390fd5b6009826040516114439190613ae7565b908152602001604051809103902060000160009054906101000a900473ffffffffffffffffffffffffffffffffffffffff1673ffffffffffffffffffffffffffffffffffffffff163373ffffffffffffffffffffffffffffffffffffffff1614806114fb5750600160009054906101000a900473ffffffffffffffffffffffffffffffffffffffff1673ffffffffffffffffffffffffffffffffffffffff163373ffffffffffffffffffffffffffffffffffffffff16145b61153a576040517f08c379a000000000000000000000000000000000000000000000000000000000815260040161153190613e86565b60405180910390fd5b919050565b6060600080600860003373ffffffffffffffffffffffffffffffffffffffff1673ffffffffffffffffffffffffffffffffffffffff1681526020019081526020016000205490506000600190505b6004548110156116105760006006600083815260200190815260200160002060020154141580156115e9575081600560006006600085815260200190815260200160002060020154815260200190815260200160002060010154145b156115fd5782806115f9906143ce565b9350505b8080611608906143ce565b91505061158d565b5060008267ffffffffffffffff811115611653577f4e487b7100000000000000000000000000000000000000000000000000000000600052604160045260246000fd5b60405190808252806020026020018201604052801561168c57816020015b611679612d67565b8152602001906001900390816116715790505b509050600080600190505b60045481101561184c5760006006600083815260200190815260200160002060020154141580156116f3575083600560006006600085815260200190815260200160002060020154815260200190815260200160002060010154145b15611839576006600082815260200190815260200160002060405180610100016040529081600082015481526020016001820160009054906101000a900473ffffffffffffffffffffffffffffffffffffffff1673ffffffffffffffffffffffffffffffffffffffff1673ffffffffffffffffffffffffffffffffffffffff168152602001600282015481526020016003820160009054906101000a900460ff161515151581526020016003820160019054906101000a900460ff16151515158152602001600482015481526020016005820160009054906101000a900460ff1615151515815260200160068201548152505083838151811061181f577f4e487b7100000000000000000000000000000000000000000000000000000000600052603260045260246000fd5b60200260200101819052508180611835906143ce565b9250505b8080611844906143ce565b915050611697565b508194505050505090565b600160009054906101000a900473ffffffffffffffffffffffffffffffffffffffff1673ffffffffffffffffffffffffffffffffffffffff163373ffffffffffffffffffffffffffffffffffffffff16146118e7576040517f08c379a00000000000000000000000000000000000000000000000000000000081526004016118de90613ce6565b60405180910390fd5b600060076000838152602001908152602001600020600201805461190a9061439c565b80601f01602080910402602001604051908101604052809291908181526020018280546119369061439c565b80156119835780601f1061195857610100808354040283529160200191611983565b820191906000526020600020905b81548152906001019060200180831161196657829003601f168201915b5050505050905060006007600084815260200190815260200160002060010160009054906101000a900473ffffffffffffffffffffffffffffffffffffffff1690506001600a836040516119d79190613ae7565b908152602001604051809103902060006101000a81548160ff02191690831515021790555060006007600085815260200190815260200160002060040160006101000a81548160ff021916908315150217905550505050565b6000600860003373ffffffffffffffffffffffffffffffffffffffff1673ffffffffffffffffffffffffffffffffffffffff168152602001908152602001600020549050600073ffffffffffffffffffffffffffffffffffffffff166007600083815260200190815260200160002060010160009054906101000a900473ffffffffffffffffffffffffffffffffffffffff1673ffffffffffffffffffffffffffffffffffffffff161415611b1a576040517f08c379a0000000000000000000000000000000000000000000000000000000008152600401611b1190613d06565b60405180910390fd5b80600560008581526020019081526020016000206001015414611b72576040517f08c379a0000000000000000000000000000000000000000000000000000000008152600401611b6990613d46565b60405180910390fd5b8115156005600085815260200190815260200160002060070160009054906101000a900460ff1615151415611bdc576040517f08c379a0000000000000000000000000000000000000000000000000000000008152600401611bd390613c46565b60405180910390fd5b600a60076000838152602001908152602001600020600201604051611c019190613afe565b908152602001604051809103902060009054906101000a900460ff1615611c5d576040517f08c379a0000000000000000000000000000000000000000000000000000000008152600401611c5490613e66565b60405180910390fd5b816005600085815260200190815260200160002060070160006101000a81548160ff021916908315150217905550505050565b60006006600083815260200190815260200160002090503373ffffffffffffffffffffffffffffffffffffffff168160010160009054906101000a900473ffffffffffffffffffffffffffffffffffffffff1673ffffffffffffffffffffffffffffffffffffffff1614611d39576040517f08c379a0000000000000000000000000000000000000000000000000000000008152600401611d3090613d46565b60405180910390fd5b6000816004015414611d80576040517f08c379a0000000000000000000000000000000000000000000000000000000008152600401611d7790613d66565b60405180910390fd5b8060030160019054906101000a900460ff1615611dd2576040517f08c379a0000000000000000000000000000000000000000000000000000000008152600401611dc990613c26565b60405180910390fd5b8060030160009054906101000a900460ff16611e23576040517f08c379a0000000000000000000000000000000000000000000000000000000008152600401611e1a90613d86565b60405180910390fd5b60008160030160016101000a81548160ff0219169083151502179055507fffffffffffffffffffffffffffffffffffffffffffffffffffffffffffffffff81600401819055505050565b60066020528060005260406000206000915090508060000154908060010160009054906101000a900473ffffffffffffffffffffffffffffffffffffffff16908060020154908060030160009054906101000a900460ff16908060030160019054906101000a900460ff16908060040154908060050160009054906101000a900460ff16908060060154905088565b60086020528060005260406000206000915090505481565b6009818051602081018201805184825260208301602085012081835280955050505050506000915090508060000160009054906101000a900473ffffffffffffffffffffffffffffffffffffffff1690806001018054611f739061439c565b80601f0160208091040260200160405190810160405280929190818152602001828054611f9f9061439c565b8015611fec5780601f10611fc157610100808354040283529160200191611fec565b820191906000526020600020905b815481529060010190602001808311611fcf57829003601f168201915b5050505050908060020154908060030160009054906101000a900460ff16905084565b6060600080600190505b60025481101561208b57600a600760008381526020019081526020016000206002016040516120489190613afe565b908152602001604051809103902060009054906101000a900460ff1615612078578180612074906143ce565b9250505b8080612083906143ce565b915050612019565b5060008167ffffffffffffffff8111156120ce577f4e487b7100000000000000000000000000000000000000000000000000000000600052604160045260246000fd5b60405190808252806020026020018201604052801561210157816020015b60608152602001906001900390816120ec5790505b509050600080600190505b60025481101561226157600a6007600083815260200190815260200160002060020160405161213b9190613afe565b908152602001604051809103902060009054906101000a900460ff161561224e5760076000828152602001908152602001600020600201805461217d9061439c565b80601f01602080910402602001604051908101604052809291908181526020018280546121a99061439c565b80156121f65780601f106121cb576101008083540402835291602001916121f6565b820191906000526020600020905b8154815290600101906020018083116121d957829003601f168201915b5050505050838381518110612234577f4e487b7100000000000000000000000000000000000000000000000000000000600052603260045260246000fd5b6020026020010181905250818061224a906143ce565b9250505b8080612259906143ce565b91505061210c565b5081935050505090565b60098260405161227b9190613ae7565b908152602001604051809103902060030160009054906101000a900460ff166122d9576040517f08c379a00000000000000000000000000000000000000000000000000000000081526004016122d090613ca6565b60405180910390fd5b6005600082815260200190815260200160002060070160009054906101000a900460ff1661233c576040517f08c379a000000000000000000000000000000000000000000000000000000000815260040161233390613c86565b60405180910390fd5b60405180610100016040528060045481526020013373ffffffffffffffffffffffffffffffffffffffff1681526020018281526020016000151581526020016000151581526020016000815260200160001515815260200160008152506006600060045481526020019081526020016000206000820151816000015560208201518160010160006101000a81548173ffffffffffffffffffffffffffffffffffffffff021916908373ffffffffffffffffffffffffffffffffffffffff1602179055506040820151816002015560608201518160030160006101000a81548160ff02191690831515021790555060808201518160030160016101000a81548160ff02191690831515021790555060a0820151816004015560c08201518160050160006101000a81548160ff02191690831515021790555060e082015181600601559050507fded47fe1c7f7878a21a47327b3f5172551c245be83ba771fe716cdbe1bf55c7a60045433836040516124b593929190613f5d565b60405180910390a1600460008154809291906124d0906143ce565b91905055505050565b60006006600083815260200190815260200160002090503373ffffffffffffffffffffffffffffffffffffffff168160010160009054906101000a900473ffffffffffffffffffffffffffffffffffffffff1673ffffffffffffffffffffffffffffffffffffffff1614612582576040517f08c379a000000000000000000000000000000000000000000000000000000000815260040161257990613d46565b60405180910390fd5b60008160040154146125c9576040517f08c379a00000000000000000000000000000000000000000000000000000000081526004016125c090613d66565b60405180910390fd5b8060030160009054906101000a900460ff1661261a576040517f08c379a000000000000000000000000000000000000000000000000000000000815260040161261190613d86565b60405180910390fd5b8060050160009054906101000a900460ff161561266c576040517f08c379a000000000000000000000000000000000000000000000000000000000815260040161266390613dc6565b60405180910390fd5b60018160050160006101000a81548160ff02191690831515021790555060018160030160016101000a81548160ff021916908315150217905550600181600401819055505050565b600a818051602081018201805184825260208301602085012081835280955050505050506000915054906101000a900460ff1681565b60025481565b6000600860003373ffffffffffffffffffffffffffffffffffffffff1673ffffffffffffffffffffffffffffffffffffffff168152602001908152602001600020549050600073ffffffffffffffffffffffffffffffffffffffff166007600083815260200190815260200160002060010160009054906101000a900473ffffffffffffffffffffffffffffffffffffffff1673ffffffffffffffffffffffffffffffffffffffff1614156127da576040517f08c379a00000000000000000000000000000000000000000000000000000000081526004016127d190613d06565b60405180910390fd5b600a600760008381526020019081526020016000206002016040516127ff9190613afe565b908152602001604051809103902060009054906101000a900460ff161561285b576040517f08c379a000000000000000000000000000000000000000000000000000000000815260040161285290613e66565b60405180910390fd5b604051806101000160405280600354815260200182815260200187815260200186815260200185815260200184815260200183815260200160011515815250600560006003548152602001908152602001600020600082015181600001556020820151816001015560408201518160020190805190602001906128df929190612c5a565b5060608201518160030190805190602001906128fc929190612c5a565b506080820151816004015560a0820151816005015560c0820151816006015560e08201518160070160006101000a81548160ff0219169083151502179055509050507f5fac4c43830252b9984ca8bf915ae2a0774180c35c5472120325c1961e45b62b6003548260405161297192919061403b565b60405180910390a16003600081548092919061298c906143ce565b9190505550505050505050565b60056020528060005260406000206000915090508060000154908060010154908060020180546129c89061439c565b80601f01602080910402602001604051908101604052809291908181526020018280546129f49061439c565b8015612a415780601f10612a1657610100808354040283529160200191612a41565b820191906000526020600020905b815481529060010190602001808311612a2457829003601f168201915b505050505090806003018054612a569061439c565b80601f0160208091040260200160405190810160405280929190818152602001828054612a829061439c565b8015612acf5780601f10612aa457610100808354040283529160200191612acf565b820191906000526020600020905b815481529060010190602001808311612ab257829003601f168201915b5050505050908060040154908060050154908060060154908060070160009054906101000a900460ff16905088565b600160009054906101000a900473ffffffffffffffffffffffffffffffffffffffff1681565b600160009054906101000a900473ffffffffffffffffffffffffffffffffffffffff1673ffffffffffffffffffffffffffffffffffffffff163373ffffffffffffffffffffffffffffffffffffffff1614612bb4576040517f08c379a0000000000000000000000000000000000000000000000000000000008152600401612bab90613ce6565b60405180910390fd5b600a81604051612bc49190613ae7565b908152602001604051809103902060009054906101000a900460ff1615612c20576040517f08c379a0000000000000000000000000000000000000000000000000000000008152600401612c1790613d26565b60405180910390fd5b6000600a82604051612c329190613ae7565b908152602001604051809103902060006101000a81548160ff02191690831515021790555050565b828054612c669061439c565b90600052602060002090601f016020900481019282612c885760008555612ccf565b82601f10612ca157805160ff1916838001178555612ccf565b82800160010185558215612ccf579182015b82811115612cce578251825591602001919060010190612cb3565b5b509050612cdc9190612dc8565b5090565b604051806101000160405280600081526020016000815260200160608152602001606081526020016000815260200160008152602001600081526020016000151581525090565b6040518060800160405280600073ffffffffffffffffffffffffffffffffffffffff16815260200160608152602001600081526020016000151581525090565b60405180610100016040528060008152602001600073ffffffffffffffffffffffffffffffffffffffff1681526020016000815260200160001515815260200160001515815260200160008152602001600015158152602001600081525090565b5b80821115612de1576000816000905550600101612dc9565b5090565b6000612df8612df384614121565b6140f0565b905082815260208101848484011115612e1057600080fd5b612e1b84828561435a565b509392505050565b600081359050612e32816144e4565b92915050565b600081359050612e47816144fb565b92915050565b600082601f830112612e5e57600080fd5b8135612e6e848260208601612de5565b91505092915050565b600081359050612e8681614512565b92915050565b600060208284031215612e9e57600080fd5b6000612eac84828501612e23565b91505092915050565b600060208284031215612ec757600080fd5b600082013567ffffffffffffffff811115612ee157600080fd5b612eed84828501612e4d565b91505092915050565b600080600080600060a08688031215612f0e57600080fd5b600086013567ffffffffffffffff811115612f2857600080fd5b612f3488828901612e4d565b955050602086013567ffffffffffffffff811115612f5157600080fd5b612f5d88828901612e4d565b9450506040612f6e88828901612e77565b9350506060612f7f88828901612e77565b9250506080612f9088828901612e77565b9150509295509295909350565b60008060408385031215612fb057600080fd5b600083013567ffffffffffffffff811115612fca57600080fd5b612fd685828601612e4d565b9250506020612fe785828601612e77565b9150509250929050565b60006020828403121561300357600080fd5b600061301184828501612e77565b91505092915050565b6000806040838503121561302d57600080fd5b600061303b85828601612e77565b925050602061304c85828601612e38565b9150509250929050565b60006130628383613239565b905092915050565b60006130768383613970565b905092915050565b600061308a8383613a27565b6101008301905092915050565b6130a081614308565b82525050565b6130af81614308565b82525050565b60006130c082614196565b6130ca81856141e9565b9350836020820285016130dc85614151565b8060005b8581101561311857848403895281516130f98582613056565b9450613104836141c2565b925060208a019950506001810190506130e0565b50829750879550505050505092915050565b6000613135826141a1565b61313f81856141fa565b93508360208202850161315185614161565b8060005b8581101561318d578484038952815161316e858261306a565b9450613179836141cf565b925060208a01995050600181019050613155565b50829750879550505050505092915050565b60006131aa826141ac565b6131b4818561420b565b93506131bf83614171565b8060005b838110156131f05781516131d7888261307e565b97506131e2836141dc565b9250506001810190506131c3565b5085935050505092915050565b6132068161431a565b82525050565b6132158161431a565b82525050565b61322481614326565b82525050565b61323381614326565b82525050565b6000613244826141b7565b61324e818561421c565b935061325e818560208601614369565b613267816144d3565b840191505092915050565b600061327d826141b7565b613287818561422d565b9350613297818560208601614369565b6132a0816144d3565b840191505092915050565b60006132b6826141b7565b6132c0818561423e565b93506132d0818560208601614369565b80840191505092915050565b600081546132e98161439c565b6132f3818661423e565b9450600182166000811461330e576001811461331f57613352565b60ff19831686528186019350613352565b61332885614181565b60005b8381101561334a5781548189015260018201915060208101905061332b565b838801955050505b50505092915050565b600061336860198361422d565b91507f5265717565737420616c726561647920617070726f7665642e000000000000006000830152602082019050919050565b60006133a860148361422d565b91507f4e6f206368616e676520696e207374617475732e0000000000000000000000006000830152602082019050919050565b60006133e8601b8361422d565b91507f437573746f6d6572206973206e6f7420726567697374657265642e00000000006000830152602082019050919050565b600061342860178361422d565b91507f496e76616c696420696e737572616e636520706c616e2e0000000000000000006000830152602082019050919050565b600061346860188361422d565b91507f437573746f6d6572206e6f7420726567697374657265642e00000000000000006000830152602082019050919050565b60006134a860198361422d565b91507f496e636f7272656374207072656d69756d20616d6f756e742e000000000000006000830152602082019050919050565b60006134e8600b8361422d565b91507f4f6e6c792061646d696e2e0000000000000000000000000000000000000000006000830152602082019050919050565b600061352860198361422d565b91507f4e6f742061207265676973746572656420636f6d70616e792e000000000000006000830152602082019050919050565b600061356860168361422d565b91507f436f6d70616e79206973206e6f742062616e6e65642e000000000000000000006000830152602082019050919050565b60006135a8600f8361422d565b91507f4e6f7420617574686f72697a65642e00000000000000000000000000000000006000830152602082019050919050565b60006135e860388361422d565b91507f526571756573742069732065697468657220617070726f766564206f7220646560008301527f636c696e65642e20526573756c742069732066696e616c2e00000000000000006020830152604082019050919050565b600061364e60188361422d565b91507f52657175657374206973206e6f7420617070726f7665642e00000000000000006000830152602082019050919050565b600061368e601c8361422d565b91507f437573746f6d657220616c726561647920726567697374657265642e000000006000830152602082019050919050565b60006136ce60188361422d565b91507f5265717565737420616c726561647920636c61696d65642e00000000000000006000830152602082019050919050565b600061370e600d8361422d565b91507f496e76616c696420706c616e2e000000000000000000000000000000000000006000830152602082019050919050565b600061374e60108361422d565b91507f496e76616c696420636f6d70616e792e000000000000000000000000000000006000830152602082019050919050565b600061378e60178361422d565b91507f436f6d70616e79206e616d652069732062616e6e65642e0000000000000000006000830152602082019050919050565b60006137ce60208361422d565b91507f436f6d70616e79206e616d6520616c726561647920726567697374657265642e6000830152602082019050919050565b600061380e60128361422d565b91507f436f6d70616e792069732062616e6e65642e00000000000000000000000000006000830152602082019050919050565b600061384e60288361422d565b91507f4e6f7420617574686f72697a656420746f207669657720637573746f6d65722060008301527f64657461696c732e0000000000000000000000000000000000000000000000006020830152604082019050919050565b60006138b460278361422d565b91507f4f6e6c792074686520636f6d70616e792063616e206576616c7561746520726560008301527f7175657374732e000000000000000000000000000000000000000000000000006020830152604082019050919050565b60006080830160008301516139256000860182613097565b506020830151848203602086015261393d8282613239565b91505060408301516139526040860182613ac9565b50606083015161396560608601826131fd565b508091505092915050565b6000610100830160008301516139896000860182613ac9565b50602083015161399c6020860182613ac9565b50604083015184820360408601526139b48282613239565b915050606083015184820360608601526139ce8282613239565b91505060808301516139e36080860182613ac9565b5060a08301516139f660a0860182613ac9565b5060c0830151613a0960c0860182613ac9565b5060e0830151613a1c60e08601826131fd565b508091505092915050565b61010082016000820151613a3e6000850182613ac9565b506020820151613a516020850182613097565b506040820151613a646040850182613ac9565b506060820151613a7760608501826131fd565b506080820151613a8a60808501826131fd565b5060a0820151613a9d60a085018261321b565b5060c0820151613ab060c08501826131fd565b5060e0820151613ac360e0850182613ac9565b50505050565b613ad281614350565b82525050565b613ae181614350565b82525050565b6000613af382846132ab565b915081905092915050565b6000613b0a82846132dc565b915081905092915050565b6000602082019050613b2a60008301846130a6565b92915050565b6000608082019050613b4560008301876130a6565b8181036020830152613b578186613272565b9050613b666040830185613ad8565b613b73606083018461320c565b95945050505050565b6000604082019050613b9160008301856130a6565b613b9e6020830184613ad8565b9392505050565b60006020820190508181036000830152613bbf81846130b5565b905092915050565b60006020820190508181036000830152613be1818461312a565b905092915050565b60006020820190508181036000830152613c03818461319f565b905092915050565b6000602082019050613c20600083018461320c565b92915050565b60006020820190508181036000830152613c3f8161335b565b9050919050565b60006020820190508181036000830152613c5f8161339b565b9050919050565b60006020820190508181036000830152613c7f816133db565b9050919050565b60006020820190508181036000830152613c9f8161341b565b9050919050565b60006020820190508181036000830152613cbf8161345b565b9050919050565b60006020820190508181036000830152613cdf8161349b565b9050919050565b60006020820190508181036000830152613cff816134db565b9050919050565b60006020820190508181036000830152613d1f8161351b565b9050919050565b60006020820190508181036000830152613d3f8161355b565b9050919050565b60006020820190508181036000830152613d5f8161359b565b9050919050565b60006020820190508181036000830152613d7f816135db565b9050919050565b60006020820190508181036000830152613d9f81613641565b9050919050565b60006020820190508181036000830152613dbf81613681565b9050919050565b60006020820190508181036000830152613ddf816136c1565b9050919050565b60006020820190508181036000830152613dff81613701565b9050919050565b60006020820190508181036000830152613e1f81613741565b9050919050565b60006020820190508181036000830152613e3f81613781565b9050919050565b60006020820190508181036000830152613e5f816137c1565b9050919050565b60006020820190508181036000830152613e7f81613801565b9050919050565b60006020820190508181036000830152613e9f81613841565b9050919050565b60006020820190508181036000830152613ebf816138a7565b9050919050565b60006020820190508181036000830152613ee0818461390d565b905092915050565b6000602082019050613efd6000830184613ad8565b92915050565b600060a082019050613f186000830188613ad8565b613f2560208301876130a6565b8181036040830152613f378186613272565b9050613f466060830185613ad8565b613f53608083018461320c565b9695505050505050565b6000606082019050613f726000830186613ad8565b613f7f60208301856130a6565b613f8c6040830184613ad8565b949350505050565b600061010082019050613faa600083018b613ad8565b613fb7602083018a6130a6565b613fc46040830189613ad8565b613fd1606083018861320c565b613fde608083018761320c565b613feb60a083018661322a565b613ff860c083018561320c565b61400560e0830184613ad8565b9998505050505050505050565b60006040820190506140276000830185613ad8565b614034602083018461320c565b9392505050565b60006040820190506140506000830185613ad8565b61405d6020830184613ad8565b9392505050565b60006101008201905061407a600083018b613ad8565b614087602083018a613ad8565b81810360408301526140998189613272565b905081810360608301526140ad8188613272565b90506140bc6080830187613ad8565b6140c960a0830186613ad8565b6140d660c0830185613ad8565b6140e360e083018461320c565b9998505050505050505050565b6000604051905081810181811067ffffffffffffffff82111715614117576141166144a4565b5b8060405250919050565b600067ffffffffffffffff82111561413c5761413b6144a4565b5b601f19601f8301169050602081019050919050565b6000819050602082019050919050565b6000819050602082019050919050565b6000819050602082019050919050565b60008190508160005260206000209050919050565b600081519050919050565b600081519050919050565b600081519050919050565b600081519050919050565b6000602082019050919050565b6000602082019050919050565b6000602082019050919050565b600082825260208201905092915050565b600082825260208201905092915050565b600082825260208201905092915050565b600082825260208201905092915050565b600082825260208201905092915050565b600081905092915050565b600061425482614350565b915061425f83614350565b92508261426f5761426e614446565b5b828204905092915050565b600061428582614350565b915061429083614350565b9250817fffffffffffffffffffffffffffffffffffffffffffffffffffffffffffffffff04831182151516156142c9576142c8614417565b5b828202905092915050565b60006142df82614350565b91506142ea83614350565b9250828210156142fd576142fc614417565b5b828203905092915050565b600061431382614330565b9050919050565b60008115159050919050565b6000819050919050565b600073ffffffffffffffffffffffffffffffffffffffff82169050919050565b6000819050919050565b82818337600083830152505050565b60005b8381101561438757808201518184015260208101905061436c565b83811115614396576000848401525b50505050565b600060028204905060018216806143b457607f821691505b602082108114156143c8576143c7614475565b5b50919050565b60006143d982614350565b91507fffffffffffffffffffffffffffffffffffffffffffffffffffffffffffffffff82141561440c5761440b614417565b5b600182019050919050565b7f4e487b7100000000000000000000000000000000000000000000000000000000600052601160045260246000fd5b7f4e487b7100000000000000000000000000000000000000000000000000000000600052601260045260246000fd5b7f4e487b7100000000000000000000000000000000000000000000000000000000600052602260045260246000fd5b7f4e487b7100000000000000000000000000000000000000000000000000000000600052604160045260246000fd5b6000601f19601f8301169050919050565b6144ed81614308565b81146144f857600080fd5b50565b6145048161431a565b811461450f57600080fd5b50565b61451b81614350565b811461452657600080fd5b5056fea2646970667358221220185c1b5a751a61c6cbb9d775d8aab6200861f03af963631aace186bb0882224e64736f6c63430008000033",
  "linkReferences": {},
  "deployedLinkReferences": {}
}